{
	"IDO.sol": {
		"IDO": {
			"abi": [
				{
					"inputs": [
						{
							"internalType": "address",
							"name": "_token",
							"type": "address"
						},
						{
							"internalType": "uint256",
							"name": "_startTime",
							"type": "uint256"
						},
						{
							"internalType": "uint256",
							"name": "_endTime",
							"type": "uint256"
						},
						{
							"internalType": "uint256",
							"name": "_tokenRate",
							"type": "uint256"
						},
						{
							"internalType": "uint256",
							"name": "_totalRewardTokens",
							"type": "uint256"
						}
					],
					"stateMutability": "nonpayable",
					"type": "constructor"
				},
				{
					"anonymous": false,
					"inputs": [
						{
							"indexed": true,
							"internalType": "address",
							"name": "previousOwner",
							"type": "address"
						},
						{
							"indexed": true,
							"internalType": "address",
							"name": "newOwner",
							"type": "address"
						}
					],
					"name": "OwnershipTransferred",
					"type": "event"
				},
				{
					"inputs": [],
					"name": "buyTokens",
					"outputs": [],
					"stateMutability": "payable",
					"type": "function"
				},
				{
					"inputs": [
						{
							"internalType": "uint256",
							"name": "_acceptedAmount",
							"type": "uint256"
						}
					],
					"name": "calculateAmount",
					"outputs": [
						{
							"internalType": "uint256",
							"name": "",
							"type": "uint256"
						}
					],
					"stateMutability": "view",
					"type": "function"
				},
				{
					"inputs": [],
					"name": "endTime",
					"outputs": [
						{
							"internalType": "uint256",
							"name": "",
							"type": "uint256"
						}
					],
					"stateMutability": "view",
					"type": "function"
				},
				{
					"inputs": [],
					"name": "getRemainingReward",
					"outputs": [
						{
							"internalType": "uint256",
							"name": "",
							"type": "uint256"
						}
					],
					"stateMutability": "view",
					"type": "function"
				},
				{
					"inputs": [
						{
							"internalType": "uint256",
							"name": "_tokens",
							"type": "uint256"
						}
					],
					"name": "getTokenInETH",
					"outputs": [
						{
							"internalType": "uint256",
							"name": "",
							"type": "uint256"
						}
					],
					"stateMutability": "view",
					"type": "function"
				},
				{
					"inputs": [],
					"name": "isActive",
					"outputs": [
						{
							"internalType": "bool",
							"name": "",
							"type": "bool"
						}
					],
					"stateMutability": "view",
					"type": "function"
				},
				{
					"inputs": [],
					"name": "owner",
					"outputs": [
						{
							"internalType": "address",
							"name": "",
							"type": "address"
						}
					],
					"stateMutability": "view",
					"type": "function"
				},
				{
					"inputs": [],
					"name": "renounceOwnership",
					"outputs": [],
					"stateMutability": "nonpayable",
					"type": "function"
				},
				{
					"inputs": [],
					"name": "soldAmount",
					"outputs": [
						{
							"internalType": "uint256",
							"name": "",
							"type": "uint256"
						}
					],
					"stateMutability": "view",
					"type": "function"
				},
				{
					"inputs": [],
					"name": "startTime",
					"outputs": [
						{
							"internalType": "uint256",
							"name": "",
							"type": "uint256"
						}
					],
					"stateMutability": "view",
					"type": "function"
				},
				{
					"inputs": [],
					"name": "token",
					"outputs": [
						{
							"internalType": "address",
							"name": "",
							"type": "address"
						}
					],
					"stateMutability": "view",
					"type": "function"
				},
				{
					"inputs": [],
					"name": "tokenDecimal",
					"outputs": [
						{
							"internalType": "uint256",
							"name": "",
							"type": "uint256"
						}
					],
					"stateMutability": "view",
					"type": "function"
				},
				{
					"inputs": [],
					"name": "tokenRate",
					"outputs": [
						{
							"internalType": "uint256",
							"name": "",
							"type": "uint256"
						}
					],
					"stateMutability": "view",
					"type": "function"
				},
				{
					"inputs": [],
					"name": "totalRaise",
					"outputs": [
						{
							"internalType": "uint256",
							"name": "",
							"type": "uint256"
						}
					],
					"stateMutability": "view",
					"type": "function"
				},
				{
					"inputs": [],
					"name": "totalRewardTokens",
					"outputs": [
						{
							"internalType": "uint256",
							"name": "",
							"type": "uint256"
						}
					],
					"stateMutability": "view",
					"type": "function"
				},
				{
					"inputs": [
						{
							"internalType": "address",
							"name": "newOwner",
							"type": "address"
						}
					],
					"name": "transferOwnership",
					"outputs": [],
					"stateMutability": "nonpayable",
					"type": "function"
				}
			],
			"devdoc": {
				"kind": "dev",
				"methods": {
					"owner()": {
						"details": "Returns the address of the current owner."
					},
					"renounceOwnership()": {
						"details": "Leaves the contract without owner. It will not be possible to call `onlyOwner` functions anymore. Can only be called by the current owner. NOTE: Renouncing ownership will leave the contract without an owner, thereby removing any functionality that is only available to the owner."
					},
					"transferOwnership(address)": {
						"details": "Transfers ownership of the contract to a new account (`newOwner`). Can only be called by the current owner."
					}
				},
				"version": 1
			},
			"evm": {
				"assembly": "    /* \"IDO.sol\":5428:7859  contract IDO is Ownable {\r... */\n  mstore(0x40, 0x80)\n    /* \"IDO.sol\":6012:6524  constructor (address _token, uint256 _startTime, uint256 _endTime, uint256 _tokenRate, uint256 _totalRewardTokens){\r... */\n  callvalue\n  dup1\n  iszero\n  tag_1\n  jumpi\n  0x00\n  dup1\n  revert\ntag_1:\n  pop\n  mload(0x40)\n  sub(codesize, bytecodeSize)\n  dup1\n  bytecodeSize\n  dup4\n  codecopy\n  dup2\n  dup2\n  add\n  0x40\n  mstore\n  dup2\n  add\n  swap1\n  tag_2\n  swap2\n  swap1\n  tag_3\n  jump\t// in\ntag_2:\n    /* \"IDO.sol\":981:998  address msgSender */\n  0x00\n    /* \"IDO.sol\":1001:1013  _msgSender() */\n  tag_7\n    /* \"IDO.sol\":1001:1011  _msgSender */\n  shl(0x20, tag_8)\n    /* \"IDO.sol\":1001:1013  _msgSender() */\n  0x20\n  shr\n  jump\t// in\ntag_7:\n    /* \"IDO.sol\":981:1013  address msgSender = _msgSender() */\n  swap1\n  pop\n    /* \"IDO.sol\":1033:1042  msgSender */\n  dup1\n    /* \"IDO.sol\":1024:1030  _owner */\n  0x00\n  dup1\n    /* \"IDO.sol\":1024:1042  _owner = msgSender */\n  0x0100\n  exp\n  dup2\n  sload\n  dup2\n  0xffffffffffffffffffffffffffffffffffffffff\n  mul\n  not\n  and\n  swap1\n  dup4\n  0xffffffffffffffffffffffffffffffffffffffff\n  and\n  mul\n  or\n  swap1\n  sstore\n  pop\n    /* \"IDO.sol\":1091:1100  msgSender */\n  dup1\n    /* \"IDO.sol\":1058:1101  OwnershipTransferred(address(0), msgSender) */\n  0xffffffffffffffffffffffffffffffffffffffff\n  and\n    /* \"IDO.sol\":1087:1088  0 */\n  0x00\n    /* \"IDO.sol\":1058:1101  OwnershipTransferred(address(0), msgSender) */\n  0xffffffffffffffffffffffffffffffffffffffff\n  and\n  0x8be0079c531659141344cd1fd0a4f28419497f9722a3daafe3b4186f6b6457e0\n  mload(0x40)\n  mload(0x40)\n  dup1\n  swap2\n  sub\n  swap1\n  log3\n    /* \"IDO.sol\":955:1109  constructor () {\r... */\n  pop\n    /* \"IDO.sol\":6173:6174  0 */\n  0x00\n    /* \"IDO.sol\":6152:6158  _token */\n  dup6\n    /* \"IDO.sol\":6145:6168  IERC20(_token).decimals */\n  0xffffffffffffffffffffffffffffffffffffffff\n  and\n  0x313ce567\n    /* \"IDO.sol\":6145:6170  IERC20(_token).decimals() */\n  mload(0x40)\n  dup2\n  0xffffffff\n  and\n  0xe0\n  shl\n  dup2\n  mstore\n  0x04\n  add\n  0x20\n  mload(0x40)\n  dup1\n  dup4\n  sub\n  dup2\n  dup7\n  dup1\n  extcodesize\n  iszero\n  dup1\n  iszero\n  tag_10\n  jumpi\n  0x00\n  dup1\n  revert\ntag_10:\n  pop\n  gas\n  staticcall\n  iszero\n  dup1\n  iszero\n  tag_12\n  jumpi\n  returndatasize\n  0x00\n  dup1\n  returndatacopy\n  revert(0x00, returndatasize)\ntag_12:\n  pop\n  pop\n  pop\n  pop\n  mload(0x40)\n  returndatasize\n  not(0x1f)\n  0x1f\n  dup3\n  add\n  and\n  dup3\n  add\n  dup1\n  0x40\n  mstore\n  pop\n  dup2\n  add\n  swap1\n  tag_13\n  swap2\n  swap1\n  tag_14\n  jump\t// in\ntag_13:\n    /* \"IDO.sol\":6145:6174  IERC20(_token).decimals() > 0 */\n  0xff\n  and\n  gt\n    /* \"IDO.sol\":6137:6175  require(IERC20(_token).decimals() > 0) */\n  tag_15\n  jumpi\n  0x00\n  dup1\n  revert\ntag_15:\n    /* \"IDO.sol\":6207:6215  _endTime */\n  dup3\n    /* \"IDO.sol\":6194:6204  _startTime */\n  dup5\n    /* \"IDO.sol\":6194:6215  _startTime < _endTime */\n  lt\n    /* \"IDO.sol\":6186:6216  require(_startTime < _endTime) */\n  tag_16\n  jumpi\n  0x00\n  dup1\n  revert\ntag_16:\n    /* \"IDO.sol\":6248:6249  0 */\n  0x00\n    /* \"IDO.sol\":6235:6245  _tokenRate */\n  dup3\n    /* \"IDO.sol\":6235:6249  _tokenRate > 0 */\n  gt\n    /* \"IDO.sol\":6227:6250  require(_tokenRate > 0) */\n  tag_17\n  jumpi\n  0x00\n  dup1\n  revert\ntag_17:\n    /* \"IDO.sol\":6290:6291  0 */\n  0x00\n    /* \"IDO.sol\":6269:6287  _totalRewardTokens */\n  dup2\n    /* \"IDO.sol\":6269:6291  _totalRewardTokens > 0 */\n  gt\n    /* \"IDO.sol\":6261:6292  require(_totalRewardTokens > 0) */\n  tag_18\n  jumpi\n  0x00\n  dup1\n  revert\ntag_18:\n    /* \"IDO.sol\":6313:6319  _token */\n  dup5\n    /* \"IDO.sol\":6305:6310  token */\n  0x01\n  0x00\n    /* \"IDO.sol\":6305:6319  token = _token */\n  0x0100\n  exp\n  dup2\n  sload\n  dup2\n  0xffffffffffffffffffffffffffffffffffffffff\n  mul\n  not\n  and\n  swap1\n  dup4\n  0xffffffffffffffffffffffffffffffffffffffff\n  and\n  mul\n  or\n  swap1\n  sstore\n  pop\n    /* \"IDO.sol\":6352:6358  _token */\n  dup5\n    /* \"IDO.sol\":6345:6368  IERC20(_token).decimals */\n  0xffffffffffffffffffffffffffffffffffffffff\n  and\n  0x313ce567\n    /* \"IDO.sol\":6345:6370  IERC20(_token).decimals() */\n  mload(0x40)\n  dup2\n  0xffffffff\n  and\n  0xe0\n  shl\n  dup2\n  mstore\n  0x04\n  add\n  0x20\n  mload(0x40)\n  dup1\n  dup4\n  sub\n  dup2\n  dup7\n  dup1\n  extcodesize\n  iszero\n  dup1\n  iszero\n  tag_19\n  jumpi\n  0x00\n  dup1\n  revert\ntag_19:\n  pop\n  gas\n  staticcall\n  iszero\n  dup1\n  iszero\n  tag_21\n  jumpi\n  returndatasize\n  0x00\n  dup1\n  returndatacopy\n  revert(0x00, returndatasize)\ntag_21:\n  pop\n  pop\n  pop\n  pop\n  mload(0x40)\n  returndatasize\n  not(0x1f)\n  0x1f\n  dup3\n  add\n  and\n  dup3\n  add\n  dup1\n  0x40\n  mstore\n  pop\n  dup2\n  add\n  swap1\n  tag_22\n  swap2\n  swap1\n  tag_14\n  jump\t// in\ntag_22:\n    /* \"IDO.sol\":6330:6370  tokenDecimal = IERC20(_token).decimals() */\n  0xff\n  and\n    /* \"IDO.sol\":6330:6342  tokenDecimal */\n  0x02\n    /* \"IDO.sol\":6330:6370  tokenDecimal = IERC20(_token).decimals() */\n  dup2\n  swap1\n  sstore\n  pop\n    /* \"IDO.sol\":6395:6405  _startTime */\n  dup4\n    /* \"IDO.sol\":6383:6392  startTime */\n  0x03\n    /* \"IDO.sol\":6383:6405  startTime = _startTime */\n  dup2\n  swap1\n  sstore\n  pop\n    /* \"IDO.sol\":6426:6434  _endTime */\n  dup3\n    /* \"IDO.sol\":6416:6423  endTime */\n  0x04\n    /* \"IDO.sol\":6416:6434  endTime = _endTime */\n  dup2\n  swap1\n  sstore\n  pop\n    /* \"IDO.sol\":6457:6467  _tokenRate */\n  dup2\n    /* \"IDO.sol\":6445:6454  tokenRate */\n  0x05\n    /* \"IDO.sol\":6445:6467  tokenRate = _tokenRate */\n  dup2\n  swap1\n  sstore\n  pop\n    /* \"IDO.sol\":6498:6516  _totalRewardTokens */\n  dup1\n    /* \"IDO.sol\":6478:6495  totalRewardTokens */\n  0x08\n    /* \"IDO.sol\":6478:6516  totalRewardTokens = _totalRewardTokens */\n  dup2\n  swap1\n  sstore\n  pop\n    /* \"IDO.sol\":6012:6524  constructor (address _token, uint256 _startTime, uint256 _endTime, uint256 _tokenRate, uint256 _totalRewardTokens){\r... */\n  pop\n  pop\n  pop\n  pop\n  pop\n    /* \"IDO.sol\":5428:7859  contract IDO is Ownable {\r... */\n  jump(tag_23)\n    /* \"IDO.sol\":735:850  function _msgSender() internal view virtual returns (address payable) {\r... */\ntag_8:\n    /* \"IDO.sol\":788:803  address payable */\n  0x00\n    /* \"IDO.sol\":831:841  msg.sender */\n  caller\n    /* \"IDO.sol\":816:842  return payable(msg.sender) */\n  swap1\n  pop\n    /* \"IDO.sol\":735:850  function _msgSender() internal view virtual returns (address payable) {\r... */\n  swap1\n  jump\t// out\n    /* \"#utility.yul\":7:150   */\ntag_26:\n  0x00\n    /* \"#utility.yul\":95:101   */\n  dup2\n    /* \"#utility.yul\":89:102   */\n  mload\n    /* \"#utility.yul\":80:102   */\n  swap1\n  pop\n    /* \"#utility.yul\":111:144   */\n  tag_28\n    /* \"#utility.yul\":138:143   */\n  dup2\n    /* \"#utility.yul\":111:144   */\n  tag_29\n  jump\t// in\ntag_28:\n    /* \"#utility.yul\":70:150   */\n  swap3\n  swap2\n  pop\n  pop\n  jump\t// out\n    /* \"#utility.yul\":156:299   */\ntag_30:\n  0x00\n    /* \"#utility.yul\":244:250   */\n  dup2\n    /* \"#utility.yul\":238:251   */\n  mload\n    /* \"#utility.yul\":229:251   */\n  swap1\n  pop\n    /* \"#utility.yul\":260:293   */\n  tag_32\n    /* \"#utility.yul\":287:292   */\n  dup2\n    /* \"#utility.yul\":260:293   */\n  tag_33\n  jump\t// in\ntag_32:\n    /* \"#utility.yul\":219:299   */\n  swap3\n  swap2\n  pop\n  pop\n  jump\t// out\n    /* \"#utility.yul\":305:444   */\ntag_34:\n  0x00\n    /* \"#utility.yul\":391:397   */\n  dup2\n    /* \"#utility.yul\":385:398   */\n  mload\n    /* \"#utility.yul\":376:398   */\n  swap1\n  pop\n    /* \"#utility.yul\":407:438   */\n  tag_36\n    /* \"#utility.yul\":432:437   */\n  dup2\n    /* \"#utility.yul\":407:438   */\n  tag_37\n  jump\t// in\ntag_36:\n    /* \"#utility.yul\":366:444   */\n  swap3\n  swap2\n  pop\n  pop\n  jump\t// out\n    /* \"#utility.yul\":450:1360   */\ntag_3:\n  0x00\n  dup1\n  0x00\n  dup1\n  0x00\n    /* \"#utility.yul\":637:640   */\n  0xa0\n    /* \"#utility.yul\":625:634   */\n  dup7\n    /* \"#utility.yul\":616:623   */\n  dup9\n    /* \"#utility.yul\":612:635   */\n  sub\n    /* \"#utility.yul\":608:641   */\n  slt\n    /* \"#utility.yul\":605:607   */\n  iszero\n  tag_39\n  jumpi\n    /* \"#utility.yul\":654:655   */\n  0x00\n    /* \"#utility.yul\":651:652   */\n  dup1\n    /* \"#utility.yul\":644:656   */\n  revert\n    /* \"#utility.yul\":605:607   */\ntag_39:\n    /* \"#utility.yul\":697:698   */\n  0x00\n    /* \"#utility.yul\":722:786   */\n  tag_40\n    /* \"#utility.yul\":778:785   */\n  dup9\n    /* \"#utility.yul\":769:775   */\n  dup3\n    /* \"#utility.yul\":758:767   */\n  dup10\n    /* \"#utility.yul\":754:776   */\n  add\n    /* \"#utility.yul\":722:786   */\n  tag_26\n  jump\t// in\ntag_40:\n    /* \"#utility.yul\":712:786   */\n  swap6\n  pop\n    /* \"#utility.yul\":668:796   */\n  pop\n    /* \"#utility.yul\":835:837   */\n  0x20\n    /* \"#utility.yul\":861:925   */\n  tag_41\n    /* \"#utility.yul\":917:924   */\n  dup9\n    /* \"#utility.yul\":908:914   */\n  dup3\n    /* \"#utility.yul\":897:906   */\n  dup10\n    /* \"#utility.yul\":893:915   */\n  add\n    /* \"#utility.yul\":861:925   */\n  tag_30\n  jump\t// in\ntag_41:\n    /* \"#utility.yul\":851:925   */\n  swap5\n  pop\n    /* \"#utility.yul\":806:935   */\n  pop\n    /* \"#utility.yul\":974:976   */\n  0x40\n    /* \"#utility.yul\":1000:1064   */\n  tag_42\n    /* \"#utility.yul\":1056:1063   */\n  dup9\n    /* \"#utility.yul\":1047:1053   */\n  dup3\n    /* \"#utility.yul\":1036:1045   */\n  dup10\n    /* \"#utility.yul\":1032:1054   */\n  add\n    /* \"#utility.yul\":1000:1064   */\n  tag_30\n  jump\t// in\ntag_42:\n    /* \"#utility.yul\":990:1064   */\n  swap4\n  pop\n    /* \"#utility.yul\":945:1074   */\n  pop\n    /* \"#utility.yul\":1113:1115   */\n  0x60\n    /* \"#utility.yul\":1139:1203   */\n  tag_43\n    /* \"#utility.yul\":1195:1202   */\n  dup9\n    /* \"#utility.yul\":1186:1192   */\n  dup3\n    /* \"#utility.yul\":1175:1184   */\n  dup10\n    /* \"#utility.yul\":1171:1193   */\n  add\n    /* \"#utility.yul\":1139:1203   */\n  tag_30\n  jump\t// in\ntag_43:\n    /* \"#utility.yul\":1129:1203   */\n  swap3\n  pop\n    /* \"#utility.yul\":1084:1213   */\n  pop\n    /* \"#utility.yul\":1252:1255   */\n  0x80\n    /* \"#utility.yul\":1279:1343   */\n  tag_44\n    /* \"#utility.yul\":1335:1342   */\n  dup9\n    /* \"#utility.yul\":1326:1332   */\n  dup3\n    /* \"#utility.yul\":1315:1324   */\n  dup10\n    /* \"#utility.yul\":1311:1333   */\n  add\n    /* \"#utility.yul\":1279:1343   */\n  tag_30\n  jump\t// in\ntag_44:\n    /* \"#utility.yul\":1269:1343   */\n  swap2\n  pop\n    /* \"#utility.yul\":1223:1353   */\n  pop\n    /* \"#utility.yul\":595:1360   */\n  swap3\n  swap6\n  pop\n  swap3\n  swap6\n  swap1\n  swap4\n  pop\n  jump\t// out\n    /* \"#utility.yul\":1366:1646   */\ntag_14:\n  0x00\n    /* \"#utility.yul\":1483:1485   */\n  0x20\n    /* \"#utility.yul\":1471:1480   */\n  dup3\n    /* \"#utility.yul\":1462:1469   */\n  dup5\n    /* \"#utility.yul\":1458:1481   */\n  sub\n    /* \"#utility.yul\":1454:1486   */\n  slt\n    /* \"#utility.yul\":1451:1453   */\n  iszero\n  tag_46\n  jumpi\n    /* \"#utility.yul\":1499:1500   */\n  0x00\n    /* \"#utility.yul\":1496:1497   */\n  dup1\n    /* \"#utility.yul\":1489:1501   */\n  revert\n    /* \"#utility.yul\":1451:1453   */\ntag_46:\n    /* \"#utility.yul\":1542:1543   */\n  0x00\n    /* \"#utility.yul\":1567:1629   */\n  tag_47\n    /* \"#utility.yul\":1621:1628   */\n  dup5\n    /* \"#utility.yul\":1612:1618   */\n  dup3\n    /* \"#utility.yul\":1601:1610   */\n  dup6\n    /* \"#utility.yul\":1597:1619   */\n  add\n    /* \"#utility.yul\":1567:1629   */\n  tag_34\n  jump\t// in\ntag_47:\n    /* \"#utility.yul\":1557:1629   */\n  swap2\n  pop\n    /* \"#utility.yul\":1513:1639   */\n  pop\n    /* \"#utility.yul\":1441:1646   */\n  swap3\n  swap2\n  pop\n  pop\n  jump\t// out\n    /* \"#utility.yul\":1652:1748   */\ntag_48:\n  0x00\n    /* \"#utility.yul\":1718:1742   */\n  tag_50\n    /* \"#utility.yul\":1736:1741   */\n  dup3\n    /* \"#utility.yul\":1718:1742   */\n  tag_51\n  jump\t// in\ntag_50:\n    /* \"#utility.yul\":1707:1742   */\n  swap1\n  pop\n    /* \"#utility.yul\":1697:1748   */\n  swap2\n  swap1\n  pop\n  jump\t// out\n    /* \"#utility.yul\":1754:1880   */\ntag_51:\n  0x00\n    /* \"#utility.yul\":1831:1873   */\n  0xffffffffffffffffffffffffffffffffffffffff\n    /* \"#utility.yul\":1824:1829   */\n  dup3\n    /* \"#utility.yul\":1820:1874   */\n  and\n    /* \"#utility.yul\":1809:1874   */\n  swap1\n  pop\n    /* \"#utility.yul\":1799:1880   */\n  swap2\n  swap1\n  pop\n  jump\t// out\n    /* \"#utility.yul\":1886:1963   */\ntag_53:\n  0x00\n    /* \"#utility.yul\":1952:1957   */\n  dup2\n    /* \"#utility.yul\":1941:1957   */\n  swap1\n  pop\n    /* \"#utility.yul\":1931:1963   */\n  swap2\n  swap1\n  pop\n  jump\t// out\n    /* \"#utility.yul\":1969:2055   */\ntag_55:\n  0x00\n    /* \"#utility.yul\":2044:2048   */\n  0xff\n    /* \"#utility.yul\":2037:2042   */\n  dup3\n    /* \"#utility.yul\":2033:2049   */\n  and\n    /* \"#utility.yul\":2022:2049   */\n  swap1\n  pop\n    /* \"#utility.yul\":2012:2055   */\n  swap2\n  swap1\n  pop\n  jump\t// out\n    /* \"#utility.yul\":2061:2183   */\ntag_29:\n    /* \"#utility.yul\":2134:2158   */\n  tag_58\n    /* \"#utility.yul\":2152:2157   */\n  dup2\n    /* \"#utility.yul\":2134:2158   */\n  tag_48\n  jump\t// in\ntag_58:\n    /* \"#utility.yul\":2127:2132   */\n  dup2\n    /* \"#utility.yul\":2124:2159   */\n  eq\n    /* \"#utility.yul\":2114:2116   */\n  tag_59\n  jumpi\n    /* \"#utility.yul\":2173:2174   */\n  0x00\n    /* \"#utility.yul\":2170:2171   */\n  dup1\n    /* \"#utility.yul\":2163:2175   */\n  revert\n    /* \"#utility.yul\":2114:2116   */\ntag_59:\n    /* \"#utility.yul\":2104:2183   */\n  pop\n  jump\t// out\n    /* \"#utility.yul\":2189:2311   */\ntag_33:\n    /* \"#utility.yul\":2262:2286   */\n  tag_61\n    /* \"#utility.yul\":2280:2285   */\n  dup2\n    /* \"#utility.yul\":2262:2286   */\n  tag_53\n  jump\t// in\ntag_61:\n    /* \"#utility.yul\":2255:2260   */\n  dup2\n    /* \"#utility.yul\":2252:2287   */\n  eq\n    /* \"#utility.yul\":2242:2244   */\n  tag_62\n  jumpi\n    /* \"#utility.yul\":2301:2302   */\n  0x00\n    /* \"#utility.yul\":2298:2299   */\n  dup1\n    /* \"#utility.yul\":2291:2303   */\n  revert\n    /* \"#utility.yul\":2242:2244   */\ntag_62:\n    /* \"#utility.yul\":2232:2311   */\n  pop\n  jump\t// out\n    /* \"#utility.yul\":2317:2435   */\ntag_37:\n    /* \"#utility.yul\":2388:2410   */\n  tag_64\n    /* \"#utility.yul\":2404:2409   */\n  dup2\n    /* \"#utility.yul\":2388:2410   */\n  tag_55\n  jump\t// in\ntag_64:\n    /* \"#utility.yul\":2381:2386   */\n  dup2\n    /* \"#utility.yul\":2378:2411   */\n  eq\n    /* \"#utility.yul\":2368:2370   */\n  tag_65\n  jumpi\n    /* \"#utility.yul\":2425:2426   */\n  0x00\n    /* \"#utility.yul\":2422:2423   */\n  dup1\n    /* \"#utility.yul\":2415:2427   */\n  revert\n    /* \"#utility.yul\":2368:2370   */\ntag_65:\n    /* \"#utility.yul\":2358:2435   */\n  pop\n  jump\t// out\n    /* \"IDO.sol\":5428:7859  contract IDO is Ownable {\r... */\ntag_23:\n  dataSize(sub_0)\n  dup1\n  dataOffset(sub_0)\n  0x00\n  codecopy\n  0x00\n  return\nstop\n\nsub_0: assembly {\n        /* \"IDO.sol\":5428:7859  contract IDO is Ownable {\r... */\n      mstore(0x40, 0x80)\n      jumpi(tag_1, lt(calldatasize, 0x04))\n      shr(0xe0, calldataload(0x00))\n      dup1\n      0x78e97925\n      gt\n      tag_18\n      jumpi\n      dup1\n      0xf2fde38b\n      gt\n      tag_19\n      jumpi\n      dup1\n      0xf2fde38b\n      eq\n      tag_14\n      jumpi\n      dup1\n      0xfa1a5f59\n      eq\n      tag_15\n      jumpi\n      dup1\n      0xfa300f75\n      eq\n      tag_16\n      jumpi\n      dup1\n      0xfc0c546a\n      eq\n      tag_17\n      jumpi\n      jump(tag_1)\n    tag_19:\n      dup1\n      0x78e97925\n      eq\n      tag_10\n      jumpi\n      dup1\n      0x8da5cb5b\n      eq\n      tag_11\n      jumpi\n      dup1\n      0xc0b5fca0\n      eq\n      tag_12\n      jumpi\n      dup1\n      0xd0febe4c\n      eq\n      tag_13\n      jumpi\n      jump(tag_1)\n    tag_18:\n      dup1\n      0x3996dc8f\n      gt\n      tag_20\n      jumpi\n      dup1\n      0x3996dc8f\n      eq\n      tag_6\n      jumpi\n      dup1\n      0x48dc5893\n      eq\n      tag_7\n      jumpi\n      dup1\n      0x5caed029\n      eq\n      tag_8\n      jumpi\n      dup1\n      0x715018a6\n      eq\n      tag_9\n      jumpi\n      jump(tag_1)\n    tag_20:\n      dup1\n      0x1b0875a6\n      eq\n      tag_2\n      jumpi\n      dup1\n      0x22f3e2d4\n      eq\n      tag_3\n      jumpi\n      dup1\n      0x31711884\n      eq\n      tag_4\n      jumpi\n      dup1\n      0x3197cbb6\n      eq\n      tag_5\n      jumpi\n    tag_1:\n      0x00\n      dup1\n      revert\n        /* \"IDO.sol\":5928:5960  uint256 public totalRewardTokens */\n    tag_2:\n      callvalue\n      dup1\n      iszero\n      tag_21\n      jumpi\n      0x00\n      dup1\n      revert\n    tag_21:\n      pop\n      tag_22\n      tag_23\n      jump\t// in\n    tag_22:\n      mload(0x40)\n      tag_24\n      swap2\n      swap1\n      tag_25\n      jump\t// in\n    tag_24:\n      mload(0x40)\n      dup1\n      swap2\n      sub\n      swap1\n      return\n        /* \"IDO.sol\":6532:6662  function isActive() public view returns (bool){\r... */\n    tag_3:\n      callvalue\n      dup1\n      iszero\n      tag_26\n      jumpi\n      0x00\n      dup1\n      revert\n    tag_26:\n      pop\n      tag_27\n      tag_28\n      jump\t// in\n    tag_27:\n      mload(0x40)\n      tag_29\n      swap2\n      swap1\n      tag_30\n      jump\t// in\n    tag_29:\n      mload(0x40)\n      dup1\n      swap2\n      sub\n      swap1\n      return\n        /* \"IDO.sol\":5697:5721  uint256 public tokenRate */\n    tag_4:\n      callvalue\n      dup1\n      iszero\n      tag_31\n      jumpi\n      0x00\n      dup1\n      revert\n    tag_31:\n      pop\n      tag_32\n      tag_33\n      jump\t// in\n    tag_32:\n      mload(0x40)\n      tag_34\n      swap2\n      swap1\n      tag_25\n      jump\t// in\n    tag_34:\n      mload(0x40)\n      dup1\n      swap2\n      sub\n      swap1\n      return\n        /* \"IDO.sol\":5666:5688  uint256 public endTime */\n    tag_5:\n      callvalue\n      dup1\n      iszero\n      tag_35\n      jumpi\n      0x00\n      dup1\n      revert\n    tag_35:\n      pop\n      tag_36\n      tag_37\n      jump\t// in\n    tag_36:\n      mload(0x40)\n      tag_38\n      swap2\n      swap1\n      tag_25\n      jump\t// in\n    tag_38:\n      mload(0x40)\n      dup1\n      swap2\n      sub\n      swap1\n      return\n        /* \"IDO.sol\":5846:5871  uint256 public totalRaise */\n    tag_6:\n      callvalue\n      dup1\n      iszero\n      tag_39\n      jumpi\n      0x00\n      dup1\n      revert\n    tag_39:\n      pop\n      tag_40\n      tag_41\n      jump\t// in\n    tag_40:\n      mload(0x40)\n      tag_42\n      swap2\n      swap1\n      tag_25\n      jump\t// in\n    tag_42:\n      mload(0x40)\n      dup1\n      swap2\n      sub\n      swap1\n      return\n        /* \"IDO.sol\":6865:7071  function calculateAmount(uint256 _acceptedAmount) public view returns (uint256){\r... */\n    tag_7:\n      callvalue\n      dup1\n      iszero\n      tag_43\n      jumpi\n      0x00\n      dup1\n      revert\n    tag_43:\n      pop\n      tag_44\n      0x04\n      dup1\n      calldatasize\n      sub\n      dup2\n      add\n      swap1\n      tag_45\n      swap2\n      swap1\n      tag_46\n      jump\t// in\n    tag_45:\n      tag_47\n      jump\t// in\n    tag_44:\n      mload(0x40)\n      tag_48\n      swap2\n      swap1\n      tag_25\n      jump\t// in\n    tag_48:\n      mload(0x40)\n      dup1\n      swap2\n      sub\n      swap1\n      return\n        /* \"IDO.sol\":5516:5543  uint256 public tokenDecimal */\n    tag_8:\n      callvalue\n      dup1\n      iszero\n      tag_49\n      jumpi\n      0x00\n      dup1\n      revert\n    tag_49:\n      pop\n      tag_50\n      tag_51\n      jump\t// in\n    tag_50:\n      mload(0x40)\n      tag_52\n      swap2\n      swap1\n      tag_25\n      jump\t// in\n    tag_52:\n      mload(0x40)\n      dup1\n      swap2\n      sub\n      swap1\n      return\n        /* \"IDO.sol\":1831:1979  function renounceOwnership() public virtual onlyOwner {\r... */\n    tag_9:\n      callvalue\n      dup1\n      iszero\n      tag_53\n      jumpi\n      0x00\n      dup1\n      revert\n    tag_53:\n      pop\n      tag_54\n      tag_55\n      jump\t// in\n    tag_54:\n      stop\n        /* \"IDO.sol\":5581:5605  uint256 public startTime */\n    tag_10:\n      callvalue\n      dup1\n      iszero\n      tag_56\n      jumpi\n      0x00\n      dup1\n      revert\n    tag_56:\n      pop\n      tag_57\n      tag_58\n      jump\t// in\n    tag_57:\n      mload(0x40)\n      tag_59\n      swap2\n      swap1\n      tag_25\n      jump\t// in\n    tag_59:\n      mload(0x40)\n      dup1\n      swap2\n      sub\n      swap1\n      return\n        /* \"IDO.sol\":1188:1275  function owner() public view virtual returns (address) {\r... */\n    tag_11:\n      callvalue\n      dup1\n      iszero\n      tag_60\n      jumpi\n      0x00\n      dup1\n      revert\n    tag_60:\n      pop\n      tag_61\n      tag_62\n      jump\t// in\n    tag_61:\n      mload(0x40)\n      tag_63\n      swap2\n      swap1\n      tag_64\n      jump\t// in\n    tag_63:\n      mload(0x40)\n      dup1\n      swap2\n      sub\n      swap1\n      return\n        /* \"IDO.sol\":7080:7196  function getRemainingReward() public view returns(uint256){\r... */\n    tag_12:\n      callvalue\n      dup1\n      iszero\n      tag_65\n      jumpi\n      0x00\n      dup1\n      revert\n    tag_65:\n      pop\n      tag_66\n      tag_67\n      jump\t// in\n    tag_66:\n      mload(0x40)\n      tag_68\n      swap2\n      swap1\n      tag_25\n      jump\t// in\n    tag_68:\n      mload(0x40)\n      dup1\n      swap2\n      sub\n      swap1\n      return\n        /* \"IDO.sol\":7205:7856  function buyTokens() external payable{\r... */\n    tag_13:\n      tag_69\n      tag_70\n      jump\t// in\n    tag_69:\n      stop\n        /* \"IDO.sol\":2131:2375  function transferOwnership(address newOwner) public virtual onlyOwner {\r... */\n    tag_14:\n      callvalue\n      dup1\n      iszero\n      tag_71\n      jumpi\n      0x00\n      dup1\n      revert\n    tag_71:\n      pop\n      tag_72\n      0x04\n      dup1\n      calldatasize\n      sub\n      dup2\n      add\n      swap1\n      tag_73\n      swap2\n      swap1\n      tag_74\n      jump\t// in\n    tag_73:\n      tag_75\n      jump\t// in\n    tag_72:\n      stop\n        /* \"IDO.sol\":5771:5796  uint256 public soldAmount */\n    tag_15:\n      callvalue\n      dup1\n      iszero\n      tag_76\n      jumpi\n      0x00\n      dup1\n      revert\n    tag_76:\n      pop\n      tag_77\n      tag_78\n      jump\t// in\n    tag_77:\n      mload(0x40)\n      tag_79\n      swap2\n      swap1\n      tag_25\n      jump\t// in\n    tag_79:\n      mload(0x40)\n      dup1\n      swap2\n      sub\n      swap1\n      return\n        /* \"IDO.sol\":6670:6856  function getTokenInETH(uint256 _tokens) public view returns (uint256){\r... */\n    tag_16:\n      callvalue\n      dup1\n      iszero\n      tag_80\n      jumpi\n      0x00\n      dup1\n      revert\n    tag_80:\n      pop\n      tag_81\n      0x04\n      dup1\n      calldatasize\n      sub\n      dup2\n      add\n      swap1\n      tag_82\n      swap2\n      swap1\n      tag_46\n      jump\t// in\n    tag_82:\n      tag_83\n      jump\t// in\n    tag_81:\n      mload(0x40)\n      tag_84\n      swap2\n      swap1\n      tag_25\n      jump\t// in\n    tag_84:\n      mload(0x40)\n      dup1\n      swap2\n      sub\n      swap1\n      return\n        /* \"IDO.sol\":5459:5479  address public token */\n    tag_17:\n      callvalue\n      dup1\n      iszero\n      tag_85\n      jumpi\n      0x00\n      dup1\n      revert\n    tag_85:\n      pop\n      tag_86\n      tag_87\n      jump\t// in\n    tag_86:\n      mload(0x40)\n      tag_88\n      swap2\n      swap1\n      tag_64\n      jump\t// in\n    tag_88:\n      mload(0x40)\n      dup1\n      swap2\n      sub\n      swap1\n      return\n        /* \"IDO.sol\":5928:5960  uint256 public totalRewardTokens */\n    tag_23:\n      sload(0x08)\n      dup2\n      jump\t// out\n        /* \"IDO.sol\":6532:6662  function isActive() public view returns (bool){\r... */\n    tag_28:\n        /* \"IDO.sol\":6573:6577  bool */\n      0x00\n        /* \"IDO.sol\":6609:6624  block.timestamp */\n      timestamp\n        /* \"IDO.sol\":6596:6605  startTime */\n      sload(0x03)\n        /* \"IDO.sol\":6596:6624  startTime <= block.timestamp */\n      gt\n      iszero\n        /* \"IDO.sol\":6596:6654  startTime <= block.timestamp && block.timestamp <= endTime */\n      dup1\n      iszero\n      tag_90\n      jumpi\n      pop\n        /* \"IDO.sol\":6647:6654  endTime */\n      sload(0x04)\n        /* \"IDO.sol\":6628:6643  block.timestamp */\n      timestamp\n        /* \"IDO.sol\":6628:6654  block.timestamp <= endTime */\n      gt\n      iszero\n        /* \"IDO.sol\":6596:6654  startTime <= block.timestamp && block.timestamp <= endTime */\n    tag_90:\n        /* \"IDO.sol\":6589:6654  return startTime <= block.timestamp && block.timestamp <= endTime */\n      swap1\n      pop\n        /* \"IDO.sol\":6532:6662  function isActive() public view returns (bool){\r... */\n      swap1\n      jump\t// out\n        /* \"IDO.sol\":5697:5721  uint256 public tokenRate */\n    tag_33:\n      sload(0x05)\n      dup2\n      jump\t// out\n        /* \"IDO.sol\":5666:5688  uint256 public endTime */\n    tag_37:\n      sload(0x04)\n      dup2\n      jump\t// out\n        /* \"IDO.sol\":5846:5871  uint256 public totalRaise */\n    tag_41:\n      sload(0x07)\n      dup2\n      jump\t// out\n        /* \"IDO.sol\":6865:7071  function calculateAmount(uint256 _acceptedAmount) public view returns (uint256){\r... */\n    tag_47:\n        /* \"IDO.sol\":6936:6943  uint256 */\n      0x00\n        /* \"IDO.sol\":6956:6977  uint256 _tokenDecimal */\n      dup1\n        /* \"IDO.sol\":6986:6998  tokenDecimal */\n      sload(0x02)\n        /* \"IDO.sol\":6980:6982  10 */\n      0x0a\n        /* \"IDO.sol\":6980:6998  10 ** tokenDecimal */\n      tag_92\n      swap2\n      swap1\n      tag_93\n      jump\t// in\n    tag_92:\n        /* \"IDO.sol\":6956:6998  uint256 _tokenDecimal = 10 ** tokenDecimal */\n      swap1\n      pop\n        /* \"IDO.sol\":7053:7062  tokenRate */\n      sload(0x05)\n        /* \"IDO.sol\":7036:7049  _tokenDecimal */\n      dup2\n        /* \"IDO.sol\":7018:7033  _acceptedAmount */\n      dup5\n        /* \"IDO.sol\":7018:7049  _acceptedAmount * _tokenDecimal */\n      tag_94\n      swap2\n      swap1\n      tag_95\n      jump\t// in\n    tag_94:\n        /* \"IDO.sol\":7017:7062  (_acceptedAmount * _tokenDecimal) / tokenRate */\n      tag_96\n      swap2\n      swap1\n      tag_97\n      jump\t// in\n    tag_96:\n        /* \"IDO.sol\":7010:7062  return (_acceptedAmount * _tokenDecimal) / tokenRate */\n      swap2\n      pop\n      pop\n        /* \"IDO.sol\":6865:7071  function calculateAmount(uint256 _acceptedAmount) public view returns (uint256){\r... */\n      swap2\n      swap1\n      pop\n      jump\t// out\n        /* \"IDO.sol\":5516:5543  uint256 public tokenDecimal */\n    tag_51:\n      sload(0x02)\n      dup2\n      jump\t// out\n        /* \"IDO.sol\":1831:1979  function renounceOwnership() public virtual onlyOwner {\r... */\n    tag_55:\n        /* \"IDO.sol\":1417:1429  _msgSender() */\n      tag_99\n        /* \"IDO.sol\":1417:1427  _msgSender */\n      tag_100\n        /* \"IDO.sol\":1417:1429  _msgSender() */\n      jump\t// in\n    tag_99:\n        /* \"IDO.sol\":1406:1429  owner() == _msgSender() */\n      0xffffffffffffffffffffffffffffffffffffffff\n      and\n        /* \"IDO.sol\":1406:1413  owner() */\n      tag_101\n        /* \"IDO.sol\":1406:1411  owner */\n      tag_62\n        /* \"IDO.sol\":1406:1413  owner() */\n      jump\t// in\n    tag_101:\n        /* \"IDO.sol\":1406:1429  owner() == _msgSender() */\n      0xffffffffffffffffffffffffffffffffffffffff\n      and\n      eq\n        /* \"IDO.sol\":1398:1466  require(owner() == _msgSender(), \"Ownable: caller is not the owner\") */\n      tag_102\n      jumpi\n      mload(0x40)\n      0x08c379a000000000000000000000000000000000000000000000000000000000\n      dup2\n      mstore\n      0x04\n      add\n      tag_103\n      swap1\n      tag_104\n      jump\t// in\n    tag_103:\n      mload(0x40)\n      dup1\n      swap2\n      sub\n      swap1\n      revert\n    tag_102:\n        /* \"IDO.sol\":1938:1939  0 */\n      0x00\n        /* \"IDO.sol\":1901:1941  OwnershipTransferred(_owner, address(0)) */\n      0xffffffffffffffffffffffffffffffffffffffff\n      and\n        /* \"IDO.sol\":1922:1928  _owner */\n      0x00\n      dup1\n      sload\n      swap1\n      0x0100\n      exp\n      swap1\n      div\n      0xffffffffffffffffffffffffffffffffffffffff\n      and\n        /* \"IDO.sol\":1901:1941  OwnershipTransferred(_owner, address(0)) */\n      0xffffffffffffffffffffffffffffffffffffffff\n      and\n      0x8be0079c531659141344cd1fd0a4f28419497f9722a3daafe3b4186f6b6457e0\n      mload(0x40)\n      mload(0x40)\n      dup1\n      swap2\n      sub\n      swap1\n      log3\n        /* \"IDO.sol\":1969:1970  0 */\n      0x00\n        /* \"IDO.sol\":1952:1958  _owner */\n      dup1\n      0x00\n        /* \"IDO.sol\":1952:1971  _owner = address(0) */\n      0x0100\n      exp\n      dup2\n      sload\n      dup2\n      0xffffffffffffffffffffffffffffffffffffffff\n      mul\n      not\n      and\n      swap1\n      dup4\n      0xffffffffffffffffffffffffffffffffffffffff\n      and\n      mul\n      or\n      swap1\n      sstore\n      pop\n        /* \"IDO.sol\":1831:1979  function renounceOwnership() public virtual onlyOwner {\r... */\n      jump\t// out\n        /* \"IDO.sol\":5581:5605  uint256 public startTime */\n    tag_58:\n      sload(0x03)\n      dup2\n      jump\t// out\n        /* \"IDO.sol\":1188:1275  function owner() public view virtual returns (address) {\r... */\n    tag_62:\n        /* \"IDO.sol\":1234:1241  address */\n      0x00\n        /* \"IDO.sol\":1261:1267  _owner */\n      dup1\n      0x00\n      swap1\n      sload\n      swap1\n      0x0100\n      exp\n      swap1\n      div\n      0xffffffffffffffffffffffffffffffffffffffff\n      and\n        /* \"IDO.sol\":1254:1267  return _owner */\n      swap1\n      pop\n        /* \"IDO.sol\":1188:1275  function owner() public view virtual returns (address) {\r... */\n      swap1\n      jump\t// out\n        /* \"IDO.sol\":7080:7196  function getRemainingReward() public view returns(uint256){\r... */\n    tag_67:\n        /* \"IDO.sol\":7130:7137  uint256 */\n      0x00\n        /* \"IDO.sol\":7177:7187  soldAmount */\n      sload(0x06)\n        /* \"IDO.sol\":7157:7174  totalRewardTokens */\n      sload(0x08)\n        /* \"IDO.sol\":7157:7187  totalRewardTokens - soldAmount */\n      tag_108\n      swap2\n      swap1\n      tag_109\n      jump\t// in\n    tag_108:\n        /* \"IDO.sol\":7150:7187  return totalRewardTokens - soldAmount */\n      swap1\n      pop\n        /* \"IDO.sol\":7080:7196  function getRemainingReward() public view returns(uint256){\r... */\n      swap1\n      jump\t// out\n        /* \"IDO.sol\":7205:7856  function buyTokens() external payable{\r... */\n    tag_70:\n        /* \"IDO.sol\":7254:7284  address payable _senderAddress */\n      0x00\n        /* \"IDO.sol\":7287:7299  _msgSender() */\n      tag_111\n        /* \"IDO.sol\":7287:7297  _msgSender */\n      tag_100\n        /* \"IDO.sol\":7287:7299  _msgSender() */\n      jump\t// in\n    tag_111:\n        /* \"IDO.sol\":7254:7299  address payable _senderAddress = _msgSender() */\n      swap1\n      pop\n        /* \"IDO.sol\":7311:7334  uint256 _acceptedAmount */\n      0x00\n        /* \"IDO.sol\":7337:7346  msg.value */\n      callvalue\n        /* \"IDO.sol\":7311:7346  uint256 _acceptedAmount = msg.value */\n      swap1\n      pop\n        /* \"IDO.sol\":7368:7378  isActive() */\n      tag_112\n        /* \"IDO.sol\":7368:7376  isActive */\n      tag_28\n        /* \"IDO.sol\":7368:7378  isActive() */\n      jump\t// in\n    tag_112:\n        /* \"IDO.sol\":7360:7401  require(isActive(), \"Sale is not active\") */\n      tag_113\n      jumpi\n      mload(0x40)\n      0x08c379a000000000000000000000000000000000000000000000000000000000\n      dup2\n      mstore\n      0x04\n      add\n      tag_114\n      swap1\n      tag_115\n      jump\t// in\n    tag_114:\n      mload(0x40)\n      dup1\n      swap2\n      sub\n      swap1\n      revert\n    tag_113:\n        /* \"IDO.sol\":7439:7440  0 */\n      0x00\n        /* \"IDO.sol\":7421:7436  _acceptedAmount */\n      dup2\n        /* \"IDO.sol\":7421:7440  _acceptedAmount > 0 */\n      gt\n        /* \"IDO.sol\":7413:7468  require(_acceptedAmount > 0, \"Accepted amount is zero\") */\n      tag_116\n      jumpi\n      mload(0x40)\n      0x08c379a000000000000000000000000000000000000000000000000000000000\n      dup2\n      mstore\n      0x04\n      add\n      tag_117\n      swap1\n      tag_118\n      jump\t// in\n    tag_117:\n      mload(0x40)\n      dup1\n      swap2\n      sub\n      swap1\n      revert\n    tag_116:\n        /* \"IDO.sol\":7482:7505  uint256 _rewardedAmount */\n      0x00\n        /* \"IDO.sol\":7508:7540  calculateAmount(_acceptedAmount) */\n      tag_119\n        /* \"IDO.sol\":7524:7539  _acceptedAmount */\n      dup3\n        /* \"IDO.sol\":7508:7523  calculateAmount */\n      tag_47\n        /* \"IDO.sol\":7508:7540  calculateAmount(_acceptedAmount) */\n      jump\t// in\n    tag_119:\n        /* \"IDO.sol\":7482:7540  uint256 _rewardedAmount = calculateAmount(_acceptedAmount) */\n      swap1\n      pop\n        /* \"IDO.sol\":7552:7573  uint256 _unsoldTokens */\n      0x00\n        /* \"IDO.sol\":7576:7596  getRemainingReward() */\n      tag_120\n        /* \"IDO.sol\":7576:7594  getRemainingReward */\n      tag_67\n        /* \"IDO.sol\":7576:7596  getRemainingReward() */\n      jump\t// in\n    tag_120:\n        /* \"IDO.sol\":7552:7596  uint256 _unsoldTokens = getRemainingReward() */\n      swap1\n      pop\n        /* \"IDO.sol\":7631:7644  _unsoldTokens */\n      dup1\n        /* \"IDO.sol\":7613:7628  _rewardedAmount */\n      dup3\n        /* \"IDO.sol\":7613:7644  _rewardedAmount > _unsoldTokens */\n      gt\n        /* \"IDO.sol\":7610:7848  if(_rewardedAmount > _unsoldTokens){\r... */\n      iszero\n      tag_121\n      jumpi\n        /* \"IDO.sol\":7679:7692  _unsoldTokens */\n      dup1\n        /* \"IDO.sol\":7661:7692  _rewardedAmount = _unsoldTokens */\n      swap2\n      pop\n        /* \"IDO.sol\":7710:7731  uint256 _excessAmount */\n      0x00\n        /* \"IDO.sol\":7753:7781  getTokenInETH(_unsoldTokens) */\n      tag_122\n        /* \"IDO.sol\":7767:7780  _unsoldTokens */\n      dup3\n        /* \"IDO.sol\":7753:7766  getTokenInETH */\n      tag_83\n        /* \"IDO.sol\":7753:7781  getTokenInETH(_unsoldTokens) */\n      jump\t// in\n    tag_122:\n        /* \"IDO.sol\":7735:7750  _acceptedAmount */\n      dup5\n        /* \"IDO.sol\":7735:7781  _acceptedAmount - getTokenInETH(_unsoldTokens) */\n      tag_123\n      swap2\n      swap1\n      tag_109\n      jump\t// in\n    tag_123:\n        /* \"IDO.sol\":7710:7781  uint256 _excessAmount =  _acceptedAmount - getTokenInETH(_unsoldTokens) */\n      swap1\n      pop\n        /* \"IDO.sol\":7797:7811  _senderAddress */\n      dup5\n        /* \"IDO.sol\":7797:7820  _senderAddress.transfer */\n      0xffffffffffffffffffffffffffffffffffffffff\n      and\n        /* \"IDO.sol\":7797:7835  _senderAddress.transfer(_excessAmount) */\n      0x08fc\n        /* \"IDO.sol\":7821:7834  _excessAmount */\n      dup3\n        /* \"IDO.sol\":7797:7835  _senderAddress.transfer(_excessAmount) */\n      swap1\n      dup2\n      iszero\n      mul\n      swap1\n      mload(0x40)\n      0x00\n      mload(0x40)\n      dup1\n      dup4\n      sub\n      dup2\n      dup6\n      dup9\n      dup9\n      call\n      swap4\n      pop\n      pop\n      pop\n      pop\n      iszero\n      dup1\n      iszero\n      tag_125\n      jumpi\n      returndatasize\n      0x00\n      dup1\n      returndatacopy\n      revert(0x00, returndatasize)\n    tag_125:\n      pop\n        /* \"IDO.sol\":7610:7848  if(_rewardedAmount > _unsoldTokens){\r... */\n      pop\n    tag_121:\n        /* \"IDO.sol\":7205:7856  function buyTokens() external payable{\r... */\n      pop\n      pop\n      pop\n      pop\n      jump\t// out\n        /* \"IDO.sol\":2131:2375  function transferOwnership(address newOwner) public virtual onlyOwner {\r... */\n    tag_75:\n        /* \"IDO.sol\":1417:1429  _msgSender() */\n      tag_127\n        /* \"IDO.sol\":1417:1427  _msgSender */\n      tag_100\n        /* \"IDO.sol\":1417:1429  _msgSender() */\n      jump\t// in\n    tag_127:\n        /* \"IDO.sol\":1406:1429  owner() == _msgSender() */\n      0xffffffffffffffffffffffffffffffffffffffff\n      and\n        /* \"IDO.sol\":1406:1413  owner() */\n      tag_128\n        /* \"IDO.sol\":1406:1411  owner */\n      tag_62\n        /* \"IDO.sol\":1406:1413  owner() */\n      jump\t// in\n    tag_128:\n        /* \"IDO.sol\":1406:1429  owner() == _msgSender() */\n      0xffffffffffffffffffffffffffffffffffffffff\n      and\n      eq\n        /* \"IDO.sol\":1398:1466  require(owner() == _msgSender(), \"Ownable: caller is not the owner\") */\n      tag_129\n      jumpi\n      mload(0x40)\n      0x08c379a000000000000000000000000000000000000000000000000000000000\n      dup2\n      mstore\n      0x04\n      add\n      tag_130\n      swap1\n      tag_104\n      jump\t// in\n    tag_130:\n      mload(0x40)\n      dup1\n      swap2\n      sub\n      swap1\n      revert\n    tag_129:\n        /* \"IDO.sol\":2240:2241  0 */\n      0x00\n        /* \"IDO.sol\":2220:2242  newOwner != address(0) */\n      0xffffffffffffffffffffffffffffffffffffffff\n      and\n        /* \"IDO.sol\":2220:2228  newOwner */\n      dup2\n        /* \"IDO.sol\":2220:2242  newOwner != address(0) */\n      0xffffffffffffffffffffffffffffffffffffffff\n      and\n      eq\n      iszero\n        /* \"IDO.sol\":2212:2285  require(newOwner != address(0), \"Ownable: new owner is the zero address\") */\n      tag_132\n      jumpi\n      mload(0x40)\n      0x08c379a000000000000000000000000000000000000000000000000000000000\n      dup2\n      mstore\n      0x04\n      add\n      tag_133\n      swap1\n      tag_134\n      jump\t// in\n    tag_133:\n      mload(0x40)\n      dup1\n      swap2\n      sub\n      swap1\n      revert\n    tag_132:\n        /* \"IDO.sol\":2330:2338  newOwner */\n      dup1\n        /* \"IDO.sol\":2301:2339  OwnershipTransferred(_owner, newOwner) */\n      0xffffffffffffffffffffffffffffffffffffffff\n      and\n        /* \"IDO.sol\":2322:2328  _owner */\n      0x00\n      dup1\n      sload\n      swap1\n      0x0100\n      exp\n      swap1\n      div\n      0xffffffffffffffffffffffffffffffffffffffff\n      and\n        /* \"IDO.sol\":2301:2339  OwnershipTransferred(_owner, newOwner) */\n      0xffffffffffffffffffffffffffffffffffffffff\n      and\n      0x8be0079c531659141344cd1fd0a4f28419497f9722a3daafe3b4186f6b6457e0\n      mload(0x40)\n      mload(0x40)\n      dup1\n      swap2\n      sub\n      swap1\n      log3\n        /* \"IDO.sol\":2359:2367  newOwner */\n      dup1\n        /* \"IDO.sol\":2350:2356  _owner */\n      0x00\n      dup1\n        /* \"IDO.sol\":2350:2367  _owner = newOwner */\n      0x0100\n      exp\n      dup2\n      sload\n      dup2\n      0xffffffffffffffffffffffffffffffffffffffff\n      mul\n      not\n      and\n      swap1\n      dup4\n      0xffffffffffffffffffffffffffffffffffffffff\n      and\n      mul\n      or\n      swap1\n      sstore\n      pop\n        /* \"IDO.sol\":2131:2375  function transferOwnership(address newOwner) public virtual onlyOwner {\r... */\n      pop\n      jump\t// out\n        /* \"IDO.sol\":5771:5796  uint256 public soldAmount */\n    tag_78:\n      sload(0x06)\n      dup2\n      jump\t// out\n        /* \"IDO.sol\":6670:6856  function getTokenInETH(uint256 _tokens) public view returns (uint256){\r... */\n    tag_83:\n        /* \"IDO.sol\":6731:6738  uint256 */\n      0x00\n        /* \"IDO.sol\":6750:6771  uint256 _tokenDecimal */\n      dup1\n        /* \"IDO.sol\":6780:6792  tokenDecimal */\n      sload(0x02)\n        /* \"IDO.sol\":6774:6776  10 */\n      0x0a\n        /* \"IDO.sol\":6774:6792  10 ** tokenDecimal */\n      tag_136\n      swap2\n      swap1\n      tag_93\n      jump\t// in\n    tag_136:\n        /* \"IDO.sol\":6750:6792  uint256 _tokenDecimal = 10 ** tokenDecimal */\n      swap1\n      pop\n        /* \"IDO.sol\":6834:6847  _tokenDecimal */\n      dup1\n        /* \"IDO.sol\":6821:6830  tokenRate */\n      sload(0x05)\n        /* \"IDO.sol\":6811:6818  _tokens */\n      dup5\n        /* \"IDO.sol\":6811:6830  _tokens * tokenRate */\n      tag_137\n      swap2\n      swap1\n      tag_95\n      jump\t// in\n    tag_137:\n        /* \"IDO.sol\":6810:6847  (_tokens * tokenRate) / _tokenDecimal */\n      tag_138\n      swap2\n      swap1\n      tag_97\n      jump\t// in\n    tag_138:\n        /* \"IDO.sol\":6803:6847  return (_tokens * tokenRate) / _tokenDecimal */\n      swap2\n      pop\n      pop\n        /* \"IDO.sol\":6670:6856  function getTokenInETH(uint256 _tokens) public view returns (uint256){\r... */\n      swap2\n      swap1\n      pop\n      jump\t// out\n        /* \"IDO.sol\":5459:5479  address public token */\n    tag_87:\n      0x01\n      0x00\n      swap1\n      sload\n      swap1\n      0x0100\n      exp\n      swap1\n      div\n      0xffffffffffffffffffffffffffffffffffffffff\n      and\n      dup2\n      jump\t// out\n        /* \"IDO.sol\":735:850  function _msgSender() internal view virtual returns (address payable) {\r... */\n    tag_100:\n        /* \"IDO.sol\":788:803  address payable */\n      0x00\n        /* \"IDO.sol\":831:841  msg.sender */\n      caller\n        /* \"IDO.sol\":816:842  return payable(msg.sender) */\n      swap1\n      pop\n        /* \"IDO.sol\":735:850  function _msgSender() internal view virtual returns (address payable) {\r... */\n      swap1\n      jump\t// out\n        /* \"#utility.yul\":7:146   */\n    tag_141:\n      0x00\n        /* \"#utility.yul\":91:97   */\n      dup2\n        /* \"#utility.yul\":78:98   */\n      calldataload\n        /* \"#utility.yul\":69:98   */\n      swap1\n      pop\n        /* \"#utility.yul\":107:140   */\n      tag_143\n        /* \"#utility.yul\":134:139   */\n      dup2\n        /* \"#utility.yul\":107:140   */\n      tag_144\n      jump\t// in\n    tag_143:\n        /* \"#utility.yul\":59:146   */\n      swap3\n      swap2\n      pop\n      pop\n      jump\t// out\n        /* \"#utility.yul\":152:291   */\n    tag_145:\n      0x00\n        /* \"#utility.yul\":236:242   */\n      dup2\n        /* \"#utility.yul\":223:243   */\n      calldataload\n        /* \"#utility.yul\":214:243   */\n      swap1\n      pop\n        /* \"#utility.yul\":252:285   */\n      tag_147\n        /* \"#utility.yul\":279:284   */\n      dup2\n        /* \"#utility.yul\":252:285   */\n      tag_148\n      jump\t// in\n    tag_147:\n        /* \"#utility.yul\":204:291   */\n      swap3\n      swap2\n      pop\n      pop\n      jump\t// out\n        /* \"#utility.yul\":297:559   */\n    tag_74:\n      0x00\n        /* \"#utility.yul\":405:407   */\n      0x20\n        /* \"#utility.yul\":393:402   */\n      dup3\n        /* \"#utility.yul\":384:391   */\n      dup5\n        /* \"#utility.yul\":380:403   */\n      sub\n        /* \"#utility.yul\":376:408   */\n      slt\n        /* \"#utility.yul\":373:375   */\n      iszero\n      tag_150\n      jumpi\n        /* \"#utility.yul\":421:422   */\n      0x00\n        /* \"#utility.yul\":418:419   */\n      dup1\n        /* \"#utility.yul\":411:423   */\n      revert\n        /* \"#utility.yul\":373:375   */\n    tag_150:\n        /* \"#utility.yul\":464:465   */\n      0x00\n        /* \"#utility.yul\":489:542   */\n      tag_151\n        /* \"#utility.yul\":534:541   */\n      dup5\n        /* \"#utility.yul\":525:531   */\n      dup3\n        /* \"#utility.yul\":514:523   */\n      dup6\n        /* \"#utility.yul\":510:532   */\n      add\n        /* \"#utility.yul\":489:542   */\n      tag_141\n      jump\t// in\n    tag_151:\n        /* \"#utility.yul\":479:542   */\n      swap2\n      pop\n        /* \"#utility.yul\":435:552   */\n      pop\n        /* \"#utility.yul\":363:559   */\n      swap3\n      swap2\n      pop\n      pop\n      jump\t// out\n        /* \"#utility.yul\":565:827   */\n    tag_46:\n      0x00\n        /* \"#utility.yul\":673:675   */\n      0x20\n        /* \"#utility.yul\":661:670   */\n      dup3\n        /* \"#utility.yul\":652:659   */\n      dup5\n        /* \"#utility.yul\":648:671   */\n      sub\n        /* \"#utility.yul\":644:676   */\n      slt\n        /* \"#utility.yul\":641:643   */\n      iszero\n      tag_153\n      jumpi\n        /* \"#utility.yul\":689:690   */\n      0x00\n        /* \"#utility.yul\":686:687   */\n      dup1\n        /* \"#utility.yul\":679:691   */\n      revert\n        /* \"#utility.yul\":641:643   */\n    tag_153:\n        /* \"#utility.yul\":732:733   */\n      0x00\n        /* \"#utility.yul\":757:810   */\n      tag_154\n        /* \"#utility.yul\":802:809   */\n      dup5\n        /* \"#utility.yul\":793:799   */\n      dup3\n        /* \"#utility.yul\":782:791   */\n      dup6\n        /* \"#utility.yul\":778:800   */\n      add\n        /* \"#utility.yul\":757:810   */\n      tag_145\n      jump\t// in\n    tag_154:\n        /* \"#utility.yul\":747:810   */\n      swap2\n      pop\n        /* \"#utility.yul\":703:820   */\n      pop\n        /* \"#utility.yul\":631:827   */\n      swap3\n      swap2\n      pop\n      pop\n      jump\t// out\n        /* \"#utility.yul\":833:951   */\n    tag_155:\n        /* \"#utility.yul\":920:944   */\n      tag_157\n        /* \"#utility.yul\":938:943   */\n      dup2\n        /* \"#utility.yul\":920:944   */\n      tag_158\n      jump\t// in\n    tag_157:\n        /* \"#utility.yul\":915:918   */\n      dup3\n        /* \"#utility.yul\":908:945   */\n      mstore\n        /* \"#utility.yul\":898:951   */\n      pop\n      pop\n      jump\t// out\n        /* \"#utility.yul\":957:1066   */\n    tag_159:\n        /* \"#utility.yul\":1038:1059   */\n      tag_161\n        /* \"#utility.yul\":1053:1058   */\n      dup2\n        /* \"#utility.yul\":1038:1059   */\n      tag_162\n      jump\t// in\n    tag_161:\n        /* \"#utility.yul\":1033:1036   */\n      dup3\n        /* \"#utility.yul\":1026:1060   */\n      mstore\n        /* \"#utility.yul\":1016:1066   */\n      pop\n      pop\n      jump\t// out\n        /* \"#utility.yul\":1072:1442   */\n    tag_163:\n      0x00\n        /* \"#utility.yul\":1235:1302   */\n      tag_165\n        /* \"#utility.yul\":1299:1301   */\n      0x26\n        /* \"#utility.yul\":1294:1297   */\n      dup4\n        /* \"#utility.yul\":1235:1302   */\n      tag_166\n      jump\t// in\n    tag_165:\n        /* \"#utility.yul\":1228:1302   */\n      swap2\n      pop\n        /* \"#utility.yul\":1332:1366   */\n      0x4f776e61626c653a206e6577206f776e657220697320746865207a65726f2061\n        /* \"#utility.yul\":1328:1329   */\n      0x00\n        /* \"#utility.yul\":1323:1326   */\n      dup4\n        /* \"#utility.yul\":1319:1330   */\n      add\n        /* \"#utility.yul\":1312:1367   */\n      mstore\n        /* \"#utility.yul\":1398:1406   */\n      0x6464726573730000000000000000000000000000000000000000000000000000\n        /* \"#utility.yul\":1393:1395   */\n      0x20\n        /* \"#utility.yul\":1388:1391   */\n      dup4\n        /* \"#utility.yul\":1384:1396   */\n      add\n        /* \"#utility.yul\":1377:1407   */\n      mstore\n        /* \"#utility.yul\":1433:1435   */\n      0x40\n        /* \"#utility.yul\":1428:1431   */\n      dup3\n        /* \"#utility.yul\":1424:1436   */\n      add\n        /* \"#utility.yul\":1417:1436   */\n      swap1\n      pop\n        /* \"#utility.yul\":1218:1442   */\n      swap2\n      swap1\n      pop\n      jump\t// out\n        /* \"#utility.yul\":1448:1764   */\n    tag_167:\n      0x00\n        /* \"#utility.yul\":1611:1678   */\n      tag_169\n        /* \"#utility.yul\":1675:1677   */\n      0x12\n        /* \"#utility.yul\":1670:1673   */\n      dup4\n        /* \"#utility.yul\":1611:1678   */\n      tag_166\n      jump\t// in\n    tag_169:\n        /* \"#utility.yul\":1604:1678   */\n      swap2\n      pop\n        /* \"#utility.yul\":1708:1728   */\n      0x53616c65206973206e6f74206163746976650000000000000000000000000000\n        /* \"#utility.yul\":1704:1705   */\n      0x00\n        /* \"#utility.yul\":1699:1702   */\n      dup4\n        /* \"#utility.yul\":1695:1706   */\n      add\n        /* \"#utility.yul\":1688:1729   */\n      mstore\n        /* \"#utility.yul\":1755:1757   */\n      0x20\n        /* \"#utility.yul\":1750:1753   */\n      dup3\n        /* \"#utility.yul\":1746:1758   */\n      add\n        /* \"#utility.yul\":1739:1758   */\n      swap1\n      pop\n        /* \"#utility.yul\":1594:1764   */\n      swap2\n      swap1\n      pop\n      jump\t// out\n        /* \"#utility.yul\":1770:2091   */\n    tag_170:\n      0x00\n        /* \"#utility.yul\":1933:2000   */\n      tag_172\n        /* \"#utility.yul\":1997:1999   */\n      0x17\n        /* \"#utility.yul\":1992:1995   */\n      dup4\n        /* \"#utility.yul\":1933:2000   */\n      tag_166\n      jump\t// in\n    tag_172:\n        /* \"#utility.yul\":1926:2000   */\n      swap2\n      pop\n        /* \"#utility.yul\":2030:2055   */\n      0x416363657074656420616d6f756e74206973207a65726f000000000000000000\n        /* \"#utility.yul\":2026:2027   */\n      0x00\n        /* \"#utility.yul\":2021:2024   */\n      dup4\n        /* \"#utility.yul\":2017:2028   */\n      add\n        /* \"#utility.yul\":2010:2056   */\n      mstore\n        /* \"#utility.yul\":2082:2084   */\n      0x20\n        /* \"#utility.yul\":2077:2080   */\n      dup3\n        /* \"#utility.yul\":2073:2085   */\n      add\n        /* \"#utility.yul\":2066:2085   */\n      swap1\n      pop\n        /* \"#utility.yul\":1916:2091   */\n      swap2\n      swap1\n      pop\n      jump\t// out\n        /* \"#utility.yul\":2097:2427   */\n    tag_173:\n      0x00\n        /* \"#utility.yul\":2260:2327   */\n      tag_175\n        /* \"#utility.yul\":2324:2326   */\n      0x20\n        /* \"#utility.yul\":2319:2322   */\n      dup4\n        /* \"#utility.yul\":2260:2327   */\n      tag_166\n      jump\t// in\n    tag_175:\n        /* \"#utility.yul\":2253:2327   */\n      swap2\n      pop\n        /* \"#utility.yul\":2357:2391   */\n      0x4f776e61626c653a2063616c6c6572206973206e6f7420746865206f776e6572\n        /* \"#utility.yul\":2353:2354   */\n      0x00\n        /* \"#utility.yul\":2348:2351   */\n      dup4\n        /* \"#utility.yul\":2344:2355   */\n      add\n        /* \"#utility.yul\":2337:2392   */\n      mstore\n        /* \"#utility.yul\":2418:2420   */\n      0x20\n        /* \"#utility.yul\":2413:2416   */\n      dup3\n        /* \"#utility.yul\":2409:2421   */\n      add\n        /* \"#utility.yul\":2402:2421   */\n      swap1\n      pop\n        /* \"#utility.yul\":2243:2427   */\n      swap2\n      swap1\n      pop\n      jump\t// out\n        /* \"#utility.yul\":2433:2551   */\n    tag_176:\n        /* \"#utility.yul\":2520:2544   */\n      tag_178\n        /* \"#utility.yul\":2538:2543   */\n      dup2\n        /* \"#utility.yul\":2520:2544   */\n      tag_179\n      jump\t// in\n    tag_178:\n        /* \"#utility.yul\":2515:2518   */\n      dup3\n        /* \"#utility.yul\":2508:2545   */\n      mstore\n        /* \"#utility.yul\":2498:2551   */\n      pop\n      pop\n      jump\t// out\n        /* \"#utility.yul\":2557:2779   */\n    tag_64:\n      0x00\n        /* \"#utility.yul\":2688:2690   */\n      0x20\n        /* \"#utility.yul\":2677:2686   */\n      dup3\n        /* \"#utility.yul\":2673:2691   */\n      add\n        /* \"#utility.yul\":2665:2691   */\n      swap1\n      pop\n        /* \"#utility.yul\":2701:2772   */\n      tag_181\n        /* \"#utility.yul\":2769:2770   */\n      0x00\n        /* \"#utility.yul\":2758:2767   */\n      dup4\n        /* \"#utility.yul\":2754:2771   */\n      add\n        /* \"#utility.yul\":2745:2751   */\n      dup5\n        /* \"#utility.yul\":2701:2772   */\n      tag_155\n      jump\t// in\n    tag_181:\n        /* \"#utility.yul\":2655:2779   */\n      swap3\n      swap2\n      pop\n      pop\n      jump\t// out\n        /* \"#utility.yul\":2785:2995   */\n    tag_30:\n      0x00\n        /* \"#utility.yul\":2910:2912   */\n      0x20\n        /* \"#utility.yul\":2899:2908   */\n      dup3\n        /* \"#utility.yul\":2895:2913   */\n      add\n        /* \"#utility.yul\":2887:2913   */\n      swap1\n      pop\n        /* \"#utility.yul\":2923:2988   */\n      tag_183\n        /* \"#utility.yul\":2985:2986   */\n      0x00\n        /* \"#utility.yul\":2974:2983   */\n      dup4\n        /* \"#utility.yul\":2970:2987   */\n      add\n        /* \"#utility.yul\":2961:2967   */\n      dup5\n        /* \"#utility.yul\":2923:2988   */\n      tag_159\n      jump\t// in\n    tag_183:\n        /* \"#utility.yul\":2877:2995   */\n      swap3\n      swap2\n      pop\n      pop\n      jump\t// out\n        /* \"#utility.yul\":3001:3420   */\n    tag_134:\n      0x00\n        /* \"#utility.yul\":3205:3207   */\n      0x20\n        /* \"#utility.yul\":3194:3203   */\n      dup3\n        /* \"#utility.yul\":3190:3208   */\n      add\n        /* \"#utility.yul\":3182:3208   */\n      swap1\n      pop\n        /* \"#utility.yul\":3254:3263   */\n      dup2\n        /* \"#utility.yul\":3248:3252   */\n      dup2\n        /* \"#utility.yul\":3244:3264   */\n      sub\n        /* \"#utility.yul\":3240:3241   */\n      0x00\n        /* \"#utility.yul\":3229:3238   */\n      dup4\n        /* \"#utility.yul\":3225:3242   */\n      add\n        /* \"#utility.yul\":3218:3265   */\n      mstore\n        /* \"#utility.yul\":3282:3413   */\n      tag_185\n        /* \"#utility.yul\":3408:3412   */\n      dup2\n        /* \"#utility.yul\":3282:3413   */\n      tag_163\n      jump\t// in\n    tag_185:\n        /* \"#utility.yul\":3274:3413   */\n      swap1\n      pop\n        /* \"#utility.yul\":3172:3420   */\n      swap2\n      swap1\n      pop\n      jump\t// out\n        /* \"#utility.yul\":3426:3845   */\n    tag_115:\n      0x00\n        /* \"#utility.yul\":3630:3632   */\n      0x20\n        /* \"#utility.yul\":3619:3628   */\n      dup3\n        /* \"#utility.yul\":3615:3633   */\n      add\n        /* \"#utility.yul\":3607:3633   */\n      swap1\n      pop\n        /* \"#utility.yul\":3679:3688   */\n      dup2\n        /* \"#utility.yul\":3673:3677   */\n      dup2\n        /* \"#utility.yul\":3669:3689   */\n      sub\n        /* \"#utility.yul\":3665:3666   */\n      0x00\n        /* \"#utility.yul\":3654:3663   */\n      dup4\n        /* \"#utility.yul\":3650:3667   */\n      add\n        /* \"#utility.yul\":3643:3690   */\n      mstore\n        /* \"#utility.yul\":3707:3838   */\n      tag_187\n        /* \"#utility.yul\":3833:3837   */\n      dup2\n        /* \"#utility.yul\":3707:3838   */\n      tag_167\n      jump\t// in\n    tag_187:\n        /* \"#utility.yul\":3699:3838   */\n      swap1\n      pop\n        /* \"#utility.yul\":3597:3845   */\n      swap2\n      swap1\n      pop\n      jump\t// out\n        /* \"#utility.yul\":3851:4270   */\n    tag_118:\n      0x00\n        /* \"#utility.yul\":4055:4057   */\n      0x20\n        /* \"#utility.yul\":4044:4053   */\n      dup3\n        /* \"#utility.yul\":4040:4058   */\n      add\n        /* \"#utility.yul\":4032:4058   */\n      swap1\n      pop\n        /* \"#utility.yul\":4104:4113   */\n      dup2\n        /* \"#utility.yul\":4098:4102   */\n      dup2\n        /* \"#utility.yul\":4094:4114   */\n      sub\n        /* \"#utility.yul\":4090:4091   */\n      0x00\n        /* \"#utility.yul\":4079:4088   */\n      dup4\n        /* \"#utility.yul\":4075:4092   */\n      add\n        /* \"#utility.yul\":4068:4115   */\n      mstore\n        /* \"#utility.yul\":4132:4263   */\n      tag_189\n        /* \"#utility.yul\":4258:4262   */\n      dup2\n        /* \"#utility.yul\":4132:4263   */\n      tag_170\n      jump\t// in\n    tag_189:\n        /* \"#utility.yul\":4124:4263   */\n      swap1\n      pop\n        /* \"#utility.yul\":4022:4270   */\n      swap2\n      swap1\n      pop\n      jump\t// out\n        /* \"#utility.yul\":4276:4695   */\n    tag_104:\n      0x00\n        /* \"#utility.yul\":4480:4482   */\n      0x20\n        /* \"#utility.yul\":4469:4478   */\n      dup3\n        /* \"#utility.yul\":4465:4483   */\n      add\n        /* \"#utility.yul\":4457:4483   */\n      swap1\n      pop\n        /* \"#utility.yul\":4529:4538   */\n      dup2\n        /* \"#utility.yul\":4523:4527   */\n      dup2\n        /* \"#utility.yul\":4519:4539   */\n      sub\n        /* \"#utility.yul\":4515:4516   */\n      0x00\n        /* \"#utility.yul\":4504:4513   */\n      dup4\n        /* \"#utility.yul\":4500:4517   */\n      add\n        /* \"#utility.yul\":4493:4540   */\n      mstore\n        /* \"#utility.yul\":4557:4688   */\n      tag_191\n        /* \"#utility.yul\":4683:4687   */\n      dup2\n        /* \"#utility.yul\":4557:4688   */\n      tag_173\n      jump\t// in\n    tag_191:\n        /* \"#utility.yul\":4549:4688   */\n      swap1\n      pop\n        /* \"#utility.yul\":4447:4695   */\n      swap2\n      swap1\n      pop\n      jump\t// out\n        /* \"#utility.yul\":4701:4923   */\n    tag_25:\n      0x00\n        /* \"#utility.yul\":4832:4834   */\n      0x20\n        /* \"#utility.yul\":4821:4830   */\n      dup3\n        /* \"#utility.yul\":4817:4835   */\n      add\n        /* \"#utility.yul\":4809:4835   */\n      swap1\n      pop\n        /* \"#utility.yul\":4845:4916   */\n      tag_193\n        /* \"#utility.yul\":4913:4914   */\n      0x00\n        /* \"#utility.yul\":4902:4911   */\n      dup4\n        /* \"#utility.yul\":4898:4915   */\n      add\n        /* \"#utility.yul\":4889:4895   */\n      dup5\n        /* \"#utility.yul\":4845:4916   */\n      tag_176\n      jump\t// in\n    tag_193:\n        /* \"#utility.yul\":4799:4923   */\n      swap3\n      swap2\n      pop\n      pop\n      jump\t// out\n        /* \"#utility.yul\":4929:5098   */\n    tag_166:\n      0x00\n        /* \"#utility.yul\":5047:5053   */\n      dup3\n        /* \"#utility.yul\":5042:5045   */\n      dup3\n        /* \"#utility.yul\":5035:5054   */\n      mstore\n        /* \"#utility.yul\":5087:5091   */\n      0x20\n        /* \"#utility.yul\":5082:5085   */\n      dup3\n        /* \"#utility.yul\":5078:5092   */\n      add\n        /* \"#utility.yul\":5063:5092   */\n      swap1\n      pop\n        /* \"#utility.yul\":5025:5098   */\n      swap3\n      swap2\n      pop\n      pop\n      jump\t// out\n        /* \"#utility.yul\":5104:5289   */\n    tag_97:\n      0x00\n        /* \"#utility.yul\":5161:5181   */\n      tag_196\n        /* \"#utility.yul\":5179:5180   */\n      dup3\n        /* \"#utility.yul\":5161:5181   */\n      tag_179\n      jump\t// in\n    tag_196:\n        /* \"#utility.yul\":5156:5181   */\n      swap2\n      pop\n        /* \"#utility.yul\":5195:5215   */\n      tag_197\n        /* \"#utility.yul\":5213:5214   */\n      dup4\n        /* \"#utility.yul\":5195:5215   */\n      tag_179\n      jump\t// in\n    tag_197:\n        /* \"#utility.yul\":5190:5215   */\n      swap3\n      pop\n        /* \"#utility.yul\":5234:5235   */\n      dup3\n        /* \"#utility.yul\":5224:5226   */\n      tag_198\n      jumpi\n        /* \"#utility.yul\":5239:5257   */\n      tag_199\n      tag_200\n      jump\t// in\n    tag_199:\n        /* \"#utility.yul\":5224:5226   */\n    tag_198:\n        /* \"#utility.yul\":5281:5282   */\n      dup3\n        /* \"#utility.yul\":5278:5279   */\n      dup3\n        /* \"#utility.yul\":5274:5283   */\n      div\n        /* \"#utility.yul\":5269:5283   */\n      swap1\n      pop\n        /* \"#utility.yul\":5146:5289   */\n      swap3\n      swap2\n      pop\n      pop\n      jump\t// out\n        /* \"#utility.yul\":5295:6143   */\n    tag_201:\n      0x00\n      dup1\n        /* \"#utility.yul\":5387:5393   */\n      dup3\n        /* \"#utility.yul\":5378:5393   */\n      swap2\n      pop\n        /* \"#utility.yul\":5411:5416   */\n      dup4\n        /* \"#utility.yul\":5402:5416   */\n      swap1\n      pop\n        /* \"#utility.yul\":5425:6137   */\n    tag_203:\n        /* \"#utility.yul\":5446:5447   */\n      0x01\n        /* \"#utility.yul\":5436:5444   */\n      dup6\n        /* \"#utility.yul\":5433:5448   */\n      gt\n        /* \"#utility.yul\":5425:6137   */\n      iszero\n      tag_205\n      jumpi\n        /* \"#utility.yul\":5541:5545   */\n      dup1\n        /* \"#utility.yul\":5536:5539   */\n      dup7\n        /* \"#utility.yul\":5532:5546   */\n      div\n        /* \"#utility.yul\":5526:5530   */\n      dup2\n        /* \"#utility.yul\":5523:5547   */\n      gt\n        /* \"#utility.yul\":5520:5522   */\n      iszero\n      tag_206\n      jumpi\n        /* \"#utility.yul\":5550:5568   */\n      tag_207\n      tag_208\n      jump\t// in\n    tag_207:\n        /* \"#utility.yul\":5520:5522   */\n    tag_206:\n        /* \"#utility.yul\":5600:5601   */\n      0x01\n        /* \"#utility.yul\":5590:5598   */\n      dup6\n        /* \"#utility.yul\":5586:5602   */\n      and\n        /* \"#utility.yul\":5583:5585   */\n      iszero\n      tag_209\n      jumpi\n        /* \"#utility.yul\":6015:6019   */\n      dup1\n        /* \"#utility.yul\":6008:6013   */\n      dup3\n        /* \"#utility.yul\":6004:6020   */\n      mul\n        /* \"#utility.yul\":5995:6020   */\n      swap2\n      pop\n        /* \"#utility.yul\":5583:5585   */\n    tag_209:\n        /* \"#utility.yul\":6065:6069   */\n      dup1\n        /* \"#utility.yul\":6059:6063   */\n      dup2\n        /* \"#utility.yul\":6055:6070   */\n      mul\n        /* \"#utility.yul\":6047:6070   */\n      swap1\n      pop\n        /* \"#utility.yul\":6095:6127   */\n      tag_210\n        /* \"#utility.yul\":6118:6126   */\n      dup6\n        /* \"#utility.yul\":6095:6127   */\n      tag_211\n      jump\t// in\n    tag_210:\n        /* \"#utility.yul\":6083:6127   */\n      swap5\n      pop\n        /* \"#utility.yul\":5425:6137   */\n      jump(tag_203)\n    tag_205:\n        /* \"#utility.yul\":5368:6143   */\n      swap5\n      pop\n      swap5\n      swap3\n      pop\n      pop\n      pop\n      jump\t// out\n        /* \"#utility.yul\":6149:6434   */\n    tag_93:\n      0x00\n        /* \"#utility.yul\":6233:6256   */\n      tag_213\n        /* \"#utility.yul\":6251:6255   */\n      dup3\n        /* \"#utility.yul\":6233:6256   */\n      tag_179\n      jump\t// in\n    tag_213:\n        /* \"#utility.yul\":6225:6256   */\n      swap2\n      pop\n        /* \"#utility.yul\":6277:6304   */\n      tag_214\n        /* \"#utility.yul\":6295:6303   */\n      dup4\n        /* \"#utility.yul\":6277:6304   */\n      tag_179\n      jump\t// in\n    tag_214:\n        /* \"#utility.yul\":6265:6304   */\n      swap3\n      pop\n        /* \"#utility.yul\":6323:6427   */\n      tag_215\n        /* \"#utility.yul\":6360:6426   */\n      0xffffffffffffffffffffffffffffffffffffffffffffffffffffffffffffffff\n        /* \"#utility.yul\":6350:6358   */\n      dup5\n        /* \"#utility.yul\":6344:6348   */\n      dup5\n        /* \"#utility.yul\":6323:6427   */\n      tag_216\n      jump\t// in\n    tag_215:\n        /* \"#utility.yul\":6314:6427   */\n      swap1\n      pop\n        /* \"#utility.yul\":6215:6434   */\n      swap3\n      swap2\n      pop\n      pop\n      jump\t// out\n        /* \"#utility.yul\":6440:7513   */\n    tag_216:\n      0x00\n        /* \"#utility.yul\":6685:6693   */\n      dup3\n        /* \"#utility.yul\":6675:6677   */\n      tag_218\n      jumpi\n        /* \"#utility.yul\":6706:6707   */\n      0x01\n        /* \"#utility.yul\":6697:6707   */\n      swap1\n      pop\n        /* \"#utility.yul\":6708:6713   */\n      jump(tag_217)\n        /* \"#utility.yul\":6675:6677   */\n    tag_218:\n        /* \"#utility.yul\":6734:6738   */\n      dup2\n        /* \"#utility.yul\":6724:6726   */\n      tag_219\n      jumpi\n        /* \"#utility.yul\":6751:6752   */\n      0x00\n        /* \"#utility.yul\":6742:6752   */\n      swap1\n      pop\n        /* \"#utility.yul\":6753:6758   */\n      jump(tag_217)\n        /* \"#utility.yul\":6724:6726   */\n    tag_219:\n        /* \"#utility.yul\":6820:6824   */\n      dup2\n        /* \"#utility.yul\":6868:6869   */\n      0x01\n        /* \"#utility.yul\":6863:6890   */\n      dup2\n      eq\n      tag_221\n      jumpi\n        /* \"#utility.yul\":6904:6905   */\n      0x02\n        /* \"#utility.yul\":6899:7090   */\n      dup2\n      eq\n      tag_222\n      jumpi\n        /* \"#utility.yul\":6813:7090   */\n      jump(tag_220)\n        /* \"#utility.yul\":6863:6890   */\n    tag_221:\n        /* \"#utility.yul\":6881:6882   */\n      0x01\n        /* \"#utility.yul\":6872:6882   */\n      swap2\n      pop\n        /* \"#utility.yul\":6883:6888   */\n      pop\n      jump(tag_217)\n        /* \"#utility.yul\":6899:7090   */\n    tag_222:\n        /* \"#utility.yul\":6944:6947   */\n      0xff\n        /* \"#utility.yul\":6934:6942   */\n      dup5\n        /* \"#utility.yul\":6931:6948   */\n      gt\n        /* \"#utility.yul\":6928:6930   */\n      iszero\n      tag_223\n      jumpi\n        /* \"#utility.yul\":6951:6969   */\n      tag_224\n      tag_208\n      jump\t// in\n    tag_224:\n        /* \"#utility.yul\":6928:6930   */\n    tag_223:\n        /* \"#utility.yul\":7000:7008   */\n      dup4\n        /* \"#utility.yul\":6997:6998   */\n      0x02\n        /* \"#utility.yul\":6993:7009   */\n      exp\n        /* \"#utility.yul\":6984:7009   */\n      swap2\n      pop\n        /* \"#utility.yul\":7035:7038   */\n      dup5\n        /* \"#utility.yul\":7028:7033   */\n      dup3\n        /* \"#utility.yul\":7025:7039   */\n      gt\n        /* \"#utility.yul\":7022:7024   */\n      iszero\n      tag_225\n      jumpi\n        /* \"#utility.yul\":7042:7060   */\n      tag_226\n      tag_208\n      jump\t// in\n    tag_226:\n        /* \"#utility.yul\":7022:7024   */\n    tag_225:\n        /* \"#utility.yul\":7075:7080   */\n      pop\n      jump(tag_217)\n        /* \"#utility.yul\":6813:7090   */\n    tag_220:\n      pop\n        /* \"#utility.yul\":7199:7201   */\n      0x20\n        /* \"#utility.yul\":7189:7197   */\n      dup4\n        /* \"#utility.yul\":7186:7202   */\n      lt\n        /* \"#utility.yul\":7180:7183   */\n      0x0133\n        /* \"#utility.yul\":7174:7178   */\n      dup4\n        /* \"#utility.yul\":7171:7184   */\n      lt\n        /* \"#utility.yul\":7167:7203   */\n      and\n        /* \"#utility.yul\":7149:7151   */\n      0x4e\n        /* \"#utility.yul\":7139:7147   */\n      dup5\n        /* \"#utility.yul\":7136:7152   */\n      lt\n        /* \"#utility.yul\":7131:7133   */\n      0x0b\n        /* \"#utility.yul\":7125:7129   */\n      dup5\n        /* \"#utility.yul\":7122:7134   */\n      lt\n        /* \"#utility.yul\":7118:7153   */\n      and\n        /* \"#utility.yul\":7102:7213   */\n      or\n        /* \"#utility.yul\":7099:7101   */\n      iszero\n      tag_227\n      jumpi\n        /* \"#utility.yul\":7255:7263   */\n      dup3\n        /* \"#utility.yul\":7249:7253   */\n      dup3\n        /* \"#utility.yul\":7245:7264   */\n      exp\n        /* \"#utility.yul\":7236:7264   */\n      swap1\n      pop\n        /* \"#utility.yul\":7290:7293   */\n      dup4\n        /* \"#utility.yul\":7283:7288   */\n      dup2\n        /* \"#utility.yul\":7280:7294   */\n      gt\n        /* \"#utility.yul\":7277:7279   */\n      iszero\n      tag_228\n      jumpi\n        /* \"#utility.yul\":7297:7315   */\n      tag_229\n      tag_208\n      jump\t// in\n    tag_229:\n        /* \"#utility.yul\":7277:7279   */\n    tag_228:\n        /* \"#utility.yul\":7330:7335   */\n      jump(tag_217)\n        /* \"#utility.yul\":7099:7101   */\n    tag_227:\n        /* \"#utility.yul\":7370:7412   */\n      tag_230\n        /* \"#utility.yul\":7408:7411   */\n      dup5\n        /* \"#utility.yul\":7398:7406   */\n      dup5\n        /* \"#utility.yul\":7392:7396   */\n      dup5\n        /* \"#utility.yul\":7389:7390   */\n      0x01\n        /* \"#utility.yul\":7370:7412   */\n      tag_201\n      jump\t// in\n    tag_230:\n        /* \"#utility.yul\":7355:7412   */\n      swap3\n      pop\n      swap1\n      pop\n        /* \"#utility.yul\":7444:7448   */\n      dup2\n        /* \"#utility.yul\":7439:7442   */\n      dup5\n        /* \"#utility.yul\":7435:7449   */\n      div\n        /* \"#utility.yul\":7428:7433   */\n      dup2\n        /* \"#utility.yul\":7425:7450   */\n      gt\n        /* \"#utility.yul\":7422:7424   */\n      iszero\n      tag_231\n      jumpi\n        /* \"#utility.yul\":7453:7471   */\n      tag_232\n      tag_208\n      jump\t// in\n    tag_232:\n        /* \"#utility.yul\":7422:7424   */\n    tag_231:\n        /* \"#utility.yul\":7502:7506   */\n      dup2\n        /* \"#utility.yul\":7495:7500   */\n      dup2\n        /* \"#utility.yul\":7491:7507   */\n      mul\n        /* \"#utility.yul\":7482:7507   */\n      swap1\n      pop\n        /* \"#utility.yul\":6500:7513   */\n    tag_217:\n      swap4\n      swap3\n      pop\n      pop\n      pop\n      jump\t// out\n        /* \"#utility.yul\":7519:7867   */\n    tag_95:\n      0x00\n        /* \"#utility.yul\":7582:7602   */\n      tag_234\n        /* \"#utility.yul\":7600:7601   */\n      dup3\n        /* \"#utility.yul\":7582:7602   */\n      tag_179\n      jump\t// in\n    tag_234:\n        /* \"#utility.yul\":7577:7602   */\n      swap2\n      pop\n        /* \"#utility.yul\":7616:7636   */\n      tag_235\n        /* \"#utility.yul\":7634:7635   */\n      dup4\n        /* \"#utility.yul\":7616:7636   */\n      tag_179\n      jump\t// in\n    tag_235:\n        /* \"#utility.yul\":7611:7636   */\n      swap3\n      pop\n        /* \"#utility.yul\":7804:7805   */\n      dup2\n        /* \"#utility.yul\":7736:7802   */\n      0xffffffffffffffffffffffffffffffffffffffffffffffffffffffffffffffff\n        /* \"#utility.yul\":7732:7806   */\n      div\n        /* \"#utility.yul\":7729:7730   */\n      dup4\n        /* \"#utility.yul\":7726:7807   */\n      gt\n        /* \"#utility.yul\":7721:7722   */\n      dup3\n        /* \"#utility.yul\":7714:7723   */\n      iszero\n        /* \"#utility.yul\":7707:7724   */\n      iszero\n        /* \"#utility.yul\":7703:7808   */\n      and\n        /* \"#utility.yul\":7700:7702   */\n      iszero\n      tag_236\n      jumpi\n        /* \"#utility.yul\":7811:7829   */\n      tag_237\n      tag_208\n      jump\t// in\n    tag_237:\n        /* \"#utility.yul\":7700:7702   */\n    tag_236:\n        /* \"#utility.yul\":7859:7860   */\n      dup3\n        /* \"#utility.yul\":7856:7857   */\n      dup3\n        /* \"#utility.yul\":7852:7861   */\n      mul\n        /* \"#utility.yul\":7841:7861   */\n      swap1\n      pop\n        /* \"#utility.yul\":7567:7867   */\n      swap3\n      swap2\n      pop\n      pop\n      jump\t// out\n        /* \"#utility.yul\":7873:8064   */\n    tag_109:\n      0x00\n        /* \"#utility.yul\":7933:7953   */\n      tag_239\n        /* \"#utility.yul\":7951:7952   */\n      dup3\n        /* \"#utility.yul\":7933:7953   */\n      tag_179\n      jump\t// in\n    tag_239:\n        /* \"#utility.yul\":7928:7953   */\n      swap2\n      pop\n        /* \"#utility.yul\":7967:7987   */\n      tag_240\n        /* \"#utility.yul\":7985:7986   */\n      dup4\n        /* \"#utility.yul\":7967:7987   */\n      tag_179\n      jump\t// in\n    tag_240:\n        /* \"#utility.yul\":7962:7987   */\n      swap3\n      pop\n        /* \"#utility.yul\":8006:8007   */\n      dup3\n        /* \"#utility.yul\":8003:8004   */\n      dup3\n        /* \"#utility.yul\":8000:8008   */\n      lt\n        /* \"#utility.yul\":7997:7999   */\n      iszero\n      tag_241\n      jumpi\n        /* \"#utility.yul\":8011:8029   */\n      tag_242\n      tag_208\n      jump\t// in\n    tag_242:\n        /* \"#utility.yul\":7997:7999   */\n    tag_241:\n        /* \"#utility.yul\":8056:8057   */\n      dup3\n        /* \"#utility.yul\":8053:8054   */\n      dup3\n        /* \"#utility.yul\":8049:8058   */\n      sub\n        /* \"#utility.yul\":8041:8058   */\n      swap1\n      pop\n        /* \"#utility.yul\":7918:8064   */\n      swap3\n      swap2\n      pop\n      pop\n      jump\t// out\n        /* \"#utility.yul\":8070:8166   */\n    tag_158:\n      0x00\n        /* \"#utility.yul\":8136:8160   */\n      tag_244\n        /* \"#utility.yul\":8154:8159   */\n      dup3\n        /* \"#utility.yul\":8136:8160   */\n      tag_245\n      jump\t// in\n    tag_244:\n        /* \"#utility.yul\":8125:8160   */\n      swap1\n      pop\n        /* \"#utility.yul\":8115:8166   */\n      swap2\n      swap1\n      pop\n      jump\t// out\n        /* \"#utility.yul\":8172:8262   */\n    tag_162:\n      0x00\n        /* \"#utility.yul\":8249:8254   */\n      dup2\n        /* \"#utility.yul\":8242:8255   */\n      iszero\n        /* \"#utility.yul\":8235:8256   */\n      iszero\n        /* \"#utility.yul\":8224:8256   */\n      swap1\n      pop\n        /* \"#utility.yul\":8214:8262   */\n      swap2\n      swap1\n      pop\n      jump\t// out\n        /* \"#utility.yul\":8268:8394   */\n    tag_245:\n      0x00\n        /* \"#utility.yul\":8345:8387   */\n      0xffffffffffffffffffffffffffffffffffffffff\n        /* \"#utility.yul\":8338:8343   */\n      dup3\n        /* \"#utility.yul\":8334:8388   */\n      and\n        /* \"#utility.yul\":8323:8388   */\n      swap1\n      pop\n        /* \"#utility.yul\":8313:8394   */\n      swap2\n      swap1\n      pop\n      jump\t// out\n        /* \"#utility.yul\":8400:8477   */\n    tag_179:\n      0x00\n        /* \"#utility.yul\":8466:8471   */\n      dup2\n        /* \"#utility.yul\":8455:8471   */\n      swap1\n      pop\n        /* \"#utility.yul\":8445:8477   */\n      swap2\n      swap1\n      pop\n      jump\t// out\n        /* \"#utility.yul\":8483:8663   */\n    tag_208:\n        /* \"#utility.yul\":8531:8608   */\n      0x4e487b7100000000000000000000000000000000000000000000000000000000\n        /* \"#utility.yul\":8528:8529   */\n      0x00\n        /* \"#utility.yul\":8521:8609   */\n      mstore\n        /* \"#utility.yul\":8628:8632   */\n      0x11\n        /* \"#utility.yul\":8625:8626   */\n      0x04\n        /* \"#utility.yul\":8618:8633   */\n      mstore\n        /* \"#utility.yul\":8652:8656   */\n      0x24\n        /* \"#utility.yul\":8649:8650   */\n      0x00\n        /* \"#utility.yul\":8642:8657   */\n      revert\n        /* \"#utility.yul\":8669:8849   */\n    tag_200:\n        /* \"#utility.yul\":8717:8794   */\n      0x4e487b7100000000000000000000000000000000000000000000000000000000\n        /* \"#utility.yul\":8714:8715   */\n      0x00\n        /* \"#utility.yul\":8707:8795   */\n      mstore\n        /* \"#utility.yul\":8814:8818   */\n      0x12\n        /* \"#utility.yul\":8811:8812   */\n      0x04\n        /* \"#utility.yul\":8804:8819   */\n      mstore\n        /* \"#utility.yul\":8838:8842   */\n      0x24\n        /* \"#utility.yul\":8835:8836   */\n      0x00\n        /* \"#utility.yul\":8828:8843   */\n      revert\n        /* \"#utility.yul\":8855:8957   */\n    tag_211:\n      0x00\n        /* \"#utility.yul\":8944:8949   */\n      dup2\n        /* \"#utility.yul\":8941:8942   */\n      0x01\n        /* \"#utility.yul\":8937:8950   */\n      shr\n        /* \"#utility.yul\":8916:8950   */\n      swap1\n      pop\n        /* \"#utility.yul\":8906:8957   */\n      swap2\n      swap1\n      pop\n      jump\t// out\n        /* \"#utility.yul\":8963:9085   */\n    tag_144:\n        /* \"#utility.yul\":9036:9060   */\n      tag_253\n        /* \"#utility.yul\":9054:9059   */\n      dup2\n        /* \"#utility.yul\":9036:9060   */\n      tag_158\n      jump\t// in\n    tag_253:\n        /* \"#utility.yul\":9029:9034   */\n      dup2\n        /* \"#utility.yul\":9026:9061   */\n      eq\n        /* \"#utility.yul\":9016:9018   */\n      tag_254\n      jumpi\n        /* \"#utility.yul\":9075:9076   */\n      0x00\n        /* \"#utility.yul\":9072:9073   */\n      dup1\n        /* \"#utility.yul\":9065:9077   */\n      revert\n        /* \"#utility.yul\":9016:9018   */\n    tag_254:\n        /* \"#utility.yul\":9006:9085   */\n      pop\n      jump\t// out\n        /* \"#utility.yul\":9091:9213   */\n    tag_148:\n        /* \"#utility.yul\":9164:9188   */\n      tag_256\n        /* \"#utility.yul\":9182:9187   */\n      dup2\n        /* \"#utility.yul\":9164:9188   */\n      tag_179\n      jump\t// in\n    tag_256:\n        /* \"#utility.yul\":9157:9162   */\n      dup2\n        /* \"#utility.yul\":9154:9189   */\n      eq\n        /* \"#utility.yul\":9144:9146   */\n      tag_257\n      jumpi\n        /* \"#utility.yul\":9203:9204   */\n      0x00\n        /* \"#utility.yul\":9200:9201   */\n      dup1\n        /* \"#utility.yul\":9193:9205   */\n      revert\n        /* \"#utility.yul\":9144:9146   */\n    tag_257:\n        /* \"#utility.yul\":9134:9213   */\n      pop\n      jump\t// out\n\n    auxdata: 0xa264697066735822122053d7b4eef4203f89d755d91c376e7a79389d058ac43566c33e51066bb0040e7864736f6c63430008000033\n}\n",
				"bytecode": {
					"linkReferences": {},
					"object": "60806040523480156200001157600080fd5b50604051620012ec380380620012ec8339818101604052810190620000379190620002e2565b6000620000496200029560201b60201c565b9050806000806101000a81548173ffffffffffffffffffffffffffffffffffffffff021916908373ffffffffffffffffffffffffffffffffffffffff1602179055508073ffffffffffffffffffffffffffffffffffffffff16600073ffffffffffffffffffffffffffffffffffffffff167f8be0079c531659141344cd1fd0a4f28419497f9722a3daafe3b4186f6b6457e060405160405180910390a35060008573ffffffffffffffffffffffffffffffffffffffff1663313ce5676040518163ffffffff1660e01b815260040160206040518083038186803b1580156200013057600080fd5b505afa15801562000145573d6000803e3d6000fd5b505050506040513d601f19601f820116820180604052508101906200016b919062000364565b60ff16116200017957600080fd5b8284106200018657600080fd5b600082116200019457600080fd5b60008111620001a257600080fd5b84600160006101000a81548173ffffffffffffffffffffffffffffffffffffffff021916908373ffffffffffffffffffffffffffffffffffffffff1602179055508473ffffffffffffffffffffffffffffffffffffffff1663313ce5676040518163ffffffff1660e01b815260040160206040518083038186803b1580156200022a57600080fd5b505afa1580156200023f573d6000803e3d6000fd5b505050506040513d601f19601f8201168201806040525081019062000265919062000364565b60ff1660028190555083600381905550826004819055508160058190555080600881905550505050505062000429565b600033905090565b600081519050620002ae81620003db565b92915050565b600081519050620002c581620003f5565b92915050565b600081519050620002dc816200040f565b92915050565b600080600080600060a08688031215620002fb57600080fd5b60006200030b888289016200029d565b95505060206200031e88828901620002b4565b94505060406200033188828901620002b4565b93505060606200034488828901620002b4565b92505060806200035788828901620002b4565b9150509295509295909350565b6000602082840312156200037757600080fd5b60006200038784828501620002cb565b91505092915050565b60006200039d82620003a4565b9050919050565b600073ffffffffffffffffffffffffffffffffffffffff82169050919050565b6000819050919050565b600060ff82169050919050565b620003e68162000390565b8114620003f257600080fd5b50565b6200040081620003c4565b81146200040c57600080fd5b50565b6200041a81620003ce565b81146200042657600080fd5b50565b610eb380620004396000396000f3fe6080604052600436106100f35760003560e01c806378e979251161008a578063f2fde38b11610059578063f2fde38b146102d9578063fa1a5f5914610302578063fa300f751461032d578063fc0c546a1461036a576100f3565b806378e979251461024e5780638da5cb5b14610279578063c0b5fca0146102a4578063d0febe4c146102cf576100f3565b80633996dc8f116100c65780633996dc8f146101a457806348dc5893146101cf5780635caed0291461020c578063715018a614610237576100f3565b80631b0875a6146100f857806322f3e2d414610123578063317118841461014e5780633197cbb614610179575b600080fd5b34801561010457600080fd5b5061010d610395565b60405161011a9190610b40565b60405180910390f35b34801561012f57600080fd5b5061013861039b565b6040516101459190610aa5565b60405180910390f35b34801561015a57600080fd5b506101636103b6565b6040516101709190610b40565b60405180910390f35b34801561018557600080fd5b5061018e6103bc565b60405161019b9190610b40565b60405180910390f35b3480156101b057600080fd5b506101b96103c2565b6040516101c69190610b40565b60405180910390f35b3480156101db57600080fd5b506101f660048036038101906101f1919061090e565b6103c8565b6040516102039190610b40565b60405180910390f35b34801561021857600080fd5b506102216103fd565b60405161022e9190610b40565b60405180910390f35b34801561024357600080fd5b5061024c610403565b005b34801561025a57600080fd5b5061026361053d565b6040516102709190610b40565b60405180910390f35b34801561028557600080fd5b5061028e610543565b60405161029b9190610a8a565b60405180910390f35b3480156102b057600080fd5b506102b961056c565b6040516102c69190610b40565b60405180910390f35b6102d7610583565b005b3480156102e557600080fd5b5061030060048036038101906102fb91906108e5565b6106a9565b005b34801561030e57600080fd5b50610317610852565b6040516103249190610b40565b60405180910390f35b34801561033957600080fd5b50610354600480360381019061034f919061090e565b610858565b6040516103619190610b40565b60405180910390f35b34801561037657600080fd5b5061037f61088d565b60405161038c9190610a8a565b60405180910390f35b60085481565b600042600354111580156103b157506004544211155b905090565b60055481565b60045481565b60075481565b600080600254600a6103da9190610bf0565b905060055481846103eb9190610d0e565b6103f59190610b6c565b915050919050565b60025481565b61040b6108b3565b73ffffffffffffffffffffffffffffffffffffffff16610429610543565b73ffffffffffffffffffffffffffffffffffffffff161461047f576040517f08c379a000000000000000000000000000000000000000000000000000000000815260040161047690610b20565b60405180910390fd5b600073ffffffffffffffffffffffffffffffffffffffff1660008054906101000a900473ffffffffffffffffffffffffffffffffffffffff1673ffffffffffffffffffffffffffffffffffffffff167f8be0079c531659141344cd1fd0a4f28419497f9722a3daafe3b4186f6b6457e060405160405180910390a360008060006101000a81548173ffffffffffffffffffffffffffffffffffffffff021916908373ffffffffffffffffffffffffffffffffffffffff160217905550565b60035481565b60008060009054906101000a900473ffffffffffffffffffffffffffffffffffffffff16905090565b600060065460085461057e9190610d68565b905090565b600061058d6108b3565b9050600034905061059c61039b565b6105db576040517f08c379a00000000000000000000000000000000000000000000000000000000081526004016105d290610ae0565b60405180910390fd5b6000811161061e576040517f08c379a000000000000000000000000000000000000000000000000000000000815260040161061590610b00565b60405180910390fd5b6000610629826103c8565b9050600061063561056c565b9050808211156106a357809150600061064d82610858565b846106589190610d68565b90508473ffffffffffffffffffffffffffffffffffffffff166108fc829081150290604051600060405180830381858888f193505050501580156106a0573d6000803e3d6000fd5b50505b50505050565b6106b16108b3565b73ffffffffffffffffffffffffffffffffffffffff166106cf610543565b73ffffffffffffffffffffffffffffffffffffffff1614610725576040517f08c379a000000000000000000000000000000000000000000000000000000000815260040161071c90610b20565b60405180910390fd5b600073ffffffffffffffffffffffffffffffffffffffff168173ffffffffffffffffffffffffffffffffffffffff161415610795576040517f08c379a000000000000000000000000000000000000000000000000000000000815260040161078c90610ac0565b60405180910390fd5b8073ffffffffffffffffffffffffffffffffffffffff1660008054906101000a900473ffffffffffffffffffffffffffffffffffffffff1673ffffffffffffffffffffffffffffffffffffffff167f8be0079c531659141344cd1fd0a4f28419497f9722a3daafe3b4186f6b6457e060405160405180910390a3806000806101000a81548173ffffffffffffffffffffffffffffffffffffffff021916908373ffffffffffffffffffffffffffffffffffffffff16021790555050565b60065481565b600080600254600a61086a9190610bf0565b9050806005548461087b9190610d0e565b6108859190610b6c565b915050919050565b600160009054906101000a900473ffffffffffffffffffffffffffffffffffffffff1681565b600033905090565b6000813590506108ca81610e4f565b92915050565b6000813590506108df81610e66565b92915050565b6000602082840312156108f757600080fd5b6000610905848285016108bb565b91505092915050565b60006020828403121561092057600080fd5b600061092e848285016108d0565b91505092915050565b61094081610d9c565b82525050565b61094f81610dae565b82525050565b6000610962602683610b5b565b91507f4f776e61626c653a206e6577206f776e657220697320746865207a65726f206160008301527f64647265737300000000000000000000000000000000000000000000000000006020830152604082019050919050565b60006109c8601283610b5b565b91507f53616c65206973206e6f742061637469766500000000000000000000000000006000830152602082019050919050565b6000610a08601783610b5b565b91507f416363657074656420616d6f756e74206973207a65726f0000000000000000006000830152602082019050919050565b6000610a48602083610b5b565b91507f4f776e61626c653a2063616c6c6572206973206e6f7420746865206f776e65726000830152602082019050919050565b610a8481610dda565b82525050565b6000602082019050610a9f6000830184610937565b92915050565b6000602082019050610aba6000830184610946565b92915050565b60006020820190508181036000830152610ad981610955565b9050919050565b60006020820190508181036000830152610af9816109bb565b9050919050565b60006020820190508181036000830152610b19816109fb565b9050919050565b60006020820190508181036000830152610b3981610a3b565b9050919050565b6000602082019050610b556000830184610a7b565b92915050565b600082825260208201905092915050565b6000610b7782610dda565b9150610b8283610dda565b925082610b9257610b91610e13565b5b828204905092915050565b6000808291508390505b6001851115610be757808604811115610bc357610bc2610de4565b5b6001851615610bd25780820291505b8081029050610be085610e42565b9450610ba7565b94509492505050565b6000610bfb82610dda565b9150610c0683610dda565b9250610c337fffffffffffffffffffffffffffffffffffffffffffffffffffffffffffffffff8484610c3b565b905092915050565b600082610c4b5760019050610d07565b81610c595760009050610d07565b8160018114610c6f5760028114610c7957610ca8565b6001915050610d07565b60ff841115610c8b57610c8a610de4565b5b8360020a915084821115610ca257610ca1610de4565b5b50610d07565b5060208310610133831016604e8410600b8410161715610cdd5782820a905083811115610cd857610cd7610de4565b5b610d07565b610cea8484846001610b9d565b92509050818404811115610d0157610d00610de4565b5b81810290505b9392505050565b6000610d1982610dda565b9150610d2483610dda565b9250817fffffffffffffffffffffffffffffffffffffffffffffffffffffffffffffffff0483118215151615610d5d57610d5c610de4565b5b828202905092915050565b6000610d7382610dda565b9150610d7e83610dda565b925082821015610d9157610d90610de4565b5b828203905092915050565b6000610da782610dba565b9050919050565b60008115159050919050565b600073ffffffffffffffffffffffffffffffffffffffff82169050919050565b6000819050919050565b7f4e487b7100000000000000000000000000000000000000000000000000000000600052601160045260246000fd5b7f4e487b7100000000000000000000000000000000000000000000000000000000600052601260045260246000fd5b60008160011c9050919050565b610e5881610d9c565b8114610e6357600080fd5b50565b610e6f81610dda565b8114610e7a57600080fd5b5056fea264697066735822122053d7b4eef4203f89d755d91c376e7a79389d058ac43566c33e51066bb0040e7864736f6c63430008000033",
					"opcodes": "PUSH1 0x80 PUSH1 0x40 MSTORE CALLVALUE DUP1 ISZERO PUSH3 0x11 JUMPI PUSH1 0x0 DUP1 REVERT JUMPDEST POP PUSH1 0x40 MLOAD PUSH3 0x12EC CODESIZE SUB DUP1 PUSH3 0x12EC DUP4 CODECOPY DUP2 DUP2 ADD PUSH1 0x40 MSTORE DUP2 ADD SWAP1 PUSH3 0x37 SWAP2 SWAP1 PUSH3 0x2E2 JUMP JUMPDEST PUSH1 0x0 PUSH3 0x49 PUSH3 0x295 PUSH1 0x20 SHL PUSH1 0x20 SHR JUMP JUMPDEST SWAP1 POP DUP1 PUSH1 0x0 DUP1 PUSH2 0x100 EXP DUP2 SLOAD DUP2 PUSH20 0xFFFFFFFFFFFFFFFFFFFFFFFFFFFFFFFFFFFFFFFF MUL NOT AND SWAP1 DUP4 PUSH20 0xFFFFFFFFFFFFFFFFFFFFFFFFFFFFFFFFFFFFFFFF AND MUL OR SWAP1 SSTORE POP DUP1 PUSH20 0xFFFFFFFFFFFFFFFFFFFFFFFFFFFFFFFFFFFFFFFF AND PUSH1 0x0 PUSH20 0xFFFFFFFFFFFFFFFFFFFFFFFFFFFFFFFFFFFFFFFF AND PUSH32 0x8BE0079C531659141344CD1FD0A4F28419497F9722A3DAAFE3B4186F6B6457E0 PUSH1 0x40 MLOAD PUSH1 0x40 MLOAD DUP1 SWAP2 SUB SWAP1 LOG3 POP PUSH1 0x0 DUP6 PUSH20 0xFFFFFFFFFFFFFFFFFFFFFFFFFFFFFFFFFFFFFFFF AND PUSH4 0x313CE567 PUSH1 0x40 MLOAD DUP2 PUSH4 0xFFFFFFFF AND PUSH1 0xE0 SHL DUP2 MSTORE PUSH1 0x4 ADD PUSH1 0x20 PUSH1 0x40 MLOAD DUP1 DUP4 SUB DUP2 DUP7 DUP1 EXTCODESIZE ISZERO DUP1 ISZERO PUSH3 0x130 JUMPI PUSH1 0x0 DUP1 REVERT JUMPDEST POP GAS STATICCALL ISZERO DUP1 ISZERO PUSH3 0x145 JUMPI RETURNDATASIZE PUSH1 0x0 DUP1 RETURNDATACOPY RETURNDATASIZE PUSH1 0x0 REVERT JUMPDEST POP POP POP POP PUSH1 0x40 MLOAD RETURNDATASIZE PUSH1 0x1F NOT PUSH1 0x1F DUP3 ADD AND DUP3 ADD DUP1 PUSH1 0x40 MSTORE POP DUP2 ADD SWAP1 PUSH3 0x16B SWAP2 SWAP1 PUSH3 0x364 JUMP JUMPDEST PUSH1 0xFF AND GT PUSH3 0x179 JUMPI PUSH1 0x0 DUP1 REVERT JUMPDEST DUP3 DUP5 LT PUSH3 0x186 JUMPI PUSH1 0x0 DUP1 REVERT JUMPDEST PUSH1 0x0 DUP3 GT PUSH3 0x194 JUMPI PUSH1 0x0 DUP1 REVERT JUMPDEST PUSH1 0x0 DUP2 GT PUSH3 0x1A2 JUMPI PUSH1 0x0 DUP1 REVERT JUMPDEST DUP5 PUSH1 0x1 PUSH1 0x0 PUSH2 0x100 EXP DUP2 SLOAD DUP2 PUSH20 0xFFFFFFFFFFFFFFFFFFFFFFFFFFFFFFFFFFFFFFFF MUL NOT AND SWAP1 DUP4 PUSH20 0xFFFFFFFFFFFFFFFFFFFFFFFFFFFFFFFFFFFFFFFF AND MUL OR SWAP1 SSTORE POP DUP5 PUSH20 0xFFFFFFFFFFFFFFFFFFFFFFFFFFFFFFFFFFFFFFFF AND PUSH4 0x313CE567 PUSH1 0x40 MLOAD DUP2 PUSH4 0xFFFFFFFF AND PUSH1 0xE0 SHL DUP2 MSTORE PUSH1 0x4 ADD PUSH1 0x20 PUSH1 0x40 MLOAD DUP1 DUP4 SUB DUP2 DUP7 DUP1 EXTCODESIZE ISZERO DUP1 ISZERO PUSH3 0x22A JUMPI PUSH1 0x0 DUP1 REVERT JUMPDEST POP GAS STATICCALL ISZERO DUP1 ISZERO PUSH3 0x23F JUMPI RETURNDATASIZE PUSH1 0x0 DUP1 RETURNDATACOPY RETURNDATASIZE PUSH1 0x0 REVERT JUMPDEST POP POP POP POP PUSH1 0x40 MLOAD RETURNDATASIZE PUSH1 0x1F NOT PUSH1 0x1F DUP3 ADD AND DUP3 ADD DUP1 PUSH1 0x40 MSTORE POP DUP2 ADD SWAP1 PUSH3 0x265 SWAP2 SWAP1 PUSH3 0x364 JUMP JUMPDEST PUSH1 0xFF AND PUSH1 0x2 DUP2 SWAP1 SSTORE POP DUP4 PUSH1 0x3 DUP2 SWAP1 SSTORE POP DUP3 PUSH1 0x4 DUP2 SWAP1 SSTORE POP DUP2 PUSH1 0x5 DUP2 SWAP1 SSTORE POP DUP1 PUSH1 0x8 DUP2 SWAP1 SSTORE POP POP POP POP POP POP PUSH3 0x429 JUMP JUMPDEST PUSH1 0x0 CALLER SWAP1 POP SWAP1 JUMP JUMPDEST PUSH1 0x0 DUP2 MLOAD SWAP1 POP PUSH3 0x2AE DUP2 PUSH3 0x3DB JUMP JUMPDEST SWAP3 SWAP2 POP POP JUMP JUMPDEST PUSH1 0x0 DUP2 MLOAD SWAP1 POP PUSH3 0x2C5 DUP2 PUSH3 0x3F5 JUMP JUMPDEST SWAP3 SWAP2 POP POP JUMP JUMPDEST PUSH1 0x0 DUP2 MLOAD SWAP1 POP PUSH3 0x2DC DUP2 PUSH3 0x40F JUMP JUMPDEST SWAP3 SWAP2 POP POP JUMP JUMPDEST PUSH1 0x0 DUP1 PUSH1 0x0 DUP1 PUSH1 0x0 PUSH1 0xA0 DUP7 DUP9 SUB SLT ISZERO PUSH3 0x2FB JUMPI PUSH1 0x0 DUP1 REVERT JUMPDEST PUSH1 0x0 PUSH3 0x30B DUP9 DUP3 DUP10 ADD PUSH3 0x29D JUMP JUMPDEST SWAP6 POP POP PUSH1 0x20 PUSH3 0x31E DUP9 DUP3 DUP10 ADD PUSH3 0x2B4 JUMP JUMPDEST SWAP5 POP POP PUSH1 0x40 PUSH3 0x331 DUP9 DUP3 DUP10 ADD PUSH3 0x2B4 JUMP JUMPDEST SWAP4 POP POP PUSH1 0x60 PUSH3 0x344 DUP9 DUP3 DUP10 ADD PUSH3 0x2B4 JUMP JUMPDEST SWAP3 POP POP PUSH1 0x80 PUSH3 0x357 DUP9 DUP3 DUP10 ADD PUSH3 0x2B4 JUMP JUMPDEST SWAP2 POP POP SWAP3 SWAP6 POP SWAP3 SWAP6 SWAP1 SWAP4 POP JUMP JUMPDEST PUSH1 0x0 PUSH1 0x20 DUP3 DUP5 SUB SLT ISZERO PUSH3 0x377 JUMPI PUSH1 0x0 DUP1 REVERT JUMPDEST PUSH1 0x0 PUSH3 0x387 DUP5 DUP3 DUP6 ADD PUSH3 0x2CB JUMP JUMPDEST SWAP2 POP POP SWAP3 SWAP2 POP POP JUMP JUMPDEST PUSH1 0x0 PUSH3 0x39D DUP3 PUSH3 0x3A4 JUMP JUMPDEST SWAP1 POP SWAP2 SWAP1 POP JUMP JUMPDEST PUSH1 0x0 PUSH20 0xFFFFFFFFFFFFFFFFFFFFFFFFFFFFFFFFFFFFFFFF DUP3 AND SWAP1 POP SWAP2 SWAP1 POP JUMP JUMPDEST PUSH1 0x0 DUP2 SWAP1 POP SWAP2 SWAP1 POP JUMP JUMPDEST PUSH1 0x0 PUSH1 0xFF DUP3 AND SWAP1 POP SWAP2 SWAP1 POP JUMP JUMPDEST PUSH3 0x3E6 DUP2 PUSH3 0x390 JUMP JUMPDEST DUP2 EQ PUSH3 0x3F2 JUMPI PUSH1 0x0 DUP1 REVERT JUMPDEST POP JUMP JUMPDEST PUSH3 0x400 DUP2 PUSH3 0x3C4 JUMP JUMPDEST DUP2 EQ PUSH3 0x40C JUMPI PUSH1 0x0 DUP1 REVERT JUMPDEST POP JUMP JUMPDEST PUSH3 0x41A DUP2 PUSH3 0x3CE JUMP JUMPDEST DUP2 EQ PUSH3 0x426 JUMPI PUSH1 0x0 DUP1 REVERT JUMPDEST POP JUMP JUMPDEST PUSH2 0xEB3 DUP1 PUSH3 0x439 PUSH1 0x0 CODECOPY PUSH1 0x0 RETURN INVALID PUSH1 0x80 PUSH1 0x40 MSTORE PUSH1 0x4 CALLDATASIZE LT PUSH2 0xF3 JUMPI PUSH1 0x0 CALLDATALOAD PUSH1 0xE0 SHR DUP1 PUSH4 0x78E97925 GT PUSH2 0x8A JUMPI DUP1 PUSH4 0xF2FDE38B GT PUSH2 0x59 JUMPI DUP1 PUSH4 0xF2FDE38B EQ PUSH2 0x2D9 JUMPI DUP1 PUSH4 0xFA1A5F59 EQ PUSH2 0x302 JUMPI DUP1 PUSH4 0xFA300F75 EQ PUSH2 0x32D JUMPI DUP1 PUSH4 0xFC0C546A EQ PUSH2 0x36A JUMPI PUSH2 0xF3 JUMP JUMPDEST DUP1 PUSH4 0x78E97925 EQ PUSH2 0x24E JUMPI DUP1 PUSH4 0x8DA5CB5B EQ PUSH2 0x279 JUMPI DUP1 PUSH4 0xC0B5FCA0 EQ PUSH2 0x2A4 JUMPI DUP1 PUSH4 0xD0FEBE4C EQ PUSH2 0x2CF JUMPI PUSH2 0xF3 JUMP JUMPDEST DUP1 PUSH4 0x3996DC8F GT PUSH2 0xC6 JUMPI DUP1 PUSH4 0x3996DC8F EQ PUSH2 0x1A4 JUMPI DUP1 PUSH4 0x48DC5893 EQ PUSH2 0x1CF JUMPI DUP1 PUSH4 0x5CAED029 EQ PUSH2 0x20C JUMPI DUP1 PUSH4 0x715018A6 EQ PUSH2 0x237 JUMPI PUSH2 0xF3 JUMP JUMPDEST DUP1 PUSH4 0x1B0875A6 EQ PUSH2 0xF8 JUMPI DUP1 PUSH4 0x22F3E2D4 EQ PUSH2 0x123 JUMPI DUP1 PUSH4 0x31711884 EQ PUSH2 0x14E JUMPI DUP1 PUSH4 0x3197CBB6 EQ PUSH2 0x179 JUMPI JUMPDEST PUSH1 0x0 DUP1 REVERT JUMPDEST CALLVALUE DUP1 ISZERO PUSH2 0x104 JUMPI PUSH1 0x0 DUP1 REVERT JUMPDEST POP PUSH2 0x10D PUSH2 0x395 JUMP JUMPDEST PUSH1 0x40 MLOAD PUSH2 0x11A SWAP2 SWAP1 PUSH2 0xB40 JUMP JUMPDEST PUSH1 0x40 MLOAD DUP1 SWAP2 SUB SWAP1 RETURN JUMPDEST CALLVALUE DUP1 ISZERO PUSH2 0x12F JUMPI PUSH1 0x0 DUP1 REVERT JUMPDEST POP PUSH2 0x138 PUSH2 0x39B JUMP JUMPDEST PUSH1 0x40 MLOAD PUSH2 0x145 SWAP2 SWAP1 PUSH2 0xAA5 JUMP JUMPDEST PUSH1 0x40 MLOAD DUP1 SWAP2 SUB SWAP1 RETURN JUMPDEST CALLVALUE DUP1 ISZERO PUSH2 0x15A JUMPI PUSH1 0x0 DUP1 REVERT JUMPDEST POP PUSH2 0x163 PUSH2 0x3B6 JUMP JUMPDEST PUSH1 0x40 MLOAD PUSH2 0x170 SWAP2 SWAP1 PUSH2 0xB40 JUMP JUMPDEST PUSH1 0x40 MLOAD DUP1 SWAP2 SUB SWAP1 RETURN JUMPDEST CALLVALUE DUP1 ISZERO PUSH2 0x185 JUMPI PUSH1 0x0 DUP1 REVERT JUMPDEST POP PUSH2 0x18E PUSH2 0x3BC JUMP JUMPDEST PUSH1 0x40 MLOAD PUSH2 0x19B SWAP2 SWAP1 PUSH2 0xB40 JUMP JUMPDEST PUSH1 0x40 MLOAD DUP1 SWAP2 SUB SWAP1 RETURN JUMPDEST CALLVALUE DUP1 ISZERO PUSH2 0x1B0 JUMPI PUSH1 0x0 DUP1 REVERT JUMPDEST POP PUSH2 0x1B9 PUSH2 0x3C2 JUMP JUMPDEST PUSH1 0x40 MLOAD PUSH2 0x1C6 SWAP2 SWAP1 PUSH2 0xB40 JUMP JUMPDEST PUSH1 0x40 MLOAD DUP1 SWAP2 SUB SWAP1 RETURN JUMPDEST CALLVALUE DUP1 ISZERO PUSH2 0x1DB JUMPI PUSH1 0x0 DUP1 REVERT JUMPDEST POP PUSH2 0x1F6 PUSH1 0x4 DUP1 CALLDATASIZE SUB DUP2 ADD SWAP1 PUSH2 0x1F1 SWAP2 SWAP1 PUSH2 0x90E JUMP JUMPDEST PUSH2 0x3C8 JUMP JUMPDEST PUSH1 0x40 MLOAD PUSH2 0x203 SWAP2 SWAP1 PUSH2 0xB40 JUMP JUMPDEST PUSH1 0x40 MLOAD DUP1 SWAP2 SUB SWAP1 RETURN JUMPDEST CALLVALUE DUP1 ISZERO PUSH2 0x218 JUMPI PUSH1 0x0 DUP1 REVERT JUMPDEST POP PUSH2 0x221 PUSH2 0x3FD JUMP JUMPDEST PUSH1 0x40 MLOAD PUSH2 0x22E SWAP2 SWAP1 PUSH2 0xB40 JUMP JUMPDEST PUSH1 0x40 MLOAD DUP1 SWAP2 SUB SWAP1 RETURN JUMPDEST CALLVALUE DUP1 ISZERO PUSH2 0x243 JUMPI PUSH1 0x0 DUP1 REVERT JUMPDEST POP PUSH2 0x24C PUSH2 0x403 JUMP JUMPDEST STOP JUMPDEST CALLVALUE DUP1 ISZERO PUSH2 0x25A JUMPI PUSH1 0x0 DUP1 REVERT JUMPDEST POP PUSH2 0x263 PUSH2 0x53D JUMP JUMPDEST PUSH1 0x40 MLOAD PUSH2 0x270 SWAP2 SWAP1 PUSH2 0xB40 JUMP JUMPDEST PUSH1 0x40 MLOAD DUP1 SWAP2 SUB SWAP1 RETURN JUMPDEST CALLVALUE DUP1 ISZERO PUSH2 0x285 JUMPI PUSH1 0x0 DUP1 REVERT JUMPDEST POP PUSH2 0x28E PUSH2 0x543 JUMP JUMPDEST PUSH1 0x40 MLOAD PUSH2 0x29B SWAP2 SWAP1 PUSH2 0xA8A JUMP JUMPDEST PUSH1 0x40 MLOAD DUP1 SWAP2 SUB SWAP1 RETURN JUMPDEST CALLVALUE DUP1 ISZERO PUSH2 0x2B0 JUMPI PUSH1 0x0 DUP1 REVERT JUMPDEST POP PUSH2 0x2B9 PUSH2 0x56C JUMP JUMPDEST PUSH1 0x40 MLOAD PUSH2 0x2C6 SWAP2 SWAP1 PUSH2 0xB40 JUMP JUMPDEST PUSH1 0x40 MLOAD DUP1 SWAP2 SUB SWAP1 RETURN JUMPDEST PUSH2 0x2D7 PUSH2 0x583 JUMP JUMPDEST STOP JUMPDEST CALLVALUE DUP1 ISZERO PUSH2 0x2E5 JUMPI PUSH1 0x0 DUP1 REVERT JUMPDEST POP PUSH2 0x300 PUSH1 0x4 DUP1 CALLDATASIZE SUB DUP2 ADD SWAP1 PUSH2 0x2FB SWAP2 SWAP1 PUSH2 0x8E5 JUMP JUMPDEST PUSH2 0x6A9 JUMP JUMPDEST STOP JUMPDEST CALLVALUE DUP1 ISZERO PUSH2 0x30E JUMPI PUSH1 0x0 DUP1 REVERT JUMPDEST POP PUSH2 0x317 PUSH2 0x852 JUMP JUMPDEST PUSH1 0x40 MLOAD PUSH2 0x324 SWAP2 SWAP1 PUSH2 0xB40 JUMP JUMPDEST PUSH1 0x40 MLOAD DUP1 SWAP2 SUB SWAP1 RETURN JUMPDEST CALLVALUE DUP1 ISZERO PUSH2 0x339 JUMPI PUSH1 0x0 DUP1 REVERT JUMPDEST POP PUSH2 0x354 PUSH1 0x4 DUP1 CALLDATASIZE SUB DUP2 ADD SWAP1 PUSH2 0x34F SWAP2 SWAP1 PUSH2 0x90E JUMP JUMPDEST PUSH2 0x858 JUMP JUMPDEST PUSH1 0x40 MLOAD PUSH2 0x361 SWAP2 SWAP1 PUSH2 0xB40 JUMP JUMPDEST PUSH1 0x40 MLOAD DUP1 SWAP2 SUB SWAP1 RETURN JUMPDEST CALLVALUE DUP1 ISZERO PUSH2 0x376 JUMPI PUSH1 0x0 DUP1 REVERT JUMPDEST POP PUSH2 0x37F PUSH2 0x88D JUMP JUMPDEST PUSH1 0x40 MLOAD PUSH2 0x38C SWAP2 SWAP1 PUSH2 0xA8A JUMP JUMPDEST PUSH1 0x40 MLOAD DUP1 SWAP2 SUB SWAP1 RETURN JUMPDEST PUSH1 0x8 SLOAD DUP2 JUMP JUMPDEST PUSH1 0x0 TIMESTAMP PUSH1 0x3 SLOAD GT ISZERO DUP1 ISZERO PUSH2 0x3B1 JUMPI POP PUSH1 0x4 SLOAD TIMESTAMP GT ISZERO JUMPDEST SWAP1 POP SWAP1 JUMP JUMPDEST PUSH1 0x5 SLOAD DUP2 JUMP JUMPDEST PUSH1 0x4 SLOAD DUP2 JUMP JUMPDEST PUSH1 0x7 SLOAD DUP2 JUMP JUMPDEST PUSH1 0x0 DUP1 PUSH1 0x2 SLOAD PUSH1 0xA PUSH2 0x3DA SWAP2 SWAP1 PUSH2 0xBF0 JUMP JUMPDEST SWAP1 POP PUSH1 0x5 SLOAD DUP2 DUP5 PUSH2 0x3EB SWAP2 SWAP1 PUSH2 0xD0E JUMP JUMPDEST PUSH2 0x3F5 SWAP2 SWAP1 PUSH2 0xB6C JUMP JUMPDEST SWAP2 POP POP SWAP2 SWAP1 POP JUMP JUMPDEST PUSH1 0x2 SLOAD DUP2 JUMP JUMPDEST PUSH2 0x40B PUSH2 0x8B3 JUMP JUMPDEST PUSH20 0xFFFFFFFFFFFFFFFFFFFFFFFFFFFFFFFFFFFFFFFF AND PUSH2 0x429 PUSH2 0x543 JUMP JUMPDEST PUSH20 0xFFFFFFFFFFFFFFFFFFFFFFFFFFFFFFFFFFFFFFFF AND EQ PUSH2 0x47F JUMPI PUSH1 0x40 MLOAD PUSH32 0x8C379A000000000000000000000000000000000000000000000000000000000 DUP2 MSTORE PUSH1 0x4 ADD PUSH2 0x476 SWAP1 PUSH2 0xB20 JUMP JUMPDEST PUSH1 0x40 MLOAD DUP1 SWAP2 SUB SWAP1 REVERT JUMPDEST PUSH1 0x0 PUSH20 0xFFFFFFFFFFFFFFFFFFFFFFFFFFFFFFFFFFFFFFFF AND PUSH1 0x0 DUP1 SLOAD SWAP1 PUSH2 0x100 EXP SWAP1 DIV PUSH20 0xFFFFFFFFFFFFFFFFFFFFFFFFFFFFFFFFFFFFFFFF AND PUSH20 0xFFFFFFFFFFFFFFFFFFFFFFFFFFFFFFFFFFFFFFFF AND PUSH32 0x8BE0079C531659141344CD1FD0A4F28419497F9722A3DAAFE3B4186F6B6457E0 PUSH1 0x40 MLOAD PUSH1 0x40 MLOAD DUP1 SWAP2 SUB SWAP1 LOG3 PUSH1 0x0 DUP1 PUSH1 0x0 PUSH2 0x100 EXP DUP2 SLOAD DUP2 PUSH20 0xFFFFFFFFFFFFFFFFFFFFFFFFFFFFFFFFFFFFFFFF MUL NOT AND SWAP1 DUP4 PUSH20 0xFFFFFFFFFFFFFFFFFFFFFFFFFFFFFFFFFFFFFFFF AND MUL OR SWAP1 SSTORE POP JUMP JUMPDEST PUSH1 0x3 SLOAD DUP2 JUMP JUMPDEST PUSH1 0x0 DUP1 PUSH1 0x0 SWAP1 SLOAD SWAP1 PUSH2 0x100 EXP SWAP1 DIV PUSH20 0xFFFFFFFFFFFFFFFFFFFFFFFFFFFFFFFFFFFFFFFF AND SWAP1 POP SWAP1 JUMP JUMPDEST PUSH1 0x0 PUSH1 0x6 SLOAD PUSH1 0x8 SLOAD PUSH2 0x57E SWAP2 SWAP1 PUSH2 0xD68 JUMP JUMPDEST SWAP1 POP SWAP1 JUMP JUMPDEST PUSH1 0x0 PUSH2 0x58D PUSH2 0x8B3 JUMP JUMPDEST SWAP1 POP PUSH1 0x0 CALLVALUE SWAP1 POP PUSH2 0x59C PUSH2 0x39B JUMP JUMPDEST PUSH2 0x5DB JUMPI PUSH1 0x40 MLOAD PUSH32 0x8C379A000000000000000000000000000000000000000000000000000000000 DUP2 MSTORE PUSH1 0x4 ADD PUSH2 0x5D2 SWAP1 PUSH2 0xAE0 JUMP JUMPDEST PUSH1 0x40 MLOAD DUP1 SWAP2 SUB SWAP1 REVERT JUMPDEST PUSH1 0x0 DUP2 GT PUSH2 0x61E JUMPI PUSH1 0x40 MLOAD PUSH32 0x8C379A000000000000000000000000000000000000000000000000000000000 DUP2 MSTORE PUSH1 0x4 ADD PUSH2 0x615 SWAP1 PUSH2 0xB00 JUMP JUMPDEST PUSH1 0x40 MLOAD DUP1 SWAP2 SUB SWAP1 REVERT JUMPDEST PUSH1 0x0 PUSH2 0x629 DUP3 PUSH2 0x3C8 JUMP JUMPDEST SWAP1 POP PUSH1 0x0 PUSH2 0x635 PUSH2 0x56C JUMP JUMPDEST SWAP1 POP DUP1 DUP3 GT ISZERO PUSH2 0x6A3 JUMPI DUP1 SWAP2 POP PUSH1 0x0 PUSH2 0x64D DUP3 PUSH2 0x858 JUMP JUMPDEST DUP5 PUSH2 0x658 SWAP2 SWAP1 PUSH2 0xD68 JUMP JUMPDEST SWAP1 POP DUP5 PUSH20 0xFFFFFFFFFFFFFFFFFFFFFFFFFFFFFFFFFFFFFFFF AND PUSH2 0x8FC DUP3 SWAP1 DUP2 ISZERO MUL SWAP1 PUSH1 0x40 MLOAD PUSH1 0x0 PUSH1 0x40 MLOAD DUP1 DUP4 SUB DUP2 DUP6 DUP9 DUP9 CALL SWAP4 POP POP POP POP ISZERO DUP1 ISZERO PUSH2 0x6A0 JUMPI RETURNDATASIZE PUSH1 0x0 DUP1 RETURNDATACOPY RETURNDATASIZE PUSH1 0x0 REVERT JUMPDEST POP POP JUMPDEST POP POP POP POP JUMP JUMPDEST PUSH2 0x6B1 PUSH2 0x8B3 JUMP JUMPDEST PUSH20 0xFFFFFFFFFFFFFFFFFFFFFFFFFFFFFFFFFFFFFFFF AND PUSH2 0x6CF PUSH2 0x543 JUMP JUMPDEST PUSH20 0xFFFFFFFFFFFFFFFFFFFFFFFFFFFFFFFFFFFFFFFF AND EQ PUSH2 0x725 JUMPI PUSH1 0x40 MLOAD PUSH32 0x8C379A000000000000000000000000000000000000000000000000000000000 DUP2 MSTORE PUSH1 0x4 ADD PUSH2 0x71C SWAP1 PUSH2 0xB20 JUMP JUMPDEST PUSH1 0x40 MLOAD DUP1 SWAP2 SUB SWAP1 REVERT JUMPDEST PUSH1 0x0 PUSH20 0xFFFFFFFFFFFFFFFFFFFFFFFFFFFFFFFFFFFFFFFF AND DUP2 PUSH20 0xFFFFFFFFFFFFFFFFFFFFFFFFFFFFFFFFFFFFFFFF AND EQ ISZERO PUSH2 0x795 JUMPI PUSH1 0x40 MLOAD PUSH32 0x8C379A000000000000000000000000000000000000000000000000000000000 DUP2 MSTORE PUSH1 0x4 ADD PUSH2 0x78C SWAP1 PUSH2 0xAC0 JUMP JUMPDEST PUSH1 0x40 MLOAD DUP1 SWAP2 SUB SWAP1 REVERT JUMPDEST DUP1 PUSH20 0xFFFFFFFFFFFFFFFFFFFFFFFFFFFFFFFFFFFFFFFF AND PUSH1 0x0 DUP1 SLOAD SWAP1 PUSH2 0x100 EXP SWAP1 DIV PUSH20 0xFFFFFFFFFFFFFFFFFFFFFFFFFFFFFFFFFFFFFFFF AND PUSH20 0xFFFFFFFFFFFFFFFFFFFFFFFFFFFFFFFFFFFFFFFF AND PUSH32 0x8BE0079C531659141344CD1FD0A4F28419497F9722A3DAAFE3B4186F6B6457E0 PUSH1 0x40 MLOAD PUSH1 0x40 MLOAD DUP1 SWAP2 SUB SWAP1 LOG3 DUP1 PUSH1 0x0 DUP1 PUSH2 0x100 EXP DUP2 SLOAD DUP2 PUSH20 0xFFFFFFFFFFFFFFFFFFFFFFFFFFFFFFFFFFFFFFFF MUL NOT AND SWAP1 DUP4 PUSH20 0xFFFFFFFFFFFFFFFFFFFFFFFFFFFFFFFFFFFFFFFF AND MUL OR SWAP1 SSTORE POP POP JUMP JUMPDEST PUSH1 0x6 SLOAD DUP2 JUMP JUMPDEST PUSH1 0x0 DUP1 PUSH1 0x2 SLOAD PUSH1 0xA PUSH2 0x86A SWAP2 SWAP1 PUSH2 0xBF0 JUMP JUMPDEST SWAP1 POP DUP1 PUSH1 0x5 SLOAD DUP5 PUSH2 0x87B SWAP2 SWAP1 PUSH2 0xD0E JUMP JUMPDEST PUSH2 0x885 SWAP2 SWAP1 PUSH2 0xB6C JUMP JUMPDEST SWAP2 POP POP SWAP2 SWAP1 POP JUMP JUMPDEST PUSH1 0x1 PUSH1 0x0 SWAP1 SLOAD SWAP1 PUSH2 0x100 EXP SWAP1 DIV PUSH20 0xFFFFFFFFFFFFFFFFFFFFFFFFFFFFFFFFFFFFFFFF AND DUP2 JUMP JUMPDEST PUSH1 0x0 CALLER SWAP1 POP SWAP1 JUMP JUMPDEST PUSH1 0x0 DUP2 CALLDATALOAD SWAP1 POP PUSH2 0x8CA DUP2 PUSH2 0xE4F JUMP JUMPDEST SWAP3 SWAP2 POP POP JUMP JUMPDEST PUSH1 0x0 DUP2 CALLDATALOAD SWAP1 POP PUSH2 0x8DF DUP2 PUSH2 0xE66 JUMP JUMPDEST SWAP3 SWAP2 POP POP JUMP JUMPDEST PUSH1 0x0 PUSH1 0x20 DUP3 DUP5 SUB SLT ISZERO PUSH2 0x8F7 JUMPI PUSH1 0x0 DUP1 REVERT JUMPDEST PUSH1 0x0 PUSH2 0x905 DUP5 DUP3 DUP6 ADD PUSH2 0x8BB JUMP JUMPDEST SWAP2 POP POP SWAP3 SWAP2 POP POP JUMP JUMPDEST PUSH1 0x0 PUSH1 0x20 DUP3 DUP5 SUB SLT ISZERO PUSH2 0x920 JUMPI PUSH1 0x0 DUP1 REVERT JUMPDEST PUSH1 0x0 PUSH2 0x92E DUP5 DUP3 DUP6 ADD PUSH2 0x8D0 JUMP JUMPDEST SWAP2 POP POP SWAP3 SWAP2 POP POP JUMP JUMPDEST PUSH2 0x940 DUP2 PUSH2 0xD9C JUMP JUMPDEST DUP3 MSTORE POP POP JUMP JUMPDEST PUSH2 0x94F DUP2 PUSH2 0xDAE JUMP JUMPDEST DUP3 MSTORE POP POP JUMP JUMPDEST PUSH1 0x0 PUSH2 0x962 PUSH1 0x26 DUP4 PUSH2 0xB5B JUMP JUMPDEST SWAP2 POP PUSH32 0x4F776E61626C653A206E6577206F776E657220697320746865207A65726F2061 PUSH1 0x0 DUP4 ADD MSTORE PUSH32 0x6464726573730000000000000000000000000000000000000000000000000000 PUSH1 0x20 DUP4 ADD MSTORE PUSH1 0x40 DUP3 ADD SWAP1 POP SWAP2 SWAP1 POP JUMP JUMPDEST PUSH1 0x0 PUSH2 0x9C8 PUSH1 0x12 DUP4 PUSH2 0xB5B JUMP JUMPDEST SWAP2 POP PUSH32 0x53616C65206973206E6F74206163746976650000000000000000000000000000 PUSH1 0x0 DUP4 ADD MSTORE PUSH1 0x20 DUP3 ADD SWAP1 POP SWAP2 SWAP1 POP JUMP JUMPDEST PUSH1 0x0 PUSH2 0xA08 PUSH1 0x17 DUP4 PUSH2 0xB5B JUMP JUMPDEST SWAP2 POP PUSH32 0x416363657074656420616D6F756E74206973207A65726F000000000000000000 PUSH1 0x0 DUP4 ADD MSTORE PUSH1 0x20 DUP3 ADD SWAP1 POP SWAP2 SWAP1 POP JUMP JUMPDEST PUSH1 0x0 PUSH2 0xA48 PUSH1 0x20 DUP4 PUSH2 0xB5B JUMP JUMPDEST SWAP2 POP PUSH32 0x4F776E61626C653A2063616C6C6572206973206E6F7420746865206F776E6572 PUSH1 0x0 DUP4 ADD MSTORE PUSH1 0x20 DUP3 ADD SWAP1 POP SWAP2 SWAP1 POP JUMP JUMPDEST PUSH2 0xA84 DUP2 PUSH2 0xDDA JUMP JUMPDEST DUP3 MSTORE POP POP JUMP JUMPDEST PUSH1 0x0 PUSH1 0x20 DUP3 ADD SWAP1 POP PUSH2 0xA9F PUSH1 0x0 DUP4 ADD DUP5 PUSH2 0x937 JUMP JUMPDEST SWAP3 SWAP2 POP POP JUMP JUMPDEST PUSH1 0x0 PUSH1 0x20 DUP3 ADD SWAP1 POP PUSH2 0xABA PUSH1 0x0 DUP4 ADD DUP5 PUSH2 0x946 JUMP JUMPDEST SWAP3 SWAP2 POP POP JUMP JUMPDEST PUSH1 0x0 PUSH1 0x20 DUP3 ADD SWAP1 POP DUP2 DUP2 SUB PUSH1 0x0 DUP4 ADD MSTORE PUSH2 0xAD9 DUP2 PUSH2 0x955 JUMP JUMPDEST SWAP1 POP SWAP2 SWAP1 POP JUMP JUMPDEST PUSH1 0x0 PUSH1 0x20 DUP3 ADD SWAP1 POP DUP2 DUP2 SUB PUSH1 0x0 DUP4 ADD MSTORE PUSH2 0xAF9 DUP2 PUSH2 0x9BB JUMP JUMPDEST SWAP1 POP SWAP2 SWAP1 POP JUMP JUMPDEST PUSH1 0x0 PUSH1 0x20 DUP3 ADD SWAP1 POP DUP2 DUP2 SUB PUSH1 0x0 DUP4 ADD MSTORE PUSH2 0xB19 DUP2 PUSH2 0x9FB JUMP JUMPDEST SWAP1 POP SWAP2 SWAP1 POP JUMP JUMPDEST PUSH1 0x0 PUSH1 0x20 DUP3 ADD SWAP1 POP DUP2 DUP2 SUB PUSH1 0x0 DUP4 ADD MSTORE PUSH2 0xB39 DUP2 PUSH2 0xA3B JUMP JUMPDEST SWAP1 POP SWAP2 SWAP1 POP JUMP JUMPDEST PUSH1 0x0 PUSH1 0x20 DUP3 ADD SWAP1 POP PUSH2 0xB55 PUSH1 0x0 DUP4 ADD DUP5 PUSH2 0xA7B JUMP JUMPDEST SWAP3 SWAP2 POP POP JUMP JUMPDEST PUSH1 0x0 DUP3 DUP3 MSTORE PUSH1 0x20 DUP3 ADD SWAP1 POP SWAP3 SWAP2 POP POP JUMP JUMPDEST PUSH1 0x0 PUSH2 0xB77 DUP3 PUSH2 0xDDA JUMP JUMPDEST SWAP2 POP PUSH2 0xB82 DUP4 PUSH2 0xDDA JUMP JUMPDEST SWAP3 POP DUP3 PUSH2 0xB92 JUMPI PUSH2 0xB91 PUSH2 0xE13 JUMP JUMPDEST JUMPDEST DUP3 DUP3 DIV SWAP1 POP SWAP3 SWAP2 POP POP JUMP JUMPDEST PUSH1 0x0 DUP1 DUP3 SWAP2 POP DUP4 SWAP1 POP JUMPDEST PUSH1 0x1 DUP6 GT ISZERO PUSH2 0xBE7 JUMPI DUP1 DUP7 DIV DUP2 GT ISZERO PUSH2 0xBC3 JUMPI PUSH2 0xBC2 PUSH2 0xDE4 JUMP JUMPDEST JUMPDEST PUSH1 0x1 DUP6 AND ISZERO PUSH2 0xBD2 JUMPI DUP1 DUP3 MUL SWAP2 POP JUMPDEST DUP1 DUP2 MUL SWAP1 POP PUSH2 0xBE0 DUP6 PUSH2 0xE42 JUMP JUMPDEST SWAP5 POP PUSH2 0xBA7 JUMP JUMPDEST SWAP5 POP SWAP5 SWAP3 POP POP POP JUMP JUMPDEST PUSH1 0x0 PUSH2 0xBFB DUP3 PUSH2 0xDDA JUMP JUMPDEST SWAP2 POP PUSH2 0xC06 DUP4 PUSH2 0xDDA JUMP JUMPDEST SWAP3 POP PUSH2 0xC33 PUSH32 0xFFFFFFFFFFFFFFFFFFFFFFFFFFFFFFFFFFFFFFFFFFFFFFFFFFFFFFFFFFFFFFFF DUP5 DUP5 PUSH2 0xC3B JUMP JUMPDEST SWAP1 POP SWAP3 SWAP2 POP POP JUMP JUMPDEST PUSH1 0x0 DUP3 PUSH2 0xC4B JUMPI PUSH1 0x1 SWAP1 POP PUSH2 0xD07 JUMP JUMPDEST DUP2 PUSH2 0xC59 JUMPI PUSH1 0x0 SWAP1 POP PUSH2 0xD07 JUMP JUMPDEST DUP2 PUSH1 0x1 DUP2 EQ PUSH2 0xC6F JUMPI PUSH1 0x2 DUP2 EQ PUSH2 0xC79 JUMPI PUSH2 0xCA8 JUMP JUMPDEST PUSH1 0x1 SWAP2 POP POP PUSH2 0xD07 JUMP JUMPDEST PUSH1 0xFF DUP5 GT ISZERO PUSH2 0xC8B JUMPI PUSH2 0xC8A PUSH2 0xDE4 JUMP JUMPDEST JUMPDEST DUP4 PUSH1 0x2 EXP SWAP2 POP DUP5 DUP3 GT ISZERO PUSH2 0xCA2 JUMPI PUSH2 0xCA1 PUSH2 0xDE4 JUMP JUMPDEST JUMPDEST POP PUSH2 0xD07 JUMP JUMPDEST POP PUSH1 0x20 DUP4 LT PUSH2 0x133 DUP4 LT AND PUSH1 0x4E DUP5 LT PUSH1 0xB DUP5 LT AND OR ISZERO PUSH2 0xCDD JUMPI DUP3 DUP3 EXP SWAP1 POP DUP4 DUP2 GT ISZERO PUSH2 0xCD8 JUMPI PUSH2 0xCD7 PUSH2 0xDE4 JUMP JUMPDEST JUMPDEST PUSH2 0xD07 JUMP JUMPDEST PUSH2 0xCEA DUP5 DUP5 DUP5 PUSH1 0x1 PUSH2 0xB9D JUMP JUMPDEST SWAP3 POP SWAP1 POP DUP2 DUP5 DIV DUP2 GT ISZERO PUSH2 0xD01 JUMPI PUSH2 0xD00 PUSH2 0xDE4 JUMP JUMPDEST JUMPDEST DUP2 DUP2 MUL SWAP1 POP JUMPDEST SWAP4 SWAP3 POP POP POP JUMP JUMPDEST PUSH1 0x0 PUSH2 0xD19 DUP3 PUSH2 0xDDA JUMP JUMPDEST SWAP2 POP PUSH2 0xD24 DUP4 PUSH2 0xDDA JUMP JUMPDEST SWAP3 POP DUP2 PUSH32 0xFFFFFFFFFFFFFFFFFFFFFFFFFFFFFFFFFFFFFFFFFFFFFFFFFFFFFFFFFFFFFFFF DIV DUP4 GT DUP3 ISZERO ISZERO AND ISZERO PUSH2 0xD5D JUMPI PUSH2 0xD5C PUSH2 0xDE4 JUMP JUMPDEST JUMPDEST DUP3 DUP3 MUL SWAP1 POP SWAP3 SWAP2 POP POP JUMP JUMPDEST PUSH1 0x0 PUSH2 0xD73 DUP3 PUSH2 0xDDA JUMP JUMPDEST SWAP2 POP PUSH2 0xD7E DUP4 PUSH2 0xDDA JUMP JUMPDEST SWAP3 POP DUP3 DUP3 LT ISZERO PUSH2 0xD91 JUMPI PUSH2 0xD90 PUSH2 0xDE4 JUMP JUMPDEST JUMPDEST DUP3 DUP3 SUB SWAP1 POP SWAP3 SWAP2 POP POP JUMP JUMPDEST PUSH1 0x0 PUSH2 0xDA7 DUP3 PUSH2 0xDBA JUMP JUMPDEST SWAP1 POP SWAP2 SWAP1 POP JUMP JUMPDEST PUSH1 0x0 DUP2 ISZERO ISZERO SWAP1 POP SWAP2 SWAP1 POP JUMP JUMPDEST PUSH1 0x0 PUSH20 0xFFFFFFFFFFFFFFFFFFFFFFFFFFFFFFFFFFFFFFFF DUP3 AND SWAP1 POP SWAP2 SWAP1 POP JUMP JUMPDEST PUSH1 0x0 DUP2 SWAP1 POP SWAP2 SWAP1 POP JUMP JUMPDEST PUSH32 0x4E487B7100000000000000000000000000000000000000000000000000000000 PUSH1 0x0 MSTORE PUSH1 0x11 PUSH1 0x4 MSTORE PUSH1 0x24 PUSH1 0x0 REVERT JUMPDEST PUSH32 0x4E487B7100000000000000000000000000000000000000000000000000000000 PUSH1 0x0 MSTORE PUSH1 0x12 PUSH1 0x4 MSTORE PUSH1 0x24 PUSH1 0x0 REVERT JUMPDEST PUSH1 0x0 DUP2 PUSH1 0x1 SHR SWAP1 POP SWAP2 SWAP1 POP JUMP JUMPDEST PUSH2 0xE58 DUP2 PUSH2 0xD9C JUMP JUMPDEST DUP2 EQ PUSH2 0xE63 JUMPI PUSH1 0x0 DUP1 REVERT JUMPDEST POP JUMP JUMPDEST PUSH2 0xE6F DUP2 PUSH2 0xDDA JUMP JUMPDEST DUP2 EQ PUSH2 0xE7A JUMPI PUSH1 0x0 DUP1 REVERT JUMPDEST POP JUMP INVALID LOG2 PUSH5 0x6970667358 0x22 SLT KECCAK256 MSTORE8 0xD7 0xB4 0xEE DELEGATECALL KECCAK256 EXTCODEHASH DUP10 0xD7 SSTORE 0xD9 SHR CALLDATACOPY PUSH15 0x7A79389D058AC43566C33E51066BB0 DIV 0xE PUSH25 0x64736F6C634300080000330000000000000000000000000000 "
				},
				"gasEstimates": {
					"creation": {
						"codeDepositCost": "752600",
						"executionCost": "infinite",
						"totalCost": "infinite"
					},
					"external": {
						"buyTokens()": "infinite",
						"calculateAmount(uint256)": "infinite",
						"endTime()": "1219",
						"getRemainingReward()": "infinite",
						"getTokenInETH(uint256)": "infinite",
						"isActive()": "2030",
						"owner()": "1267",
						"renounceOwnership()": "24418",
						"soldAmount()": "1173",
						"startTime()": "1152",
						"token()": "1302",
						"tokenDecimal()": "1196",
						"tokenRate()": "1197",
						"totalRaise()": "1152",
						"totalRewardTokens()": "1153",
						"transferOwnership(address)": "24700"
					}
				},
				"methodIdentifiers": {
					"buyTokens()": "d0febe4c",
					"calculateAmount(uint256)": "48dc5893",
					"endTime()": "3197cbb6",
					"getRemainingReward()": "c0b5fca0",
					"getTokenInETH(uint256)": "fa300f75",
					"isActive()": "22f3e2d4",
					"owner()": "8da5cb5b",
					"renounceOwnership()": "715018a6",
					"soldAmount()": "fa1a5f59",
					"startTime()": "78e97925",
					"token()": "fc0c546a",
					"tokenDecimal()": "5caed029",
					"tokenRate()": "31711884",
					"totalRaise()": "3996dc8f",
					"totalRewardTokens()": "1b0875a6",
					"transferOwnership(address)": "f2fde38b"
				}
			},
			"storageLayout": {
				"storage": [
					{
						"astId": 4,
						"contract": "IDO.sol:IDO",
						"label": "_owner",
						"offset": 0,
						"slot": "0",
						"type": "t_address"
					},
					{
						"astId": 216,
						"contract": "IDO.sol:IDO",
						"label": "token",
						"offset": 0,
						"slot": "1",
						"type": "t_address"
					},
					{
						"astId": 218,
						"contract": "IDO.sol:IDO",
						"label": "tokenDecimal",
						"offset": 0,
						"slot": "2",
						"type": "t_uint256"
					},
					{
						"astId": 220,
						"contract": "IDO.sol:IDO",
						"label": "startTime",
						"offset": 0,
						"slot": "3",
						"type": "t_uint256"
					},
					{
						"astId": 222,
						"contract": "IDO.sol:IDO",
						"label": "endTime",
						"offset": 0,
						"slot": "4",
						"type": "t_uint256"
					},
					{
						"astId": 224,
						"contract": "IDO.sol:IDO",
						"label": "tokenRate",
						"offset": 0,
						"slot": "5",
						"type": "t_uint256"
					},
					{
						"astId": 226,
						"contract": "IDO.sol:IDO",
						"label": "soldAmount",
						"offset": 0,
						"slot": "6",
						"type": "t_uint256"
					},
					{
						"astId": 228,
						"contract": "IDO.sol:IDO",
						"label": "totalRaise",
						"offset": 0,
						"slot": "7",
						"type": "t_uint256"
					},
					{
						"astId": 230,
						"contract": "IDO.sol:IDO",
						"label": "totalRewardTokens",
						"offset": 0,
						"slot": "8",
						"type": "t_uint256"
					}
				],
				"types": {
					"t_address": {
						"encoding": "inplace",
						"label": "address",
						"numberOfBytes": "20"
					},
					"t_uint256": {
						"encoding": "inplace",
						"label": "uint256",
						"numberOfBytes": "32"
					}
				}
			},
			"userdoc": {
				"kind": "user",
				"methods": {},
				"version": 1
			}
		}
	}
}