{
	"IDO.sol": {
		"IDO": {
			"abi": [
				{
					"inputs": [
						{
							"internalType": "address",
							"name": "_token",
							"type": "address"
						},
						{
							"internalType": "uint256",
							"name": "_startTime",
							"type": "uint256"
						},
						{
							"internalType": "uint256",
							"name": "_endTime",
							"type": "uint256"
						},
						{
							"internalType": "uint256",
							"name": "_tokenRate",
							"type": "uint256"
						},
						{
							"internalType": "uint256",
							"name": "_totalRewardTokens",
							"type": "uint256"
						}
					],
					"stateMutability": "nonpayable",
					"type": "constructor"
				},
				{
					"anonymous": false,
					"inputs": [
						{
							"indexed": true,
							"internalType": "address",
							"name": "previousOwner",
							"type": "address"
						},
						{
							"indexed": true,
							"internalType": "address",
							"name": "newOwner",
							"type": "address"
						}
					],
					"name": "OwnershipTransferred",
					"type": "event"
				},
				{
					"inputs": [],
					"name": "endTime",
					"outputs": [
						{
							"internalType": "uint256",
							"name": "",
							"type": "uint256"
						}
					],
					"stateMutability": "view",
					"type": "function"
				},
				{
					"inputs": [],
					"name": "owner",
					"outputs": [
						{
							"internalType": "address",
							"name": "",
							"type": "address"
						}
					],
					"stateMutability": "view",
					"type": "function"
				},
				{
					"inputs": [],
					"name": "renounceOwnership",
					"outputs": [],
					"stateMutability": "nonpayable",
					"type": "function"
				},
				{
					"inputs": [],
					"name": "soldAmount",
					"outputs": [
						{
							"internalType": "uint256",
							"name": "",
							"type": "uint256"
						}
					],
					"stateMutability": "view",
					"type": "function"
				},
				{
					"inputs": [],
					"name": "startTime",
					"outputs": [
						{
							"internalType": "uint256",
							"name": "",
							"type": "uint256"
						}
					],
					"stateMutability": "view",
					"type": "function"
				},
				{
					"inputs": [],
					"name": "token",
					"outputs": [
						{
							"internalType": "address",
							"name": "",
							"type": "address"
						}
					],
					"stateMutability": "view",
					"type": "function"
				},
				{
					"inputs": [],
					"name": "tokenDecimal",
					"outputs": [
						{
							"internalType": "uint256",
							"name": "",
							"type": "uint256"
						}
					],
					"stateMutability": "view",
					"type": "function"
				},
				{
					"inputs": [],
					"name": "tokenRate",
					"outputs": [
						{
							"internalType": "uint256",
							"name": "",
							"type": "uint256"
						}
					],
					"stateMutability": "view",
					"type": "function"
				},
				{
					"inputs": [],
					"name": "totalRaise",
					"outputs": [
						{
							"internalType": "uint256",
							"name": "",
							"type": "uint256"
						}
					],
					"stateMutability": "view",
					"type": "function"
				},
				{
					"inputs": [],
					"name": "totalRewardTokens",
					"outputs": [
						{
							"internalType": "uint256",
							"name": "",
							"type": "uint256"
						}
					],
					"stateMutability": "view",
					"type": "function"
				},
				{
					"inputs": [
						{
							"internalType": "address",
							"name": "newOwner",
							"type": "address"
						}
					],
					"name": "transferOwnership",
					"outputs": [],
					"stateMutability": "nonpayable",
					"type": "function"
				}
			],
			"devdoc": {
				"kind": "dev",
				"methods": {
					"owner()": {
						"details": "Returns the address of the current owner."
					},
					"renounceOwnership()": {
						"details": "Leaves the contract without owner. It will not be possible to call `onlyOwner` functions anymore. Can only be called by the current owner. NOTE: Renouncing ownership will leave the contract without an owner, thereby removing any functionality that is only available to the owner."
					},
					"transferOwnership(address)": {
						"details": "Transfers ownership of the contract to a new account (`newOwner`). Can only be called by the current owner."
					}
				},
				"version": 1
			},
			"evm": {
				"assembly": "    /* \"IDO.sol\":5428:6153  contract IDO is Ownable {\r... */\n  mstore(0x40, 0x80)\n    /* \"IDO.sol\":6012:6144  constructor (address _token, uint256 _startTime, uint256 _endTime, uint256 _tokenRate, uint256 _totalRewardTokens){\r... */\n  callvalue\n  dup1\n  iszero\n  tag_1\n  jumpi\n  0x00\n  dup1\n  revert\ntag_1:\n  pop\n  mload(0x40)\n  sub(codesize, bytecodeSize)\n  dup1\n  bytecodeSize\n  dup4\n  codecopy\n  dup2\n  dup2\n  add\n  0x40\n  mstore\n  dup2\n  add\n  swap1\n  tag_2\n  swap2\n  swap1\n  tag_3\n  jump\t// in\ntag_2:\n    /* \"IDO.sol\":981:998  address msgSender */\n  0x00\n    /* \"IDO.sol\":1001:1013  _msgSender() */\n  tag_7\n    /* \"IDO.sol\":1001:1011  _msgSender */\n  shl(0x20, tag_8)\n    /* \"IDO.sol\":1001:1013  _msgSender() */\n  0x20\n  shr\n  jump\t// in\ntag_7:\n    /* \"IDO.sol\":981:1013  address msgSender = _msgSender() */\n  swap1\n  pop\n    /* \"IDO.sol\":1033:1042  msgSender */\n  dup1\n    /* \"IDO.sol\":1024:1030  _owner */\n  0x00\n  dup1\n    /* \"IDO.sol\":1024:1042  _owner = msgSender */\n  0x0100\n  exp\n  dup2\n  sload\n  dup2\n  0xffffffffffffffffffffffffffffffffffffffff\n  mul\n  not\n  and\n  swap1\n  dup4\n  0xffffffffffffffffffffffffffffffffffffffff\n  and\n  mul\n  or\n  swap1\n  sstore\n  pop\n    /* \"IDO.sol\":1091:1100  msgSender */\n  dup1\n    /* \"IDO.sol\":1058:1101  OwnershipTransferred(address(0), msgSender) */\n  0xffffffffffffffffffffffffffffffffffffffff\n  and\n    /* \"IDO.sol\":1087:1088  0 */\n  0x00\n    /* \"IDO.sol\":1058:1101  OwnershipTransferred(address(0), msgSender) */\n  0xffffffffffffffffffffffffffffffffffffffff\n  and\n  0x8be0079c531659141344cd1fd0a4f28419497f9722a3daafe3b4186f6b6457e0\n  mload(0x40)\n  mload(0x40)\n  dup1\n  swap2\n  sub\n  swap1\n  log3\n    /* \"IDO.sol\":955:1109  constructor () {\r... */\n  pop\n    /* \"IDO.sol\":6012:6144  constructor (address _token, uint256 _startTime, uint256 _endTime, uint256 _tokenRate, uint256 _totalRewardTokens){\r... */\n  pop\n  pop\n  pop\n  pop\n  pop\n    /* \"IDO.sol\":5428:6153  contract IDO is Ownable {\r... */\n  jump(tag_10)\n    /* \"IDO.sol\":735:850  function _msgSender() internal view virtual returns (address payable) {\r... */\ntag_8:\n    /* \"IDO.sol\":788:803  address payable */\n  0x00\n    /* \"IDO.sol\":831:841  msg.sender */\n  caller\n    /* \"IDO.sol\":816:842  return payable(msg.sender) */\n  swap1\n  pop\n    /* \"IDO.sol\":735:850  function _msgSender() internal view virtual returns (address payable) {\r... */\n  swap1\n  jump\t// out\n    /* \"#utility.yul\":7:150   */\ntag_13:\n  0x00\n    /* \"#utility.yul\":95:101   */\n  dup2\n    /* \"#utility.yul\":89:102   */\n  mload\n    /* \"#utility.yul\":80:102   */\n  swap1\n  pop\n    /* \"#utility.yul\":111:144   */\n  tag_15\n    /* \"#utility.yul\":138:143   */\n  dup2\n    /* \"#utility.yul\":111:144   */\n  tag_16\n  jump\t// in\ntag_15:\n    /* \"#utility.yul\":70:150   */\n  swap3\n  swap2\n  pop\n  pop\n  jump\t// out\n    /* \"#utility.yul\":156:299   */\ntag_17:\n  0x00\n    /* \"#utility.yul\":244:250   */\n  dup2\n    /* \"#utility.yul\":238:251   */\n  mload\n    /* \"#utility.yul\":229:251   */\n  swap1\n  pop\n    /* \"#utility.yul\":260:293   */\n  tag_19\n    /* \"#utility.yul\":287:292   */\n  dup2\n    /* \"#utility.yul\":260:293   */\n  tag_20\n  jump\t// in\ntag_19:\n    /* \"#utility.yul\":219:299   */\n  swap3\n  swap2\n  pop\n  pop\n  jump\t// out\n    /* \"#utility.yul\":305:1215   */\ntag_3:\n  0x00\n  dup1\n  0x00\n  dup1\n  0x00\n    /* \"#utility.yul\":492:495   */\n  0xa0\n    /* \"#utility.yul\":480:489   */\n  dup7\n    /* \"#utility.yul\":471:478   */\n  dup9\n    /* \"#utility.yul\":467:490   */\n  sub\n    /* \"#utility.yul\":463:496   */\n  slt\n    /* \"#utility.yul\":460:462   */\n  iszero\n  tag_22\n  jumpi\n    /* \"#utility.yul\":509:510   */\n  0x00\n    /* \"#utility.yul\":506:507   */\n  dup1\n    /* \"#utility.yul\":499:511   */\n  revert\n    /* \"#utility.yul\":460:462   */\ntag_22:\n    /* \"#utility.yul\":552:553   */\n  0x00\n    /* \"#utility.yul\":577:641   */\n  tag_23\n    /* \"#utility.yul\":633:640   */\n  dup9\n    /* \"#utility.yul\":624:630   */\n  dup3\n    /* \"#utility.yul\":613:622   */\n  dup10\n    /* \"#utility.yul\":609:631   */\n  add\n    /* \"#utility.yul\":577:641   */\n  tag_13\n  jump\t// in\ntag_23:\n    /* \"#utility.yul\":567:641   */\n  swap6\n  pop\n    /* \"#utility.yul\":523:651   */\n  pop\n    /* \"#utility.yul\":690:692   */\n  0x20\n    /* \"#utility.yul\":716:780   */\n  tag_24\n    /* \"#utility.yul\":772:779   */\n  dup9\n    /* \"#utility.yul\":763:769   */\n  dup3\n    /* \"#utility.yul\":752:761   */\n  dup10\n    /* \"#utility.yul\":748:770   */\n  add\n    /* \"#utility.yul\":716:780   */\n  tag_17\n  jump\t// in\ntag_24:\n    /* \"#utility.yul\":706:780   */\n  swap5\n  pop\n    /* \"#utility.yul\":661:790   */\n  pop\n    /* \"#utility.yul\":829:831   */\n  0x40\n    /* \"#utility.yul\":855:919   */\n  tag_25\n    /* \"#utility.yul\":911:918   */\n  dup9\n    /* \"#utility.yul\":902:908   */\n  dup3\n    /* \"#utility.yul\":891:900   */\n  dup10\n    /* \"#utility.yul\":887:909   */\n  add\n    /* \"#utility.yul\":855:919   */\n  tag_17\n  jump\t// in\ntag_25:\n    /* \"#utility.yul\":845:919   */\n  swap4\n  pop\n    /* \"#utility.yul\":800:929   */\n  pop\n    /* \"#utility.yul\":968:970   */\n  0x60\n    /* \"#utility.yul\":994:1058   */\n  tag_26\n    /* \"#utility.yul\":1050:1057   */\n  dup9\n    /* \"#utility.yul\":1041:1047   */\n  dup3\n    /* \"#utility.yul\":1030:1039   */\n  dup10\n    /* \"#utility.yul\":1026:1048   */\n  add\n    /* \"#utility.yul\":994:1058   */\n  tag_17\n  jump\t// in\ntag_26:\n    /* \"#utility.yul\":984:1058   */\n  swap3\n  pop\n    /* \"#utility.yul\":939:1068   */\n  pop\n    /* \"#utility.yul\":1107:1110   */\n  0x80\n    /* \"#utility.yul\":1134:1198   */\n  tag_27\n    /* \"#utility.yul\":1190:1197   */\n  dup9\n    /* \"#utility.yul\":1181:1187   */\n  dup3\n    /* \"#utility.yul\":1170:1179   */\n  dup10\n    /* \"#utility.yul\":1166:1188   */\n  add\n    /* \"#utility.yul\":1134:1198   */\n  tag_17\n  jump\t// in\ntag_27:\n    /* \"#utility.yul\":1124:1198   */\n  swap2\n  pop\n    /* \"#utility.yul\":1078:1208   */\n  pop\n    /* \"#utility.yul\":450:1215   */\n  swap3\n  swap6\n  pop\n  swap3\n  swap6\n  swap1\n  swap4\n  pop\n  jump\t// out\n    /* \"#utility.yul\":1221:1317   */\ntag_28:\n  0x00\n    /* \"#utility.yul\":1287:1311   */\n  tag_30\n    /* \"#utility.yul\":1305:1310   */\n  dup3\n    /* \"#utility.yul\":1287:1311   */\n  tag_31\n  jump\t// in\ntag_30:\n    /* \"#utility.yul\":1276:1311   */\n  swap1\n  pop\n    /* \"#utility.yul\":1266:1317   */\n  swap2\n  swap1\n  pop\n  jump\t// out\n    /* \"#utility.yul\":1323:1449   */\ntag_31:\n  0x00\n    /* \"#utility.yul\":1400:1442   */\n  0xffffffffffffffffffffffffffffffffffffffff\n    /* \"#utility.yul\":1393:1398   */\n  dup3\n    /* \"#utility.yul\":1389:1443   */\n  and\n    /* \"#utility.yul\":1378:1443   */\n  swap1\n  pop\n    /* \"#utility.yul\":1368:1449   */\n  swap2\n  swap1\n  pop\n  jump\t// out\n    /* \"#utility.yul\":1455:1532   */\ntag_33:\n  0x00\n    /* \"#utility.yul\":1521:1526   */\n  dup2\n    /* \"#utility.yul\":1510:1526   */\n  swap1\n  pop\n    /* \"#utility.yul\":1500:1532   */\n  swap2\n  swap1\n  pop\n  jump\t// out\n    /* \"#utility.yul\":1538:1660   */\ntag_16:\n    /* \"#utility.yul\":1611:1635   */\n  tag_36\n    /* \"#utility.yul\":1629:1634   */\n  dup2\n    /* \"#utility.yul\":1611:1635   */\n  tag_28\n  jump\t// in\ntag_36:\n    /* \"#utility.yul\":1604:1609   */\n  dup2\n    /* \"#utility.yul\":1601:1636   */\n  eq\n    /* \"#utility.yul\":1591:1593   */\n  tag_37\n  jumpi\n    /* \"#utility.yul\":1650:1651   */\n  0x00\n    /* \"#utility.yul\":1647:1648   */\n  dup1\n    /* \"#utility.yul\":1640:1652   */\n  revert\n    /* \"#utility.yul\":1591:1593   */\ntag_37:\n    /* \"#utility.yul\":1581:1660   */\n  pop\n  jump\t// out\n    /* \"#utility.yul\":1666:1788   */\ntag_20:\n    /* \"#utility.yul\":1739:1763   */\n  tag_39\n    /* \"#utility.yul\":1757:1762   */\n  dup2\n    /* \"#utility.yul\":1739:1763   */\n  tag_33\n  jump\t// in\ntag_39:\n    /* \"#utility.yul\":1732:1737   */\n  dup2\n    /* \"#utility.yul\":1729:1764   */\n  eq\n    /* \"#utility.yul\":1719:1721   */\n  tag_40\n  jumpi\n    /* \"#utility.yul\":1778:1779   */\n  0x00\n    /* \"#utility.yul\":1775:1776   */\n  dup1\n    /* \"#utility.yul\":1768:1780   */\n  revert\n    /* \"#utility.yul\":1719:1721   */\ntag_40:\n    /* \"#utility.yul\":1709:1788   */\n  pop\n  jump\t// out\n    /* \"IDO.sol\":5428:6153  contract IDO is Ownable {\r... */\ntag_10:\n  dataSize(sub_0)\n  dup1\n  dataOffset(sub_0)\n  0x00\n  codecopy\n  0x00\n  return\nstop\n\nsub_0: assembly {\n        /* \"IDO.sol\":5428:6153  contract IDO is Ownable {\r... */\n      mstore(0x40, 0x80)\n      callvalue\n      dup1\n      iszero\n      tag_1\n      jumpi\n      0x00\n      dup1\n      revert\n    tag_1:\n      pop\n      jumpi(tag_2, lt(calldatasize, 0x04))\n      shr(0xe0, calldataload(0x00))\n      dup1\n      0x715018a6\n      gt\n      tag_14\n      jumpi\n      dup1\n      0x715018a6\n      eq\n      tag_8\n      jumpi\n      dup1\n      0x78e97925\n      eq\n      tag_9\n      jumpi\n      dup1\n      0x8da5cb5b\n      eq\n      tag_10\n      jumpi\n      dup1\n      0xf2fde38b\n      eq\n      tag_11\n      jumpi\n      dup1\n      0xfa1a5f59\n      eq\n      tag_12\n      jumpi\n      dup1\n      0xfc0c546a\n      eq\n      tag_13\n      jumpi\n      jump(tag_2)\n    tag_14:\n      dup1\n      0x1b0875a6\n      eq\n      tag_3\n      jumpi\n      dup1\n      0x31711884\n      eq\n      tag_4\n      jumpi\n      dup1\n      0x3197cbb6\n      eq\n      tag_5\n      jumpi\n      dup1\n      0x3996dc8f\n      eq\n      tag_6\n      jumpi\n      dup1\n      0x5caed029\n      eq\n      tag_7\n      jumpi\n    tag_2:\n      0x00\n      dup1\n      revert\n        /* \"IDO.sol\":5928:5960  uint256 public totalRewardTokens */\n    tag_3:\n      tag_15\n      tag_16\n      jump\t// in\n    tag_15:\n      mload(0x40)\n      tag_17\n      swap2\n      swap1\n      tag_18\n      jump\t// in\n    tag_17:\n      mload(0x40)\n      dup1\n      swap2\n      sub\n      swap1\n      return\n        /* \"IDO.sol\":5697:5721  uint256 public tokenRate */\n    tag_4:\n      tag_19\n      tag_20\n      jump\t// in\n    tag_19:\n      mload(0x40)\n      tag_21\n      swap2\n      swap1\n      tag_18\n      jump\t// in\n    tag_21:\n      mload(0x40)\n      dup1\n      swap2\n      sub\n      swap1\n      return\n        /* \"IDO.sol\":5666:5688  uint256 public endTime */\n    tag_5:\n      tag_22\n      tag_23\n      jump\t// in\n    tag_22:\n      mload(0x40)\n      tag_24\n      swap2\n      swap1\n      tag_18\n      jump\t// in\n    tag_24:\n      mload(0x40)\n      dup1\n      swap2\n      sub\n      swap1\n      return\n        /* \"IDO.sol\":5846:5871  uint256 public totalRaise */\n    tag_6:\n      tag_25\n      tag_26\n      jump\t// in\n    tag_25:\n      mload(0x40)\n      tag_27\n      swap2\n      swap1\n      tag_18\n      jump\t// in\n    tag_27:\n      mload(0x40)\n      dup1\n      swap2\n      sub\n      swap1\n      return\n        /* \"IDO.sol\":5516:5543  uint256 public tokenDecimal */\n    tag_7:\n      tag_28\n      tag_29\n      jump\t// in\n    tag_28:\n      mload(0x40)\n      tag_30\n      swap2\n      swap1\n      tag_18\n      jump\t// in\n    tag_30:\n      mload(0x40)\n      dup1\n      swap2\n      sub\n      swap1\n      return\n        /* \"IDO.sol\":1831:1979  function renounceOwnership() public virtual onlyOwner {\r... */\n    tag_8:\n      tag_31\n      tag_32\n      jump\t// in\n    tag_31:\n      stop\n        /* \"IDO.sol\":5581:5605  uint256 public startTime */\n    tag_9:\n      tag_33\n      tag_34\n      jump\t// in\n    tag_33:\n      mload(0x40)\n      tag_35\n      swap2\n      swap1\n      tag_18\n      jump\t// in\n    tag_35:\n      mload(0x40)\n      dup1\n      swap2\n      sub\n      swap1\n      return\n        /* \"IDO.sol\":1188:1275  function owner() public view virtual returns (address) {\r... */\n    tag_10:\n      tag_36\n      tag_37\n      jump\t// in\n    tag_36:\n      mload(0x40)\n      tag_38\n      swap2\n      swap1\n      tag_39\n      jump\t// in\n    tag_38:\n      mload(0x40)\n      dup1\n      swap2\n      sub\n      swap1\n      return\n        /* \"IDO.sol\":2131:2375  function transferOwnership(address newOwner) public virtual onlyOwner {\r... */\n    tag_11:\n      tag_40\n      0x04\n      dup1\n      calldatasize\n      sub\n      dup2\n      add\n      swap1\n      tag_41\n      swap2\n      swap1\n      tag_42\n      jump\t// in\n    tag_41:\n      tag_43\n      jump\t// in\n    tag_40:\n      stop\n        /* \"IDO.sol\":5771:5796  uint256 public soldAmount */\n    tag_12:\n      tag_44\n      tag_45\n      jump\t// in\n    tag_44:\n      mload(0x40)\n      tag_46\n      swap2\n      swap1\n      tag_18\n      jump\t// in\n    tag_46:\n      mload(0x40)\n      dup1\n      swap2\n      sub\n      swap1\n      return\n        /* \"IDO.sol\":5459:5479  address public token */\n    tag_13:\n      tag_47\n      tag_48\n      jump\t// in\n    tag_47:\n      mload(0x40)\n      tag_49\n      swap2\n      swap1\n      tag_39\n      jump\t// in\n    tag_49:\n      mload(0x40)\n      dup1\n      swap2\n      sub\n      swap1\n      return\n        /* \"IDO.sol\":5928:5960  uint256 public totalRewardTokens */\n    tag_16:\n      sload(0x08)\n      dup2\n      jump\t// out\n        /* \"IDO.sol\":5697:5721  uint256 public tokenRate */\n    tag_20:\n      sload(0x05)\n      dup2\n      jump\t// out\n        /* \"IDO.sol\":5666:5688  uint256 public endTime */\n    tag_23:\n      sload(0x04)\n      dup2\n      jump\t// out\n        /* \"IDO.sol\":5846:5871  uint256 public totalRaise */\n    tag_26:\n      sload(0x07)\n      dup2\n      jump\t// out\n        /* \"IDO.sol\":5516:5543  uint256 public tokenDecimal */\n    tag_29:\n      sload(0x02)\n      dup2\n      jump\t// out\n        /* \"IDO.sol\":1831:1979  function renounceOwnership() public virtual onlyOwner {\r... */\n    tag_32:\n        /* \"IDO.sol\":1417:1429  _msgSender() */\n      tag_51\n        /* \"IDO.sol\":1417:1427  _msgSender */\n      tag_52\n        /* \"IDO.sol\":1417:1429  _msgSender() */\n      jump\t// in\n    tag_51:\n        /* \"IDO.sol\":1406:1429  owner() == _msgSender() */\n      0xffffffffffffffffffffffffffffffffffffffff\n      and\n        /* \"IDO.sol\":1406:1413  owner() */\n      tag_53\n        /* \"IDO.sol\":1406:1411  owner */\n      tag_37\n        /* \"IDO.sol\":1406:1413  owner() */\n      jump\t// in\n    tag_53:\n        /* \"IDO.sol\":1406:1429  owner() == _msgSender() */\n      0xffffffffffffffffffffffffffffffffffffffff\n      and\n      eq\n        /* \"IDO.sol\":1398:1466  require(owner() == _msgSender(), \"Ownable: caller is not the owner\") */\n      tag_54\n      jumpi\n      mload(0x40)\n      0x08c379a000000000000000000000000000000000000000000000000000000000\n      dup2\n      mstore\n      0x04\n      add\n      tag_55\n      swap1\n      tag_56\n      jump\t// in\n    tag_55:\n      mload(0x40)\n      dup1\n      swap2\n      sub\n      swap1\n      revert\n    tag_54:\n        /* \"IDO.sol\":1938:1939  0 */\n      0x00\n        /* \"IDO.sol\":1901:1941  OwnershipTransferred(_owner, address(0)) */\n      0xffffffffffffffffffffffffffffffffffffffff\n      and\n        /* \"IDO.sol\":1922:1928  _owner */\n      0x00\n      dup1\n      sload\n      swap1\n      0x0100\n      exp\n      swap1\n      div\n      0xffffffffffffffffffffffffffffffffffffffff\n      and\n        /* \"IDO.sol\":1901:1941  OwnershipTransferred(_owner, address(0)) */\n      0xffffffffffffffffffffffffffffffffffffffff\n      and\n      0x8be0079c531659141344cd1fd0a4f28419497f9722a3daafe3b4186f6b6457e0\n      mload(0x40)\n      mload(0x40)\n      dup1\n      swap2\n      sub\n      swap1\n      log3\n        /* \"IDO.sol\":1969:1970  0 */\n      0x00\n        /* \"IDO.sol\":1952:1958  _owner */\n      dup1\n      0x00\n        /* \"IDO.sol\":1952:1971  _owner = address(0) */\n      0x0100\n      exp\n      dup2\n      sload\n      dup2\n      0xffffffffffffffffffffffffffffffffffffffff\n      mul\n      not\n      and\n      swap1\n      dup4\n      0xffffffffffffffffffffffffffffffffffffffff\n      and\n      mul\n      or\n      swap1\n      sstore\n      pop\n        /* \"IDO.sol\":1831:1979  function renounceOwnership() public virtual onlyOwner {\r... */\n      jump\t// out\n        /* \"IDO.sol\":5581:5605  uint256 public startTime */\n    tag_34:\n      sload(0x03)\n      dup2\n      jump\t// out\n        /* \"IDO.sol\":1188:1275  function owner() public view virtual returns (address) {\r... */\n    tag_37:\n        /* \"IDO.sol\":1234:1241  address */\n      0x00\n        /* \"IDO.sol\":1261:1267  _owner */\n      dup1\n      0x00\n      swap1\n      sload\n      swap1\n      0x0100\n      exp\n      swap1\n      div\n      0xffffffffffffffffffffffffffffffffffffffff\n      and\n        /* \"IDO.sol\":1254:1267  return _owner */\n      swap1\n      pop\n        /* \"IDO.sol\":1188:1275  function owner() public view virtual returns (address) {\r... */\n      swap1\n      jump\t// out\n        /* \"IDO.sol\":2131:2375  function transferOwnership(address newOwner) public virtual onlyOwner {\r... */\n    tag_43:\n        /* \"IDO.sol\":1417:1429  _msgSender() */\n      tag_60\n        /* \"IDO.sol\":1417:1427  _msgSender */\n      tag_52\n        /* \"IDO.sol\":1417:1429  _msgSender() */\n      jump\t// in\n    tag_60:\n        /* \"IDO.sol\":1406:1429  owner() == _msgSender() */\n      0xffffffffffffffffffffffffffffffffffffffff\n      and\n        /* \"IDO.sol\":1406:1413  owner() */\n      tag_61\n        /* \"IDO.sol\":1406:1411  owner */\n      tag_37\n        /* \"IDO.sol\":1406:1413  owner() */\n      jump\t// in\n    tag_61:\n        /* \"IDO.sol\":1406:1429  owner() == _msgSender() */\n      0xffffffffffffffffffffffffffffffffffffffff\n      and\n      eq\n        /* \"IDO.sol\":1398:1466  require(owner() == _msgSender(), \"Ownable: caller is not the owner\") */\n      tag_62\n      jumpi\n      mload(0x40)\n      0x08c379a000000000000000000000000000000000000000000000000000000000\n      dup2\n      mstore\n      0x04\n      add\n      tag_63\n      swap1\n      tag_56\n      jump\t// in\n    tag_63:\n      mload(0x40)\n      dup1\n      swap2\n      sub\n      swap1\n      revert\n    tag_62:\n        /* \"IDO.sol\":2240:2241  0 */\n      0x00\n        /* \"IDO.sol\":2220:2242  newOwner != address(0) */\n      0xffffffffffffffffffffffffffffffffffffffff\n      and\n        /* \"IDO.sol\":2220:2228  newOwner */\n      dup2\n        /* \"IDO.sol\":2220:2242  newOwner != address(0) */\n      0xffffffffffffffffffffffffffffffffffffffff\n      and\n      eq\n      iszero\n        /* \"IDO.sol\":2212:2285  require(newOwner != address(0), \"Ownable: new owner is the zero address\") */\n      tag_65\n      jumpi\n      mload(0x40)\n      0x08c379a000000000000000000000000000000000000000000000000000000000\n      dup2\n      mstore\n      0x04\n      add\n      tag_66\n      swap1\n      tag_67\n      jump\t// in\n    tag_66:\n      mload(0x40)\n      dup1\n      swap2\n      sub\n      swap1\n      revert\n    tag_65:\n        /* \"IDO.sol\":2330:2338  newOwner */\n      dup1\n        /* \"IDO.sol\":2301:2339  OwnershipTransferred(_owner, newOwner) */\n      0xffffffffffffffffffffffffffffffffffffffff\n      and\n        /* \"IDO.sol\":2322:2328  _owner */\n      0x00\n      dup1\n      sload\n      swap1\n      0x0100\n      exp\n      swap1\n      div\n      0xffffffffffffffffffffffffffffffffffffffff\n      and\n        /* \"IDO.sol\":2301:2339  OwnershipTransferred(_owner, newOwner) */\n      0xffffffffffffffffffffffffffffffffffffffff\n      and\n      0x8be0079c531659141344cd1fd0a4f28419497f9722a3daafe3b4186f6b6457e0\n      mload(0x40)\n      mload(0x40)\n      dup1\n      swap2\n      sub\n      swap1\n      log3\n        /* \"IDO.sol\":2359:2367  newOwner */\n      dup1\n        /* \"IDO.sol\":2350:2356  _owner */\n      0x00\n      dup1\n        /* \"IDO.sol\":2350:2367  _owner = newOwner */\n      0x0100\n      exp\n      dup2\n      sload\n      dup2\n      0xffffffffffffffffffffffffffffffffffffffff\n      mul\n      not\n      and\n      swap1\n      dup4\n      0xffffffffffffffffffffffffffffffffffffffff\n      and\n      mul\n      or\n      swap1\n      sstore\n      pop\n        /* \"IDO.sol\":2131:2375  function transferOwnership(address newOwner) public virtual onlyOwner {\r... */\n      pop\n      jump\t// out\n        /* \"IDO.sol\":5771:5796  uint256 public soldAmount */\n    tag_45:\n      sload(0x06)\n      dup2\n      jump\t// out\n        /* \"IDO.sol\":5459:5479  address public token */\n    tag_48:\n      0x01\n      0x00\n      swap1\n      sload\n      swap1\n      0x0100\n      exp\n      swap1\n      div\n      0xffffffffffffffffffffffffffffffffffffffff\n      and\n      dup2\n      jump\t// out\n        /* \"IDO.sol\":735:850  function _msgSender() internal view virtual returns (address payable) {\r... */\n    tag_52:\n        /* \"IDO.sol\":788:803  address payable */\n      0x00\n        /* \"IDO.sol\":831:841  msg.sender */\n      caller\n        /* \"IDO.sol\":816:842  return payable(msg.sender) */\n      swap1\n      pop\n        /* \"IDO.sol\":735:850  function _msgSender() internal view virtual returns (address payable) {\r... */\n      swap1\n      jump\t// out\n        /* \"#utility.yul\":7:146   */\n    tag_70:\n      0x00\n        /* \"#utility.yul\":91:97   */\n      dup2\n        /* \"#utility.yul\":78:98   */\n      calldataload\n        /* \"#utility.yul\":69:98   */\n      swap1\n      pop\n        /* \"#utility.yul\":107:140   */\n      tag_72\n        /* \"#utility.yul\":134:139   */\n      dup2\n        /* \"#utility.yul\":107:140   */\n      tag_73\n      jump\t// in\n    tag_72:\n        /* \"#utility.yul\":59:146   */\n      swap3\n      swap2\n      pop\n      pop\n      jump\t// out\n        /* \"#utility.yul\":152:414   */\n    tag_42:\n      0x00\n        /* \"#utility.yul\":260:262   */\n      0x20\n        /* \"#utility.yul\":248:257   */\n      dup3\n        /* \"#utility.yul\":239:246   */\n      dup5\n        /* \"#utility.yul\":235:258   */\n      sub\n        /* \"#utility.yul\":231:263   */\n      slt\n        /* \"#utility.yul\":228:230   */\n      iszero\n      tag_75\n      jumpi\n        /* \"#utility.yul\":276:277   */\n      0x00\n        /* \"#utility.yul\":273:274   */\n      dup1\n        /* \"#utility.yul\":266:278   */\n      revert\n        /* \"#utility.yul\":228:230   */\n    tag_75:\n        /* \"#utility.yul\":319:320   */\n      0x00\n        /* \"#utility.yul\":344:397   */\n      tag_76\n        /* \"#utility.yul\":389:396   */\n      dup5\n        /* \"#utility.yul\":380:386   */\n      dup3\n        /* \"#utility.yul\":369:378   */\n      dup6\n        /* \"#utility.yul\":365:387   */\n      add\n        /* \"#utility.yul\":344:397   */\n      tag_70\n      jump\t// in\n    tag_76:\n        /* \"#utility.yul\":334:397   */\n      swap2\n      pop\n        /* \"#utility.yul\":290:407   */\n      pop\n        /* \"#utility.yul\":218:414   */\n      swap3\n      swap2\n      pop\n      pop\n      jump\t// out\n        /* \"#utility.yul\":420:538   */\n    tag_77:\n        /* \"#utility.yul\":507:531   */\n      tag_79\n        /* \"#utility.yul\":525:530   */\n      dup2\n        /* \"#utility.yul\":507:531   */\n      tag_80\n      jump\t// in\n    tag_79:\n        /* \"#utility.yul\":502:505   */\n      dup3\n        /* \"#utility.yul\":495:532   */\n      mstore\n        /* \"#utility.yul\":485:538   */\n      pop\n      pop\n      jump\t// out\n        /* \"#utility.yul\":544:914   */\n    tag_81:\n      0x00\n        /* \"#utility.yul\":707:774   */\n      tag_83\n        /* \"#utility.yul\":771:773   */\n      0x26\n        /* \"#utility.yul\":766:769   */\n      dup4\n        /* \"#utility.yul\":707:774   */\n      tag_84\n      jump\t// in\n    tag_83:\n        /* \"#utility.yul\":700:774   */\n      swap2\n      pop\n        /* \"#utility.yul\":804:838   */\n      0x4f776e61626c653a206e6577206f776e657220697320746865207a65726f2061\n        /* \"#utility.yul\":800:801   */\n      0x00\n        /* \"#utility.yul\":795:798   */\n      dup4\n        /* \"#utility.yul\":791:802   */\n      add\n        /* \"#utility.yul\":784:839   */\n      mstore\n        /* \"#utility.yul\":870:878   */\n      0x6464726573730000000000000000000000000000000000000000000000000000\n        /* \"#utility.yul\":865:867   */\n      0x20\n        /* \"#utility.yul\":860:863   */\n      dup4\n        /* \"#utility.yul\":856:868   */\n      add\n        /* \"#utility.yul\":849:879   */\n      mstore\n        /* \"#utility.yul\":905:907   */\n      0x40\n        /* \"#utility.yul\":900:903   */\n      dup3\n        /* \"#utility.yul\":896:908   */\n      add\n        /* \"#utility.yul\":889:908   */\n      swap1\n      pop\n        /* \"#utility.yul\":690:914   */\n      swap2\n      swap1\n      pop\n      jump\t// out\n        /* \"#utility.yul\":920:1250   */\n    tag_85:\n      0x00\n        /* \"#utility.yul\":1083:1150   */\n      tag_87\n        /* \"#utility.yul\":1147:1149   */\n      0x20\n        /* \"#utility.yul\":1142:1145   */\n      dup4\n        /* \"#utility.yul\":1083:1150   */\n      tag_84\n      jump\t// in\n    tag_87:\n        /* \"#utility.yul\":1076:1150   */\n      swap2\n      pop\n        /* \"#utility.yul\":1180:1214   */\n      0x4f776e61626c653a2063616c6c6572206973206e6f7420746865206f776e6572\n        /* \"#utility.yul\":1176:1177   */\n      0x00\n        /* \"#utility.yul\":1171:1174   */\n      dup4\n        /* \"#utility.yul\":1167:1178   */\n      add\n        /* \"#utility.yul\":1160:1215   */\n      mstore\n        /* \"#utility.yul\":1241:1243   */\n      0x20\n        /* \"#utility.yul\":1236:1239   */\n      dup3\n        /* \"#utility.yul\":1232:1244   */\n      add\n        /* \"#utility.yul\":1225:1244   */\n      swap1\n      pop\n        /* \"#utility.yul\":1066:1250   */\n      swap2\n      swap1\n      pop\n      jump\t// out\n        /* \"#utility.yul\":1256:1374   */\n    tag_88:\n        /* \"#utility.yul\":1343:1367   */\n      tag_90\n        /* \"#utility.yul\":1361:1366   */\n      dup2\n        /* \"#utility.yul\":1343:1367   */\n      tag_91\n      jump\t// in\n    tag_90:\n        /* \"#utility.yul\":1338:1341   */\n      dup3\n        /* \"#utility.yul\":1331:1368   */\n      mstore\n        /* \"#utility.yul\":1321:1374   */\n      pop\n      pop\n      jump\t// out\n        /* \"#utility.yul\":1380:1602   */\n    tag_39:\n      0x00\n        /* \"#utility.yul\":1511:1513   */\n      0x20\n        /* \"#utility.yul\":1500:1509   */\n      dup3\n        /* \"#utility.yul\":1496:1514   */\n      add\n        /* \"#utility.yul\":1488:1514   */\n      swap1\n      pop\n        /* \"#utility.yul\":1524:1595   */\n      tag_93\n        /* \"#utility.yul\":1592:1593   */\n      0x00\n        /* \"#utility.yul\":1581:1590   */\n      dup4\n        /* \"#utility.yul\":1577:1594   */\n      add\n        /* \"#utility.yul\":1568:1574   */\n      dup5\n        /* \"#utility.yul\":1524:1595   */\n      tag_77\n      jump\t// in\n    tag_93:\n        /* \"#utility.yul\":1478:1602   */\n      swap3\n      swap2\n      pop\n      pop\n      jump\t// out\n        /* \"#utility.yul\":1608:2027   */\n    tag_67:\n      0x00\n        /* \"#utility.yul\":1812:1814   */\n      0x20\n        /* \"#utility.yul\":1801:1810   */\n      dup3\n        /* \"#utility.yul\":1797:1815   */\n      add\n        /* \"#utility.yul\":1789:1815   */\n      swap1\n      pop\n        /* \"#utility.yul\":1861:1870   */\n      dup2\n        /* \"#utility.yul\":1855:1859   */\n      dup2\n        /* \"#utility.yul\":1851:1871   */\n      sub\n        /* \"#utility.yul\":1847:1848   */\n      0x00\n        /* \"#utility.yul\":1836:1845   */\n      dup4\n        /* \"#utility.yul\":1832:1849   */\n      add\n        /* \"#utility.yul\":1825:1872   */\n      mstore\n        /* \"#utility.yul\":1889:2020   */\n      tag_95\n        /* \"#utility.yul\":2015:2019   */\n      dup2\n        /* \"#utility.yul\":1889:2020   */\n      tag_81\n      jump\t// in\n    tag_95:\n        /* \"#utility.yul\":1881:2020   */\n      swap1\n      pop\n        /* \"#utility.yul\":1779:2027   */\n      swap2\n      swap1\n      pop\n      jump\t// out\n        /* \"#utility.yul\":2033:2452   */\n    tag_56:\n      0x00\n        /* \"#utility.yul\":2237:2239   */\n      0x20\n        /* \"#utility.yul\":2226:2235   */\n      dup3\n        /* \"#utility.yul\":2222:2240   */\n      add\n        /* \"#utility.yul\":2214:2240   */\n      swap1\n      pop\n        /* \"#utility.yul\":2286:2295   */\n      dup2\n        /* \"#utility.yul\":2280:2284   */\n      dup2\n        /* \"#utility.yul\":2276:2296   */\n      sub\n        /* \"#utility.yul\":2272:2273   */\n      0x00\n        /* \"#utility.yul\":2261:2270   */\n      dup4\n        /* \"#utility.yul\":2257:2274   */\n      add\n        /* \"#utility.yul\":2250:2297   */\n      mstore\n        /* \"#utility.yul\":2314:2445   */\n      tag_97\n        /* \"#utility.yul\":2440:2444   */\n      dup2\n        /* \"#utility.yul\":2314:2445   */\n      tag_85\n      jump\t// in\n    tag_97:\n        /* \"#utility.yul\":2306:2445   */\n      swap1\n      pop\n        /* \"#utility.yul\":2204:2452   */\n      swap2\n      swap1\n      pop\n      jump\t// out\n        /* \"#utility.yul\":2458:2680   */\n    tag_18:\n      0x00\n        /* \"#utility.yul\":2589:2591   */\n      0x20\n        /* \"#utility.yul\":2578:2587   */\n      dup3\n        /* \"#utility.yul\":2574:2592   */\n      add\n        /* \"#utility.yul\":2566:2592   */\n      swap1\n      pop\n        /* \"#utility.yul\":2602:2673   */\n      tag_99\n        /* \"#utility.yul\":2670:2671   */\n      0x00\n        /* \"#utility.yul\":2659:2668   */\n      dup4\n        /* \"#utility.yul\":2655:2672   */\n      add\n        /* \"#utility.yul\":2646:2652   */\n      dup5\n        /* \"#utility.yul\":2602:2673   */\n      tag_88\n      jump\t// in\n    tag_99:\n        /* \"#utility.yul\":2556:2680   */\n      swap3\n      swap2\n      pop\n      pop\n      jump\t// out\n        /* \"#utility.yul\":2686:2855   */\n    tag_84:\n      0x00\n        /* \"#utility.yul\":2804:2810   */\n      dup3\n        /* \"#utility.yul\":2799:2802   */\n      dup3\n        /* \"#utility.yul\":2792:2811   */\n      mstore\n        /* \"#utility.yul\":2844:2848   */\n      0x20\n        /* \"#utility.yul\":2839:2842   */\n      dup3\n        /* \"#utility.yul\":2835:2849   */\n      add\n        /* \"#utility.yul\":2820:2849   */\n      swap1\n      pop\n        /* \"#utility.yul\":2782:2855   */\n      swap3\n      swap2\n      pop\n      pop\n      jump\t// out\n        /* \"#utility.yul\":2861:2957   */\n    tag_80:\n      0x00\n        /* \"#utility.yul\":2927:2951   */\n      tag_102\n        /* \"#utility.yul\":2945:2950   */\n      dup3\n        /* \"#utility.yul\":2927:2951   */\n      tag_103\n      jump\t// in\n    tag_102:\n        /* \"#utility.yul\":2916:2951   */\n      swap1\n      pop\n        /* \"#utility.yul\":2906:2957   */\n      swap2\n      swap1\n      pop\n      jump\t// out\n        /* \"#utility.yul\":2963:3089   */\n    tag_103:\n      0x00\n        /* \"#utility.yul\":3040:3082   */\n      0xffffffffffffffffffffffffffffffffffffffff\n        /* \"#utility.yul\":3033:3038   */\n      dup3\n        /* \"#utility.yul\":3029:3083   */\n      and\n        /* \"#utility.yul\":3018:3083   */\n      swap1\n      pop\n        /* \"#utility.yul\":3008:3089   */\n      swap2\n      swap1\n      pop\n      jump\t// out\n        /* \"#utility.yul\":3095:3172   */\n    tag_91:\n      0x00\n        /* \"#utility.yul\":3161:3166   */\n      dup2\n        /* \"#utility.yul\":3150:3166   */\n      swap1\n      pop\n        /* \"#utility.yul\":3140:3172   */\n      swap2\n      swap1\n      pop\n      jump\t// out\n        /* \"#utility.yul\":3178:3300   */\n    tag_73:\n        /* \"#utility.yul\":3251:3275   */\n      tag_107\n        /* \"#utility.yul\":3269:3274   */\n      dup2\n        /* \"#utility.yul\":3251:3275   */\n      tag_80\n      jump\t// in\n    tag_107:\n        /* \"#utility.yul\":3244:3249   */\n      dup2\n        /* \"#utility.yul\":3241:3276   */\n      eq\n        /* \"#utility.yul\":3231:3233   */\n      tag_108\n      jumpi\n        /* \"#utility.yul\":3290:3291   */\n      0x00\n        /* \"#utility.yul\":3287:3288   */\n      dup1\n        /* \"#utility.yul\":3280:3292   */\n      revert\n        /* \"#utility.yul\":3231:3233   */\n    tag_108:\n        /* \"#utility.yul\":3221:3300   */\n      pop\n      jump\t// out\n\n    auxdata: 0xa26469706673582212200c31ac239153a0943822a834fa44a20b209f69649db1424c5471aab3ebdaeeef64736f6c63430008000033\n}\n",
				"bytecode": {
					"linkReferences": {},
					"object": "608060405234801561001057600080fd5b506040516109643803806109648339818101604052810190610032919061011c565b60006100426100ea60201b60201c565b9050806000806101000a81548173ffffffffffffffffffffffffffffffffffffffff021916908373ffffffffffffffffffffffffffffffffffffffff1602179055508073ffffffffffffffffffffffffffffffffffffffff16600073ffffffffffffffffffffffffffffffffffffffff167f8be0079c531659141344cd1fd0a4f28419497f9722a3daafe3b4186f6b6457e060405160405180910390a35050505050506101fd565b600033905090565b600081519050610101816101cf565b92915050565b600081519050610116816101e6565b92915050565b600080600080600060a0868803121561013457600080fd5b6000610142888289016100f2565b955050602061015388828901610107565b945050604061016488828901610107565b935050606061017588828901610107565b925050608061018688828901610107565b9150509295509295909350565b600061019e826101a5565b9050919050565b600073ffffffffffffffffffffffffffffffffffffffff82169050919050565b6000819050919050565b6101d881610193565b81146101e357600080fd5b50565b6101ef816101c5565b81146101fa57600080fd5b50565b6107588061020c6000396000f3fe608060405234801561001057600080fd5b50600436106100a95760003560e01c8063715018a611610071578063715018a61461014457806378e979251461014e5780638da5cb5b1461016c578063f2fde38b1461018a578063fa1a5f59146101a6578063fc0c546a146101c4576100a9565b80631b0875a6146100ae57806331711884146100cc5780633197cbb6146100ea5780633996dc8f146101085780635caed02914610126575b600080fd5b6100b66101e2565b6040516100c391906106a3565b60405180910390f35b6100d46101e8565b6040516100e191906106a3565b60405180910390f35b6100f26101ee565b6040516100ff91906106a3565b60405180910390f35b6101106101f4565b60405161011d91906106a3565b60405180910390f35b61012e6101fa565b60405161013b91906106a3565b60405180910390f35b61014c610200565b005b61015661033a565b60405161016391906106a3565b60405180910390f35b610174610340565b6040516101819190610648565b60405180910390f35b6101a4600480360381019061019f919061055b565b610369565b005b6101ae610512565b6040516101bb91906106a3565b60405180910390f35b6101cc610518565b6040516101d99190610648565b60405180910390f35b60085481565b60055481565b60045481565b60075481565b60025481565b61020861053e565b73ffffffffffffffffffffffffffffffffffffffff16610226610340565b73ffffffffffffffffffffffffffffffffffffffff161461027c576040517f08c379a000000000000000000000000000000000000000000000000000000000815260040161027390610683565b60405180910390fd5b600073ffffffffffffffffffffffffffffffffffffffff1660008054906101000a900473ffffffffffffffffffffffffffffffffffffffff1673ffffffffffffffffffffffffffffffffffffffff167f8be0079c531659141344cd1fd0a4f28419497f9722a3daafe3b4186f6b6457e060405160405180910390a360008060006101000a81548173ffffffffffffffffffffffffffffffffffffffff021916908373ffffffffffffffffffffffffffffffffffffffff160217905550565b60035481565b60008060009054906101000a900473ffffffffffffffffffffffffffffffffffffffff16905090565b61037161053e565b73ffffffffffffffffffffffffffffffffffffffff1661038f610340565b73ffffffffffffffffffffffffffffffffffffffff16146103e5576040517f08c379a00000000000000000000000000000000000000000000000000000000081526004016103dc90610683565b60405180910390fd5b600073ffffffffffffffffffffffffffffffffffffffff168173ffffffffffffffffffffffffffffffffffffffff161415610455576040517f08c379a000000000000000000000000000000000000000000000000000000000815260040161044c90610663565b60405180910390fd5b8073ffffffffffffffffffffffffffffffffffffffff1660008054906101000a900473ffffffffffffffffffffffffffffffffffffffff1673ffffffffffffffffffffffffffffffffffffffff167f8be0079c531659141344cd1fd0a4f28419497f9722a3daafe3b4186f6b6457e060405160405180910390a3806000806101000a81548173ffffffffffffffffffffffffffffffffffffffff021916908373ffffffffffffffffffffffffffffffffffffffff16021790555050565b60065481565b600160009054906101000a900473ffffffffffffffffffffffffffffffffffffffff1681565b600033905090565b6000813590506105558161070b565b92915050565b60006020828403121561056d57600080fd5b600061057b84828501610546565b91505092915050565b61058d816106cf565b82525050565b60006105a06026836106be565b91507f4f776e61626c653a206e6577206f776e657220697320746865207a65726f206160008301527f64647265737300000000000000000000000000000000000000000000000000006020830152604082019050919050565b60006106066020836106be565b91507f4f776e61626c653a2063616c6c6572206973206e6f7420746865206f776e65726000830152602082019050919050565b61064281610701565b82525050565b600060208201905061065d6000830184610584565b92915050565b6000602082019050818103600083015261067c81610593565b9050919050565b6000602082019050818103600083015261069c816105f9565b9050919050565b60006020820190506106b86000830184610639565b92915050565b600082825260208201905092915050565b60006106da826106e1565b9050919050565b600073ffffffffffffffffffffffffffffffffffffffff82169050919050565b6000819050919050565b610714816106cf565b811461071f57600080fd5b5056fea26469706673582212200c31ac239153a0943822a834fa44a20b209f69649db1424c5471aab3ebdaeeef64736f6c63430008000033",
					"opcodes": "PUSH1 0x80 PUSH1 0x40 MSTORE CALLVALUE DUP1 ISZERO PUSH2 0x10 JUMPI PUSH1 0x0 DUP1 REVERT JUMPDEST POP PUSH1 0x40 MLOAD PUSH2 0x964 CODESIZE SUB DUP1 PUSH2 0x964 DUP4 CODECOPY DUP2 DUP2 ADD PUSH1 0x40 MSTORE DUP2 ADD SWAP1 PUSH2 0x32 SWAP2 SWAP1 PUSH2 0x11C JUMP JUMPDEST PUSH1 0x0 PUSH2 0x42 PUSH2 0xEA PUSH1 0x20 SHL PUSH1 0x20 SHR JUMP JUMPDEST SWAP1 POP DUP1 PUSH1 0x0 DUP1 PUSH2 0x100 EXP DUP2 SLOAD DUP2 PUSH20 0xFFFFFFFFFFFFFFFFFFFFFFFFFFFFFFFFFFFFFFFF MUL NOT AND SWAP1 DUP4 PUSH20 0xFFFFFFFFFFFFFFFFFFFFFFFFFFFFFFFFFFFFFFFF AND MUL OR SWAP1 SSTORE POP DUP1 PUSH20 0xFFFFFFFFFFFFFFFFFFFFFFFFFFFFFFFFFFFFFFFF AND PUSH1 0x0 PUSH20 0xFFFFFFFFFFFFFFFFFFFFFFFFFFFFFFFFFFFFFFFF AND PUSH32 0x8BE0079C531659141344CD1FD0A4F28419497F9722A3DAAFE3B4186F6B6457E0 PUSH1 0x40 MLOAD PUSH1 0x40 MLOAD DUP1 SWAP2 SUB SWAP1 LOG3 POP POP POP POP POP POP PUSH2 0x1FD JUMP JUMPDEST PUSH1 0x0 CALLER SWAP1 POP SWAP1 JUMP JUMPDEST PUSH1 0x0 DUP2 MLOAD SWAP1 POP PUSH2 0x101 DUP2 PUSH2 0x1CF JUMP JUMPDEST SWAP3 SWAP2 POP POP JUMP JUMPDEST PUSH1 0x0 DUP2 MLOAD SWAP1 POP PUSH2 0x116 DUP2 PUSH2 0x1E6 JUMP JUMPDEST SWAP3 SWAP2 POP POP JUMP JUMPDEST PUSH1 0x0 DUP1 PUSH1 0x0 DUP1 PUSH1 0x0 PUSH1 0xA0 DUP7 DUP9 SUB SLT ISZERO PUSH2 0x134 JUMPI PUSH1 0x0 DUP1 REVERT JUMPDEST PUSH1 0x0 PUSH2 0x142 DUP9 DUP3 DUP10 ADD PUSH2 0xF2 JUMP JUMPDEST SWAP6 POP POP PUSH1 0x20 PUSH2 0x153 DUP9 DUP3 DUP10 ADD PUSH2 0x107 JUMP JUMPDEST SWAP5 POP POP PUSH1 0x40 PUSH2 0x164 DUP9 DUP3 DUP10 ADD PUSH2 0x107 JUMP JUMPDEST SWAP4 POP POP PUSH1 0x60 PUSH2 0x175 DUP9 DUP3 DUP10 ADD PUSH2 0x107 JUMP JUMPDEST SWAP3 POP POP PUSH1 0x80 PUSH2 0x186 DUP9 DUP3 DUP10 ADD PUSH2 0x107 JUMP JUMPDEST SWAP2 POP POP SWAP3 SWAP6 POP SWAP3 SWAP6 SWAP1 SWAP4 POP JUMP JUMPDEST PUSH1 0x0 PUSH2 0x19E DUP3 PUSH2 0x1A5 JUMP JUMPDEST SWAP1 POP SWAP2 SWAP1 POP JUMP JUMPDEST PUSH1 0x0 PUSH20 0xFFFFFFFFFFFFFFFFFFFFFFFFFFFFFFFFFFFFFFFF DUP3 AND SWAP1 POP SWAP2 SWAP1 POP JUMP JUMPDEST PUSH1 0x0 DUP2 SWAP1 POP SWAP2 SWAP1 POP JUMP JUMPDEST PUSH2 0x1D8 DUP2 PUSH2 0x193 JUMP JUMPDEST DUP2 EQ PUSH2 0x1E3 JUMPI PUSH1 0x0 DUP1 REVERT JUMPDEST POP JUMP JUMPDEST PUSH2 0x1EF DUP2 PUSH2 0x1C5 JUMP JUMPDEST DUP2 EQ PUSH2 0x1FA JUMPI PUSH1 0x0 DUP1 REVERT JUMPDEST POP JUMP JUMPDEST PUSH2 0x758 DUP1 PUSH2 0x20C PUSH1 0x0 CODECOPY PUSH1 0x0 RETURN INVALID PUSH1 0x80 PUSH1 0x40 MSTORE CALLVALUE DUP1 ISZERO PUSH2 0x10 JUMPI PUSH1 0x0 DUP1 REVERT JUMPDEST POP PUSH1 0x4 CALLDATASIZE LT PUSH2 0xA9 JUMPI PUSH1 0x0 CALLDATALOAD PUSH1 0xE0 SHR DUP1 PUSH4 0x715018A6 GT PUSH2 0x71 JUMPI DUP1 PUSH4 0x715018A6 EQ PUSH2 0x144 JUMPI DUP1 PUSH4 0x78E97925 EQ PUSH2 0x14E JUMPI DUP1 PUSH4 0x8DA5CB5B EQ PUSH2 0x16C JUMPI DUP1 PUSH4 0xF2FDE38B EQ PUSH2 0x18A JUMPI DUP1 PUSH4 0xFA1A5F59 EQ PUSH2 0x1A6 JUMPI DUP1 PUSH4 0xFC0C546A EQ PUSH2 0x1C4 JUMPI PUSH2 0xA9 JUMP JUMPDEST DUP1 PUSH4 0x1B0875A6 EQ PUSH2 0xAE JUMPI DUP1 PUSH4 0x31711884 EQ PUSH2 0xCC JUMPI DUP1 PUSH4 0x3197CBB6 EQ PUSH2 0xEA JUMPI DUP1 PUSH4 0x3996DC8F EQ PUSH2 0x108 JUMPI DUP1 PUSH4 0x5CAED029 EQ PUSH2 0x126 JUMPI JUMPDEST PUSH1 0x0 DUP1 REVERT JUMPDEST PUSH2 0xB6 PUSH2 0x1E2 JUMP JUMPDEST PUSH1 0x40 MLOAD PUSH2 0xC3 SWAP2 SWAP1 PUSH2 0x6A3 JUMP JUMPDEST PUSH1 0x40 MLOAD DUP1 SWAP2 SUB SWAP1 RETURN JUMPDEST PUSH2 0xD4 PUSH2 0x1E8 JUMP JUMPDEST PUSH1 0x40 MLOAD PUSH2 0xE1 SWAP2 SWAP1 PUSH2 0x6A3 JUMP JUMPDEST PUSH1 0x40 MLOAD DUP1 SWAP2 SUB SWAP1 RETURN JUMPDEST PUSH2 0xF2 PUSH2 0x1EE JUMP JUMPDEST PUSH1 0x40 MLOAD PUSH2 0xFF SWAP2 SWAP1 PUSH2 0x6A3 JUMP JUMPDEST PUSH1 0x40 MLOAD DUP1 SWAP2 SUB SWAP1 RETURN JUMPDEST PUSH2 0x110 PUSH2 0x1F4 JUMP JUMPDEST PUSH1 0x40 MLOAD PUSH2 0x11D SWAP2 SWAP1 PUSH2 0x6A3 JUMP JUMPDEST PUSH1 0x40 MLOAD DUP1 SWAP2 SUB SWAP1 RETURN JUMPDEST PUSH2 0x12E PUSH2 0x1FA JUMP JUMPDEST PUSH1 0x40 MLOAD PUSH2 0x13B SWAP2 SWAP1 PUSH2 0x6A3 JUMP JUMPDEST PUSH1 0x40 MLOAD DUP1 SWAP2 SUB SWAP1 RETURN JUMPDEST PUSH2 0x14C PUSH2 0x200 JUMP JUMPDEST STOP JUMPDEST PUSH2 0x156 PUSH2 0x33A JUMP JUMPDEST PUSH1 0x40 MLOAD PUSH2 0x163 SWAP2 SWAP1 PUSH2 0x6A3 JUMP JUMPDEST PUSH1 0x40 MLOAD DUP1 SWAP2 SUB SWAP1 RETURN JUMPDEST PUSH2 0x174 PUSH2 0x340 JUMP JUMPDEST PUSH1 0x40 MLOAD PUSH2 0x181 SWAP2 SWAP1 PUSH2 0x648 JUMP JUMPDEST PUSH1 0x40 MLOAD DUP1 SWAP2 SUB SWAP1 RETURN JUMPDEST PUSH2 0x1A4 PUSH1 0x4 DUP1 CALLDATASIZE SUB DUP2 ADD SWAP1 PUSH2 0x19F SWAP2 SWAP1 PUSH2 0x55B JUMP JUMPDEST PUSH2 0x369 JUMP JUMPDEST STOP JUMPDEST PUSH2 0x1AE PUSH2 0x512 JUMP JUMPDEST PUSH1 0x40 MLOAD PUSH2 0x1BB SWAP2 SWAP1 PUSH2 0x6A3 JUMP JUMPDEST PUSH1 0x40 MLOAD DUP1 SWAP2 SUB SWAP1 RETURN JUMPDEST PUSH2 0x1CC PUSH2 0x518 JUMP JUMPDEST PUSH1 0x40 MLOAD PUSH2 0x1D9 SWAP2 SWAP1 PUSH2 0x648 JUMP JUMPDEST PUSH1 0x40 MLOAD DUP1 SWAP2 SUB SWAP1 RETURN JUMPDEST PUSH1 0x8 SLOAD DUP2 JUMP JUMPDEST PUSH1 0x5 SLOAD DUP2 JUMP JUMPDEST PUSH1 0x4 SLOAD DUP2 JUMP JUMPDEST PUSH1 0x7 SLOAD DUP2 JUMP JUMPDEST PUSH1 0x2 SLOAD DUP2 JUMP JUMPDEST PUSH2 0x208 PUSH2 0x53E JUMP JUMPDEST PUSH20 0xFFFFFFFFFFFFFFFFFFFFFFFFFFFFFFFFFFFFFFFF AND PUSH2 0x226 PUSH2 0x340 JUMP JUMPDEST PUSH20 0xFFFFFFFFFFFFFFFFFFFFFFFFFFFFFFFFFFFFFFFF AND EQ PUSH2 0x27C JUMPI PUSH1 0x40 MLOAD PUSH32 0x8C379A000000000000000000000000000000000000000000000000000000000 DUP2 MSTORE PUSH1 0x4 ADD PUSH2 0x273 SWAP1 PUSH2 0x683 JUMP JUMPDEST PUSH1 0x40 MLOAD DUP1 SWAP2 SUB SWAP1 REVERT JUMPDEST PUSH1 0x0 PUSH20 0xFFFFFFFFFFFFFFFFFFFFFFFFFFFFFFFFFFFFFFFF AND PUSH1 0x0 DUP1 SLOAD SWAP1 PUSH2 0x100 EXP SWAP1 DIV PUSH20 0xFFFFFFFFFFFFFFFFFFFFFFFFFFFFFFFFFFFFFFFF AND PUSH20 0xFFFFFFFFFFFFFFFFFFFFFFFFFFFFFFFFFFFFFFFF AND PUSH32 0x8BE0079C531659141344CD1FD0A4F28419497F9722A3DAAFE3B4186F6B6457E0 PUSH1 0x40 MLOAD PUSH1 0x40 MLOAD DUP1 SWAP2 SUB SWAP1 LOG3 PUSH1 0x0 DUP1 PUSH1 0x0 PUSH2 0x100 EXP DUP2 SLOAD DUP2 PUSH20 0xFFFFFFFFFFFFFFFFFFFFFFFFFFFFFFFFFFFFFFFF MUL NOT AND SWAP1 DUP4 PUSH20 0xFFFFFFFFFFFFFFFFFFFFFFFFFFFFFFFFFFFFFFFF AND MUL OR SWAP1 SSTORE POP JUMP JUMPDEST PUSH1 0x3 SLOAD DUP2 JUMP JUMPDEST PUSH1 0x0 DUP1 PUSH1 0x0 SWAP1 SLOAD SWAP1 PUSH2 0x100 EXP SWAP1 DIV PUSH20 0xFFFFFFFFFFFFFFFFFFFFFFFFFFFFFFFFFFFFFFFF AND SWAP1 POP SWAP1 JUMP JUMPDEST PUSH2 0x371 PUSH2 0x53E JUMP JUMPDEST PUSH20 0xFFFFFFFFFFFFFFFFFFFFFFFFFFFFFFFFFFFFFFFF AND PUSH2 0x38F PUSH2 0x340 JUMP JUMPDEST PUSH20 0xFFFFFFFFFFFFFFFFFFFFFFFFFFFFFFFFFFFFFFFF AND EQ PUSH2 0x3E5 JUMPI PUSH1 0x40 MLOAD PUSH32 0x8C379A000000000000000000000000000000000000000000000000000000000 DUP2 MSTORE PUSH1 0x4 ADD PUSH2 0x3DC SWAP1 PUSH2 0x683 JUMP JUMPDEST PUSH1 0x40 MLOAD DUP1 SWAP2 SUB SWAP1 REVERT JUMPDEST PUSH1 0x0 PUSH20 0xFFFFFFFFFFFFFFFFFFFFFFFFFFFFFFFFFFFFFFFF AND DUP2 PUSH20 0xFFFFFFFFFFFFFFFFFFFFFFFFFFFFFFFFFFFFFFFF AND EQ ISZERO PUSH2 0x455 JUMPI PUSH1 0x40 MLOAD PUSH32 0x8C379A000000000000000000000000000000000000000000000000000000000 DUP2 MSTORE PUSH1 0x4 ADD PUSH2 0x44C SWAP1 PUSH2 0x663 JUMP JUMPDEST PUSH1 0x40 MLOAD DUP1 SWAP2 SUB SWAP1 REVERT JUMPDEST DUP1 PUSH20 0xFFFFFFFFFFFFFFFFFFFFFFFFFFFFFFFFFFFFFFFF AND PUSH1 0x0 DUP1 SLOAD SWAP1 PUSH2 0x100 EXP SWAP1 DIV PUSH20 0xFFFFFFFFFFFFFFFFFFFFFFFFFFFFFFFFFFFFFFFF AND PUSH20 0xFFFFFFFFFFFFFFFFFFFFFFFFFFFFFFFFFFFFFFFF AND PUSH32 0x8BE0079C531659141344CD1FD0A4F28419497F9722A3DAAFE3B4186F6B6457E0 PUSH1 0x40 MLOAD PUSH1 0x40 MLOAD DUP1 SWAP2 SUB SWAP1 LOG3 DUP1 PUSH1 0x0 DUP1 PUSH2 0x100 EXP DUP2 SLOAD DUP2 PUSH20 0xFFFFFFFFFFFFFFFFFFFFFFFFFFFFFFFFFFFFFFFF MUL NOT AND SWAP1 DUP4 PUSH20 0xFFFFFFFFFFFFFFFFFFFFFFFFFFFFFFFFFFFFFFFF AND MUL OR SWAP1 SSTORE POP POP JUMP JUMPDEST PUSH1 0x6 SLOAD DUP2 JUMP JUMPDEST PUSH1 0x1 PUSH1 0x0 SWAP1 SLOAD SWAP1 PUSH2 0x100 EXP SWAP1 DIV PUSH20 0xFFFFFFFFFFFFFFFFFFFFFFFFFFFFFFFFFFFFFFFF AND DUP2 JUMP JUMPDEST PUSH1 0x0 CALLER SWAP1 POP SWAP1 JUMP JUMPDEST PUSH1 0x0 DUP2 CALLDATALOAD SWAP1 POP PUSH2 0x555 DUP2 PUSH2 0x70B JUMP JUMPDEST SWAP3 SWAP2 POP POP JUMP JUMPDEST PUSH1 0x0 PUSH1 0x20 DUP3 DUP5 SUB SLT ISZERO PUSH2 0x56D JUMPI PUSH1 0x0 DUP1 REVERT JUMPDEST PUSH1 0x0 PUSH2 0x57B DUP5 DUP3 DUP6 ADD PUSH2 0x546 JUMP JUMPDEST SWAP2 POP POP SWAP3 SWAP2 POP POP JUMP JUMPDEST PUSH2 0x58D DUP2 PUSH2 0x6CF JUMP JUMPDEST DUP3 MSTORE POP POP JUMP JUMPDEST PUSH1 0x0 PUSH2 0x5A0 PUSH1 0x26 DUP4 PUSH2 0x6BE JUMP JUMPDEST SWAP2 POP PUSH32 0x4F776E61626C653A206E6577206F776E657220697320746865207A65726F2061 PUSH1 0x0 DUP4 ADD MSTORE PUSH32 0x6464726573730000000000000000000000000000000000000000000000000000 PUSH1 0x20 DUP4 ADD MSTORE PUSH1 0x40 DUP3 ADD SWAP1 POP SWAP2 SWAP1 POP JUMP JUMPDEST PUSH1 0x0 PUSH2 0x606 PUSH1 0x20 DUP4 PUSH2 0x6BE JUMP JUMPDEST SWAP2 POP PUSH32 0x4F776E61626C653A2063616C6C6572206973206E6F7420746865206F776E6572 PUSH1 0x0 DUP4 ADD MSTORE PUSH1 0x20 DUP3 ADD SWAP1 POP SWAP2 SWAP1 POP JUMP JUMPDEST PUSH2 0x642 DUP2 PUSH2 0x701 JUMP JUMPDEST DUP3 MSTORE POP POP JUMP JUMPDEST PUSH1 0x0 PUSH1 0x20 DUP3 ADD SWAP1 POP PUSH2 0x65D PUSH1 0x0 DUP4 ADD DUP5 PUSH2 0x584 JUMP JUMPDEST SWAP3 SWAP2 POP POP JUMP JUMPDEST PUSH1 0x0 PUSH1 0x20 DUP3 ADD SWAP1 POP DUP2 DUP2 SUB PUSH1 0x0 DUP4 ADD MSTORE PUSH2 0x67C DUP2 PUSH2 0x593 JUMP JUMPDEST SWAP1 POP SWAP2 SWAP1 POP JUMP JUMPDEST PUSH1 0x0 PUSH1 0x20 DUP3 ADD SWAP1 POP DUP2 DUP2 SUB PUSH1 0x0 DUP4 ADD MSTORE PUSH2 0x69C DUP2 PUSH2 0x5F9 JUMP JUMPDEST SWAP1 POP SWAP2 SWAP1 POP JUMP JUMPDEST PUSH1 0x0 PUSH1 0x20 DUP3 ADD SWAP1 POP PUSH2 0x6B8 PUSH1 0x0 DUP4 ADD DUP5 PUSH2 0x639 JUMP JUMPDEST SWAP3 SWAP2 POP POP JUMP JUMPDEST PUSH1 0x0 DUP3 DUP3 MSTORE PUSH1 0x20 DUP3 ADD SWAP1 POP SWAP3 SWAP2 POP POP JUMP JUMPDEST PUSH1 0x0 PUSH2 0x6DA DUP3 PUSH2 0x6E1 JUMP JUMPDEST SWAP1 POP SWAP2 SWAP1 POP JUMP JUMPDEST PUSH1 0x0 PUSH20 0xFFFFFFFFFFFFFFFFFFFFFFFFFFFFFFFFFFFFFFFF DUP3 AND SWAP1 POP SWAP2 SWAP1 POP JUMP JUMPDEST PUSH1 0x0 DUP2 SWAP1 POP SWAP2 SWAP1 POP JUMP JUMPDEST PUSH2 0x714 DUP2 PUSH2 0x6CF JUMP JUMPDEST DUP2 EQ PUSH2 0x71F JUMPI PUSH1 0x0 DUP1 REVERT JUMPDEST POP JUMP INVALID LOG2 PUSH5 0x6970667358 0x22 SLT KECCAK256 0xC BALANCE 0xAC 0x23 SWAP2 MSTORE8 LOG0 SWAP5 CODESIZE 0x22 0xA8 CALLVALUE STATICCALL DIFFICULTY LOG2 SIGNEXTEND KECCAK256 SWAP16 PUSH10 0x649DB1424C5471AAB3EB 0xDA 0xEE 0xEF PUSH5 0x736F6C6343 STOP ADDMOD STOP STOP CALLER "
				},
				"gasEstimates": {
					"creation": {
						"codeDepositCost": "376000",
						"executionCost": "infinite",
						"totalCost": "infinite"
					},
					"external": {
						"endTime()": "1174",
						"owner()": "1266",
						"renounceOwnership()": "24329",
						"soldAmount()": "1217",
						"startTime()": "1151",
						"token()": "1324",
						"tokenDecimal()": "1218",
						"tokenRate()": "1152",
						"totalRaise()": "1196",
						"totalRewardTokens()": "1130",
						"transferOwnership(address)": "24744"
					}
				},
				"methodIdentifiers": {
					"endTime()": "3197cbb6",
					"owner()": "8da5cb5b",
					"renounceOwnership()": "715018a6",
					"soldAmount()": "fa1a5f59",
					"startTime()": "78e97925",
					"token()": "fc0c546a",
					"tokenDecimal()": "5caed029",
					"tokenRate()": "31711884",
					"totalRaise()": "3996dc8f",
					"totalRewardTokens()": "1b0875a6",
					"transferOwnership(address)": "f2fde38b"
				}
			},
			"storageLayout": {
				"storage": [
					{
						"astId": 4,
						"contract": "IDO.sol:IDO",
						"label": "_owner",
						"offset": 0,
						"slot": "0",
						"type": "t_address"
					},
					{
						"astId": 216,
						"contract": "IDO.sol:IDO",
						"label": "token",
						"offset": 0,
						"slot": "1",
						"type": "t_address"
					},
					{
						"astId": 218,
						"contract": "IDO.sol:IDO",
						"label": "tokenDecimal",
						"offset": 0,
						"slot": "2",
						"type": "t_uint256"
					},
					{
						"astId": 220,
						"contract": "IDO.sol:IDO",
						"label": "startTime",
						"offset": 0,
						"slot": "3",
						"type": "t_uint256"
					},
					{
						"astId": 222,
						"contract": "IDO.sol:IDO",
						"label": "endTime",
						"offset": 0,
						"slot": "4",
						"type": "t_uint256"
					},
					{
						"astId": 224,
						"contract": "IDO.sol:IDO",
						"label": "tokenRate",
						"offset": 0,
						"slot": "5",
						"type": "t_uint256"
					},
					{
						"astId": 226,
						"contract": "IDO.sol:IDO",
						"label": "soldAmount",
						"offset": 0,
						"slot": "6",
						"type": "t_uint256"
					},
					{
						"astId": 228,
						"contract": "IDO.sol:IDO",
						"label": "totalRaise",
						"offset": 0,
						"slot": "7",
						"type": "t_uint256"
					},
					{
						"astId": 230,
						"contract": "IDO.sol:IDO",
						"label": "totalRewardTokens",
						"offset": 0,
						"slot": "8",
						"type": "t_uint256"
					}
				],
				"types": {
					"t_address": {
						"encoding": "inplace",
						"label": "address",
						"numberOfBytes": "20"
					},
					"t_uint256": {
						"encoding": "inplace",
						"label": "uint256",
						"numberOfBytes": "32"
					}
				}
			},
			"userdoc": {
				"kind": "user",
				"methods": {},
				"version": 1
			}
		}
	}
}