{
	"IDO.sol": {
		"IDO": {
			"abi": [
				{
					"inputs": [
						{
							"internalType": "address",
							"name": "_token",
							"type": "address"
						},
						{
							"internalType": "uint256",
							"name": "_startTime",
							"type": "uint256"
						},
						{
							"internalType": "uint256",
							"name": "_endTime",
							"type": "uint256"
						},
						{
							"internalType": "uint256",
							"name": "_tokenRate",
							"type": "uint256"
						},
						{
							"internalType": "uint256",
							"name": "_totalRewardTokens",
							"type": "uint256"
						}
					],
					"stateMutability": "nonpayable",
					"type": "constructor"
				},
				{
					"anonymous": false,
					"inputs": [
						{
							"indexed": true,
							"internalType": "address",
							"name": "previousOwner",
							"type": "address"
						},
						{
							"indexed": true,
							"internalType": "address",
							"name": "newOwner",
							"type": "address"
						}
					],
					"name": "OwnershipTransferred",
					"type": "event"
				},
				{
					"inputs": [],
					"name": "endTime",
					"outputs": [
						{
							"internalType": "uint256",
							"name": "",
							"type": "uint256"
						}
					],
					"stateMutability": "view",
					"type": "function"
				},
				{
					"inputs": [
						{
							"internalType": "uint256",
							"name": "_tokens",
							"type": "uint256"
						}
					],
					"name": "getTokenInETH",
					"outputs": [
						{
							"internalType": "uint256",
							"name": "",
							"type": "uint256"
						}
					],
					"stateMutability": "view",
					"type": "function"
				},
				{
					"inputs": [],
					"name": "isActive",
					"outputs": [
						{
							"internalType": "bool",
							"name": "",
							"type": "bool"
						}
					],
					"stateMutability": "view",
					"type": "function"
				},
				{
					"inputs": [],
					"name": "owner",
					"outputs": [
						{
							"internalType": "address",
							"name": "",
							"type": "address"
						}
					],
					"stateMutability": "view",
					"type": "function"
				},
				{
					"inputs": [],
					"name": "renounceOwnership",
					"outputs": [],
					"stateMutability": "nonpayable",
					"type": "function"
				},
				{
					"inputs": [],
					"name": "soldAmount",
					"outputs": [
						{
							"internalType": "uint256",
							"name": "",
							"type": "uint256"
						}
					],
					"stateMutability": "view",
					"type": "function"
				},
				{
					"inputs": [],
					"name": "startTime",
					"outputs": [
						{
							"internalType": "uint256",
							"name": "",
							"type": "uint256"
						}
					],
					"stateMutability": "view",
					"type": "function"
				},
				{
					"inputs": [],
					"name": "token",
					"outputs": [
						{
							"internalType": "address",
							"name": "",
							"type": "address"
						}
					],
					"stateMutability": "view",
					"type": "function"
				},
				{
					"inputs": [],
					"name": "tokenDecimal",
					"outputs": [
						{
							"internalType": "uint256",
							"name": "",
							"type": "uint256"
						}
					],
					"stateMutability": "view",
					"type": "function"
				},
				{
					"inputs": [],
					"name": "tokenRate",
					"outputs": [
						{
							"internalType": "uint256",
							"name": "",
							"type": "uint256"
						}
					],
					"stateMutability": "view",
					"type": "function"
				},
				{
					"inputs": [],
					"name": "totalRaise",
					"outputs": [
						{
							"internalType": "uint256",
							"name": "",
							"type": "uint256"
						}
					],
					"stateMutability": "view",
					"type": "function"
				},
				{
					"inputs": [],
					"name": "totalRewardTokens",
					"outputs": [
						{
							"internalType": "uint256",
							"name": "",
							"type": "uint256"
						}
					],
					"stateMutability": "view",
					"type": "function"
				},
				{
					"inputs": [
						{
							"internalType": "address",
							"name": "newOwner",
							"type": "address"
						}
					],
					"name": "transferOwnership",
					"outputs": [],
					"stateMutability": "nonpayable",
					"type": "function"
				}
			],
			"devdoc": {
				"kind": "dev",
				"methods": {
					"owner()": {
						"details": "Returns the address of the current owner."
					},
					"renounceOwnership()": {
						"details": "Leaves the contract without owner. It will not be possible to call `onlyOwner` functions anymore. Can only be called by the current owner. NOTE: Renouncing ownership will leave the contract without an owner, thereby removing any functionality that is only available to the owner."
					},
					"transferOwnership(address)": {
						"details": "Transfers ownership of the contract to a new account (`newOwner`). Can only be called by the current owner."
					}
				},
				"version": 1
			},
			"evm": {
				"assembly": "    /* \"IDO.sol\":5428:6861  contract IDO is Ownable {\r... */\n  mstore(0x40, 0x80)\n    /* \"IDO.sol\":6012:6524  constructor (address _token, uint256 _startTime, uint256 _endTime, uint256 _tokenRate, uint256 _totalRewardTokens){\r... */\n  callvalue\n  dup1\n  iszero\n  tag_1\n  jumpi\n  0x00\n  dup1\n  revert\ntag_1:\n  pop\n  mload(0x40)\n  sub(codesize, bytecodeSize)\n  dup1\n  bytecodeSize\n  dup4\n  codecopy\n  dup2\n  dup2\n  add\n  0x40\n  mstore\n  dup2\n  add\n  swap1\n  tag_2\n  swap2\n  swap1\n  tag_3\n  jump\t// in\ntag_2:\n    /* \"IDO.sol\":981:998  address msgSender */\n  0x00\n    /* \"IDO.sol\":1001:1013  _msgSender() */\n  tag_7\n    /* \"IDO.sol\":1001:1011  _msgSender */\n  shl(0x20, tag_8)\n    /* \"IDO.sol\":1001:1013  _msgSender() */\n  0x20\n  shr\n  jump\t// in\ntag_7:\n    /* \"IDO.sol\":981:1013  address msgSender = _msgSender() */\n  swap1\n  pop\n    /* \"IDO.sol\":1033:1042  msgSender */\n  dup1\n    /* \"IDO.sol\":1024:1030  _owner */\n  0x00\n  dup1\n    /* \"IDO.sol\":1024:1042  _owner = msgSender */\n  0x0100\n  exp\n  dup2\n  sload\n  dup2\n  0xffffffffffffffffffffffffffffffffffffffff\n  mul\n  not\n  and\n  swap1\n  dup4\n  0xffffffffffffffffffffffffffffffffffffffff\n  and\n  mul\n  or\n  swap1\n  sstore\n  pop\n    /* \"IDO.sol\":1091:1100  msgSender */\n  dup1\n    /* \"IDO.sol\":1058:1101  OwnershipTransferred(address(0), msgSender) */\n  0xffffffffffffffffffffffffffffffffffffffff\n  and\n    /* \"IDO.sol\":1087:1088  0 */\n  0x00\n    /* \"IDO.sol\":1058:1101  OwnershipTransferred(address(0), msgSender) */\n  0xffffffffffffffffffffffffffffffffffffffff\n  and\n  0x8be0079c531659141344cd1fd0a4f28419497f9722a3daafe3b4186f6b6457e0\n  mload(0x40)\n  mload(0x40)\n  dup1\n  swap2\n  sub\n  swap1\n  log3\n    /* \"IDO.sol\":955:1109  constructor () {\r... */\n  pop\n    /* \"IDO.sol\":6173:6174  0 */\n  0x00\n    /* \"IDO.sol\":6152:6158  _token */\n  dup6\n    /* \"IDO.sol\":6145:6168  IERC20(_token).decimals */\n  0xffffffffffffffffffffffffffffffffffffffff\n  and\n  0x313ce567\n    /* \"IDO.sol\":6145:6170  IERC20(_token).decimals() */\n  mload(0x40)\n  dup2\n  0xffffffff\n  and\n  0xe0\n  shl\n  dup2\n  mstore\n  0x04\n  add\n  0x20\n  mload(0x40)\n  dup1\n  dup4\n  sub\n  dup2\n  dup7\n  dup1\n  extcodesize\n  iszero\n  dup1\n  iszero\n  tag_10\n  jumpi\n  0x00\n  dup1\n  revert\ntag_10:\n  pop\n  gas\n  staticcall\n  iszero\n  dup1\n  iszero\n  tag_12\n  jumpi\n  returndatasize\n  0x00\n  dup1\n  returndatacopy\n  revert(0x00, returndatasize)\ntag_12:\n  pop\n  pop\n  pop\n  pop\n  mload(0x40)\n  returndatasize\n  not(0x1f)\n  0x1f\n  dup3\n  add\n  and\n  dup3\n  add\n  dup1\n  0x40\n  mstore\n  pop\n  dup2\n  add\n  swap1\n  tag_13\n  swap2\n  swap1\n  tag_14\n  jump\t// in\ntag_13:\n    /* \"IDO.sol\":6145:6174  IERC20(_token).decimals() > 0 */\n  0xff\n  and\n  gt\n    /* \"IDO.sol\":6137:6175  require(IERC20(_token).decimals() > 0) */\n  tag_15\n  jumpi\n  0x00\n  dup1\n  revert\ntag_15:\n    /* \"IDO.sol\":6207:6215  _endTime */\n  dup3\n    /* \"IDO.sol\":6194:6204  _startTime */\n  dup5\n    /* \"IDO.sol\":6194:6215  _startTime < _endTime */\n  lt\n    /* \"IDO.sol\":6186:6216  require(_startTime < _endTime) */\n  tag_16\n  jumpi\n  0x00\n  dup1\n  revert\ntag_16:\n    /* \"IDO.sol\":6248:6249  0 */\n  0x00\n    /* \"IDO.sol\":6235:6245  _tokenRate */\n  dup3\n    /* \"IDO.sol\":6235:6249  _tokenRate > 0 */\n  gt\n    /* \"IDO.sol\":6227:6250  require(_tokenRate > 0) */\n  tag_17\n  jumpi\n  0x00\n  dup1\n  revert\ntag_17:\n    /* \"IDO.sol\":6290:6291  0 */\n  0x00\n    /* \"IDO.sol\":6269:6287  _totalRewardTokens */\n  dup2\n    /* \"IDO.sol\":6269:6291  _totalRewardTokens > 0 */\n  gt\n    /* \"IDO.sol\":6261:6292  require(_totalRewardTokens > 0) */\n  tag_18\n  jumpi\n  0x00\n  dup1\n  revert\ntag_18:\n    /* \"IDO.sol\":6313:6319  _token */\n  dup5\n    /* \"IDO.sol\":6305:6310  token */\n  0x01\n  0x00\n    /* \"IDO.sol\":6305:6319  token = _token */\n  0x0100\n  exp\n  dup2\n  sload\n  dup2\n  0xffffffffffffffffffffffffffffffffffffffff\n  mul\n  not\n  and\n  swap1\n  dup4\n  0xffffffffffffffffffffffffffffffffffffffff\n  and\n  mul\n  or\n  swap1\n  sstore\n  pop\n    /* \"IDO.sol\":6352:6358  _token */\n  dup5\n    /* \"IDO.sol\":6345:6368  IERC20(_token).decimals */\n  0xffffffffffffffffffffffffffffffffffffffff\n  and\n  0x313ce567\n    /* \"IDO.sol\":6345:6370  IERC20(_token).decimals() */\n  mload(0x40)\n  dup2\n  0xffffffff\n  and\n  0xe0\n  shl\n  dup2\n  mstore\n  0x04\n  add\n  0x20\n  mload(0x40)\n  dup1\n  dup4\n  sub\n  dup2\n  dup7\n  dup1\n  extcodesize\n  iszero\n  dup1\n  iszero\n  tag_19\n  jumpi\n  0x00\n  dup1\n  revert\ntag_19:\n  pop\n  gas\n  staticcall\n  iszero\n  dup1\n  iszero\n  tag_21\n  jumpi\n  returndatasize\n  0x00\n  dup1\n  returndatacopy\n  revert(0x00, returndatasize)\ntag_21:\n  pop\n  pop\n  pop\n  pop\n  mload(0x40)\n  returndatasize\n  not(0x1f)\n  0x1f\n  dup3\n  add\n  and\n  dup3\n  add\n  dup1\n  0x40\n  mstore\n  pop\n  dup2\n  add\n  swap1\n  tag_22\n  swap2\n  swap1\n  tag_14\n  jump\t// in\ntag_22:\n    /* \"IDO.sol\":6330:6370  tokenDecimal = IERC20(_token).decimals() */\n  0xff\n  and\n    /* \"IDO.sol\":6330:6342  tokenDecimal */\n  0x02\n    /* \"IDO.sol\":6330:6370  tokenDecimal = IERC20(_token).decimals() */\n  dup2\n  swap1\n  sstore\n  pop\n    /* \"IDO.sol\":6395:6405  _startTime */\n  dup4\n    /* \"IDO.sol\":6383:6392  startTime */\n  0x03\n    /* \"IDO.sol\":6383:6405  startTime = _startTime */\n  dup2\n  swap1\n  sstore\n  pop\n    /* \"IDO.sol\":6426:6434  _endTime */\n  dup3\n    /* \"IDO.sol\":6416:6423  endTime */\n  0x04\n    /* \"IDO.sol\":6416:6434  endTime = _endTime */\n  dup2\n  swap1\n  sstore\n  pop\n    /* \"IDO.sol\":6457:6467  _tokenRate */\n  dup2\n    /* \"IDO.sol\":6445:6454  tokenRate */\n  0x05\n    /* \"IDO.sol\":6445:6467  tokenRate = _tokenRate */\n  dup2\n  swap1\n  sstore\n  pop\n    /* \"IDO.sol\":6498:6516  _totalRewardTokens */\n  dup1\n    /* \"IDO.sol\":6478:6495  totalRewardTokens */\n  0x08\n    /* \"IDO.sol\":6478:6516  totalRewardTokens = _totalRewardTokens */\n  dup2\n  swap1\n  sstore\n  pop\n    /* \"IDO.sol\":6012:6524  constructor (address _token, uint256 _startTime, uint256 _endTime, uint256 _tokenRate, uint256 _totalRewardTokens){\r... */\n  pop\n  pop\n  pop\n  pop\n  pop\n    /* \"IDO.sol\":5428:6861  contract IDO is Ownable {\r... */\n  jump(tag_23)\n    /* \"IDO.sol\":735:850  function _msgSender() internal view virtual returns (address payable) {\r... */\ntag_8:\n    /* \"IDO.sol\":788:803  address payable */\n  0x00\n    /* \"IDO.sol\":831:841  msg.sender */\n  caller\n    /* \"IDO.sol\":816:842  return payable(msg.sender) */\n  swap1\n  pop\n    /* \"IDO.sol\":735:850  function _msgSender() internal view virtual returns (address payable) {\r... */\n  swap1\n  jump\t// out\n    /* \"#utility.yul\":7:150   */\ntag_26:\n  0x00\n    /* \"#utility.yul\":95:101   */\n  dup2\n    /* \"#utility.yul\":89:102   */\n  mload\n    /* \"#utility.yul\":80:102   */\n  swap1\n  pop\n    /* \"#utility.yul\":111:144   */\n  tag_28\n    /* \"#utility.yul\":138:143   */\n  dup2\n    /* \"#utility.yul\":111:144   */\n  tag_29\n  jump\t// in\ntag_28:\n    /* \"#utility.yul\":70:150   */\n  swap3\n  swap2\n  pop\n  pop\n  jump\t// out\n    /* \"#utility.yul\":156:299   */\ntag_30:\n  0x00\n    /* \"#utility.yul\":244:250   */\n  dup2\n    /* \"#utility.yul\":238:251   */\n  mload\n    /* \"#utility.yul\":229:251   */\n  swap1\n  pop\n    /* \"#utility.yul\":260:293   */\n  tag_32\n    /* \"#utility.yul\":287:292   */\n  dup2\n    /* \"#utility.yul\":260:293   */\n  tag_33\n  jump\t// in\ntag_32:\n    /* \"#utility.yul\":219:299   */\n  swap3\n  swap2\n  pop\n  pop\n  jump\t// out\n    /* \"#utility.yul\":305:444   */\ntag_34:\n  0x00\n    /* \"#utility.yul\":391:397   */\n  dup2\n    /* \"#utility.yul\":385:398   */\n  mload\n    /* \"#utility.yul\":376:398   */\n  swap1\n  pop\n    /* \"#utility.yul\":407:438   */\n  tag_36\n    /* \"#utility.yul\":432:437   */\n  dup2\n    /* \"#utility.yul\":407:438   */\n  tag_37\n  jump\t// in\ntag_36:\n    /* \"#utility.yul\":366:444   */\n  swap3\n  swap2\n  pop\n  pop\n  jump\t// out\n    /* \"#utility.yul\":450:1360   */\ntag_3:\n  0x00\n  dup1\n  0x00\n  dup1\n  0x00\n    /* \"#utility.yul\":637:640   */\n  0xa0\n    /* \"#utility.yul\":625:634   */\n  dup7\n    /* \"#utility.yul\":616:623   */\n  dup9\n    /* \"#utility.yul\":612:635   */\n  sub\n    /* \"#utility.yul\":608:641   */\n  slt\n    /* \"#utility.yul\":605:607   */\n  iszero\n  tag_39\n  jumpi\n    /* \"#utility.yul\":654:655   */\n  0x00\n    /* \"#utility.yul\":651:652   */\n  dup1\n    /* \"#utility.yul\":644:656   */\n  revert\n    /* \"#utility.yul\":605:607   */\ntag_39:\n    /* \"#utility.yul\":697:698   */\n  0x00\n    /* \"#utility.yul\":722:786   */\n  tag_40\n    /* \"#utility.yul\":778:785   */\n  dup9\n    /* \"#utility.yul\":769:775   */\n  dup3\n    /* \"#utility.yul\":758:767   */\n  dup10\n    /* \"#utility.yul\":754:776   */\n  add\n    /* \"#utility.yul\":722:786   */\n  tag_26\n  jump\t// in\ntag_40:\n    /* \"#utility.yul\":712:786   */\n  swap6\n  pop\n    /* \"#utility.yul\":668:796   */\n  pop\n    /* \"#utility.yul\":835:837   */\n  0x20\n    /* \"#utility.yul\":861:925   */\n  tag_41\n    /* \"#utility.yul\":917:924   */\n  dup9\n    /* \"#utility.yul\":908:914   */\n  dup3\n    /* \"#utility.yul\":897:906   */\n  dup10\n    /* \"#utility.yul\":893:915   */\n  add\n    /* \"#utility.yul\":861:925   */\n  tag_30\n  jump\t// in\ntag_41:\n    /* \"#utility.yul\":851:925   */\n  swap5\n  pop\n    /* \"#utility.yul\":806:935   */\n  pop\n    /* \"#utility.yul\":974:976   */\n  0x40\n    /* \"#utility.yul\":1000:1064   */\n  tag_42\n    /* \"#utility.yul\":1056:1063   */\n  dup9\n    /* \"#utility.yul\":1047:1053   */\n  dup3\n    /* \"#utility.yul\":1036:1045   */\n  dup10\n    /* \"#utility.yul\":1032:1054   */\n  add\n    /* \"#utility.yul\":1000:1064   */\n  tag_30\n  jump\t// in\ntag_42:\n    /* \"#utility.yul\":990:1064   */\n  swap4\n  pop\n    /* \"#utility.yul\":945:1074   */\n  pop\n    /* \"#utility.yul\":1113:1115   */\n  0x60\n    /* \"#utility.yul\":1139:1203   */\n  tag_43\n    /* \"#utility.yul\":1195:1202   */\n  dup9\n    /* \"#utility.yul\":1186:1192   */\n  dup3\n    /* \"#utility.yul\":1175:1184   */\n  dup10\n    /* \"#utility.yul\":1171:1193   */\n  add\n    /* \"#utility.yul\":1139:1203   */\n  tag_30\n  jump\t// in\ntag_43:\n    /* \"#utility.yul\":1129:1203   */\n  swap3\n  pop\n    /* \"#utility.yul\":1084:1213   */\n  pop\n    /* \"#utility.yul\":1252:1255   */\n  0x80\n    /* \"#utility.yul\":1279:1343   */\n  tag_44\n    /* \"#utility.yul\":1335:1342   */\n  dup9\n    /* \"#utility.yul\":1326:1332   */\n  dup3\n    /* \"#utility.yul\":1315:1324   */\n  dup10\n    /* \"#utility.yul\":1311:1333   */\n  add\n    /* \"#utility.yul\":1279:1343   */\n  tag_30\n  jump\t// in\ntag_44:\n    /* \"#utility.yul\":1269:1343   */\n  swap2\n  pop\n    /* \"#utility.yul\":1223:1353   */\n  pop\n    /* \"#utility.yul\":595:1360   */\n  swap3\n  swap6\n  pop\n  swap3\n  swap6\n  swap1\n  swap4\n  pop\n  jump\t// out\n    /* \"#utility.yul\":1366:1646   */\ntag_14:\n  0x00\n    /* \"#utility.yul\":1483:1485   */\n  0x20\n    /* \"#utility.yul\":1471:1480   */\n  dup3\n    /* \"#utility.yul\":1462:1469   */\n  dup5\n    /* \"#utility.yul\":1458:1481   */\n  sub\n    /* \"#utility.yul\":1454:1486   */\n  slt\n    /* \"#utility.yul\":1451:1453   */\n  iszero\n  tag_46\n  jumpi\n    /* \"#utility.yul\":1499:1500   */\n  0x00\n    /* \"#utility.yul\":1496:1497   */\n  dup1\n    /* \"#utility.yul\":1489:1501   */\n  revert\n    /* \"#utility.yul\":1451:1453   */\ntag_46:\n    /* \"#utility.yul\":1542:1543   */\n  0x00\n    /* \"#utility.yul\":1567:1629   */\n  tag_47\n    /* \"#utility.yul\":1621:1628   */\n  dup5\n    /* \"#utility.yul\":1612:1618   */\n  dup3\n    /* \"#utility.yul\":1601:1610   */\n  dup6\n    /* \"#utility.yul\":1597:1619   */\n  add\n    /* \"#utility.yul\":1567:1629   */\n  tag_34\n  jump\t// in\ntag_47:\n    /* \"#utility.yul\":1557:1629   */\n  swap2\n  pop\n    /* \"#utility.yul\":1513:1639   */\n  pop\n    /* \"#utility.yul\":1441:1646   */\n  swap3\n  swap2\n  pop\n  pop\n  jump\t// out\n    /* \"#utility.yul\":1652:1748   */\ntag_48:\n  0x00\n    /* \"#utility.yul\":1718:1742   */\n  tag_50\n    /* \"#utility.yul\":1736:1741   */\n  dup3\n    /* \"#utility.yul\":1718:1742   */\n  tag_51\n  jump\t// in\ntag_50:\n    /* \"#utility.yul\":1707:1742   */\n  swap1\n  pop\n    /* \"#utility.yul\":1697:1748   */\n  swap2\n  swap1\n  pop\n  jump\t// out\n    /* \"#utility.yul\":1754:1880   */\ntag_51:\n  0x00\n    /* \"#utility.yul\":1831:1873   */\n  0xffffffffffffffffffffffffffffffffffffffff\n    /* \"#utility.yul\":1824:1829   */\n  dup3\n    /* \"#utility.yul\":1820:1874   */\n  and\n    /* \"#utility.yul\":1809:1874   */\n  swap1\n  pop\n    /* \"#utility.yul\":1799:1880   */\n  swap2\n  swap1\n  pop\n  jump\t// out\n    /* \"#utility.yul\":1886:1963   */\ntag_53:\n  0x00\n    /* \"#utility.yul\":1952:1957   */\n  dup2\n    /* \"#utility.yul\":1941:1957   */\n  swap1\n  pop\n    /* \"#utility.yul\":1931:1963   */\n  swap2\n  swap1\n  pop\n  jump\t// out\n    /* \"#utility.yul\":1969:2055   */\ntag_55:\n  0x00\n    /* \"#utility.yul\":2044:2048   */\n  0xff\n    /* \"#utility.yul\":2037:2042   */\n  dup3\n    /* \"#utility.yul\":2033:2049   */\n  and\n    /* \"#utility.yul\":2022:2049   */\n  swap1\n  pop\n    /* \"#utility.yul\":2012:2055   */\n  swap2\n  swap1\n  pop\n  jump\t// out\n    /* \"#utility.yul\":2061:2183   */\ntag_29:\n    /* \"#utility.yul\":2134:2158   */\n  tag_58\n    /* \"#utility.yul\":2152:2157   */\n  dup2\n    /* \"#utility.yul\":2134:2158   */\n  tag_48\n  jump\t// in\ntag_58:\n    /* \"#utility.yul\":2127:2132   */\n  dup2\n    /* \"#utility.yul\":2124:2159   */\n  eq\n    /* \"#utility.yul\":2114:2116   */\n  tag_59\n  jumpi\n    /* \"#utility.yul\":2173:2174   */\n  0x00\n    /* \"#utility.yul\":2170:2171   */\n  dup1\n    /* \"#utility.yul\":2163:2175   */\n  revert\n    /* \"#utility.yul\":2114:2116   */\ntag_59:\n    /* \"#utility.yul\":2104:2183   */\n  pop\n  jump\t// out\n    /* \"#utility.yul\":2189:2311   */\ntag_33:\n    /* \"#utility.yul\":2262:2286   */\n  tag_61\n    /* \"#utility.yul\":2280:2285   */\n  dup2\n    /* \"#utility.yul\":2262:2286   */\n  tag_53\n  jump\t// in\ntag_61:\n    /* \"#utility.yul\":2255:2260   */\n  dup2\n    /* \"#utility.yul\":2252:2287   */\n  eq\n    /* \"#utility.yul\":2242:2244   */\n  tag_62\n  jumpi\n    /* \"#utility.yul\":2301:2302   */\n  0x00\n    /* \"#utility.yul\":2298:2299   */\n  dup1\n    /* \"#utility.yul\":2291:2303   */\n  revert\n    /* \"#utility.yul\":2242:2244   */\ntag_62:\n    /* \"#utility.yul\":2232:2311   */\n  pop\n  jump\t// out\n    /* \"#utility.yul\":2317:2435   */\ntag_37:\n    /* \"#utility.yul\":2388:2410   */\n  tag_64\n    /* \"#utility.yul\":2404:2409   */\n  dup2\n    /* \"#utility.yul\":2388:2410   */\n  tag_55\n  jump\t// in\ntag_64:\n    /* \"#utility.yul\":2381:2386   */\n  dup2\n    /* \"#utility.yul\":2378:2411   */\n  eq\n    /* \"#utility.yul\":2368:2370   */\n  tag_65\n  jumpi\n    /* \"#utility.yul\":2425:2426   */\n  0x00\n    /* \"#utility.yul\":2422:2423   */\n  dup1\n    /* \"#utility.yul\":2415:2427   */\n  revert\n    /* \"#utility.yul\":2368:2370   */\ntag_65:\n    /* \"#utility.yul\":2358:2435   */\n  pop\n  jump\t// out\n    /* \"IDO.sol\":5428:6861  contract IDO is Ownable {\r... */\ntag_23:\n  dataSize(sub_0)\n  dup1\n  dataOffset(sub_0)\n  0x00\n  codecopy\n  0x00\n  return\nstop\n\nsub_0: assembly {\n        /* \"IDO.sol\":5428:6861  contract IDO is Ownable {\r... */\n      mstore(0x40, 0x80)\n      callvalue\n      dup1\n      iszero\n      tag_1\n      jumpi\n      0x00\n      dup1\n      revert\n    tag_1:\n      pop\n      jumpi(tag_2, lt(calldatasize, 0x04))\n      shr(0xe0, calldataload(0x00))\n      dup1\n      0x715018a6\n      gt\n      tag_16\n      jumpi\n      dup1\n      0xf2fde38b\n      gt\n      tag_17\n      jumpi\n      dup1\n      0xf2fde38b\n      eq\n      tag_12\n      jumpi\n      dup1\n      0xfa1a5f59\n      eq\n      tag_13\n      jumpi\n      dup1\n      0xfa300f75\n      eq\n      tag_14\n      jumpi\n      dup1\n      0xfc0c546a\n      eq\n      tag_15\n      jumpi\n      jump(tag_2)\n    tag_17:\n      dup1\n      0x715018a6\n      eq\n      tag_9\n      jumpi\n      dup1\n      0x78e97925\n      eq\n      tag_10\n      jumpi\n      dup1\n      0x8da5cb5b\n      eq\n      tag_11\n      jumpi\n      jump(tag_2)\n    tag_16:\n      dup1\n      0x1b0875a6\n      eq\n      tag_3\n      jumpi\n      dup1\n      0x22f3e2d4\n      eq\n      tag_4\n      jumpi\n      dup1\n      0x31711884\n      eq\n      tag_5\n      jumpi\n      dup1\n      0x3197cbb6\n      eq\n      tag_6\n      jumpi\n      dup1\n      0x3996dc8f\n      eq\n      tag_7\n      jumpi\n      dup1\n      0x5caed029\n      eq\n      tag_8\n      jumpi\n    tag_2:\n      0x00\n      dup1\n      revert\n        /* \"IDO.sol\":5928:5960  uint256 public totalRewardTokens */\n    tag_3:\n      tag_18\n      tag_19\n      jump\t// in\n    tag_18:\n      mload(0x40)\n      tag_20\n      swap2\n      swap1\n      tag_21\n      jump\t// in\n    tag_20:\n      mload(0x40)\n      dup1\n      swap2\n      sub\n      swap1\n      return\n        /* \"IDO.sol\":6532:6662  function isActive() public view returns (bool){\r... */\n    tag_4:\n      tag_22\n      tag_23\n      jump\t// in\n    tag_22:\n      mload(0x40)\n      tag_24\n      swap2\n      swap1\n      tag_25\n      jump\t// in\n    tag_24:\n      mload(0x40)\n      dup1\n      swap2\n      sub\n      swap1\n      return\n        /* \"IDO.sol\":5697:5721  uint256 public tokenRate */\n    tag_5:\n      tag_26\n      tag_27\n      jump\t// in\n    tag_26:\n      mload(0x40)\n      tag_28\n      swap2\n      swap1\n      tag_21\n      jump\t// in\n    tag_28:\n      mload(0x40)\n      dup1\n      swap2\n      sub\n      swap1\n      return\n        /* \"IDO.sol\":5666:5688  uint256 public endTime */\n    tag_6:\n      tag_29\n      tag_30\n      jump\t// in\n    tag_29:\n      mload(0x40)\n      tag_31\n      swap2\n      swap1\n      tag_21\n      jump\t// in\n    tag_31:\n      mload(0x40)\n      dup1\n      swap2\n      sub\n      swap1\n      return\n        /* \"IDO.sol\":5846:5871  uint256 public totalRaise */\n    tag_7:\n      tag_32\n      tag_33\n      jump\t// in\n    tag_32:\n      mload(0x40)\n      tag_34\n      swap2\n      swap1\n      tag_21\n      jump\t// in\n    tag_34:\n      mload(0x40)\n      dup1\n      swap2\n      sub\n      swap1\n      return\n        /* \"IDO.sol\":5516:5543  uint256 public tokenDecimal */\n    tag_8:\n      tag_35\n      tag_36\n      jump\t// in\n    tag_35:\n      mload(0x40)\n      tag_37\n      swap2\n      swap1\n      tag_21\n      jump\t// in\n    tag_37:\n      mload(0x40)\n      dup1\n      swap2\n      sub\n      swap1\n      return\n        /* \"IDO.sol\":1831:1979  function renounceOwnership() public virtual onlyOwner {\r... */\n    tag_9:\n      tag_38\n      tag_39\n      jump\t// in\n    tag_38:\n      stop\n        /* \"IDO.sol\":5581:5605  uint256 public startTime */\n    tag_10:\n      tag_40\n      tag_41\n      jump\t// in\n    tag_40:\n      mload(0x40)\n      tag_42\n      swap2\n      swap1\n      tag_21\n      jump\t// in\n    tag_42:\n      mload(0x40)\n      dup1\n      swap2\n      sub\n      swap1\n      return\n        /* \"IDO.sol\":1188:1275  function owner() public view virtual returns (address) {\r... */\n    tag_11:\n      tag_43\n      tag_44\n      jump\t// in\n    tag_43:\n      mload(0x40)\n      tag_45\n      swap2\n      swap1\n      tag_46\n      jump\t// in\n    tag_45:\n      mload(0x40)\n      dup1\n      swap2\n      sub\n      swap1\n      return\n        /* \"IDO.sol\":2131:2375  function transferOwnership(address newOwner) public virtual onlyOwner {\r... */\n    tag_12:\n      tag_47\n      0x04\n      dup1\n      calldatasize\n      sub\n      dup2\n      add\n      swap1\n      tag_48\n      swap2\n      swap1\n      tag_49\n      jump\t// in\n    tag_48:\n      tag_50\n      jump\t// in\n    tag_47:\n      stop\n        /* \"IDO.sol\":5771:5796  uint256 public soldAmount */\n    tag_13:\n      tag_51\n      tag_52\n      jump\t// in\n    tag_51:\n      mload(0x40)\n      tag_53\n      swap2\n      swap1\n      tag_21\n      jump\t// in\n    tag_53:\n      mload(0x40)\n      dup1\n      swap2\n      sub\n      swap1\n      return\n        /* \"IDO.sol\":6670:6856  function getTokenInETH(uint256 _tokens) public view returns (uint256){\r... */\n    tag_14:\n      tag_54\n      0x04\n      dup1\n      calldatasize\n      sub\n      dup2\n      add\n      swap1\n      tag_55\n      swap2\n      swap1\n      tag_56\n      jump\t// in\n    tag_55:\n      tag_57\n      jump\t// in\n    tag_54:\n      mload(0x40)\n      tag_58\n      swap2\n      swap1\n      tag_21\n      jump\t// in\n    tag_58:\n      mload(0x40)\n      dup1\n      swap2\n      sub\n      swap1\n      return\n        /* \"IDO.sol\":5459:5479  address public token */\n    tag_15:\n      tag_59\n      tag_60\n      jump\t// in\n    tag_59:\n      mload(0x40)\n      tag_61\n      swap2\n      swap1\n      tag_46\n      jump\t// in\n    tag_61:\n      mload(0x40)\n      dup1\n      swap2\n      sub\n      swap1\n      return\n        /* \"IDO.sol\":5928:5960  uint256 public totalRewardTokens */\n    tag_19:\n      sload(0x08)\n      dup2\n      jump\t// out\n        /* \"IDO.sol\":6532:6662  function isActive() public view returns (bool){\r... */\n    tag_23:\n        /* \"IDO.sol\":6573:6577  bool */\n      0x00\n        /* \"IDO.sol\":6609:6624  block.timestamp */\n      timestamp\n        /* \"IDO.sol\":6596:6605  startTime */\n      sload(0x03)\n        /* \"IDO.sol\":6596:6624  startTime <= block.timestamp */\n      gt\n      iszero\n        /* \"IDO.sol\":6596:6654  startTime <= block.timestamp && block.timestamp <= endTime */\n      dup1\n      iszero\n      tag_63\n      jumpi\n      pop\n        /* \"IDO.sol\":6647:6654  endTime */\n      sload(0x04)\n        /* \"IDO.sol\":6628:6643  block.timestamp */\n      timestamp\n        /* \"IDO.sol\":6628:6654  block.timestamp <= endTime */\n      gt\n      iszero\n        /* \"IDO.sol\":6596:6654  startTime <= block.timestamp && block.timestamp <= endTime */\n    tag_63:\n        /* \"IDO.sol\":6589:6654  return startTime <= block.timestamp && block.timestamp <= endTime */\n      swap1\n      pop\n        /* \"IDO.sol\":6532:6662  function isActive() public view returns (bool){\r... */\n      swap1\n      jump\t// out\n        /* \"IDO.sol\":5697:5721  uint256 public tokenRate */\n    tag_27:\n      sload(0x05)\n      dup2\n      jump\t// out\n        /* \"IDO.sol\":5666:5688  uint256 public endTime */\n    tag_30:\n      sload(0x04)\n      dup2\n      jump\t// out\n        /* \"IDO.sol\":5846:5871  uint256 public totalRaise */\n    tag_33:\n      sload(0x07)\n      dup2\n      jump\t// out\n        /* \"IDO.sol\":5516:5543  uint256 public tokenDecimal */\n    tag_36:\n      sload(0x02)\n      dup2\n      jump\t// out\n        /* \"IDO.sol\":1831:1979  function renounceOwnership() public virtual onlyOwner {\r... */\n    tag_39:\n        /* \"IDO.sol\":1417:1429  _msgSender() */\n      tag_65\n        /* \"IDO.sol\":1417:1427  _msgSender */\n      tag_66\n        /* \"IDO.sol\":1417:1429  _msgSender() */\n      jump\t// in\n    tag_65:\n        /* \"IDO.sol\":1406:1429  owner() == _msgSender() */\n      0xffffffffffffffffffffffffffffffffffffffff\n      and\n        /* \"IDO.sol\":1406:1413  owner() */\n      tag_67\n        /* \"IDO.sol\":1406:1411  owner */\n      tag_44\n        /* \"IDO.sol\":1406:1413  owner() */\n      jump\t// in\n    tag_67:\n        /* \"IDO.sol\":1406:1429  owner() == _msgSender() */\n      0xffffffffffffffffffffffffffffffffffffffff\n      and\n      eq\n        /* \"IDO.sol\":1398:1466  require(owner() == _msgSender(), \"Ownable: caller is not the owner\") */\n      tag_68\n      jumpi\n      mload(0x40)\n      0x08c379a000000000000000000000000000000000000000000000000000000000\n      dup2\n      mstore\n      0x04\n      add\n      tag_69\n      swap1\n      tag_70\n      jump\t// in\n    tag_69:\n      mload(0x40)\n      dup1\n      swap2\n      sub\n      swap1\n      revert\n    tag_68:\n        /* \"IDO.sol\":1938:1939  0 */\n      0x00\n        /* \"IDO.sol\":1901:1941  OwnershipTransferred(_owner, address(0)) */\n      0xffffffffffffffffffffffffffffffffffffffff\n      and\n        /* \"IDO.sol\":1922:1928  _owner */\n      0x00\n      dup1\n      sload\n      swap1\n      0x0100\n      exp\n      swap1\n      div\n      0xffffffffffffffffffffffffffffffffffffffff\n      and\n        /* \"IDO.sol\":1901:1941  OwnershipTransferred(_owner, address(0)) */\n      0xffffffffffffffffffffffffffffffffffffffff\n      and\n      0x8be0079c531659141344cd1fd0a4f28419497f9722a3daafe3b4186f6b6457e0\n      mload(0x40)\n      mload(0x40)\n      dup1\n      swap2\n      sub\n      swap1\n      log3\n        /* \"IDO.sol\":1969:1970  0 */\n      0x00\n        /* \"IDO.sol\":1952:1958  _owner */\n      dup1\n      0x00\n        /* \"IDO.sol\":1952:1971  _owner = address(0) */\n      0x0100\n      exp\n      dup2\n      sload\n      dup2\n      0xffffffffffffffffffffffffffffffffffffffff\n      mul\n      not\n      and\n      swap1\n      dup4\n      0xffffffffffffffffffffffffffffffffffffffff\n      and\n      mul\n      or\n      swap1\n      sstore\n      pop\n        /* \"IDO.sol\":1831:1979  function renounceOwnership() public virtual onlyOwner {\r... */\n      jump\t// out\n        /* \"IDO.sol\":5581:5605  uint256 public startTime */\n    tag_41:\n      sload(0x03)\n      dup2\n      jump\t// out\n        /* \"IDO.sol\":1188:1275  function owner() public view virtual returns (address) {\r... */\n    tag_44:\n        /* \"IDO.sol\":1234:1241  address */\n      0x00\n        /* \"IDO.sol\":1261:1267  _owner */\n      dup1\n      0x00\n      swap1\n      sload\n      swap1\n      0x0100\n      exp\n      swap1\n      div\n      0xffffffffffffffffffffffffffffffffffffffff\n      and\n        /* \"IDO.sol\":1254:1267  return _owner */\n      swap1\n      pop\n        /* \"IDO.sol\":1188:1275  function owner() public view virtual returns (address) {\r... */\n      swap1\n      jump\t// out\n        /* \"IDO.sol\":2131:2375  function transferOwnership(address newOwner) public virtual onlyOwner {\r... */\n    tag_50:\n        /* \"IDO.sol\":1417:1429  _msgSender() */\n      tag_74\n        /* \"IDO.sol\":1417:1427  _msgSender */\n      tag_66\n        /* \"IDO.sol\":1417:1429  _msgSender() */\n      jump\t// in\n    tag_74:\n        /* \"IDO.sol\":1406:1429  owner() == _msgSender() */\n      0xffffffffffffffffffffffffffffffffffffffff\n      and\n        /* \"IDO.sol\":1406:1413  owner() */\n      tag_75\n        /* \"IDO.sol\":1406:1411  owner */\n      tag_44\n        /* \"IDO.sol\":1406:1413  owner() */\n      jump\t// in\n    tag_75:\n        /* \"IDO.sol\":1406:1429  owner() == _msgSender() */\n      0xffffffffffffffffffffffffffffffffffffffff\n      and\n      eq\n        /* \"IDO.sol\":1398:1466  require(owner() == _msgSender(), \"Ownable: caller is not the owner\") */\n      tag_76\n      jumpi\n      mload(0x40)\n      0x08c379a000000000000000000000000000000000000000000000000000000000\n      dup2\n      mstore\n      0x04\n      add\n      tag_77\n      swap1\n      tag_70\n      jump\t// in\n    tag_77:\n      mload(0x40)\n      dup1\n      swap2\n      sub\n      swap1\n      revert\n    tag_76:\n        /* \"IDO.sol\":2240:2241  0 */\n      0x00\n        /* \"IDO.sol\":2220:2242  newOwner != address(0) */\n      0xffffffffffffffffffffffffffffffffffffffff\n      and\n        /* \"IDO.sol\":2220:2228  newOwner */\n      dup2\n        /* \"IDO.sol\":2220:2242  newOwner != address(0) */\n      0xffffffffffffffffffffffffffffffffffffffff\n      and\n      eq\n      iszero\n        /* \"IDO.sol\":2212:2285  require(newOwner != address(0), \"Ownable: new owner is the zero address\") */\n      tag_79\n      jumpi\n      mload(0x40)\n      0x08c379a000000000000000000000000000000000000000000000000000000000\n      dup2\n      mstore\n      0x04\n      add\n      tag_80\n      swap1\n      tag_81\n      jump\t// in\n    tag_80:\n      mload(0x40)\n      dup1\n      swap2\n      sub\n      swap1\n      revert\n    tag_79:\n        /* \"IDO.sol\":2330:2338  newOwner */\n      dup1\n        /* \"IDO.sol\":2301:2339  OwnershipTransferred(_owner, newOwner) */\n      0xffffffffffffffffffffffffffffffffffffffff\n      and\n        /* \"IDO.sol\":2322:2328  _owner */\n      0x00\n      dup1\n      sload\n      swap1\n      0x0100\n      exp\n      swap1\n      div\n      0xffffffffffffffffffffffffffffffffffffffff\n      and\n        /* \"IDO.sol\":2301:2339  OwnershipTransferred(_owner, newOwner) */\n      0xffffffffffffffffffffffffffffffffffffffff\n      and\n      0x8be0079c531659141344cd1fd0a4f28419497f9722a3daafe3b4186f6b6457e0\n      mload(0x40)\n      mload(0x40)\n      dup1\n      swap2\n      sub\n      swap1\n      log3\n        /* \"IDO.sol\":2359:2367  newOwner */\n      dup1\n        /* \"IDO.sol\":2350:2356  _owner */\n      0x00\n      dup1\n        /* \"IDO.sol\":2350:2367  _owner = newOwner */\n      0x0100\n      exp\n      dup2\n      sload\n      dup2\n      0xffffffffffffffffffffffffffffffffffffffff\n      mul\n      not\n      and\n      swap1\n      dup4\n      0xffffffffffffffffffffffffffffffffffffffff\n      and\n      mul\n      or\n      swap1\n      sstore\n      pop\n        /* \"IDO.sol\":2131:2375  function transferOwnership(address newOwner) public virtual onlyOwner {\r... */\n      pop\n      jump\t// out\n        /* \"IDO.sol\":5771:5796  uint256 public soldAmount */\n    tag_52:\n      sload(0x06)\n      dup2\n      jump\t// out\n        /* \"IDO.sol\":6670:6856  function getTokenInETH(uint256 _tokens) public view returns (uint256){\r... */\n    tag_57:\n        /* \"IDO.sol\":6731:6738  uint256 */\n      0x00\n        /* \"IDO.sol\":6750:6771  uint256 _tokenDecimal */\n      dup1\n        /* \"IDO.sol\":6780:6792  tokenDecimal */\n      sload(0x02)\n        /* \"IDO.sol\":6774:6776  10 */\n      0x0a\n        /* \"IDO.sol\":6774:6792  10 ** tokenDecimal */\n      tag_83\n      swap2\n      swap1\n      tag_84\n      jump\t// in\n    tag_83:\n        /* \"IDO.sol\":6750:6792  uint256 _tokenDecimal = 10 ** tokenDecimal */\n      swap1\n      pop\n        /* \"IDO.sol\":6834:6847  _tokenDecimal */\n      dup1\n        /* \"IDO.sol\":6821:6830  tokenRate */\n      sload(0x05)\n        /* \"IDO.sol\":6811:6818  _tokens */\n      dup5\n        /* \"IDO.sol\":6811:6830  _tokens * tokenRate */\n      tag_85\n      swap2\n      swap1\n      tag_86\n      jump\t// in\n    tag_85:\n        /* \"IDO.sol\":6810:6847  (_tokens * tokenRate) / _tokenDecimal */\n      tag_87\n      swap2\n      swap1\n      tag_88\n      jump\t// in\n    tag_87:\n        /* \"IDO.sol\":6803:6847  return (_tokens * tokenRate) / _tokenDecimal */\n      swap2\n      pop\n      pop\n        /* \"IDO.sol\":6670:6856  function getTokenInETH(uint256 _tokens) public view returns (uint256){\r... */\n      swap2\n      swap1\n      pop\n      jump\t// out\n        /* \"IDO.sol\":5459:5479  address public token */\n    tag_60:\n      0x01\n      0x00\n      swap1\n      sload\n      swap1\n      0x0100\n      exp\n      swap1\n      div\n      0xffffffffffffffffffffffffffffffffffffffff\n      and\n      dup2\n      jump\t// out\n        /* \"IDO.sol\":735:850  function _msgSender() internal view virtual returns (address payable) {\r... */\n    tag_66:\n        /* \"IDO.sol\":788:803  address payable */\n      0x00\n        /* \"IDO.sol\":831:841  msg.sender */\n      caller\n        /* \"IDO.sol\":816:842  return payable(msg.sender) */\n      swap1\n      pop\n        /* \"IDO.sol\":735:850  function _msgSender() internal view virtual returns (address payable) {\r... */\n      swap1\n      jump\t// out\n        /* \"#utility.yul\":7:146   */\n    tag_91:\n      0x00\n        /* \"#utility.yul\":91:97   */\n      dup2\n        /* \"#utility.yul\":78:98   */\n      calldataload\n        /* \"#utility.yul\":69:98   */\n      swap1\n      pop\n        /* \"#utility.yul\":107:140   */\n      tag_93\n        /* \"#utility.yul\":134:139   */\n      dup2\n        /* \"#utility.yul\":107:140   */\n      tag_94\n      jump\t// in\n    tag_93:\n        /* \"#utility.yul\":59:146   */\n      swap3\n      swap2\n      pop\n      pop\n      jump\t// out\n        /* \"#utility.yul\":152:291   */\n    tag_95:\n      0x00\n        /* \"#utility.yul\":236:242   */\n      dup2\n        /* \"#utility.yul\":223:243   */\n      calldataload\n        /* \"#utility.yul\":214:243   */\n      swap1\n      pop\n        /* \"#utility.yul\":252:285   */\n      tag_97\n        /* \"#utility.yul\":279:284   */\n      dup2\n        /* \"#utility.yul\":252:285   */\n      tag_98\n      jump\t// in\n    tag_97:\n        /* \"#utility.yul\":204:291   */\n      swap3\n      swap2\n      pop\n      pop\n      jump\t// out\n        /* \"#utility.yul\":297:559   */\n    tag_49:\n      0x00\n        /* \"#utility.yul\":405:407   */\n      0x20\n        /* \"#utility.yul\":393:402   */\n      dup3\n        /* \"#utility.yul\":384:391   */\n      dup5\n        /* \"#utility.yul\":380:403   */\n      sub\n        /* \"#utility.yul\":376:408   */\n      slt\n        /* \"#utility.yul\":373:375   */\n      iszero\n      tag_100\n      jumpi\n        /* \"#utility.yul\":421:422   */\n      0x00\n        /* \"#utility.yul\":418:419   */\n      dup1\n        /* \"#utility.yul\":411:423   */\n      revert\n        /* \"#utility.yul\":373:375   */\n    tag_100:\n        /* \"#utility.yul\":464:465   */\n      0x00\n        /* \"#utility.yul\":489:542   */\n      tag_101\n        /* \"#utility.yul\":534:541   */\n      dup5\n        /* \"#utility.yul\":525:531   */\n      dup3\n        /* \"#utility.yul\":514:523   */\n      dup6\n        /* \"#utility.yul\":510:532   */\n      add\n        /* \"#utility.yul\":489:542   */\n      tag_91\n      jump\t// in\n    tag_101:\n        /* \"#utility.yul\":479:542   */\n      swap2\n      pop\n        /* \"#utility.yul\":435:552   */\n      pop\n        /* \"#utility.yul\":363:559   */\n      swap3\n      swap2\n      pop\n      pop\n      jump\t// out\n        /* \"#utility.yul\":565:827   */\n    tag_56:\n      0x00\n        /* \"#utility.yul\":673:675   */\n      0x20\n        /* \"#utility.yul\":661:670   */\n      dup3\n        /* \"#utility.yul\":652:659   */\n      dup5\n        /* \"#utility.yul\":648:671   */\n      sub\n        /* \"#utility.yul\":644:676   */\n      slt\n        /* \"#utility.yul\":641:643   */\n      iszero\n      tag_103\n      jumpi\n        /* \"#utility.yul\":689:690   */\n      0x00\n        /* \"#utility.yul\":686:687   */\n      dup1\n        /* \"#utility.yul\":679:691   */\n      revert\n        /* \"#utility.yul\":641:643   */\n    tag_103:\n        /* \"#utility.yul\":732:733   */\n      0x00\n        /* \"#utility.yul\":757:810   */\n      tag_104\n        /* \"#utility.yul\":802:809   */\n      dup5\n        /* \"#utility.yul\":793:799   */\n      dup3\n        /* \"#utility.yul\":782:791   */\n      dup6\n        /* \"#utility.yul\":778:800   */\n      add\n        /* \"#utility.yul\":757:810   */\n      tag_95\n      jump\t// in\n    tag_104:\n        /* \"#utility.yul\":747:810   */\n      swap2\n      pop\n        /* \"#utility.yul\":703:820   */\n      pop\n        /* \"#utility.yul\":631:827   */\n      swap3\n      swap2\n      pop\n      pop\n      jump\t// out\n        /* \"#utility.yul\":833:951   */\n    tag_105:\n        /* \"#utility.yul\":920:944   */\n      tag_107\n        /* \"#utility.yul\":938:943   */\n      dup2\n        /* \"#utility.yul\":920:944   */\n      tag_108\n      jump\t// in\n    tag_107:\n        /* \"#utility.yul\":915:918   */\n      dup3\n        /* \"#utility.yul\":908:945   */\n      mstore\n        /* \"#utility.yul\":898:951   */\n      pop\n      pop\n      jump\t// out\n        /* \"#utility.yul\":957:1066   */\n    tag_109:\n        /* \"#utility.yul\":1038:1059   */\n      tag_111\n        /* \"#utility.yul\":1053:1058   */\n      dup2\n        /* \"#utility.yul\":1038:1059   */\n      tag_112\n      jump\t// in\n    tag_111:\n        /* \"#utility.yul\":1033:1036   */\n      dup3\n        /* \"#utility.yul\":1026:1060   */\n      mstore\n        /* \"#utility.yul\":1016:1066   */\n      pop\n      pop\n      jump\t// out\n        /* \"#utility.yul\":1072:1442   */\n    tag_113:\n      0x00\n        /* \"#utility.yul\":1235:1302   */\n      tag_115\n        /* \"#utility.yul\":1299:1301   */\n      0x26\n        /* \"#utility.yul\":1294:1297   */\n      dup4\n        /* \"#utility.yul\":1235:1302   */\n      tag_116\n      jump\t// in\n    tag_115:\n        /* \"#utility.yul\":1228:1302   */\n      swap2\n      pop\n        /* \"#utility.yul\":1332:1366   */\n      0x4f776e61626c653a206e6577206f776e657220697320746865207a65726f2061\n        /* \"#utility.yul\":1328:1329   */\n      0x00\n        /* \"#utility.yul\":1323:1326   */\n      dup4\n        /* \"#utility.yul\":1319:1330   */\n      add\n        /* \"#utility.yul\":1312:1367   */\n      mstore\n        /* \"#utility.yul\":1398:1406   */\n      0x6464726573730000000000000000000000000000000000000000000000000000\n        /* \"#utility.yul\":1393:1395   */\n      0x20\n        /* \"#utility.yul\":1388:1391   */\n      dup4\n        /* \"#utility.yul\":1384:1396   */\n      add\n        /* \"#utility.yul\":1377:1407   */\n      mstore\n        /* \"#utility.yul\":1433:1435   */\n      0x40\n        /* \"#utility.yul\":1428:1431   */\n      dup3\n        /* \"#utility.yul\":1424:1436   */\n      add\n        /* \"#utility.yul\":1417:1436   */\n      swap1\n      pop\n        /* \"#utility.yul\":1218:1442   */\n      swap2\n      swap1\n      pop\n      jump\t// out\n        /* \"#utility.yul\":1448:1778   */\n    tag_117:\n      0x00\n        /* \"#utility.yul\":1611:1678   */\n      tag_119\n        /* \"#utility.yul\":1675:1677   */\n      0x20\n        /* \"#utility.yul\":1670:1673   */\n      dup4\n        /* \"#utility.yul\":1611:1678   */\n      tag_116\n      jump\t// in\n    tag_119:\n        /* \"#utility.yul\":1604:1678   */\n      swap2\n      pop\n        /* \"#utility.yul\":1708:1742   */\n      0x4f776e61626c653a2063616c6c6572206973206e6f7420746865206f776e6572\n        /* \"#utility.yul\":1704:1705   */\n      0x00\n        /* \"#utility.yul\":1699:1702   */\n      dup4\n        /* \"#utility.yul\":1695:1706   */\n      add\n        /* \"#utility.yul\":1688:1743   */\n      mstore\n        /* \"#utility.yul\":1769:1771   */\n      0x20\n        /* \"#utility.yul\":1764:1767   */\n      dup3\n        /* \"#utility.yul\":1760:1772   */\n      add\n        /* \"#utility.yul\":1753:1772   */\n      swap1\n      pop\n        /* \"#utility.yul\":1594:1778   */\n      swap2\n      swap1\n      pop\n      jump\t// out\n        /* \"#utility.yul\":1784:1902   */\n    tag_120:\n        /* \"#utility.yul\":1871:1895   */\n      tag_122\n        /* \"#utility.yul\":1889:1894   */\n      dup2\n        /* \"#utility.yul\":1871:1895   */\n      tag_123\n      jump\t// in\n    tag_122:\n        /* \"#utility.yul\":1866:1869   */\n      dup3\n        /* \"#utility.yul\":1859:1896   */\n      mstore\n        /* \"#utility.yul\":1849:1902   */\n      pop\n      pop\n      jump\t// out\n        /* \"#utility.yul\":1908:2130   */\n    tag_46:\n      0x00\n        /* \"#utility.yul\":2039:2041   */\n      0x20\n        /* \"#utility.yul\":2028:2037   */\n      dup3\n        /* \"#utility.yul\":2024:2042   */\n      add\n        /* \"#utility.yul\":2016:2042   */\n      swap1\n      pop\n        /* \"#utility.yul\":2052:2123   */\n      tag_125\n        /* \"#utility.yul\":2120:2121   */\n      0x00\n        /* \"#utility.yul\":2109:2118   */\n      dup4\n        /* \"#utility.yul\":2105:2122   */\n      add\n        /* \"#utility.yul\":2096:2102   */\n      dup5\n        /* \"#utility.yul\":2052:2123   */\n      tag_105\n      jump\t// in\n    tag_125:\n        /* \"#utility.yul\":2006:2130   */\n      swap3\n      swap2\n      pop\n      pop\n      jump\t// out\n        /* \"#utility.yul\":2136:2346   */\n    tag_25:\n      0x00\n        /* \"#utility.yul\":2261:2263   */\n      0x20\n        /* \"#utility.yul\":2250:2259   */\n      dup3\n        /* \"#utility.yul\":2246:2264   */\n      add\n        /* \"#utility.yul\":2238:2264   */\n      swap1\n      pop\n        /* \"#utility.yul\":2274:2339   */\n      tag_127\n        /* \"#utility.yul\":2336:2337   */\n      0x00\n        /* \"#utility.yul\":2325:2334   */\n      dup4\n        /* \"#utility.yul\":2321:2338   */\n      add\n        /* \"#utility.yul\":2312:2318   */\n      dup5\n        /* \"#utility.yul\":2274:2339   */\n      tag_109\n      jump\t// in\n    tag_127:\n        /* \"#utility.yul\":2228:2346   */\n      swap3\n      swap2\n      pop\n      pop\n      jump\t// out\n        /* \"#utility.yul\":2352:2771   */\n    tag_81:\n      0x00\n        /* \"#utility.yul\":2556:2558   */\n      0x20\n        /* \"#utility.yul\":2545:2554   */\n      dup3\n        /* \"#utility.yul\":2541:2559   */\n      add\n        /* \"#utility.yul\":2533:2559   */\n      swap1\n      pop\n        /* \"#utility.yul\":2605:2614   */\n      dup2\n        /* \"#utility.yul\":2599:2603   */\n      dup2\n        /* \"#utility.yul\":2595:2615   */\n      sub\n        /* \"#utility.yul\":2591:2592   */\n      0x00\n        /* \"#utility.yul\":2580:2589   */\n      dup4\n        /* \"#utility.yul\":2576:2593   */\n      add\n        /* \"#utility.yul\":2569:2616   */\n      mstore\n        /* \"#utility.yul\":2633:2764   */\n      tag_129\n        /* \"#utility.yul\":2759:2763   */\n      dup2\n        /* \"#utility.yul\":2633:2764   */\n      tag_113\n      jump\t// in\n    tag_129:\n        /* \"#utility.yul\":2625:2764   */\n      swap1\n      pop\n        /* \"#utility.yul\":2523:2771   */\n      swap2\n      swap1\n      pop\n      jump\t// out\n        /* \"#utility.yul\":2777:3196   */\n    tag_70:\n      0x00\n        /* \"#utility.yul\":2981:2983   */\n      0x20\n        /* \"#utility.yul\":2970:2979   */\n      dup3\n        /* \"#utility.yul\":2966:2984   */\n      add\n        /* \"#utility.yul\":2958:2984   */\n      swap1\n      pop\n        /* \"#utility.yul\":3030:3039   */\n      dup2\n        /* \"#utility.yul\":3024:3028   */\n      dup2\n        /* \"#utility.yul\":3020:3040   */\n      sub\n        /* \"#utility.yul\":3016:3017   */\n      0x00\n        /* \"#utility.yul\":3005:3014   */\n      dup4\n        /* \"#utility.yul\":3001:3018   */\n      add\n        /* \"#utility.yul\":2994:3041   */\n      mstore\n        /* \"#utility.yul\":3058:3189   */\n      tag_131\n        /* \"#utility.yul\":3184:3188   */\n      dup2\n        /* \"#utility.yul\":3058:3189   */\n      tag_117\n      jump\t// in\n    tag_131:\n        /* \"#utility.yul\":3050:3189   */\n      swap1\n      pop\n        /* \"#utility.yul\":2948:3196   */\n      swap2\n      swap1\n      pop\n      jump\t// out\n        /* \"#utility.yul\":3202:3424   */\n    tag_21:\n      0x00\n        /* \"#utility.yul\":3333:3335   */\n      0x20\n        /* \"#utility.yul\":3322:3331   */\n      dup3\n        /* \"#utility.yul\":3318:3336   */\n      add\n        /* \"#utility.yul\":3310:3336   */\n      swap1\n      pop\n        /* \"#utility.yul\":3346:3417   */\n      tag_133\n        /* \"#utility.yul\":3414:3415   */\n      0x00\n        /* \"#utility.yul\":3403:3412   */\n      dup4\n        /* \"#utility.yul\":3399:3416   */\n      add\n        /* \"#utility.yul\":3390:3396   */\n      dup5\n        /* \"#utility.yul\":3346:3417   */\n      tag_120\n      jump\t// in\n    tag_133:\n        /* \"#utility.yul\":3300:3424   */\n      swap3\n      swap2\n      pop\n      pop\n      jump\t// out\n        /* \"#utility.yul\":3430:3599   */\n    tag_116:\n      0x00\n        /* \"#utility.yul\":3548:3554   */\n      dup3\n        /* \"#utility.yul\":3543:3546   */\n      dup3\n        /* \"#utility.yul\":3536:3555   */\n      mstore\n        /* \"#utility.yul\":3588:3592   */\n      0x20\n        /* \"#utility.yul\":3583:3586   */\n      dup3\n        /* \"#utility.yul\":3579:3593   */\n      add\n        /* \"#utility.yul\":3564:3593   */\n      swap1\n      pop\n        /* \"#utility.yul\":3526:3599   */\n      swap3\n      swap2\n      pop\n      pop\n      jump\t// out\n        /* \"#utility.yul\":3605:3790   */\n    tag_88:\n      0x00\n        /* \"#utility.yul\":3662:3682   */\n      tag_136\n        /* \"#utility.yul\":3680:3681   */\n      dup3\n        /* \"#utility.yul\":3662:3682   */\n      tag_123\n      jump\t// in\n    tag_136:\n        /* \"#utility.yul\":3657:3682   */\n      swap2\n      pop\n        /* \"#utility.yul\":3696:3716   */\n      tag_137\n        /* \"#utility.yul\":3714:3715   */\n      dup4\n        /* \"#utility.yul\":3696:3716   */\n      tag_123\n      jump\t// in\n    tag_137:\n        /* \"#utility.yul\":3691:3716   */\n      swap3\n      pop\n        /* \"#utility.yul\":3735:3736   */\n      dup3\n        /* \"#utility.yul\":3725:3727   */\n      tag_138\n      jumpi\n        /* \"#utility.yul\":3740:3758   */\n      tag_139\n      tag_140\n      jump\t// in\n    tag_139:\n        /* \"#utility.yul\":3725:3727   */\n    tag_138:\n        /* \"#utility.yul\":3782:3783   */\n      dup3\n        /* \"#utility.yul\":3779:3780   */\n      dup3\n        /* \"#utility.yul\":3775:3784   */\n      div\n        /* \"#utility.yul\":3770:3784   */\n      swap1\n      pop\n        /* \"#utility.yul\":3647:3790   */\n      swap3\n      swap2\n      pop\n      pop\n      jump\t// out\n        /* \"#utility.yul\":3796:4644   */\n    tag_141:\n      0x00\n      dup1\n        /* \"#utility.yul\":3888:3894   */\n      dup3\n        /* \"#utility.yul\":3879:3894   */\n      swap2\n      pop\n        /* \"#utility.yul\":3912:3917   */\n      dup4\n        /* \"#utility.yul\":3903:3917   */\n      swap1\n      pop\n        /* \"#utility.yul\":3926:4638   */\n    tag_143:\n        /* \"#utility.yul\":3947:3948   */\n      0x01\n        /* \"#utility.yul\":3937:3945   */\n      dup6\n        /* \"#utility.yul\":3934:3949   */\n      gt\n        /* \"#utility.yul\":3926:4638   */\n      iszero\n      tag_145\n      jumpi\n        /* \"#utility.yul\":4042:4046   */\n      dup1\n        /* \"#utility.yul\":4037:4040   */\n      dup7\n        /* \"#utility.yul\":4033:4047   */\n      div\n        /* \"#utility.yul\":4027:4031   */\n      dup2\n        /* \"#utility.yul\":4024:4048   */\n      gt\n        /* \"#utility.yul\":4021:4023   */\n      iszero\n      tag_146\n      jumpi\n        /* \"#utility.yul\":4051:4069   */\n      tag_147\n      tag_148\n      jump\t// in\n    tag_147:\n        /* \"#utility.yul\":4021:4023   */\n    tag_146:\n        /* \"#utility.yul\":4101:4102   */\n      0x01\n        /* \"#utility.yul\":4091:4099   */\n      dup6\n        /* \"#utility.yul\":4087:4103   */\n      and\n        /* \"#utility.yul\":4084:4086   */\n      iszero\n      tag_149\n      jumpi\n        /* \"#utility.yul\":4516:4520   */\n      dup1\n        /* \"#utility.yul\":4509:4514   */\n      dup3\n        /* \"#utility.yul\":4505:4521   */\n      mul\n        /* \"#utility.yul\":4496:4521   */\n      swap2\n      pop\n        /* \"#utility.yul\":4084:4086   */\n    tag_149:\n        /* \"#utility.yul\":4566:4570   */\n      dup1\n        /* \"#utility.yul\":4560:4564   */\n      dup2\n        /* \"#utility.yul\":4556:4571   */\n      mul\n        /* \"#utility.yul\":4548:4571   */\n      swap1\n      pop\n        /* \"#utility.yul\":4596:4628   */\n      tag_150\n        /* \"#utility.yul\":4619:4627   */\n      dup6\n        /* \"#utility.yul\":4596:4628   */\n      tag_151\n      jump\t// in\n    tag_150:\n        /* \"#utility.yul\":4584:4628   */\n      swap5\n      pop\n        /* \"#utility.yul\":3926:4638   */\n      jump(tag_143)\n    tag_145:\n        /* \"#utility.yul\":3869:4644   */\n      swap5\n      pop\n      swap5\n      swap3\n      pop\n      pop\n      pop\n      jump\t// out\n        /* \"#utility.yul\":4650:4935   */\n    tag_84:\n      0x00\n        /* \"#utility.yul\":4734:4757   */\n      tag_153\n        /* \"#utility.yul\":4752:4756   */\n      dup3\n        /* \"#utility.yul\":4734:4757   */\n      tag_123\n      jump\t// in\n    tag_153:\n        /* \"#utility.yul\":4726:4757   */\n      swap2\n      pop\n        /* \"#utility.yul\":4778:4805   */\n      tag_154\n        /* \"#utility.yul\":4796:4804   */\n      dup4\n        /* \"#utility.yul\":4778:4805   */\n      tag_123\n      jump\t// in\n    tag_154:\n        /* \"#utility.yul\":4766:4805   */\n      swap3\n      pop\n        /* \"#utility.yul\":4824:4928   */\n      tag_155\n        /* \"#utility.yul\":4861:4927   */\n      0xffffffffffffffffffffffffffffffffffffffffffffffffffffffffffffffff\n        /* \"#utility.yul\":4851:4859   */\n      dup5\n        /* \"#utility.yul\":4845:4849   */\n      dup5\n        /* \"#utility.yul\":4824:4928   */\n      tag_156\n      jump\t// in\n    tag_155:\n        /* \"#utility.yul\":4815:4928   */\n      swap1\n      pop\n        /* \"#utility.yul\":4716:4935   */\n      swap3\n      swap2\n      pop\n      pop\n      jump\t// out\n        /* \"#utility.yul\":4941:6014   */\n    tag_156:\n      0x00\n        /* \"#utility.yul\":5186:5194   */\n      dup3\n        /* \"#utility.yul\":5176:5178   */\n      tag_158\n      jumpi\n        /* \"#utility.yul\":5207:5208   */\n      0x01\n        /* \"#utility.yul\":5198:5208   */\n      swap1\n      pop\n        /* \"#utility.yul\":5209:5214   */\n      jump(tag_157)\n        /* \"#utility.yul\":5176:5178   */\n    tag_158:\n        /* \"#utility.yul\":5235:5239   */\n      dup2\n        /* \"#utility.yul\":5225:5227   */\n      tag_159\n      jumpi\n        /* \"#utility.yul\":5252:5253   */\n      0x00\n        /* \"#utility.yul\":5243:5253   */\n      swap1\n      pop\n        /* \"#utility.yul\":5254:5259   */\n      jump(tag_157)\n        /* \"#utility.yul\":5225:5227   */\n    tag_159:\n        /* \"#utility.yul\":5321:5325   */\n      dup2\n        /* \"#utility.yul\":5369:5370   */\n      0x01\n        /* \"#utility.yul\":5364:5391   */\n      dup2\n      eq\n      tag_161\n      jumpi\n        /* \"#utility.yul\":5405:5406   */\n      0x02\n        /* \"#utility.yul\":5400:5591   */\n      dup2\n      eq\n      tag_162\n      jumpi\n        /* \"#utility.yul\":5314:5591   */\n      jump(tag_160)\n        /* \"#utility.yul\":5364:5391   */\n    tag_161:\n        /* \"#utility.yul\":5382:5383   */\n      0x01\n        /* \"#utility.yul\":5373:5383   */\n      swap2\n      pop\n        /* \"#utility.yul\":5384:5389   */\n      pop\n      jump(tag_157)\n        /* \"#utility.yul\":5400:5591   */\n    tag_162:\n        /* \"#utility.yul\":5445:5448   */\n      0xff\n        /* \"#utility.yul\":5435:5443   */\n      dup5\n        /* \"#utility.yul\":5432:5449   */\n      gt\n        /* \"#utility.yul\":5429:5431   */\n      iszero\n      tag_163\n      jumpi\n        /* \"#utility.yul\":5452:5470   */\n      tag_164\n      tag_148\n      jump\t// in\n    tag_164:\n        /* \"#utility.yul\":5429:5431   */\n    tag_163:\n        /* \"#utility.yul\":5501:5509   */\n      dup4\n        /* \"#utility.yul\":5498:5499   */\n      0x02\n        /* \"#utility.yul\":5494:5510   */\n      exp\n        /* \"#utility.yul\":5485:5510   */\n      swap2\n      pop\n        /* \"#utility.yul\":5536:5539   */\n      dup5\n        /* \"#utility.yul\":5529:5534   */\n      dup3\n        /* \"#utility.yul\":5526:5540   */\n      gt\n        /* \"#utility.yul\":5523:5525   */\n      iszero\n      tag_165\n      jumpi\n        /* \"#utility.yul\":5543:5561   */\n      tag_166\n      tag_148\n      jump\t// in\n    tag_166:\n        /* \"#utility.yul\":5523:5525   */\n    tag_165:\n        /* \"#utility.yul\":5576:5581   */\n      pop\n      jump(tag_157)\n        /* \"#utility.yul\":5314:5591   */\n    tag_160:\n      pop\n        /* \"#utility.yul\":5700:5702   */\n      0x20\n        /* \"#utility.yul\":5690:5698   */\n      dup4\n        /* \"#utility.yul\":5687:5703   */\n      lt\n        /* \"#utility.yul\":5681:5684   */\n      0x0133\n        /* \"#utility.yul\":5675:5679   */\n      dup4\n        /* \"#utility.yul\":5672:5685   */\n      lt\n        /* \"#utility.yul\":5668:5704   */\n      and\n        /* \"#utility.yul\":5650:5652   */\n      0x4e\n        /* \"#utility.yul\":5640:5648   */\n      dup5\n        /* \"#utility.yul\":5637:5653   */\n      lt\n        /* \"#utility.yul\":5632:5634   */\n      0x0b\n        /* \"#utility.yul\":5626:5630   */\n      dup5\n        /* \"#utility.yul\":5623:5635   */\n      lt\n        /* \"#utility.yul\":5619:5654   */\n      and\n        /* \"#utility.yul\":5603:5714   */\n      or\n        /* \"#utility.yul\":5600:5602   */\n      iszero\n      tag_167\n      jumpi\n        /* \"#utility.yul\":5756:5764   */\n      dup3\n        /* \"#utility.yul\":5750:5754   */\n      dup3\n        /* \"#utility.yul\":5746:5765   */\n      exp\n        /* \"#utility.yul\":5737:5765   */\n      swap1\n      pop\n        /* \"#utility.yul\":5791:5794   */\n      dup4\n        /* \"#utility.yul\":5784:5789   */\n      dup2\n        /* \"#utility.yul\":5781:5795   */\n      gt\n        /* \"#utility.yul\":5778:5780   */\n      iszero\n      tag_168\n      jumpi\n        /* \"#utility.yul\":5798:5816   */\n      tag_169\n      tag_148\n      jump\t// in\n    tag_169:\n        /* \"#utility.yul\":5778:5780   */\n    tag_168:\n        /* \"#utility.yul\":5831:5836   */\n      jump(tag_157)\n        /* \"#utility.yul\":5600:5602   */\n    tag_167:\n        /* \"#utility.yul\":5871:5913   */\n      tag_170\n        /* \"#utility.yul\":5909:5912   */\n      dup5\n        /* \"#utility.yul\":5899:5907   */\n      dup5\n        /* \"#utility.yul\":5893:5897   */\n      dup5\n        /* \"#utility.yul\":5890:5891   */\n      0x01\n        /* \"#utility.yul\":5871:5913   */\n      tag_141\n      jump\t// in\n    tag_170:\n        /* \"#utility.yul\":5856:5913   */\n      swap3\n      pop\n      swap1\n      pop\n        /* \"#utility.yul\":5945:5949   */\n      dup2\n        /* \"#utility.yul\":5940:5943   */\n      dup5\n        /* \"#utility.yul\":5936:5950   */\n      div\n        /* \"#utility.yul\":5929:5934   */\n      dup2\n        /* \"#utility.yul\":5926:5951   */\n      gt\n        /* \"#utility.yul\":5923:5925   */\n      iszero\n      tag_171\n      jumpi\n        /* \"#utility.yul\":5954:5972   */\n      tag_172\n      tag_148\n      jump\t// in\n    tag_172:\n        /* \"#utility.yul\":5923:5925   */\n    tag_171:\n        /* \"#utility.yul\":6003:6007   */\n      dup2\n        /* \"#utility.yul\":5996:6001   */\n      dup2\n        /* \"#utility.yul\":5992:6008   */\n      mul\n        /* \"#utility.yul\":5983:6008   */\n      swap1\n      pop\n        /* \"#utility.yul\":5001:6014   */\n    tag_157:\n      swap4\n      swap3\n      pop\n      pop\n      pop\n      jump\t// out\n        /* \"#utility.yul\":6020:6368   */\n    tag_86:\n      0x00\n        /* \"#utility.yul\":6083:6103   */\n      tag_174\n        /* \"#utility.yul\":6101:6102   */\n      dup3\n        /* \"#utility.yul\":6083:6103   */\n      tag_123\n      jump\t// in\n    tag_174:\n        /* \"#utility.yul\":6078:6103   */\n      swap2\n      pop\n        /* \"#utility.yul\":6117:6137   */\n      tag_175\n        /* \"#utility.yul\":6135:6136   */\n      dup4\n        /* \"#utility.yul\":6117:6137   */\n      tag_123\n      jump\t// in\n    tag_175:\n        /* \"#utility.yul\":6112:6137   */\n      swap3\n      pop\n        /* \"#utility.yul\":6305:6306   */\n      dup2\n        /* \"#utility.yul\":6237:6303   */\n      0xffffffffffffffffffffffffffffffffffffffffffffffffffffffffffffffff\n        /* \"#utility.yul\":6233:6307   */\n      div\n        /* \"#utility.yul\":6230:6231   */\n      dup4\n        /* \"#utility.yul\":6227:6308   */\n      gt\n        /* \"#utility.yul\":6222:6223   */\n      dup3\n        /* \"#utility.yul\":6215:6224   */\n      iszero\n        /* \"#utility.yul\":6208:6225   */\n      iszero\n        /* \"#utility.yul\":6204:6309   */\n      and\n        /* \"#utility.yul\":6201:6203   */\n      iszero\n      tag_176\n      jumpi\n        /* \"#utility.yul\":6312:6330   */\n      tag_177\n      tag_148\n      jump\t// in\n    tag_177:\n        /* \"#utility.yul\":6201:6203   */\n    tag_176:\n        /* \"#utility.yul\":6360:6361   */\n      dup3\n        /* \"#utility.yul\":6357:6358   */\n      dup3\n        /* \"#utility.yul\":6353:6362   */\n      mul\n        /* \"#utility.yul\":6342:6362   */\n      swap1\n      pop\n        /* \"#utility.yul\":6068:6368   */\n      swap3\n      swap2\n      pop\n      pop\n      jump\t// out\n        /* \"#utility.yul\":6374:6470   */\n    tag_108:\n      0x00\n        /* \"#utility.yul\":6440:6464   */\n      tag_179\n        /* \"#utility.yul\":6458:6463   */\n      dup3\n        /* \"#utility.yul\":6440:6464   */\n      tag_180\n      jump\t// in\n    tag_179:\n        /* \"#utility.yul\":6429:6464   */\n      swap1\n      pop\n        /* \"#utility.yul\":6419:6470   */\n      swap2\n      swap1\n      pop\n      jump\t// out\n        /* \"#utility.yul\":6476:6566   */\n    tag_112:\n      0x00\n        /* \"#utility.yul\":6553:6558   */\n      dup2\n        /* \"#utility.yul\":6546:6559   */\n      iszero\n        /* \"#utility.yul\":6539:6560   */\n      iszero\n        /* \"#utility.yul\":6528:6560   */\n      swap1\n      pop\n        /* \"#utility.yul\":6518:6566   */\n      swap2\n      swap1\n      pop\n      jump\t// out\n        /* \"#utility.yul\":6572:6698   */\n    tag_180:\n      0x00\n        /* \"#utility.yul\":6649:6691   */\n      0xffffffffffffffffffffffffffffffffffffffff\n        /* \"#utility.yul\":6642:6647   */\n      dup3\n        /* \"#utility.yul\":6638:6692   */\n      and\n        /* \"#utility.yul\":6627:6692   */\n      swap1\n      pop\n        /* \"#utility.yul\":6617:6698   */\n      swap2\n      swap1\n      pop\n      jump\t// out\n        /* \"#utility.yul\":6704:6781   */\n    tag_123:\n      0x00\n        /* \"#utility.yul\":6770:6775   */\n      dup2\n        /* \"#utility.yul\":6759:6775   */\n      swap1\n      pop\n        /* \"#utility.yul\":6749:6781   */\n      swap2\n      swap1\n      pop\n      jump\t// out\n        /* \"#utility.yul\":6787:6967   */\n    tag_148:\n        /* \"#utility.yul\":6835:6912   */\n      0x4e487b7100000000000000000000000000000000000000000000000000000000\n        /* \"#utility.yul\":6832:6833   */\n      0x00\n        /* \"#utility.yul\":6825:6913   */\n      mstore\n        /* \"#utility.yul\":6932:6936   */\n      0x11\n        /* \"#utility.yul\":6929:6930   */\n      0x04\n        /* \"#utility.yul\":6922:6937   */\n      mstore\n        /* \"#utility.yul\":6956:6960   */\n      0x24\n        /* \"#utility.yul\":6953:6954   */\n      0x00\n        /* \"#utility.yul\":6946:6961   */\n      revert\n        /* \"#utility.yul\":6973:7153   */\n    tag_140:\n        /* \"#utility.yul\":7021:7098   */\n      0x4e487b7100000000000000000000000000000000000000000000000000000000\n        /* \"#utility.yul\":7018:7019   */\n      0x00\n        /* \"#utility.yul\":7011:7099   */\n      mstore\n        /* \"#utility.yul\":7118:7122   */\n      0x12\n        /* \"#utility.yul\":7115:7116   */\n      0x04\n        /* \"#utility.yul\":7108:7123   */\n      mstore\n        /* \"#utility.yul\":7142:7146   */\n      0x24\n        /* \"#utility.yul\":7139:7140   */\n      0x00\n        /* \"#utility.yul\":7132:7147   */\n      revert\n        /* \"#utility.yul\":7159:7261   */\n    tag_151:\n      0x00\n        /* \"#utility.yul\":7248:7253   */\n      dup2\n        /* \"#utility.yul\":7245:7246   */\n      0x01\n        /* \"#utility.yul\":7241:7254   */\n      shr\n        /* \"#utility.yul\":7220:7254   */\n      swap1\n      pop\n        /* \"#utility.yul\":7210:7261   */\n      swap2\n      swap1\n      pop\n      jump\t// out\n        /* \"#utility.yul\":7267:7389   */\n    tag_94:\n        /* \"#utility.yul\":7340:7364   */\n      tag_188\n        /* \"#utility.yul\":7358:7363   */\n      dup2\n        /* \"#utility.yul\":7340:7364   */\n      tag_108\n      jump\t// in\n    tag_188:\n        /* \"#utility.yul\":7333:7338   */\n      dup2\n        /* \"#utility.yul\":7330:7365   */\n      eq\n        /* \"#utility.yul\":7320:7322   */\n      tag_189\n      jumpi\n        /* \"#utility.yul\":7379:7380   */\n      0x00\n        /* \"#utility.yul\":7376:7377   */\n      dup1\n        /* \"#utility.yul\":7369:7381   */\n      revert\n        /* \"#utility.yul\":7320:7322   */\n    tag_189:\n        /* \"#utility.yul\":7310:7389   */\n      pop\n      jump\t// out\n        /* \"#utility.yul\":7395:7517   */\n    tag_98:\n        /* \"#utility.yul\":7468:7492   */\n      tag_191\n        /* \"#utility.yul\":7486:7491   */\n      dup2\n        /* \"#utility.yul\":7468:7492   */\n      tag_123\n      jump\t// in\n    tag_191:\n        /* \"#utility.yul\":7461:7466   */\n      dup2\n        /* \"#utility.yul\":7458:7493   */\n      eq\n        /* \"#utility.yul\":7448:7450   */\n      tag_192\n      jumpi\n        /* \"#utility.yul\":7507:7508   */\n      0x00\n        /* \"#utility.yul\":7504:7505   */\n      dup1\n        /* \"#utility.yul\":7497:7509   */\n      revert\n        /* \"#utility.yul\":7448:7450   */\n    tag_192:\n        /* \"#utility.yul\":7438:7517   */\n      pop\n      jump\t// out\n\n    auxdata: 0xa26469706673582212208757194bdc7e833e226caa5261d7463657eb853d848afd625d586016d645a8e964736f6c63430008000033\n}\n",
				"bytecode": {
					"linkReferences": {},
					"object": "60806040523480156200001157600080fd5b5060405162000f4738038062000f478339818101604052810190620000379190620002e2565b6000620000496200029560201b60201c565b9050806000806101000a81548173ffffffffffffffffffffffffffffffffffffffff021916908373ffffffffffffffffffffffffffffffffffffffff1602179055508073ffffffffffffffffffffffffffffffffffffffff16600073ffffffffffffffffffffffffffffffffffffffff167f8be0079c531659141344cd1fd0a4f28419497f9722a3daafe3b4186f6b6457e060405160405180910390a35060008573ffffffffffffffffffffffffffffffffffffffff1663313ce5676040518163ffffffff1660e01b815260040160206040518083038186803b1580156200013057600080fd5b505afa15801562000145573d6000803e3d6000fd5b505050506040513d601f19601f820116820180604052508101906200016b919062000364565b60ff16116200017957600080fd5b8284106200018657600080fd5b600082116200019457600080fd5b60008111620001a257600080fd5b84600160006101000a81548173ffffffffffffffffffffffffffffffffffffffff021916908373ffffffffffffffffffffffffffffffffffffffff1602179055508473ffffffffffffffffffffffffffffffffffffffff1663313ce5676040518163ffffffff1660e01b815260040160206040518083038186803b1580156200022a57600080fd5b505afa1580156200023f573d6000803e3d6000fd5b505050506040513d601f19601f8201168201806040525081019062000265919062000364565b60ff1660028190555083600381905550826004819055508160058190555080600881905550505050505062000429565b600033905090565b600081519050620002ae81620003db565b92915050565b600081519050620002c581620003f5565b92915050565b600081519050620002dc816200040f565b92915050565b600080600080600060a08688031215620002fb57600080fd5b60006200030b888289016200029d565b95505060206200031e88828901620002b4565b94505060406200033188828901620002b4565b93505060606200034488828901620002b4565b92505060806200035788828901620002b4565b9150509295509295909350565b6000602082840312156200037757600080fd5b60006200038784828501620002cb565b91505092915050565b60006200039d82620003a4565b9050919050565b600073ffffffffffffffffffffffffffffffffffffffff82169050919050565b6000819050919050565b600060ff82169050919050565b620003e68162000390565b8114620003f257600080fd5b50565b6200040081620003c4565b81146200040c57600080fd5b50565b6200041a81620003ce565b81146200042657600080fd5b50565b610b0e80620004396000396000f3fe608060405234801561001057600080fd5b50600436106100cf5760003560e01c8063715018a61161008c578063f2fde38b11610066578063f2fde38b146101ce578063fa1a5f59146101ea578063fa300f7514610208578063fc0c546a14610238576100cf565b8063715018a61461018857806378e97925146101925780638da5cb5b146101b0576100cf565b80631b0875a6146100d457806322f3e2d4146100f257806331711884146101105780633197cbb61461012e5780633996dc8f1461014c5780635caed0291461016a575b600080fd5b6100dc610256565b6040516100e991906107cf565b60405180910390f35b6100fa61025c565b6040516101079190610774565b60405180910390f35b610118610277565b60405161012591906107cf565b60405180910390f35b61013661027d565b60405161014391906107cf565b60405180910390f35b610154610283565b60405161016191906107cf565b60405180910390f35b610172610289565b60405161017f91906107cf565b60405180910390f35b61019061028f565b005b61019a6103c9565b6040516101a791906107cf565b60405180910390f35b6101b86103cf565b6040516101c59190610759565b60405180910390f35b6101e860048036038101906101e39190610634565b6103f8565b005b6101f26105a1565b6040516101ff91906107cf565b60405180910390f35b610222600480360381019061021d919061065d565b6105a7565b60405161022f91906107cf565b60405180910390f35b6102406105dc565b60405161024d9190610759565b60405180910390f35b60085481565b6000426003541115801561027257506004544211155b905090565b60055481565b60045481565b60075481565b60025481565b610297610602565b73ffffffffffffffffffffffffffffffffffffffff166102b56103cf565b73ffffffffffffffffffffffffffffffffffffffff161461030b576040517f08c379a0000000000000000000000000000000000000000000000000000000008152600401610302906107af565b60405180910390fd5b600073ffffffffffffffffffffffffffffffffffffffff1660008054906101000a900473ffffffffffffffffffffffffffffffffffffffff1673ffffffffffffffffffffffffffffffffffffffff167f8be0079c531659141344cd1fd0a4f28419497f9722a3daafe3b4186f6b6457e060405160405180910390a360008060006101000a81548173ffffffffffffffffffffffffffffffffffffffff021916908373ffffffffffffffffffffffffffffffffffffffff160217905550565b60035481565b60008060009054906101000a900473ffffffffffffffffffffffffffffffffffffffff16905090565b610400610602565b73ffffffffffffffffffffffffffffffffffffffff1661041e6103cf565b73ffffffffffffffffffffffffffffffffffffffff1614610474576040517f08c379a000000000000000000000000000000000000000000000000000000000815260040161046b906107af565b60405180910390fd5b600073ffffffffffffffffffffffffffffffffffffffff168173ffffffffffffffffffffffffffffffffffffffff1614156104e4576040517f08c379a00000000000000000000000000000000000000000000000000000000081526004016104db9061078f565b60405180910390fd5b8073ffffffffffffffffffffffffffffffffffffffff1660008054906101000a900473ffffffffffffffffffffffffffffffffffffffff1673ffffffffffffffffffffffffffffffffffffffff167f8be0079c531659141344cd1fd0a4f28419497f9722a3daafe3b4186f6b6457e060405160405180910390a3806000806101000a81548173ffffffffffffffffffffffffffffffffffffffff021916908373ffffffffffffffffffffffffffffffffffffffff16021790555050565b60065481565b600080600254600a6105b9919061087f565b905080600554846105ca919061099d565b6105d491906107fb565b915050919050565b600160009054906101000a900473ffffffffffffffffffffffffffffffffffffffff1681565b600033905090565b60008135905061061981610aaa565b92915050565b60008135905061062e81610ac1565b92915050565b60006020828403121561064657600080fd5b60006106548482850161060a565b91505092915050565b60006020828403121561066f57600080fd5b600061067d8482850161061f565b91505092915050565b61068f816109f7565b82525050565b61069e81610a09565b82525050565b60006106b16026836107ea565b91507f4f776e61626c653a206e6577206f776e657220697320746865207a65726f206160008301527f64647265737300000000000000000000000000000000000000000000000000006020830152604082019050919050565b60006107176020836107ea565b91507f4f776e61626c653a2063616c6c6572206973206e6f7420746865206f776e65726000830152602082019050919050565b61075381610a35565b82525050565b600060208201905061076e6000830184610686565b92915050565b60006020820190506107896000830184610695565b92915050565b600060208201905081810360008301526107a8816106a4565b9050919050565b600060208201905081810360008301526107c88161070a565b9050919050565b60006020820190506107e4600083018461074a565b92915050565b600082825260208201905092915050565b600061080682610a35565b915061081183610a35565b92508261082157610820610a6e565b5b828204905092915050565b6000808291508390505b60018511156108765780860481111561085257610851610a3f565b5b60018516156108615780820291505b808102905061086f85610a9d565b9450610836565b94509492505050565b600061088a82610a35565b915061089583610a35565b92506108c27fffffffffffffffffffffffffffffffffffffffffffffffffffffffffffffffff84846108ca565b905092915050565b6000826108da5760019050610996565b816108e85760009050610996565b81600181146108fe576002811461090857610937565b6001915050610996565b60ff84111561091a57610919610a3f565b5b8360020a91508482111561093157610930610a3f565b5b50610996565b5060208310610133831016604e8410600b841016171561096c5782820a90508381111561096757610966610a3f565b5b610996565b610979848484600161082c565b925090508184048111156109905761098f610a3f565b5b81810290505b9392505050565b60006109a882610a35565b91506109b383610a35565b9250817fffffffffffffffffffffffffffffffffffffffffffffffffffffffffffffffff04831182151516156109ec576109eb610a3f565b5b828202905092915050565b6000610a0282610a15565b9050919050565b60008115159050919050565b600073ffffffffffffffffffffffffffffffffffffffff82169050919050565b6000819050919050565b7f4e487b7100000000000000000000000000000000000000000000000000000000600052601160045260246000fd5b7f4e487b7100000000000000000000000000000000000000000000000000000000600052601260045260246000fd5b60008160011c9050919050565b610ab3816109f7565b8114610abe57600080fd5b50565b610aca81610a35565b8114610ad557600080fd5b5056fea26469706673582212208757194bdc7e833e226caa5261d7463657eb853d848afd625d586016d645a8e964736f6c63430008000033",
					"opcodes": "PUSH1 0x80 PUSH1 0x40 MSTORE CALLVALUE DUP1 ISZERO PUSH3 0x11 JUMPI PUSH1 0x0 DUP1 REVERT JUMPDEST POP PUSH1 0x40 MLOAD PUSH3 0xF47 CODESIZE SUB DUP1 PUSH3 0xF47 DUP4 CODECOPY DUP2 DUP2 ADD PUSH1 0x40 MSTORE DUP2 ADD SWAP1 PUSH3 0x37 SWAP2 SWAP1 PUSH3 0x2E2 JUMP JUMPDEST PUSH1 0x0 PUSH3 0x49 PUSH3 0x295 PUSH1 0x20 SHL PUSH1 0x20 SHR JUMP JUMPDEST SWAP1 POP DUP1 PUSH1 0x0 DUP1 PUSH2 0x100 EXP DUP2 SLOAD DUP2 PUSH20 0xFFFFFFFFFFFFFFFFFFFFFFFFFFFFFFFFFFFFFFFF MUL NOT AND SWAP1 DUP4 PUSH20 0xFFFFFFFFFFFFFFFFFFFFFFFFFFFFFFFFFFFFFFFF AND MUL OR SWAP1 SSTORE POP DUP1 PUSH20 0xFFFFFFFFFFFFFFFFFFFFFFFFFFFFFFFFFFFFFFFF AND PUSH1 0x0 PUSH20 0xFFFFFFFFFFFFFFFFFFFFFFFFFFFFFFFFFFFFFFFF AND PUSH32 0x8BE0079C531659141344CD1FD0A4F28419497F9722A3DAAFE3B4186F6B6457E0 PUSH1 0x40 MLOAD PUSH1 0x40 MLOAD DUP1 SWAP2 SUB SWAP1 LOG3 POP PUSH1 0x0 DUP6 PUSH20 0xFFFFFFFFFFFFFFFFFFFFFFFFFFFFFFFFFFFFFFFF AND PUSH4 0x313CE567 PUSH1 0x40 MLOAD DUP2 PUSH4 0xFFFFFFFF AND PUSH1 0xE0 SHL DUP2 MSTORE PUSH1 0x4 ADD PUSH1 0x20 PUSH1 0x40 MLOAD DUP1 DUP4 SUB DUP2 DUP7 DUP1 EXTCODESIZE ISZERO DUP1 ISZERO PUSH3 0x130 JUMPI PUSH1 0x0 DUP1 REVERT JUMPDEST POP GAS STATICCALL ISZERO DUP1 ISZERO PUSH3 0x145 JUMPI RETURNDATASIZE PUSH1 0x0 DUP1 RETURNDATACOPY RETURNDATASIZE PUSH1 0x0 REVERT JUMPDEST POP POP POP POP PUSH1 0x40 MLOAD RETURNDATASIZE PUSH1 0x1F NOT PUSH1 0x1F DUP3 ADD AND DUP3 ADD DUP1 PUSH1 0x40 MSTORE POP DUP2 ADD SWAP1 PUSH3 0x16B SWAP2 SWAP1 PUSH3 0x364 JUMP JUMPDEST PUSH1 0xFF AND GT PUSH3 0x179 JUMPI PUSH1 0x0 DUP1 REVERT JUMPDEST DUP3 DUP5 LT PUSH3 0x186 JUMPI PUSH1 0x0 DUP1 REVERT JUMPDEST PUSH1 0x0 DUP3 GT PUSH3 0x194 JUMPI PUSH1 0x0 DUP1 REVERT JUMPDEST PUSH1 0x0 DUP2 GT PUSH3 0x1A2 JUMPI PUSH1 0x0 DUP1 REVERT JUMPDEST DUP5 PUSH1 0x1 PUSH1 0x0 PUSH2 0x100 EXP DUP2 SLOAD DUP2 PUSH20 0xFFFFFFFFFFFFFFFFFFFFFFFFFFFFFFFFFFFFFFFF MUL NOT AND SWAP1 DUP4 PUSH20 0xFFFFFFFFFFFFFFFFFFFFFFFFFFFFFFFFFFFFFFFF AND MUL OR SWAP1 SSTORE POP DUP5 PUSH20 0xFFFFFFFFFFFFFFFFFFFFFFFFFFFFFFFFFFFFFFFF AND PUSH4 0x313CE567 PUSH1 0x40 MLOAD DUP2 PUSH4 0xFFFFFFFF AND PUSH1 0xE0 SHL DUP2 MSTORE PUSH1 0x4 ADD PUSH1 0x20 PUSH1 0x40 MLOAD DUP1 DUP4 SUB DUP2 DUP7 DUP1 EXTCODESIZE ISZERO DUP1 ISZERO PUSH3 0x22A JUMPI PUSH1 0x0 DUP1 REVERT JUMPDEST POP GAS STATICCALL ISZERO DUP1 ISZERO PUSH3 0x23F JUMPI RETURNDATASIZE PUSH1 0x0 DUP1 RETURNDATACOPY RETURNDATASIZE PUSH1 0x0 REVERT JUMPDEST POP POP POP POP PUSH1 0x40 MLOAD RETURNDATASIZE PUSH1 0x1F NOT PUSH1 0x1F DUP3 ADD AND DUP3 ADD DUP1 PUSH1 0x40 MSTORE POP DUP2 ADD SWAP1 PUSH3 0x265 SWAP2 SWAP1 PUSH3 0x364 JUMP JUMPDEST PUSH1 0xFF AND PUSH1 0x2 DUP2 SWAP1 SSTORE POP DUP4 PUSH1 0x3 DUP2 SWAP1 SSTORE POP DUP3 PUSH1 0x4 DUP2 SWAP1 SSTORE POP DUP2 PUSH1 0x5 DUP2 SWAP1 SSTORE POP DUP1 PUSH1 0x8 DUP2 SWAP1 SSTORE POP POP POP POP POP POP PUSH3 0x429 JUMP JUMPDEST PUSH1 0x0 CALLER SWAP1 POP SWAP1 JUMP JUMPDEST PUSH1 0x0 DUP2 MLOAD SWAP1 POP PUSH3 0x2AE DUP2 PUSH3 0x3DB JUMP JUMPDEST SWAP3 SWAP2 POP POP JUMP JUMPDEST PUSH1 0x0 DUP2 MLOAD SWAP1 POP PUSH3 0x2C5 DUP2 PUSH3 0x3F5 JUMP JUMPDEST SWAP3 SWAP2 POP POP JUMP JUMPDEST PUSH1 0x0 DUP2 MLOAD SWAP1 POP PUSH3 0x2DC DUP2 PUSH3 0x40F JUMP JUMPDEST SWAP3 SWAP2 POP POP JUMP JUMPDEST PUSH1 0x0 DUP1 PUSH1 0x0 DUP1 PUSH1 0x0 PUSH1 0xA0 DUP7 DUP9 SUB SLT ISZERO PUSH3 0x2FB JUMPI PUSH1 0x0 DUP1 REVERT JUMPDEST PUSH1 0x0 PUSH3 0x30B DUP9 DUP3 DUP10 ADD PUSH3 0x29D JUMP JUMPDEST SWAP6 POP POP PUSH1 0x20 PUSH3 0x31E DUP9 DUP3 DUP10 ADD PUSH3 0x2B4 JUMP JUMPDEST SWAP5 POP POP PUSH1 0x40 PUSH3 0x331 DUP9 DUP3 DUP10 ADD PUSH3 0x2B4 JUMP JUMPDEST SWAP4 POP POP PUSH1 0x60 PUSH3 0x344 DUP9 DUP3 DUP10 ADD PUSH3 0x2B4 JUMP JUMPDEST SWAP3 POP POP PUSH1 0x80 PUSH3 0x357 DUP9 DUP3 DUP10 ADD PUSH3 0x2B4 JUMP JUMPDEST SWAP2 POP POP SWAP3 SWAP6 POP SWAP3 SWAP6 SWAP1 SWAP4 POP JUMP JUMPDEST PUSH1 0x0 PUSH1 0x20 DUP3 DUP5 SUB SLT ISZERO PUSH3 0x377 JUMPI PUSH1 0x0 DUP1 REVERT JUMPDEST PUSH1 0x0 PUSH3 0x387 DUP5 DUP3 DUP6 ADD PUSH3 0x2CB JUMP JUMPDEST SWAP2 POP POP SWAP3 SWAP2 POP POP JUMP JUMPDEST PUSH1 0x0 PUSH3 0x39D DUP3 PUSH3 0x3A4 JUMP JUMPDEST SWAP1 POP SWAP2 SWAP1 POP JUMP JUMPDEST PUSH1 0x0 PUSH20 0xFFFFFFFFFFFFFFFFFFFFFFFFFFFFFFFFFFFFFFFF DUP3 AND SWAP1 POP SWAP2 SWAP1 POP JUMP JUMPDEST PUSH1 0x0 DUP2 SWAP1 POP SWAP2 SWAP1 POP JUMP JUMPDEST PUSH1 0x0 PUSH1 0xFF DUP3 AND SWAP1 POP SWAP2 SWAP1 POP JUMP JUMPDEST PUSH3 0x3E6 DUP2 PUSH3 0x390 JUMP JUMPDEST DUP2 EQ PUSH3 0x3F2 JUMPI PUSH1 0x0 DUP1 REVERT JUMPDEST POP JUMP JUMPDEST PUSH3 0x400 DUP2 PUSH3 0x3C4 JUMP JUMPDEST DUP2 EQ PUSH3 0x40C JUMPI PUSH1 0x0 DUP1 REVERT JUMPDEST POP JUMP JUMPDEST PUSH3 0x41A DUP2 PUSH3 0x3CE JUMP JUMPDEST DUP2 EQ PUSH3 0x426 JUMPI PUSH1 0x0 DUP1 REVERT JUMPDEST POP JUMP JUMPDEST PUSH2 0xB0E DUP1 PUSH3 0x439 PUSH1 0x0 CODECOPY PUSH1 0x0 RETURN INVALID PUSH1 0x80 PUSH1 0x40 MSTORE CALLVALUE DUP1 ISZERO PUSH2 0x10 JUMPI PUSH1 0x0 DUP1 REVERT JUMPDEST POP PUSH1 0x4 CALLDATASIZE LT PUSH2 0xCF JUMPI PUSH1 0x0 CALLDATALOAD PUSH1 0xE0 SHR DUP1 PUSH4 0x715018A6 GT PUSH2 0x8C JUMPI DUP1 PUSH4 0xF2FDE38B GT PUSH2 0x66 JUMPI DUP1 PUSH4 0xF2FDE38B EQ PUSH2 0x1CE JUMPI DUP1 PUSH4 0xFA1A5F59 EQ PUSH2 0x1EA JUMPI DUP1 PUSH4 0xFA300F75 EQ PUSH2 0x208 JUMPI DUP1 PUSH4 0xFC0C546A EQ PUSH2 0x238 JUMPI PUSH2 0xCF JUMP JUMPDEST DUP1 PUSH4 0x715018A6 EQ PUSH2 0x188 JUMPI DUP1 PUSH4 0x78E97925 EQ PUSH2 0x192 JUMPI DUP1 PUSH4 0x8DA5CB5B EQ PUSH2 0x1B0 JUMPI PUSH2 0xCF JUMP JUMPDEST DUP1 PUSH4 0x1B0875A6 EQ PUSH2 0xD4 JUMPI DUP1 PUSH4 0x22F3E2D4 EQ PUSH2 0xF2 JUMPI DUP1 PUSH4 0x31711884 EQ PUSH2 0x110 JUMPI DUP1 PUSH4 0x3197CBB6 EQ PUSH2 0x12E JUMPI DUP1 PUSH4 0x3996DC8F EQ PUSH2 0x14C JUMPI DUP1 PUSH4 0x5CAED029 EQ PUSH2 0x16A JUMPI JUMPDEST PUSH1 0x0 DUP1 REVERT JUMPDEST PUSH2 0xDC PUSH2 0x256 JUMP JUMPDEST PUSH1 0x40 MLOAD PUSH2 0xE9 SWAP2 SWAP1 PUSH2 0x7CF JUMP JUMPDEST PUSH1 0x40 MLOAD DUP1 SWAP2 SUB SWAP1 RETURN JUMPDEST PUSH2 0xFA PUSH2 0x25C JUMP JUMPDEST PUSH1 0x40 MLOAD PUSH2 0x107 SWAP2 SWAP1 PUSH2 0x774 JUMP JUMPDEST PUSH1 0x40 MLOAD DUP1 SWAP2 SUB SWAP1 RETURN JUMPDEST PUSH2 0x118 PUSH2 0x277 JUMP JUMPDEST PUSH1 0x40 MLOAD PUSH2 0x125 SWAP2 SWAP1 PUSH2 0x7CF JUMP JUMPDEST PUSH1 0x40 MLOAD DUP1 SWAP2 SUB SWAP1 RETURN JUMPDEST PUSH2 0x136 PUSH2 0x27D JUMP JUMPDEST PUSH1 0x40 MLOAD PUSH2 0x143 SWAP2 SWAP1 PUSH2 0x7CF JUMP JUMPDEST PUSH1 0x40 MLOAD DUP1 SWAP2 SUB SWAP1 RETURN JUMPDEST PUSH2 0x154 PUSH2 0x283 JUMP JUMPDEST PUSH1 0x40 MLOAD PUSH2 0x161 SWAP2 SWAP1 PUSH2 0x7CF JUMP JUMPDEST PUSH1 0x40 MLOAD DUP1 SWAP2 SUB SWAP1 RETURN JUMPDEST PUSH2 0x172 PUSH2 0x289 JUMP JUMPDEST PUSH1 0x40 MLOAD PUSH2 0x17F SWAP2 SWAP1 PUSH2 0x7CF JUMP JUMPDEST PUSH1 0x40 MLOAD DUP1 SWAP2 SUB SWAP1 RETURN JUMPDEST PUSH2 0x190 PUSH2 0x28F JUMP JUMPDEST STOP JUMPDEST PUSH2 0x19A PUSH2 0x3C9 JUMP JUMPDEST PUSH1 0x40 MLOAD PUSH2 0x1A7 SWAP2 SWAP1 PUSH2 0x7CF JUMP JUMPDEST PUSH1 0x40 MLOAD DUP1 SWAP2 SUB SWAP1 RETURN JUMPDEST PUSH2 0x1B8 PUSH2 0x3CF JUMP JUMPDEST PUSH1 0x40 MLOAD PUSH2 0x1C5 SWAP2 SWAP1 PUSH2 0x759 JUMP JUMPDEST PUSH1 0x40 MLOAD DUP1 SWAP2 SUB SWAP1 RETURN JUMPDEST PUSH2 0x1E8 PUSH1 0x4 DUP1 CALLDATASIZE SUB DUP2 ADD SWAP1 PUSH2 0x1E3 SWAP2 SWAP1 PUSH2 0x634 JUMP JUMPDEST PUSH2 0x3F8 JUMP JUMPDEST STOP JUMPDEST PUSH2 0x1F2 PUSH2 0x5A1 JUMP JUMPDEST PUSH1 0x40 MLOAD PUSH2 0x1FF SWAP2 SWAP1 PUSH2 0x7CF JUMP JUMPDEST PUSH1 0x40 MLOAD DUP1 SWAP2 SUB SWAP1 RETURN JUMPDEST PUSH2 0x222 PUSH1 0x4 DUP1 CALLDATASIZE SUB DUP2 ADD SWAP1 PUSH2 0x21D SWAP2 SWAP1 PUSH2 0x65D JUMP JUMPDEST PUSH2 0x5A7 JUMP JUMPDEST PUSH1 0x40 MLOAD PUSH2 0x22F SWAP2 SWAP1 PUSH2 0x7CF JUMP JUMPDEST PUSH1 0x40 MLOAD DUP1 SWAP2 SUB SWAP1 RETURN JUMPDEST PUSH2 0x240 PUSH2 0x5DC JUMP JUMPDEST PUSH1 0x40 MLOAD PUSH2 0x24D SWAP2 SWAP1 PUSH2 0x759 JUMP JUMPDEST PUSH1 0x40 MLOAD DUP1 SWAP2 SUB SWAP1 RETURN JUMPDEST PUSH1 0x8 SLOAD DUP2 JUMP JUMPDEST PUSH1 0x0 TIMESTAMP PUSH1 0x3 SLOAD GT ISZERO DUP1 ISZERO PUSH2 0x272 JUMPI POP PUSH1 0x4 SLOAD TIMESTAMP GT ISZERO JUMPDEST SWAP1 POP SWAP1 JUMP JUMPDEST PUSH1 0x5 SLOAD DUP2 JUMP JUMPDEST PUSH1 0x4 SLOAD DUP2 JUMP JUMPDEST PUSH1 0x7 SLOAD DUP2 JUMP JUMPDEST PUSH1 0x2 SLOAD DUP2 JUMP JUMPDEST PUSH2 0x297 PUSH2 0x602 JUMP JUMPDEST PUSH20 0xFFFFFFFFFFFFFFFFFFFFFFFFFFFFFFFFFFFFFFFF AND PUSH2 0x2B5 PUSH2 0x3CF JUMP JUMPDEST PUSH20 0xFFFFFFFFFFFFFFFFFFFFFFFFFFFFFFFFFFFFFFFF AND EQ PUSH2 0x30B JUMPI PUSH1 0x40 MLOAD PUSH32 0x8C379A000000000000000000000000000000000000000000000000000000000 DUP2 MSTORE PUSH1 0x4 ADD PUSH2 0x302 SWAP1 PUSH2 0x7AF JUMP JUMPDEST PUSH1 0x40 MLOAD DUP1 SWAP2 SUB SWAP1 REVERT JUMPDEST PUSH1 0x0 PUSH20 0xFFFFFFFFFFFFFFFFFFFFFFFFFFFFFFFFFFFFFFFF AND PUSH1 0x0 DUP1 SLOAD SWAP1 PUSH2 0x100 EXP SWAP1 DIV PUSH20 0xFFFFFFFFFFFFFFFFFFFFFFFFFFFFFFFFFFFFFFFF AND PUSH20 0xFFFFFFFFFFFFFFFFFFFFFFFFFFFFFFFFFFFFFFFF AND PUSH32 0x8BE0079C531659141344CD1FD0A4F28419497F9722A3DAAFE3B4186F6B6457E0 PUSH1 0x40 MLOAD PUSH1 0x40 MLOAD DUP1 SWAP2 SUB SWAP1 LOG3 PUSH1 0x0 DUP1 PUSH1 0x0 PUSH2 0x100 EXP DUP2 SLOAD DUP2 PUSH20 0xFFFFFFFFFFFFFFFFFFFFFFFFFFFFFFFFFFFFFFFF MUL NOT AND SWAP1 DUP4 PUSH20 0xFFFFFFFFFFFFFFFFFFFFFFFFFFFFFFFFFFFFFFFF AND MUL OR SWAP1 SSTORE POP JUMP JUMPDEST PUSH1 0x3 SLOAD DUP2 JUMP JUMPDEST PUSH1 0x0 DUP1 PUSH1 0x0 SWAP1 SLOAD SWAP1 PUSH2 0x100 EXP SWAP1 DIV PUSH20 0xFFFFFFFFFFFFFFFFFFFFFFFFFFFFFFFFFFFFFFFF AND SWAP1 POP SWAP1 JUMP JUMPDEST PUSH2 0x400 PUSH2 0x602 JUMP JUMPDEST PUSH20 0xFFFFFFFFFFFFFFFFFFFFFFFFFFFFFFFFFFFFFFFF AND PUSH2 0x41E PUSH2 0x3CF JUMP JUMPDEST PUSH20 0xFFFFFFFFFFFFFFFFFFFFFFFFFFFFFFFFFFFFFFFF AND EQ PUSH2 0x474 JUMPI PUSH1 0x40 MLOAD PUSH32 0x8C379A000000000000000000000000000000000000000000000000000000000 DUP2 MSTORE PUSH1 0x4 ADD PUSH2 0x46B SWAP1 PUSH2 0x7AF JUMP JUMPDEST PUSH1 0x40 MLOAD DUP1 SWAP2 SUB SWAP1 REVERT JUMPDEST PUSH1 0x0 PUSH20 0xFFFFFFFFFFFFFFFFFFFFFFFFFFFFFFFFFFFFFFFF AND DUP2 PUSH20 0xFFFFFFFFFFFFFFFFFFFFFFFFFFFFFFFFFFFFFFFF AND EQ ISZERO PUSH2 0x4E4 JUMPI PUSH1 0x40 MLOAD PUSH32 0x8C379A000000000000000000000000000000000000000000000000000000000 DUP2 MSTORE PUSH1 0x4 ADD PUSH2 0x4DB SWAP1 PUSH2 0x78F JUMP JUMPDEST PUSH1 0x40 MLOAD DUP1 SWAP2 SUB SWAP1 REVERT JUMPDEST DUP1 PUSH20 0xFFFFFFFFFFFFFFFFFFFFFFFFFFFFFFFFFFFFFFFF AND PUSH1 0x0 DUP1 SLOAD SWAP1 PUSH2 0x100 EXP SWAP1 DIV PUSH20 0xFFFFFFFFFFFFFFFFFFFFFFFFFFFFFFFFFFFFFFFF AND PUSH20 0xFFFFFFFFFFFFFFFFFFFFFFFFFFFFFFFFFFFFFFFF AND PUSH32 0x8BE0079C531659141344CD1FD0A4F28419497F9722A3DAAFE3B4186F6B6457E0 PUSH1 0x40 MLOAD PUSH1 0x40 MLOAD DUP1 SWAP2 SUB SWAP1 LOG3 DUP1 PUSH1 0x0 DUP1 PUSH2 0x100 EXP DUP2 SLOAD DUP2 PUSH20 0xFFFFFFFFFFFFFFFFFFFFFFFFFFFFFFFFFFFFFFFF MUL NOT AND SWAP1 DUP4 PUSH20 0xFFFFFFFFFFFFFFFFFFFFFFFFFFFFFFFFFFFFFFFF AND MUL OR SWAP1 SSTORE POP POP JUMP JUMPDEST PUSH1 0x6 SLOAD DUP2 JUMP JUMPDEST PUSH1 0x0 DUP1 PUSH1 0x2 SLOAD PUSH1 0xA PUSH2 0x5B9 SWAP2 SWAP1 PUSH2 0x87F JUMP JUMPDEST SWAP1 POP DUP1 PUSH1 0x5 SLOAD DUP5 PUSH2 0x5CA SWAP2 SWAP1 PUSH2 0x99D JUMP JUMPDEST PUSH2 0x5D4 SWAP2 SWAP1 PUSH2 0x7FB JUMP JUMPDEST SWAP2 POP POP SWAP2 SWAP1 POP JUMP JUMPDEST PUSH1 0x1 PUSH1 0x0 SWAP1 SLOAD SWAP1 PUSH2 0x100 EXP SWAP1 DIV PUSH20 0xFFFFFFFFFFFFFFFFFFFFFFFFFFFFFFFFFFFFFFFF AND DUP2 JUMP JUMPDEST PUSH1 0x0 CALLER SWAP1 POP SWAP1 JUMP JUMPDEST PUSH1 0x0 DUP2 CALLDATALOAD SWAP1 POP PUSH2 0x619 DUP2 PUSH2 0xAAA JUMP JUMPDEST SWAP3 SWAP2 POP POP JUMP JUMPDEST PUSH1 0x0 DUP2 CALLDATALOAD SWAP1 POP PUSH2 0x62E DUP2 PUSH2 0xAC1 JUMP JUMPDEST SWAP3 SWAP2 POP POP JUMP JUMPDEST PUSH1 0x0 PUSH1 0x20 DUP3 DUP5 SUB SLT ISZERO PUSH2 0x646 JUMPI PUSH1 0x0 DUP1 REVERT JUMPDEST PUSH1 0x0 PUSH2 0x654 DUP5 DUP3 DUP6 ADD PUSH2 0x60A JUMP JUMPDEST SWAP2 POP POP SWAP3 SWAP2 POP POP JUMP JUMPDEST PUSH1 0x0 PUSH1 0x20 DUP3 DUP5 SUB SLT ISZERO PUSH2 0x66F JUMPI PUSH1 0x0 DUP1 REVERT JUMPDEST PUSH1 0x0 PUSH2 0x67D DUP5 DUP3 DUP6 ADD PUSH2 0x61F JUMP JUMPDEST SWAP2 POP POP SWAP3 SWAP2 POP POP JUMP JUMPDEST PUSH2 0x68F DUP2 PUSH2 0x9F7 JUMP JUMPDEST DUP3 MSTORE POP POP JUMP JUMPDEST PUSH2 0x69E DUP2 PUSH2 0xA09 JUMP JUMPDEST DUP3 MSTORE POP POP JUMP JUMPDEST PUSH1 0x0 PUSH2 0x6B1 PUSH1 0x26 DUP4 PUSH2 0x7EA JUMP JUMPDEST SWAP2 POP PUSH32 0x4F776E61626C653A206E6577206F776E657220697320746865207A65726F2061 PUSH1 0x0 DUP4 ADD MSTORE PUSH32 0x6464726573730000000000000000000000000000000000000000000000000000 PUSH1 0x20 DUP4 ADD MSTORE PUSH1 0x40 DUP3 ADD SWAP1 POP SWAP2 SWAP1 POP JUMP JUMPDEST PUSH1 0x0 PUSH2 0x717 PUSH1 0x20 DUP4 PUSH2 0x7EA JUMP JUMPDEST SWAP2 POP PUSH32 0x4F776E61626C653A2063616C6C6572206973206E6F7420746865206F776E6572 PUSH1 0x0 DUP4 ADD MSTORE PUSH1 0x20 DUP3 ADD SWAP1 POP SWAP2 SWAP1 POP JUMP JUMPDEST PUSH2 0x753 DUP2 PUSH2 0xA35 JUMP JUMPDEST DUP3 MSTORE POP POP JUMP JUMPDEST PUSH1 0x0 PUSH1 0x20 DUP3 ADD SWAP1 POP PUSH2 0x76E PUSH1 0x0 DUP4 ADD DUP5 PUSH2 0x686 JUMP JUMPDEST SWAP3 SWAP2 POP POP JUMP JUMPDEST PUSH1 0x0 PUSH1 0x20 DUP3 ADD SWAP1 POP PUSH2 0x789 PUSH1 0x0 DUP4 ADD DUP5 PUSH2 0x695 JUMP JUMPDEST SWAP3 SWAP2 POP POP JUMP JUMPDEST PUSH1 0x0 PUSH1 0x20 DUP3 ADD SWAP1 POP DUP2 DUP2 SUB PUSH1 0x0 DUP4 ADD MSTORE PUSH2 0x7A8 DUP2 PUSH2 0x6A4 JUMP JUMPDEST SWAP1 POP SWAP2 SWAP1 POP JUMP JUMPDEST PUSH1 0x0 PUSH1 0x20 DUP3 ADD SWAP1 POP DUP2 DUP2 SUB PUSH1 0x0 DUP4 ADD MSTORE PUSH2 0x7C8 DUP2 PUSH2 0x70A JUMP JUMPDEST SWAP1 POP SWAP2 SWAP1 POP JUMP JUMPDEST PUSH1 0x0 PUSH1 0x20 DUP3 ADD SWAP1 POP PUSH2 0x7E4 PUSH1 0x0 DUP4 ADD DUP5 PUSH2 0x74A JUMP JUMPDEST SWAP3 SWAP2 POP POP JUMP JUMPDEST PUSH1 0x0 DUP3 DUP3 MSTORE PUSH1 0x20 DUP3 ADD SWAP1 POP SWAP3 SWAP2 POP POP JUMP JUMPDEST PUSH1 0x0 PUSH2 0x806 DUP3 PUSH2 0xA35 JUMP JUMPDEST SWAP2 POP PUSH2 0x811 DUP4 PUSH2 0xA35 JUMP JUMPDEST SWAP3 POP DUP3 PUSH2 0x821 JUMPI PUSH2 0x820 PUSH2 0xA6E JUMP JUMPDEST JUMPDEST DUP3 DUP3 DIV SWAP1 POP SWAP3 SWAP2 POP POP JUMP JUMPDEST PUSH1 0x0 DUP1 DUP3 SWAP2 POP DUP4 SWAP1 POP JUMPDEST PUSH1 0x1 DUP6 GT ISZERO PUSH2 0x876 JUMPI DUP1 DUP7 DIV DUP2 GT ISZERO PUSH2 0x852 JUMPI PUSH2 0x851 PUSH2 0xA3F JUMP JUMPDEST JUMPDEST PUSH1 0x1 DUP6 AND ISZERO PUSH2 0x861 JUMPI DUP1 DUP3 MUL SWAP2 POP JUMPDEST DUP1 DUP2 MUL SWAP1 POP PUSH2 0x86F DUP6 PUSH2 0xA9D JUMP JUMPDEST SWAP5 POP PUSH2 0x836 JUMP JUMPDEST SWAP5 POP SWAP5 SWAP3 POP POP POP JUMP JUMPDEST PUSH1 0x0 PUSH2 0x88A DUP3 PUSH2 0xA35 JUMP JUMPDEST SWAP2 POP PUSH2 0x895 DUP4 PUSH2 0xA35 JUMP JUMPDEST SWAP3 POP PUSH2 0x8C2 PUSH32 0xFFFFFFFFFFFFFFFFFFFFFFFFFFFFFFFFFFFFFFFFFFFFFFFFFFFFFFFFFFFFFFFF DUP5 DUP5 PUSH2 0x8CA JUMP JUMPDEST SWAP1 POP SWAP3 SWAP2 POP POP JUMP JUMPDEST PUSH1 0x0 DUP3 PUSH2 0x8DA JUMPI PUSH1 0x1 SWAP1 POP PUSH2 0x996 JUMP JUMPDEST DUP2 PUSH2 0x8E8 JUMPI PUSH1 0x0 SWAP1 POP PUSH2 0x996 JUMP JUMPDEST DUP2 PUSH1 0x1 DUP2 EQ PUSH2 0x8FE JUMPI PUSH1 0x2 DUP2 EQ PUSH2 0x908 JUMPI PUSH2 0x937 JUMP JUMPDEST PUSH1 0x1 SWAP2 POP POP PUSH2 0x996 JUMP JUMPDEST PUSH1 0xFF DUP5 GT ISZERO PUSH2 0x91A JUMPI PUSH2 0x919 PUSH2 0xA3F JUMP JUMPDEST JUMPDEST DUP4 PUSH1 0x2 EXP SWAP2 POP DUP5 DUP3 GT ISZERO PUSH2 0x931 JUMPI PUSH2 0x930 PUSH2 0xA3F JUMP JUMPDEST JUMPDEST POP PUSH2 0x996 JUMP JUMPDEST POP PUSH1 0x20 DUP4 LT PUSH2 0x133 DUP4 LT AND PUSH1 0x4E DUP5 LT PUSH1 0xB DUP5 LT AND OR ISZERO PUSH2 0x96C JUMPI DUP3 DUP3 EXP SWAP1 POP DUP4 DUP2 GT ISZERO PUSH2 0x967 JUMPI PUSH2 0x966 PUSH2 0xA3F JUMP JUMPDEST JUMPDEST PUSH2 0x996 JUMP JUMPDEST PUSH2 0x979 DUP5 DUP5 DUP5 PUSH1 0x1 PUSH2 0x82C JUMP JUMPDEST SWAP3 POP SWAP1 POP DUP2 DUP5 DIV DUP2 GT ISZERO PUSH2 0x990 JUMPI PUSH2 0x98F PUSH2 0xA3F JUMP JUMPDEST JUMPDEST DUP2 DUP2 MUL SWAP1 POP JUMPDEST SWAP4 SWAP3 POP POP POP JUMP JUMPDEST PUSH1 0x0 PUSH2 0x9A8 DUP3 PUSH2 0xA35 JUMP JUMPDEST SWAP2 POP PUSH2 0x9B3 DUP4 PUSH2 0xA35 JUMP JUMPDEST SWAP3 POP DUP2 PUSH32 0xFFFFFFFFFFFFFFFFFFFFFFFFFFFFFFFFFFFFFFFFFFFFFFFFFFFFFFFFFFFFFFFF DIV DUP4 GT DUP3 ISZERO ISZERO AND ISZERO PUSH2 0x9EC JUMPI PUSH2 0x9EB PUSH2 0xA3F JUMP JUMPDEST JUMPDEST DUP3 DUP3 MUL SWAP1 POP SWAP3 SWAP2 POP POP JUMP JUMPDEST PUSH1 0x0 PUSH2 0xA02 DUP3 PUSH2 0xA15 JUMP JUMPDEST SWAP1 POP SWAP2 SWAP1 POP JUMP JUMPDEST PUSH1 0x0 DUP2 ISZERO ISZERO SWAP1 POP SWAP2 SWAP1 POP JUMP JUMPDEST PUSH1 0x0 PUSH20 0xFFFFFFFFFFFFFFFFFFFFFFFFFFFFFFFFFFFFFFFF DUP3 AND SWAP1 POP SWAP2 SWAP1 POP JUMP JUMPDEST PUSH1 0x0 DUP2 SWAP1 POP SWAP2 SWAP1 POP JUMP JUMPDEST PUSH32 0x4E487B7100000000000000000000000000000000000000000000000000000000 PUSH1 0x0 MSTORE PUSH1 0x11 PUSH1 0x4 MSTORE PUSH1 0x24 PUSH1 0x0 REVERT JUMPDEST PUSH32 0x4E487B7100000000000000000000000000000000000000000000000000000000 PUSH1 0x0 MSTORE PUSH1 0x12 PUSH1 0x4 MSTORE PUSH1 0x24 PUSH1 0x0 REVERT JUMPDEST PUSH1 0x0 DUP2 PUSH1 0x1 SHR SWAP1 POP SWAP2 SWAP1 POP JUMP JUMPDEST PUSH2 0xAB3 DUP2 PUSH2 0x9F7 JUMP JUMPDEST DUP2 EQ PUSH2 0xABE JUMPI PUSH1 0x0 DUP1 REVERT JUMPDEST POP JUMP JUMPDEST PUSH2 0xACA DUP2 PUSH2 0xA35 JUMP JUMPDEST DUP2 EQ PUSH2 0xAD5 JUMPI PUSH1 0x0 DUP1 REVERT JUMPDEST POP JUMP INVALID LOG2 PUSH5 0x6970667358 0x22 SLT KECCAK256 DUP8 JUMPI NOT 0x4B 0xDC PUSH31 0x833E226CAA5261D7463657EB853D848AFD625D586016D645A8E964736F6C63 NUMBER STOP ADDMOD STOP STOP CALLER "
				},
				"gasEstimates": {
					"creation": {
						"codeDepositCost": "566000",
						"executionCost": "infinite",
						"totalCost": "infinite"
					},
					"external": {
						"endTime()": "1196",
						"getTokenInETH(uint256)": "infinite",
						"isActive()": "2007",
						"owner()": "1289",
						"renounceOwnership()": "24352",
						"soldAmount()": "1173",
						"startTime()": "1174",
						"token()": "1302",
						"tokenDecimal()": "1240",
						"tokenRate()": "1174",
						"totalRaise()": "1218",
						"totalRewardTokens()": "1130",
						"transferOwnership(address)": "24700"
					}
				},
				"methodIdentifiers": {
					"endTime()": "3197cbb6",
					"getTokenInETH(uint256)": "fa300f75",
					"isActive()": "22f3e2d4",
					"owner()": "8da5cb5b",
					"renounceOwnership()": "715018a6",
					"soldAmount()": "fa1a5f59",
					"startTime()": "78e97925",
					"token()": "fc0c546a",
					"tokenDecimal()": "5caed029",
					"tokenRate()": "31711884",
					"totalRaise()": "3996dc8f",
					"totalRewardTokens()": "1b0875a6",
					"transferOwnership(address)": "f2fde38b"
				}
			},
			"storageLayout": {
				"storage": [
					{
						"astId": 4,
						"contract": "IDO.sol:IDO",
						"label": "_owner",
						"offset": 0,
						"slot": "0",
						"type": "t_address"
					},
					{
						"astId": 216,
						"contract": "IDO.sol:IDO",
						"label": "token",
						"offset": 0,
						"slot": "1",
						"type": "t_address"
					},
					{
						"astId": 218,
						"contract": "IDO.sol:IDO",
						"label": "tokenDecimal",
						"offset": 0,
						"slot": "2",
						"type": "t_uint256"
					},
					{
						"astId": 220,
						"contract": "IDO.sol:IDO",
						"label": "startTime",
						"offset": 0,
						"slot": "3",
						"type": "t_uint256"
					},
					{
						"astId": 222,
						"contract": "IDO.sol:IDO",
						"label": "endTime",
						"offset": 0,
						"slot": "4",
						"type": "t_uint256"
					},
					{
						"astId": 224,
						"contract": "IDO.sol:IDO",
						"label": "tokenRate",
						"offset": 0,
						"slot": "5",
						"type": "t_uint256"
					},
					{
						"astId": 226,
						"contract": "IDO.sol:IDO",
						"label": "soldAmount",
						"offset": 0,
						"slot": "6",
						"type": "t_uint256"
					},
					{
						"astId": 228,
						"contract": "IDO.sol:IDO",
						"label": "totalRaise",
						"offset": 0,
						"slot": "7",
						"type": "t_uint256"
					},
					{
						"astId": 230,
						"contract": "IDO.sol:IDO",
						"label": "totalRewardTokens",
						"offset": 0,
						"slot": "8",
						"type": "t_uint256"
					}
				],
				"types": {
					"t_address": {
						"encoding": "inplace",
						"label": "address",
						"numberOfBytes": "20"
					},
					"t_uint256": {
						"encoding": "inplace",
						"label": "uint256",
						"numberOfBytes": "32"
					}
				}
			},
			"userdoc": {
				"kind": "user",
				"methods": {},
				"version": 1
			}
		}
	}
}