{
	"IDO.sol": {
		"IDO": {
			"abi": [
				{
					"inputs": [
						{
							"internalType": "address",
							"name": "_token",
							"type": "address"
						},
						{
							"internalType": "uint256",
							"name": "_startTime",
							"type": "uint256"
						},
						{
							"internalType": "uint256",
							"name": "_endTime",
							"type": "uint256"
						},
						{
							"internalType": "uint256",
							"name": "_tokenRate",
							"type": "uint256"
						},
						{
							"internalType": "uint256",
							"name": "_totalRewardTokens",
							"type": "uint256"
						}
					],
					"stateMutability": "nonpayable",
					"type": "constructor"
				},
				{
					"anonymous": false,
					"inputs": [
						{
							"indexed": true,
							"internalType": "address",
							"name": "previousOwner",
							"type": "address"
						},
						{
							"indexed": true,
							"internalType": "address",
							"name": "newOwner",
							"type": "address"
						}
					],
					"name": "OwnershipTransferred",
					"type": "event"
				},
				{
					"inputs": [],
					"name": "buyTokens",
					"outputs": [],
					"stateMutability": "payable",
					"type": "function"
				},
				{
					"inputs": [
						{
							"internalType": "uint256",
							"name": "_acceptedAmount",
							"type": "uint256"
						}
					],
					"name": "calculateAmount",
					"outputs": [
						{
							"internalType": "uint256",
							"name": "",
							"type": "uint256"
						}
					],
					"stateMutability": "view",
					"type": "function"
				},
				{
					"inputs": [],
					"name": "endTime",
					"outputs": [
						{
							"internalType": "uint256",
							"name": "",
							"type": "uint256"
						}
					],
					"stateMutability": "view",
					"type": "function"
				},
				{
					"inputs": [],
					"name": "getRemainingReward",
					"outputs": [
						{
							"internalType": "uint256",
							"name": "",
							"type": "uint256"
						}
					],
					"stateMutability": "view",
					"type": "function"
				},
				{
					"inputs": [
						{
							"internalType": "uint256",
							"name": "_tokens",
							"type": "uint256"
						}
					],
					"name": "getTokenInETH",
					"outputs": [
						{
							"internalType": "uint256",
							"name": "",
							"type": "uint256"
						}
					],
					"stateMutability": "view",
					"type": "function"
				},
				{
					"inputs": [],
					"name": "isActive",
					"outputs": [
						{
							"internalType": "bool",
							"name": "",
							"type": "bool"
						}
					],
					"stateMutability": "view",
					"type": "function"
				},
				{
					"inputs": [],
					"name": "owner",
					"outputs": [
						{
							"internalType": "address",
							"name": "",
							"type": "address"
						}
					],
					"stateMutability": "view",
					"type": "function"
				},
				{
					"inputs": [],
					"name": "renounceOwnership",
					"outputs": [],
					"stateMutability": "nonpayable",
					"type": "function"
				},
				{
					"inputs": [],
					"name": "soldAmount",
					"outputs": [
						{
							"internalType": "uint256",
							"name": "",
							"type": "uint256"
						}
					],
					"stateMutability": "view",
					"type": "function"
				},
				{
					"inputs": [],
					"name": "startTime",
					"outputs": [
						{
							"internalType": "uint256",
							"name": "",
							"type": "uint256"
						}
					],
					"stateMutability": "view",
					"type": "function"
				},
				{
					"inputs": [],
					"name": "token",
					"outputs": [
						{
							"internalType": "address",
							"name": "",
							"type": "address"
						}
					],
					"stateMutability": "view",
					"type": "function"
				},
				{
					"inputs": [],
					"name": "tokenDecimal",
					"outputs": [
						{
							"internalType": "uint256",
							"name": "",
							"type": "uint256"
						}
					],
					"stateMutability": "view",
					"type": "function"
				},
				{
					"inputs": [],
					"name": "tokenRate",
					"outputs": [
						{
							"internalType": "uint256",
							"name": "",
							"type": "uint256"
						}
					],
					"stateMutability": "view",
					"type": "function"
				},
				{
					"inputs": [],
					"name": "totalRaise",
					"outputs": [
						{
							"internalType": "uint256",
							"name": "",
							"type": "uint256"
						}
					],
					"stateMutability": "view",
					"type": "function"
				},
				{
					"inputs": [],
					"name": "totalRewardTokens",
					"outputs": [
						{
							"internalType": "uint256",
							"name": "",
							"type": "uint256"
						}
					],
					"stateMutability": "view",
					"type": "function"
				},
				{
					"inputs": [
						{
							"internalType": "address",
							"name": "newOwner",
							"type": "address"
						}
					],
					"name": "transferOwnership",
					"outputs": [],
					"stateMutability": "nonpayable",
					"type": "function"
				},
				{
					"inputs": [],
					"name": "withdrawETHBalance",
					"outputs": [],
					"stateMutability": "nonpayable",
					"type": "function"
				},
				{
					"inputs": [],
					"name": "withdrawRemainingTokens",
					"outputs": [],
					"stateMutability": "nonpayable",
					"type": "function"
				}
			],
			"devdoc": {
				"kind": "dev",
				"methods": {
					"owner()": {
						"details": "Returns the address of the current owner."
					},
					"renounceOwnership()": {
						"details": "Leaves the contract without owner. It will not be possible to call `onlyOwner` functions anymore. Can only be called by the current owner. NOTE: Renouncing ownership will leave the contract without an owner, thereby removing any functionality that is only available to the owner."
					},
					"transferOwnership(address)": {
						"details": "Transfers ownership of the contract to a new account (`newOwner`). Can only be called by the current owner."
					}
				},
				"version": 1
			},
			"evm": {
				"assembly": "    /* \"IDO.sol\":5428:8652  contract IDO is Ownable {\r... */\n  mstore(0x40, 0x80)\n    /* \"IDO.sol\":6012:6524  constructor (address _token, uint256 _startTime, uint256 _endTime, uint256 _tokenRate, uint256 _totalRewardTokens){\r... */\n  callvalue\n  dup1\n  iszero\n  tag_1\n  jumpi\n  0x00\n  dup1\n  revert\ntag_1:\n  pop\n  mload(0x40)\n  sub(codesize, bytecodeSize)\n  dup1\n  bytecodeSize\n  dup4\n  codecopy\n  dup2\n  dup2\n  add\n  0x40\n  mstore\n  dup2\n  add\n  swap1\n  tag_2\n  swap2\n  swap1\n  tag_3\n  jump\t// in\ntag_2:\n    /* \"IDO.sol\":981:998  address msgSender */\n  0x00\n    /* \"IDO.sol\":1001:1013  _msgSender() */\n  tag_7\n    /* \"IDO.sol\":1001:1011  _msgSender */\n  shl(0x20, tag_8)\n    /* \"IDO.sol\":1001:1013  _msgSender() */\n  0x20\n  shr\n  jump\t// in\ntag_7:\n    /* \"IDO.sol\":981:1013  address msgSender = _msgSender() */\n  swap1\n  pop\n    /* \"IDO.sol\":1033:1042  msgSender */\n  dup1\n    /* \"IDO.sol\":1024:1030  _owner */\n  0x00\n  dup1\n    /* \"IDO.sol\":1024:1042  _owner = msgSender */\n  0x0100\n  exp\n  dup2\n  sload\n  dup2\n  0xffffffffffffffffffffffffffffffffffffffff\n  mul\n  not\n  and\n  swap1\n  dup4\n  0xffffffffffffffffffffffffffffffffffffffff\n  and\n  mul\n  or\n  swap1\n  sstore\n  pop\n    /* \"IDO.sol\":1091:1100  msgSender */\n  dup1\n    /* \"IDO.sol\":1058:1101  OwnershipTransferred(address(0), msgSender) */\n  0xffffffffffffffffffffffffffffffffffffffff\n  and\n    /* \"IDO.sol\":1087:1088  0 */\n  0x00\n    /* \"IDO.sol\":1058:1101  OwnershipTransferred(address(0), msgSender) */\n  0xffffffffffffffffffffffffffffffffffffffff\n  and\n  0x8be0079c531659141344cd1fd0a4f28419497f9722a3daafe3b4186f6b6457e0\n  mload(0x40)\n  mload(0x40)\n  dup1\n  swap2\n  sub\n  swap1\n  log3\n    /* \"IDO.sol\":955:1109  constructor () {\r... */\n  pop\n    /* \"IDO.sol\":6173:6174  0 */\n  0x00\n    /* \"IDO.sol\":6152:6158  _token */\n  dup6\n    /* \"IDO.sol\":6145:6168  IERC20(_token).decimals */\n  0xffffffffffffffffffffffffffffffffffffffff\n  and\n  0x313ce567\n    /* \"IDO.sol\":6145:6170  IERC20(_token).decimals() */\n  mload(0x40)\n  dup2\n  0xffffffff\n  and\n  0xe0\n  shl\n  dup2\n  mstore\n  0x04\n  add\n  0x20\n  mload(0x40)\n  dup1\n  dup4\n  sub\n  dup2\n  dup7\n  dup1\n  extcodesize\n  iszero\n  dup1\n  iszero\n  tag_10\n  jumpi\n  0x00\n  dup1\n  revert\ntag_10:\n  pop\n  gas\n  staticcall\n  iszero\n  dup1\n  iszero\n  tag_12\n  jumpi\n  returndatasize\n  0x00\n  dup1\n  returndatacopy\n  revert(0x00, returndatasize)\ntag_12:\n  pop\n  pop\n  pop\n  pop\n  mload(0x40)\n  returndatasize\n  not(0x1f)\n  0x1f\n  dup3\n  add\n  and\n  dup3\n  add\n  dup1\n  0x40\n  mstore\n  pop\n  dup2\n  add\n  swap1\n  tag_13\n  swap2\n  swap1\n  tag_14\n  jump\t// in\ntag_13:\n    /* \"IDO.sol\":6145:6174  IERC20(_token).decimals() > 0 */\n  0xff\n  and\n  gt\n    /* \"IDO.sol\":6137:6175  require(IERC20(_token).decimals() > 0) */\n  tag_15\n  jumpi\n  0x00\n  dup1\n  revert\ntag_15:\n    /* \"IDO.sol\":6207:6215  _endTime */\n  dup3\n    /* \"IDO.sol\":6194:6204  _startTime */\n  dup5\n    /* \"IDO.sol\":6194:6215  _startTime < _endTime */\n  lt\n    /* \"IDO.sol\":6186:6216  require(_startTime < _endTime) */\n  tag_16\n  jumpi\n  0x00\n  dup1\n  revert\ntag_16:\n    /* \"IDO.sol\":6248:6249  0 */\n  0x00\n    /* \"IDO.sol\":6235:6245  _tokenRate */\n  dup3\n    /* \"IDO.sol\":6235:6249  _tokenRate > 0 */\n  gt\n    /* \"IDO.sol\":6227:6250  require(_tokenRate > 0) */\n  tag_17\n  jumpi\n  0x00\n  dup1\n  revert\ntag_17:\n    /* \"IDO.sol\":6290:6291  0 */\n  0x00\n    /* \"IDO.sol\":6269:6287  _totalRewardTokens */\n  dup2\n    /* \"IDO.sol\":6269:6291  _totalRewardTokens > 0 */\n  gt\n    /* \"IDO.sol\":6261:6292  require(_totalRewardTokens > 0) */\n  tag_18\n  jumpi\n  0x00\n  dup1\n  revert\ntag_18:\n    /* \"IDO.sol\":6313:6319  _token */\n  dup5\n    /* \"IDO.sol\":6305:6310  token */\n  0x01\n  0x00\n    /* \"IDO.sol\":6305:6319  token = _token */\n  0x0100\n  exp\n  dup2\n  sload\n  dup2\n  0xffffffffffffffffffffffffffffffffffffffff\n  mul\n  not\n  and\n  swap1\n  dup4\n  0xffffffffffffffffffffffffffffffffffffffff\n  and\n  mul\n  or\n  swap1\n  sstore\n  pop\n    /* \"IDO.sol\":6352:6358  _token */\n  dup5\n    /* \"IDO.sol\":6345:6368  IERC20(_token).decimals */\n  0xffffffffffffffffffffffffffffffffffffffff\n  and\n  0x313ce567\n    /* \"IDO.sol\":6345:6370  IERC20(_token).decimals() */\n  mload(0x40)\n  dup2\n  0xffffffff\n  and\n  0xe0\n  shl\n  dup2\n  mstore\n  0x04\n  add\n  0x20\n  mload(0x40)\n  dup1\n  dup4\n  sub\n  dup2\n  dup7\n  dup1\n  extcodesize\n  iszero\n  dup1\n  iszero\n  tag_19\n  jumpi\n  0x00\n  dup1\n  revert\ntag_19:\n  pop\n  gas\n  staticcall\n  iszero\n  dup1\n  iszero\n  tag_21\n  jumpi\n  returndatasize\n  0x00\n  dup1\n  returndatacopy\n  revert(0x00, returndatasize)\ntag_21:\n  pop\n  pop\n  pop\n  pop\n  mload(0x40)\n  returndatasize\n  not(0x1f)\n  0x1f\n  dup3\n  add\n  and\n  dup3\n  add\n  dup1\n  0x40\n  mstore\n  pop\n  dup2\n  add\n  swap1\n  tag_22\n  swap2\n  swap1\n  tag_14\n  jump\t// in\ntag_22:\n    /* \"IDO.sol\":6330:6370  tokenDecimal = IERC20(_token).decimals() */\n  0xff\n  and\n    /* \"IDO.sol\":6330:6342  tokenDecimal */\n  0x02\n    /* \"IDO.sol\":6330:6370  tokenDecimal = IERC20(_token).decimals() */\n  dup2\n  swap1\n  sstore\n  pop\n    /* \"IDO.sol\":6395:6405  _startTime */\n  dup4\n    /* \"IDO.sol\":6383:6392  startTime */\n  0x03\n    /* \"IDO.sol\":6383:6405  startTime = _startTime */\n  dup2\n  swap1\n  sstore\n  pop\n    /* \"IDO.sol\":6426:6434  _endTime */\n  dup3\n    /* \"IDO.sol\":6416:6423  endTime */\n  0x04\n    /* \"IDO.sol\":6416:6434  endTime = _endTime */\n  dup2\n  swap1\n  sstore\n  pop\n    /* \"IDO.sol\":6457:6467  _tokenRate */\n  dup2\n    /* \"IDO.sol\":6445:6454  tokenRate */\n  0x05\n    /* \"IDO.sol\":6445:6467  tokenRate = _tokenRate */\n  dup2\n  swap1\n  sstore\n  pop\n    /* \"IDO.sol\":6498:6516  _totalRewardTokens */\n  dup1\n    /* \"IDO.sol\":6478:6495  totalRewardTokens */\n  0x08\n    /* \"IDO.sol\":6478:6516  totalRewardTokens = _totalRewardTokens */\n  dup2\n  swap1\n  sstore\n  pop\n    /* \"IDO.sol\":6012:6524  constructor (address _token, uint256 _startTime, uint256 _endTime, uint256 _tokenRate, uint256 _totalRewardTokens){\r... */\n  pop\n  pop\n  pop\n  pop\n  pop\n    /* \"IDO.sol\":5428:8652  contract IDO is Ownable {\r... */\n  jump(tag_23)\n    /* \"IDO.sol\":735:850  function _msgSender() internal view virtual returns (address payable) {\r... */\ntag_8:\n    /* \"IDO.sol\":788:803  address payable */\n  0x00\n    /* \"IDO.sol\":831:841  msg.sender */\n  caller\n    /* \"IDO.sol\":816:842  return payable(msg.sender) */\n  swap1\n  pop\n    /* \"IDO.sol\":735:850  function _msgSender() internal view virtual returns (address payable) {\r... */\n  swap1\n  jump\t// out\n    /* \"#utility.yul\":7:150   */\ntag_26:\n  0x00\n    /* \"#utility.yul\":95:101   */\n  dup2\n    /* \"#utility.yul\":89:102   */\n  mload\n    /* \"#utility.yul\":80:102   */\n  swap1\n  pop\n    /* \"#utility.yul\":111:144   */\n  tag_28\n    /* \"#utility.yul\":138:143   */\n  dup2\n    /* \"#utility.yul\":111:144   */\n  tag_29\n  jump\t// in\ntag_28:\n    /* \"#utility.yul\":70:150   */\n  swap3\n  swap2\n  pop\n  pop\n  jump\t// out\n    /* \"#utility.yul\":156:299   */\ntag_30:\n  0x00\n    /* \"#utility.yul\":244:250   */\n  dup2\n    /* \"#utility.yul\":238:251   */\n  mload\n    /* \"#utility.yul\":229:251   */\n  swap1\n  pop\n    /* \"#utility.yul\":260:293   */\n  tag_32\n    /* \"#utility.yul\":287:292   */\n  dup2\n    /* \"#utility.yul\":260:293   */\n  tag_33\n  jump\t// in\ntag_32:\n    /* \"#utility.yul\":219:299   */\n  swap3\n  swap2\n  pop\n  pop\n  jump\t// out\n    /* \"#utility.yul\":305:444   */\ntag_34:\n  0x00\n    /* \"#utility.yul\":391:397   */\n  dup2\n    /* \"#utility.yul\":385:398   */\n  mload\n    /* \"#utility.yul\":376:398   */\n  swap1\n  pop\n    /* \"#utility.yul\":407:438   */\n  tag_36\n    /* \"#utility.yul\":432:437   */\n  dup2\n    /* \"#utility.yul\":407:438   */\n  tag_37\n  jump\t// in\ntag_36:\n    /* \"#utility.yul\":366:444   */\n  swap3\n  swap2\n  pop\n  pop\n  jump\t// out\n    /* \"#utility.yul\":450:1360   */\ntag_3:\n  0x00\n  dup1\n  0x00\n  dup1\n  0x00\n    /* \"#utility.yul\":637:640   */\n  0xa0\n    /* \"#utility.yul\":625:634   */\n  dup7\n    /* \"#utility.yul\":616:623   */\n  dup9\n    /* \"#utility.yul\":612:635   */\n  sub\n    /* \"#utility.yul\":608:641   */\n  slt\n    /* \"#utility.yul\":605:607   */\n  iszero\n  tag_39\n  jumpi\n    /* \"#utility.yul\":654:655   */\n  0x00\n    /* \"#utility.yul\":651:652   */\n  dup1\n    /* \"#utility.yul\":644:656   */\n  revert\n    /* \"#utility.yul\":605:607   */\ntag_39:\n    /* \"#utility.yul\":697:698   */\n  0x00\n    /* \"#utility.yul\":722:786   */\n  tag_40\n    /* \"#utility.yul\":778:785   */\n  dup9\n    /* \"#utility.yul\":769:775   */\n  dup3\n    /* \"#utility.yul\":758:767   */\n  dup10\n    /* \"#utility.yul\":754:776   */\n  add\n    /* \"#utility.yul\":722:786   */\n  tag_26\n  jump\t// in\ntag_40:\n    /* \"#utility.yul\":712:786   */\n  swap6\n  pop\n    /* \"#utility.yul\":668:796   */\n  pop\n    /* \"#utility.yul\":835:837   */\n  0x20\n    /* \"#utility.yul\":861:925   */\n  tag_41\n    /* \"#utility.yul\":917:924   */\n  dup9\n    /* \"#utility.yul\":908:914   */\n  dup3\n    /* \"#utility.yul\":897:906   */\n  dup10\n    /* \"#utility.yul\":893:915   */\n  add\n    /* \"#utility.yul\":861:925   */\n  tag_30\n  jump\t// in\ntag_41:\n    /* \"#utility.yul\":851:925   */\n  swap5\n  pop\n    /* \"#utility.yul\":806:935   */\n  pop\n    /* \"#utility.yul\":974:976   */\n  0x40\n    /* \"#utility.yul\":1000:1064   */\n  tag_42\n    /* \"#utility.yul\":1056:1063   */\n  dup9\n    /* \"#utility.yul\":1047:1053   */\n  dup3\n    /* \"#utility.yul\":1036:1045   */\n  dup10\n    /* \"#utility.yul\":1032:1054   */\n  add\n    /* \"#utility.yul\":1000:1064   */\n  tag_30\n  jump\t// in\ntag_42:\n    /* \"#utility.yul\":990:1064   */\n  swap4\n  pop\n    /* \"#utility.yul\":945:1074   */\n  pop\n    /* \"#utility.yul\":1113:1115   */\n  0x60\n    /* \"#utility.yul\":1139:1203   */\n  tag_43\n    /* \"#utility.yul\":1195:1202   */\n  dup9\n    /* \"#utility.yul\":1186:1192   */\n  dup3\n    /* \"#utility.yul\":1175:1184   */\n  dup10\n    /* \"#utility.yul\":1171:1193   */\n  add\n    /* \"#utility.yul\":1139:1203   */\n  tag_30\n  jump\t// in\ntag_43:\n    /* \"#utility.yul\":1129:1203   */\n  swap3\n  pop\n    /* \"#utility.yul\":1084:1213   */\n  pop\n    /* \"#utility.yul\":1252:1255   */\n  0x80\n    /* \"#utility.yul\":1279:1343   */\n  tag_44\n    /* \"#utility.yul\":1335:1342   */\n  dup9\n    /* \"#utility.yul\":1326:1332   */\n  dup3\n    /* \"#utility.yul\":1315:1324   */\n  dup10\n    /* \"#utility.yul\":1311:1333   */\n  add\n    /* \"#utility.yul\":1279:1343   */\n  tag_30\n  jump\t// in\ntag_44:\n    /* \"#utility.yul\":1269:1343   */\n  swap2\n  pop\n    /* \"#utility.yul\":1223:1353   */\n  pop\n    /* \"#utility.yul\":595:1360   */\n  swap3\n  swap6\n  pop\n  swap3\n  swap6\n  swap1\n  swap4\n  pop\n  jump\t// out\n    /* \"#utility.yul\":1366:1646   */\ntag_14:\n  0x00\n    /* \"#utility.yul\":1483:1485   */\n  0x20\n    /* \"#utility.yul\":1471:1480   */\n  dup3\n    /* \"#utility.yul\":1462:1469   */\n  dup5\n    /* \"#utility.yul\":1458:1481   */\n  sub\n    /* \"#utility.yul\":1454:1486   */\n  slt\n    /* \"#utility.yul\":1451:1453   */\n  iszero\n  tag_46\n  jumpi\n    /* \"#utility.yul\":1499:1500   */\n  0x00\n    /* \"#utility.yul\":1496:1497   */\n  dup1\n    /* \"#utility.yul\":1489:1501   */\n  revert\n    /* \"#utility.yul\":1451:1453   */\ntag_46:\n    /* \"#utility.yul\":1542:1543   */\n  0x00\n    /* \"#utility.yul\":1567:1629   */\n  tag_47\n    /* \"#utility.yul\":1621:1628   */\n  dup5\n    /* \"#utility.yul\":1612:1618   */\n  dup3\n    /* \"#utility.yul\":1601:1610   */\n  dup6\n    /* \"#utility.yul\":1597:1619   */\n  add\n    /* \"#utility.yul\":1567:1629   */\n  tag_34\n  jump\t// in\ntag_47:\n    /* \"#utility.yul\":1557:1629   */\n  swap2\n  pop\n    /* \"#utility.yul\":1513:1639   */\n  pop\n    /* \"#utility.yul\":1441:1646   */\n  swap3\n  swap2\n  pop\n  pop\n  jump\t// out\n    /* \"#utility.yul\":1652:1748   */\ntag_48:\n  0x00\n    /* \"#utility.yul\":1718:1742   */\n  tag_50\n    /* \"#utility.yul\":1736:1741   */\n  dup3\n    /* \"#utility.yul\":1718:1742   */\n  tag_51\n  jump\t// in\ntag_50:\n    /* \"#utility.yul\":1707:1742   */\n  swap1\n  pop\n    /* \"#utility.yul\":1697:1748   */\n  swap2\n  swap1\n  pop\n  jump\t// out\n    /* \"#utility.yul\":1754:1880   */\ntag_51:\n  0x00\n    /* \"#utility.yul\":1831:1873   */\n  0xffffffffffffffffffffffffffffffffffffffff\n    /* \"#utility.yul\":1824:1829   */\n  dup3\n    /* \"#utility.yul\":1820:1874   */\n  and\n    /* \"#utility.yul\":1809:1874   */\n  swap1\n  pop\n    /* \"#utility.yul\":1799:1880   */\n  swap2\n  swap1\n  pop\n  jump\t// out\n    /* \"#utility.yul\":1886:1963   */\ntag_53:\n  0x00\n    /* \"#utility.yul\":1952:1957   */\n  dup2\n    /* \"#utility.yul\":1941:1957   */\n  swap1\n  pop\n    /* \"#utility.yul\":1931:1963   */\n  swap2\n  swap1\n  pop\n  jump\t// out\n    /* \"#utility.yul\":1969:2055   */\ntag_55:\n  0x00\n    /* \"#utility.yul\":2044:2048   */\n  0xff\n    /* \"#utility.yul\":2037:2042   */\n  dup3\n    /* \"#utility.yul\":2033:2049   */\n  and\n    /* \"#utility.yul\":2022:2049   */\n  swap1\n  pop\n    /* \"#utility.yul\":2012:2055   */\n  swap2\n  swap1\n  pop\n  jump\t// out\n    /* \"#utility.yul\":2061:2183   */\ntag_29:\n    /* \"#utility.yul\":2134:2158   */\n  tag_58\n    /* \"#utility.yul\":2152:2157   */\n  dup2\n    /* \"#utility.yul\":2134:2158   */\n  tag_48\n  jump\t// in\ntag_58:\n    /* \"#utility.yul\":2127:2132   */\n  dup2\n    /* \"#utility.yul\":2124:2159   */\n  eq\n    /* \"#utility.yul\":2114:2116   */\n  tag_59\n  jumpi\n    /* \"#utility.yul\":2173:2174   */\n  0x00\n    /* \"#utility.yul\":2170:2171   */\n  dup1\n    /* \"#utility.yul\":2163:2175   */\n  revert\n    /* \"#utility.yul\":2114:2116   */\ntag_59:\n    /* \"#utility.yul\":2104:2183   */\n  pop\n  jump\t// out\n    /* \"#utility.yul\":2189:2311   */\ntag_33:\n    /* \"#utility.yul\":2262:2286   */\n  tag_61\n    /* \"#utility.yul\":2280:2285   */\n  dup2\n    /* \"#utility.yul\":2262:2286   */\n  tag_53\n  jump\t// in\ntag_61:\n    /* \"#utility.yul\":2255:2260   */\n  dup2\n    /* \"#utility.yul\":2252:2287   */\n  eq\n    /* \"#utility.yul\":2242:2244   */\n  tag_62\n  jumpi\n    /* \"#utility.yul\":2301:2302   */\n  0x00\n    /* \"#utility.yul\":2298:2299   */\n  dup1\n    /* \"#utility.yul\":2291:2303   */\n  revert\n    /* \"#utility.yul\":2242:2244   */\ntag_62:\n    /* \"#utility.yul\":2232:2311   */\n  pop\n  jump\t// out\n    /* \"#utility.yul\":2317:2435   */\ntag_37:\n    /* \"#utility.yul\":2388:2410   */\n  tag_64\n    /* \"#utility.yul\":2404:2409   */\n  dup2\n    /* \"#utility.yul\":2388:2410   */\n  tag_55\n  jump\t// in\ntag_64:\n    /* \"#utility.yul\":2381:2386   */\n  dup2\n    /* \"#utility.yul\":2378:2411   */\n  eq\n    /* \"#utility.yul\":2368:2370   */\n  tag_65\n  jumpi\n    /* \"#utility.yul\":2425:2426   */\n  0x00\n    /* \"#utility.yul\":2422:2423   */\n  dup1\n    /* \"#utility.yul\":2415:2427   */\n  revert\n    /* \"#utility.yul\":2368:2370   */\ntag_65:\n    /* \"#utility.yul\":2358:2435   */\n  pop\n  jump\t// out\n    /* \"IDO.sol\":5428:8652  contract IDO is Ownable {\r... */\ntag_23:\n  dataSize(sub_0)\n  dup1\n  dataOffset(sub_0)\n  0x00\n  codecopy\n  0x00\n  return\nstop\n\nsub_0: assembly {\n        /* \"IDO.sol\":5428:8652  contract IDO is Ownable {\r... */\n      mstore(0x40, 0x80)\n      jumpi(tag_1, lt(calldatasize, 0x04))\n      shr(0xe0, calldataload(0x00))\n      dup1\n      0x8afbf669\n      gt\n      tag_20\n      jumpi\n      dup1\n      0xd0febe4c\n      gt\n      tag_21\n      jumpi\n      dup1\n      0xd0febe4c\n      eq\n      tag_15\n      jumpi\n      dup1\n      0xf2fde38b\n      eq\n      tag_16\n      jumpi\n      dup1\n      0xfa1a5f59\n      eq\n      tag_17\n      jumpi\n      dup1\n      0xfa300f75\n      eq\n      tag_18\n      jumpi\n      dup1\n      0xfc0c546a\n      eq\n      tag_19\n      jumpi\n      jump(tag_1)\n    tag_21:\n      dup1\n      0x8afbf669\n      eq\n      tag_11\n      jumpi\n      dup1\n      0x8da5cb5b\n      eq\n      tag_12\n      jumpi\n      dup1\n      0xb3b9bcdf\n      eq\n      tag_13\n      jumpi\n      dup1\n      0xc0b5fca0\n      eq\n      tag_14\n      jumpi\n      jump(tag_1)\n    tag_20:\n      dup1\n      0x3996dc8f\n      gt\n      tag_22\n      jumpi\n      dup1\n      0x3996dc8f\n      eq\n      tag_6\n      jumpi\n      dup1\n      0x48dc5893\n      eq\n      tag_7\n      jumpi\n      dup1\n      0x5caed029\n      eq\n      tag_8\n      jumpi\n      dup1\n      0x715018a6\n      eq\n      tag_9\n      jumpi\n      dup1\n      0x78e97925\n      eq\n      tag_10\n      jumpi\n      jump(tag_1)\n    tag_22:\n      dup1\n      0x1b0875a6\n      eq\n      tag_2\n      jumpi\n      dup1\n      0x22f3e2d4\n      eq\n      tag_3\n      jumpi\n      dup1\n      0x31711884\n      eq\n      tag_4\n      jumpi\n      dup1\n      0x3197cbb6\n      eq\n      tag_5\n      jumpi\n    tag_1:\n      0x00\n      dup1\n      revert\n        /* \"IDO.sol\":5928:5960  uint256 public totalRewardTokens */\n    tag_2:\n      callvalue\n      dup1\n      iszero\n      tag_23\n      jumpi\n      0x00\n      dup1\n      revert\n    tag_23:\n      pop\n      tag_24\n      tag_25\n      jump\t// in\n    tag_24:\n      mload(0x40)\n      tag_26\n      swap2\n      swap1\n      tag_27\n      jump\t// in\n    tag_26:\n      mload(0x40)\n      dup1\n      swap2\n      sub\n      swap1\n      return\n        /* \"IDO.sol\":6532:6662  function isActive() public view returns (bool){\r... */\n    tag_3:\n      callvalue\n      dup1\n      iszero\n      tag_28\n      jumpi\n      0x00\n      dup1\n      revert\n    tag_28:\n      pop\n      tag_29\n      tag_30\n      jump\t// in\n    tag_29:\n      mload(0x40)\n      tag_31\n      swap2\n      swap1\n      tag_32\n      jump\t// in\n    tag_31:\n      mload(0x40)\n      dup1\n      swap2\n      sub\n      swap1\n      return\n        /* \"IDO.sol\":5697:5721  uint256 public tokenRate */\n    tag_4:\n      callvalue\n      dup1\n      iszero\n      tag_33\n      jumpi\n      0x00\n      dup1\n      revert\n    tag_33:\n      pop\n      tag_34\n      tag_35\n      jump\t// in\n    tag_34:\n      mload(0x40)\n      tag_36\n      swap2\n      swap1\n      tag_27\n      jump\t// in\n    tag_36:\n      mload(0x40)\n      dup1\n      swap2\n      sub\n      swap1\n      return\n        /* \"IDO.sol\":5666:5688  uint256 public endTime */\n    tag_5:\n      callvalue\n      dup1\n      iszero\n      tag_37\n      jumpi\n      0x00\n      dup1\n      revert\n    tag_37:\n      pop\n      tag_38\n      tag_39\n      jump\t// in\n    tag_38:\n      mload(0x40)\n      tag_40\n      swap2\n      swap1\n      tag_27\n      jump\t// in\n    tag_40:\n      mload(0x40)\n      dup1\n      swap2\n      sub\n      swap1\n      return\n        /* \"IDO.sol\":5846:5871  uint256 public totalRaise */\n    tag_6:\n      callvalue\n      dup1\n      iszero\n      tag_41\n      jumpi\n      0x00\n      dup1\n      revert\n    tag_41:\n      pop\n      tag_42\n      tag_43\n      jump\t// in\n    tag_42:\n      mload(0x40)\n      tag_44\n      swap2\n      swap1\n      tag_27\n      jump\t// in\n    tag_44:\n      mload(0x40)\n      dup1\n      swap2\n      sub\n      swap1\n      return\n        /* \"IDO.sol\":6865:7071  function calculateAmount(uint256 _acceptedAmount) public view returns (uint256){\r... */\n    tag_7:\n      callvalue\n      dup1\n      iszero\n      tag_45\n      jumpi\n      0x00\n      dup1\n      revert\n    tag_45:\n      pop\n      tag_46\n      0x04\n      dup1\n      calldatasize\n      sub\n      dup2\n      add\n      swap1\n      tag_47\n      swap2\n      swap1\n      tag_48\n      jump\t// in\n    tag_47:\n      tag_49\n      jump\t// in\n    tag_46:\n      mload(0x40)\n      tag_50\n      swap2\n      swap1\n      tag_27\n      jump\t// in\n    tag_50:\n      mload(0x40)\n      dup1\n      swap2\n      sub\n      swap1\n      return\n        /* \"IDO.sol\":5516:5543  uint256 public tokenDecimal */\n    tag_8:\n      callvalue\n      dup1\n      iszero\n      tag_51\n      jumpi\n      0x00\n      dup1\n      revert\n    tag_51:\n      pop\n      tag_52\n      tag_53\n      jump\t// in\n    tag_52:\n      mload(0x40)\n      tag_54\n      swap2\n      swap1\n      tag_27\n      jump\t// in\n    tag_54:\n      mload(0x40)\n      dup1\n      swap2\n      sub\n      swap1\n      return\n        /* \"IDO.sol\":1831:1979  function renounceOwnership() public virtual onlyOwner {\r... */\n    tag_9:\n      callvalue\n      dup1\n      iszero\n      tag_55\n      jumpi\n      0x00\n      dup1\n      revert\n    tag_55:\n      pop\n      tag_56\n      tag_57\n      jump\t// in\n    tag_56:\n      stop\n        /* \"IDO.sol\":5581:5605  uint256 public startTime */\n    tag_10:\n      callvalue\n      dup1\n      iszero\n      tag_58\n      jumpi\n      0x00\n      dup1\n      revert\n    tag_58:\n      pop\n      tag_59\n      tag_60\n      jump\t// in\n    tag_59:\n      mload(0x40)\n      tag_61\n      swap2\n      swap1\n      tag_27\n      jump\t// in\n    tag_61:\n      mload(0x40)\n      dup1\n      swap2\n      sub\n      swap1\n      return\n        /* \"IDO.sol\":8410:8649  function withdrawRemainingTokens() external onlyOwner{\r... */\n    tag_11:\n      callvalue\n      dup1\n      iszero\n      tag_62\n      jumpi\n      0x00\n      dup1\n      revert\n    tag_62:\n      pop\n      tag_63\n      tag_64\n      jump\t// in\n    tag_63:\n      stop\n        /* \"IDO.sol\":1188:1275  function owner() public view virtual returns (address) {\r... */\n    tag_12:\n      callvalue\n      dup1\n      iszero\n      tag_65\n      jumpi\n      0x00\n      dup1\n      revert\n    tag_65:\n      pop\n      tag_66\n      tag_67\n      jump\t// in\n    tag_66:\n      mload(0x40)\n      tag_68\n      swap2\n      swap1\n      tag_69\n      jump\t// in\n    tag_68:\n      mload(0x40)\n      dup1\n      swap2\n      sub\n      swap1\n      return\n        /* \"IDO.sol\":8207:8401  function withdrawETHBalance() external onlyOwner{\r... */\n    tag_13:\n      callvalue\n      dup1\n      iszero\n      tag_70\n      jumpi\n      0x00\n      dup1\n      revert\n    tag_70:\n      pop\n      tag_71\n      tag_72\n      jump\t// in\n    tag_71:\n      stop\n        /* \"IDO.sol\":7080:7196  function getRemainingReward() public view returns(uint256){\r... */\n    tag_14:\n      callvalue\n      dup1\n      iszero\n      tag_73\n      jumpi\n      0x00\n      dup1\n      revert\n    tag_73:\n      pop\n      tag_74\n      tag_75\n      jump\t// in\n    tag_74:\n      mload(0x40)\n      tag_76\n      swap2\n      swap1\n      tag_27\n      jump\t// in\n    tag_76:\n      mload(0x40)\n      dup1\n      swap2\n      sub\n      swap1\n      return\n        /* \"IDO.sol\":7205:8198  function buyTokens() external payable{\r... */\n    tag_15:\n      tag_77\n      tag_78\n      jump\t// in\n    tag_77:\n      stop\n        /* \"IDO.sol\":2131:2375  function transferOwnership(address newOwner) public virtual onlyOwner {\r... */\n    tag_16:\n      callvalue\n      dup1\n      iszero\n      tag_79\n      jumpi\n      0x00\n      dup1\n      revert\n    tag_79:\n      pop\n      tag_80\n      0x04\n      dup1\n      calldatasize\n      sub\n      dup2\n      add\n      swap1\n      tag_81\n      swap2\n      swap1\n      tag_82\n      jump\t// in\n    tag_81:\n      tag_83\n      jump\t// in\n    tag_80:\n      stop\n        /* \"IDO.sol\":5771:5796  uint256 public soldAmount */\n    tag_17:\n      callvalue\n      dup1\n      iszero\n      tag_84\n      jumpi\n      0x00\n      dup1\n      revert\n    tag_84:\n      pop\n      tag_85\n      tag_86\n      jump\t// in\n    tag_85:\n      mload(0x40)\n      tag_87\n      swap2\n      swap1\n      tag_27\n      jump\t// in\n    tag_87:\n      mload(0x40)\n      dup1\n      swap2\n      sub\n      swap1\n      return\n        /* \"IDO.sol\":6670:6856  function getTokenInETH(uint256 _tokens) public view returns (uint256){\r... */\n    tag_18:\n      callvalue\n      dup1\n      iszero\n      tag_88\n      jumpi\n      0x00\n      dup1\n      revert\n    tag_88:\n      pop\n      tag_89\n      0x04\n      dup1\n      calldatasize\n      sub\n      dup2\n      add\n      swap1\n      tag_90\n      swap2\n      swap1\n      tag_48\n      jump\t// in\n    tag_90:\n      tag_91\n      jump\t// in\n    tag_89:\n      mload(0x40)\n      tag_92\n      swap2\n      swap1\n      tag_27\n      jump\t// in\n    tag_92:\n      mload(0x40)\n      dup1\n      swap2\n      sub\n      swap1\n      return\n        /* \"IDO.sol\":5459:5479  address public token */\n    tag_19:\n      callvalue\n      dup1\n      iszero\n      tag_93\n      jumpi\n      0x00\n      dup1\n      revert\n    tag_93:\n      pop\n      tag_94\n      tag_95\n      jump\t// in\n    tag_94:\n      mload(0x40)\n      tag_96\n      swap2\n      swap1\n      tag_69\n      jump\t// in\n    tag_96:\n      mload(0x40)\n      dup1\n      swap2\n      sub\n      swap1\n      return\n        /* \"IDO.sol\":5928:5960  uint256 public totalRewardTokens */\n    tag_25:\n      sload(0x08)\n      dup2\n      jump\t// out\n        /* \"IDO.sol\":6532:6662  function isActive() public view returns (bool){\r... */\n    tag_30:\n        /* \"IDO.sol\":6573:6577  bool */\n      0x00\n        /* \"IDO.sol\":6609:6624  block.timestamp */\n      timestamp\n        /* \"IDO.sol\":6596:6605  startTime */\n      sload(0x03)\n        /* \"IDO.sol\":6596:6624  startTime <= block.timestamp */\n      gt\n      iszero\n        /* \"IDO.sol\":6596:6654  startTime <= block.timestamp && block.timestamp <= endTime */\n      dup1\n      iszero\n      tag_98\n      jumpi\n      pop\n        /* \"IDO.sol\":6647:6654  endTime */\n      sload(0x04)\n        /* \"IDO.sol\":6628:6643  block.timestamp */\n      timestamp\n        /* \"IDO.sol\":6628:6654  block.timestamp <= endTime */\n      gt\n      iszero\n        /* \"IDO.sol\":6596:6654  startTime <= block.timestamp && block.timestamp <= endTime */\n    tag_98:\n        /* \"IDO.sol\":6589:6654  return startTime <= block.timestamp && block.timestamp <= endTime */\n      swap1\n      pop\n        /* \"IDO.sol\":6532:6662  function isActive() public view returns (bool){\r... */\n      swap1\n      jump\t// out\n        /* \"IDO.sol\":5697:5721  uint256 public tokenRate */\n    tag_35:\n      sload(0x05)\n      dup2\n      jump\t// out\n        /* \"IDO.sol\":5666:5688  uint256 public endTime */\n    tag_39:\n      sload(0x04)\n      dup2\n      jump\t// out\n        /* \"IDO.sol\":5846:5871  uint256 public totalRaise */\n    tag_43:\n      sload(0x07)\n      dup2\n      jump\t// out\n        /* \"IDO.sol\":6865:7071  function calculateAmount(uint256 _acceptedAmount) public view returns (uint256){\r... */\n    tag_49:\n        /* \"IDO.sol\":6936:6943  uint256 */\n      0x00\n        /* \"IDO.sol\":6956:6977  uint256 _tokenDecimal */\n      dup1\n        /* \"IDO.sol\":6986:6998  tokenDecimal */\n      sload(0x02)\n        /* \"IDO.sol\":6980:6982  10 */\n      0x0a\n        /* \"IDO.sol\":6980:6998  10 ** tokenDecimal */\n      tag_100\n      swap2\n      swap1\n      tag_101\n      jump\t// in\n    tag_100:\n        /* \"IDO.sol\":6956:6998  uint256 _tokenDecimal = 10 ** tokenDecimal */\n      swap1\n      pop\n        /* \"IDO.sol\":7053:7062  tokenRate */\n      sload(0x05)\n        /* \"IDO.sol\":7036:7049  _tokenDecimal */\n      dup2\n        /* \"IDO.sol\":7018:7033  _acceptedAmount */\n      dup5\n        /* \"IDO.sol\":7018:7049  _acceptedAmount * _tokenDecimal */\n      tag_102\n      swap2\n      swap1\n      tag_103\n      jump\t// in\n    tag_102:\n        /* \"IDO.sol\":7017:7062  (_acceptedAmount * _tokenDecimal) / tokenRate */\n      tag_104\n      swap2\n      swap1\n      tag_105\n      jump\t// in\n    tag_104:\n        /* \"IDO.sol\":7010:7062  return (_acceptedAmount * _tokenDecimal) / tokenRate */\n      swap2\n      pop\n      pop\n        /* \"IDO.sol\":6865:7071  function calculateAmount(uint256 _acceptedAmount) public view returns (uint256){\r... */\n      swap2\n      swap1\n      pop\n      jump\t// out\n        /* \"IDO.sol\":5516:5543  uint256 public tokenDecimal */\n    tag_53:\n      sload(0x02)\n      dup2\n      jump\t// out\n        /* \"IDO.sol\":1831:1979  function renounceOwnership() public virtual onlyOwner {\r... */\n    tag_57:\n        /* \"IDO.sol\":1417:1429  _msgSender() */\n      tag_107\n        /* \"IDO.sol\":1417:1427  _msgSender */\n      tag_108\n        /* \"IDO.sol\":1417:1429  _msgSender() */\n      jump\t// in\n    tag_107:\n        /* \"IDO.sol\":1406:1429  owner() == _msgSender() */\n      0xffffffffffffffffffffffffffffffffffffffff\n      and\n        /* \"IDO.sol\":1406:1413  owner() */\n      tag_109\n        /* \"IDO.sol\":1406:1411  owner */\n      tag_67\n        /* \"IDO.sol\":1406:1413  owner() */\n      jump\t// in\n    tag_109:\n        /* \"IDO.sol\":1406:1429  owner() == _msgSender() */\n      0xffffffffffffffffffffffffffffffffffffffff\n      and\n      eq\n        /* \"IDO.sol\":1398:1466  require(owner() == _msgSender(), \"Ownable: caller is not the owner\") */\n      tag_110\n      jumpi\n      mload(0x40)\n      0x08c379a000000000000000000000000000000000000000000000000000000000\n      dup2\n      mstore\n      0x04\n      add\n      tag_111\n      swap1\n      tag_112\n      jump\t// in\n    tag_111:\n      mload(0x40)\n      dup1\n      swap2\n      sub\n      swap1\n      revert\n    tag_110:\n        /* \"IDO.sol\":1938:1939  0 */\n      0x00\n        /* \"IDO.sol\":1901:1941  OwnershipTransferred(_owner, address(0)) */\n      0xffffffffffffffffffffffffffffffffffffffff\n      and\n        /* \"IDO.sol\":1922:1928  _owner */\n      0x00\n      dup1\n      sload\n      swap1\n      0x0100\n      exp\n      swap1\n      div\n      0xffffffffffffffffffffffffffffffffffffffff\n      and\n        /* \"IDO.sol\":1901:1941  OwnershipTransferred(_owner, address(0)) */\n      0xffffffffffffffffffffffffffffffffffffffff\n      and\n      0x8be0079c531659141344cd1fd0a4f28419497f9722a3daafe3b4186f6b6457e0\n      mload(0x40)\n      mload(0x40)\n      dup1\n      swap2\n      sub\n      swap1\n      log3\n        /* \"IDO.sol\":1969:1970  0 */\n      0x00\n        /* \"IDO.sol\":1952:1958  _owner */\n      dup1\n      0x00\n        /* \"IDO.sol\":1952:1971  _owner = address(0) */\n      0x0100\n      exp\n      dup2\n      sload\n      dup2\n      0xffffffffffffffffffffffffffffffffffffffff\n      mul\n      not\n      and\n      swap1\n      dup4\n      0xffffffffffffffffffffffffffffffffffffffff\n      and\n      mul\n      or\n      swap1\n      sstore\n      pop\n        /* \"IDO.sol\":1831:1979  function renounceOwnership() public virtual onlyOwner {\r... */\n      jump\t// out\n        /* \"IDO.sol\":5581:5605  uint256 public startTime */\n    tag_60:\n      sload(0x03)\n      dup2\n      jump\t// out\n        /* \"IDO.sol\":8410:8649  function withdrawRemainingTokens() external onlyOwner{\r... */\n    tag_64:\n        /* \"IDO.sol\":1417:1429  _msgSender() */\n      tag_115\n        /* \"IDO.sol\":1417:1427  _msgSender */\n      tag_108\n        /* \"IDO.sol\":1417:1429  _msgSender() */\n      jump\t// in\n    tag_115:\n        /* \"IDO.sol\":1406:1429  owner() == _msgSender() */\n      0xffffffffffffffffffffffffffffffffffffffff\n      and\n        /* \"IDO.sol\":1406:1413  owner() */\n      tag_116\n        /* \"IDO.sol\":1406:1411  owner */\n      tag_67\n        /* \"IDO.sol\":1406:1413  owner() */\n      jump\t// in\n    tag_116:\n        /* \"IDO.sol\":1406:1429  owner() == _msgSender() */\n      0xffffffffffffffffffffffffffffffffffffffff\n      and\n      eq\n        /* \"IDO.sol\":1398:1466  require(owner() == _msgSender(), \"Ownable: caller is not the owner\") */\n      tag_117\n      jumpi\n      mload(0x40)\n      0x08c379a000000000000000000000000000000000000000000000000000000000\n      dup2\n      mstore\n      0x04\n      add\n      tag_118\n      swap1\n      tag_112\n      jump\t// in\n    tag_118:\n      mload(0x40)\n      dup1\n      swap2\n      sub\n      swap1\n      revert\n    tag_117:\n        /* \"IDO.sol\":8483:8493  isActive() */\n      tag_120\n        /* \"IDO.sol\":8483:8491  isActive */\n      tag_30\n        /* \"IDO.sol\":8483:8493  isActive() */\n      jump\t// in\n    tag_120:\n        /* \"IDO.sol\":8482:8493  !isActive() */\n      iszero\n        /* \"IDO.sol\":8474:8520  require(!isActive(),\"Token sale still active\") */\n      tag_121\n      jumpi\n      mload(0x40)\n      0x08c379a000000000000000000000000000000000000000000000000000000000\n      dup2\n      mstore\n      0x04\n      add\n      tag_122\n      swap1\n      tag_123\n      jump\t// in\n    tag_122:\n      mload(0x40)\n      dup1\n      swap2\n      sub\n      swap1\n      revert\n    tag_121:\n        /* \"IDO.sol\":8541:8564  address payable _sender */\n      0x00\n        /* \"IDO.sol\":8567:8579  _msgSender() */\n      tag_124\n        /* \"IDO.sol\":8567:8577  _msgSender */\n      tag_108\n        /* \"IDO.sol\":8567:8579  _msgSender() */\n      jump\t// in\n    tag_124:\n        /* \"IDO.sol\":8541:8579  address payable _sender = _msgSender() */\n      swap1\n      pop\n        /* \"IDO.sol\":8590:8614  uint256 _remainingAmount */\n      0x00\n        /* \"IDO.sol\":8618:8638  getRemainingReward() */\n      tag_125\n        /* \"IDO.sol\":8618:8636  getRemainingReward */\n      tag_75\n        /* \"IDO.sol\":8618:8638  getRemainingReward() */\n      jump\t// in\n    tag_125:\n        /* \"IDO.sol\":8590:8638  uint256 _remainingAmount =  getRemainingReward() */\n      swap1\n      pop\n        /* \"IDO.sol\":1477:1478  _ */\n      pop\n      pop\n        /* \"IDO.sol\":8410:8649  function withdrawRemainingTokens() external onlyOwner{\r... */\n      jump\t// out\n        /* \"IDO.sol\":1188:1275  function owner() public view virtual returns (address) {\r... */\n    tag_67:\n        /* \"IDO.sol\":1234:1241  address */\n      0x00\n        /* \"IDO.sol\":1261:1267  _owner */\n      dup1\n      0x00\n      swap1\n      sload\n      swap1\n      0x0100\n      exp\n      swap1\n      div\n      0xffffffffffffffffffffffffffffffffffffffff\n      and\n        /* \"IDO.sol\":1254:1267  return _owner */\n      swap1\n      pop\n        /* \"IDO.sol\":1188:1275  function owner() public view virtual returns (address) {\r... */\n      swap1\n      jump\t// out\n        /* \"IDO.sol\":8207:8401  function withdrawETHBalance() external onlyOwner{\r... */\n    tag_72:\n        /* \"IDO.sol\":1417:1429  _msgSender() */\n      tag_128\n        /* \"IDO.sol\":1417:1427  _msgSender */\n      tag_108\n        /* \"IDO.sol\":1417:1429  _msgSender() */\n      jump\t// in\n    tag_128:\n        /* \"IDO.sol\":1406:1429  owner() == _msgSender() */\n      0xffffffffffffffffffffffffffffffffffffffff\n      and\n        /* \"IDO.sol\":1406:1413  owner() */\n      tag_129\n        /* \"IDO.sol\":1406:1411  owner */\n      tag_67\n        /* \"IDO.sol\":1406:1413  owner() */\n      jump\t// in\n    tag_129:\n        /* \"IDO.sol\":1406:1429  owner() == _msgSender() */\n      0xffffffffffffffffffffffffffffffffffffffff\n      and\n      eq\n        /* \"IDO.sol\":1398:1466  require(owner() == _msgSender(), \"Ownable: caller is not the owner\") */\n      tag_130\n      jumpi\n      mload(0x40)\n      0x08c379a000000000000000000000000000000000000000000000000000000000\n      dup2\n      mstore\n      0x04\n      add\n      tag_131\n      swap1\n      tag_112\n      jump\t// in\n    tag_131:\n      mload(0x40)\n      dup1\n      swap2\n      sub\n      swap1\n      revert\n    tag_130:\n        /* \"IDO.sol\":8266:8289  address payable _sender */\n      0x00\n        /* \"IDO.sol\":8292:8304  _msgSender() */\n      tag_133\n        /* \"IDO.sol\":8292:8302  _msgSender */\n      tag_108\n        /* \"IDO.sol\":8292:8304  _msgSender() */\n      jump\t// in\n    tag_133:\n        /* \"IDO.sol\":8266:8304  address payable _sender = _msgSender() */\n      swap1\n      pop\n        /* \"IDO.sol\":8315:8331  uint256 _balance */\n      0x00\n        /* \"IDO.sol\":8334:8355  address(this).balance */\n      selfbalance\n        /* \"IDO.sol\":8315:8355  uint256 _balance = address(this).balance */\n      swap1\n      pop\n        /* \"IDO.sol\":8366:8373  _sender */\n      dup2\n        /* \"IDO.sol\":8366:8382  _sender.transfer */\n      0xffffffffffffffffffffffffffffffffffffffff\n      and\n        /* \"IDO.sol\":8366:8392  _sender.transfer(_balance) */\n      0x08fc\n        /* \"IDO.sol\":8383:8391  _balance */\n      dup3\n        /* \"IDO.sol\":8366:8392  _sender.transfer(_balance) */\n      swap1\n      dup2\n      iszero\n      mul\n      swap1\n      mload(0x40)\n      0x00\n      mload(0x40)\n      dup1\n      dup4\n      sub\n      dup2\n      dup6\n      dup9\n      dup9\n      call\n      swap4\n      pop\n      pop\n      pop\n      pop\n      iszero\n      dup1\n      iszero\n      tag_135\n      jumpi\n      returndatasize\n      0x00\n      dup1\n      returndatacopy\n      revert(0x00, returndatasize)\n    tag_135:\n      pop\n        /* \"IDO.sol\":1477:1478  _ */\n      pop\n      pop\n        /* \"IDO.sol\":8207:8401  function withdrawETHBalance() external onlyOwner{\r... */\n      jump\t// out\n        /* \"IDO.sol\":7080:7196  function getRemainingReward() public view returns(uint256){\r... */\n    tag_75:\n        /* \"IDO.sol\":7130:7137  uint256 */\n      0x00\n        /* \"IDO.sol\":7177:7187  soldAmount */\n      sload(0x06)\n        /* \"IDO.sol\":7157:7174  totalRewardTokens */\n      sload(0x08)\n        /* \"IDO.sol\":7157:7187  totalRewardTokens - soldAmount */\n      tag_137\n      swap2\n      swap1\n      tag_138\n      jump\t// in\n    tag_137:\n        /* \"IDO.sol\":7150:7187  return totalRewardTokens - soldAmount */\n      swap1\n      pop\n        /* \"IDO.sol\":7080:7196  function getRemainingReward() public view returns(uint256){\r... */\n      swap1\n      jump\t// out\n        /* \"IDO.sol\":7205:8198  function buyTokens() external payable{\r... */\n    tag_78:\n        /* \"IDO.sol\":7254:7284  address payable _senderAddress */\n      0x00\n        /* \"IDO.sol\":7287:7299  _msgSender() */\n      tag_140\n        /* \"IDO.sol\":7287:7297  _msgSender */\n      tag_108\n        /* \"IDO.sol\":7287:7299  _msgSender() */\n      jump\t// in\n    tag_140:\n        /* \"IDO.sol\":7254:7299  address payable _senderAddress = _msgSender() */\n      swap1\n      pop\n        /* \"IDO.sol\":7311:7334  uint256 _acceptedAmount */\n      0x00\n        /* \"IDO.sol\":7337:7346  msg.value */\n      callvalue\n        /* \"IDO.sol\":7311:7346  uint256 _acceptedAmount = msg.value */\n      swap1\n      pop\n        /* \"IDO.sol\":7368:7378  isActive() */\n      tag_141\n        /* \"IDO.sol\":7368:7376  isActive */\n      tag_30\n        /* \"IDO.sol\":7368:7378  isActive() */\n      jump\t// in\n    tag_141:\n        /* \"IDO.sol\":7360:7401  require(isActive(), \"Sale is not active\") */\n      tag_142\n      jumpi\n      mload(0x40)\n      0x08c379a000000000000000000000000000000000000000000000000000000000\n      dup2\n      mstore\n      0x04\n      add\n      tag_143\n      swap1\n      tag_144\n      jump\t// in\n    tag_143:\n      mload(0x40)\n      dup1\n      swap2\n      sub\n      swap1\n      revert\n    tag_142:\n        /* \"IDO.sol\":7439:7440  0 */\n      0x00\n        /* \"IDO.sol\":7421:7436  _acceptedAmount */\n      dup2\n        /* \"IDO.sol\":7421:7440  _acceptedAmount > 0 */\n      gt\n        /* \"IDO.sol\":7413:7468  require(_acceptedAmount > 0, \"Accepted amount is zero\") */\n      tag_145\n      jumpi\n      mload(0x40)\n      0x08c379a000000000000000000000000000000000000000000000000000000000\n      dup2\n      mstore\n      0x04\n      add\n      tag_146\n      swap1\n      tag_147\n      jump\t// in\n    tag_146:\n      mload(0x40)\n      dup1\n      swap2\n      sub\n      swap1\n      revert\n    tag_145:\n        /* \"IDO.sol\":7482:7505  uint256 _rewardedAmount */\n      0x00\n        /* \"IDO.sol\":7508:7540  calculateAmount(_acceptedAmount) */\n      tag_148\n        /* \"IDO.sol\":7524:7539  _acceptedAmount */\n      dup3\n        /* \"IDO.sol\":7508:7523  calculateAmount */\n      tag_49\n        /* \"IDO.sol\":7508:7540  calculateAmount(_acceptedAmount) */\n      jump\t// in\n    tag_148:\n        /* \"IDO.sol\":7482:7540  uint256 _rewardedAmount = calculateAmount(_acceptedAmount) */\n      swap1\n      pop\n        /* \"IDO.sol\":7552:7573  uint256 _unsoldTokens */\n      0x00\n        /* \"IDO.sol\":7576:7596  getRemainingReward() */\n      tag_149\n        /* \"IDO.sol\":7576:7594  getRemainingReward */\n      tag_75\n        /* \"IDO.sol\":7576:7596  getRemainingReward() */\n      jump\t// in\n    tag_149:\n        /* \"IDO.sol\":7552:7596  uint256 _unsoldTokens = getRemainingReward() */\n      swap1\n      pop\n        /* \"IDO.sol\":7631:7644  _unsoldTokens */\n      dup1\n        /* \"IDO.sol\":7613:7628  _rewardedAmount */\n      dup3\n        /* \"IDO.sol\":7613:7644  _rewardedAmount > _unsoldTokens */\n      gt\n        /* \"IDO.sol\":7610:7935  if(_rewardedAmount > _unsoldTokens){\r... */\n      iszero\n      tag_150\n      jumpi\n        /* \"IDO.sol\":7678:7691  _unsoldTokens */\n      dup1\n        /* \"IDO.sol\":7660:7691  _rewardedAmount = _unsoldTokens */\n      swap2\n      pop\n        /* \"IDO.sol\":7708:7729  uint256 _excessAmount */\n      0x00\n        /* \"IDO.sol\":7751:7779  getTokenInETH(_unsoldTokens) */\n      tag_151\n        /* \"IDO.sol\":7765:7778  _unsoldTokens */\n      dup3\n        /* \"IDO.sol\":7751:7764  getTokenInETH */\n      tag_91\n        /* \"IDO.sol\":7751:7779  getTokenInETH(_unsoldTokens) */\n      jump\t// in\n    tag_151:\n        /* \"IDO.sol\":7733:7748  _acceptedAmount */\n      dup5\n        /* \"IDO.sol\":7733:7779  _acceptedAmount - getTokenInETH(_unsoldTokens) */\n      tag_152\n      swap2\n      swap1\n      tag_138\n      jump\t// in\n    tag_152:\n        /* \"IDO.sol\":7708:7779  uint256 _excessAmount =  _acceptedAmount - getTokenInETH(_unsoldTokens) */\n      swap1\n      pop\n        /* \"IDO.sol\":7794:7808  _senderAddress */\n      dup5\n        /* \"IDO.sol\":7794:7817  _senderAddress.transfer */\n      0xffffffffffffffffffffffffffffffffffffffff\n      and\n        /* \"IDO.sol\":7794:7832  _senderAddress.transfer(_excessAmount) */\n      0x08fc\n        /* \"IDO.sol\":7818:7831  _excessAmount */\n      dup3\n        /* \"IDO.sol\":7794:7832  _senderAddress.transfer(_excessAmount) */\n      swap1\n      dup2\n      iszero\n      mul\n      swap1\n      mload(0x40)\n      0x00\n      mload(0x40)\n      dup1\n      dup4\n      sub\n      dup2\n      dup6\n      dup9\n      dup9\n      call\n      swap4\n      pop\n      pop\n      pop\n      pop\n      iszero\n      dup1\n      iszero\n      tag_154\n      jumpi\n      returndatasize\n      0x00\n      dup1\n      returndatacopy\n      revert(0x00, returndatasize)\n    tag_154:\n      pop\n        /* \"IDO.sol\":7610:7935  if(_rewardedAmount > _unsoldTokens){\r... */\n      pop\n    tag_150:\n        /* \"IDO.sol\":7973:7974  0 */\n      0x00\n        /* \"IDO.sol\":7955:7970  _rewardedAmount */\n      dup3\n        /* \"IDO.sol\":7955:7974  _rewardedAmount > 0 */\n      gt\n        /* \"IDO.sol\":7947:7999  require(_rewardedAmount > 0, \"Zero rewarded amount\") */\n      tag_155\n      jumpi\n      mload(0x40)\n      0x08c379a000000000000000000000000000000000000000000000000000000000\n      dup2\n      mstore\n      0x04\n      add\n      tag_156\n      swap1\n      tag_157\n      jump\t// in\n    tag_156:\n      mload(0x40)\n      dup1\n      swap2\n      sub\n      swap1\n      revert\n    tag_155:\n        /* \"IDO.sol\":8019:8024  token */\n      0x01\n      0x00\n      swap1\n      sload\n      swap1\n      0x0100\n      exp\n      swap1\n      div\n      0xffffffffffffffffffffffffffffffffffffffff\n      and\n        /* \"IDO.sol\":8012:8034  IERC20(token).transfer */\n      0xffffffffffffffffffffffffffffffffffffffff\n      and\n      0xa9059cbb\n        /* \"IDO.sol\":8035:8049  _senderAddress */\n      dup6\n        /* \"IDO.sol\":8051:8066  _rewardedAmount */\n      dup5\n        /* \"IDO.sol\":8012:8067  IERC20(token).transfer(_senderAddress, _rewardedAmount) */\n      mload(0x40)\n      dup4\n      0xffffffff\n      and\n      0xe0\n      shl\n      dup2\n      mstore\n      0x04\n      add\n      tag_158\n      swap3\n      swap2\n      swap1\n      tag_159\n      jump\t// in\n    tag_158:\n      0x20\n      mload(0x40)\n      dup1\n      dup4\n      sub\n      dup2\n      0x00\n      dup8\n      dup1\n      extcodesize\n      iszero\n      dup1\n      iszero\n      tag_160\n      jumpi\n      0x00\n      dup1\n      revert\n    tag_160:\n      pop\n      gas\n      call\n      iszero\n      dup1\n      iszero\n      tag_162\n      jumpi\n      returndatasize\n      0x00\n      dup1\n      returndatacopy\n      revert(0x00, returndatasize)\n    tag_162:\n      pop\n      pop\n      pop\n      pop\n      mload(0x40)\n      returndatasize\n      not(0x1f)\n      0x1f\n      dup3\n      add\n      and\n      dup3\n      add\n      dup1\n      0x40\n      mstore\n      pop\n      dup2\n      add\n      swap1\n      tag_163\n      swap2\n      swap1\n      tag_164\n      jump\t// in\n    tag_163:\n      pop\n        /* \"IDO.sol\":8107:8122  _rewardedAmount */\n      dup2\n        /* \"IDO.sol\":8093:8103  soldAmount */\n      sload(0x06)\n        /* \"IDO.sol\":8093:8122  soldAmount +  _rewardedAmount */\n      tag_165\n      swap2\n      swap1\n      tag_166\n      jump\t// in\n    tag_165:\n        /* \"IDO.sol\":8080:8090  soldAmount */\n      0x06\n        /* \"IDO.sol\":8080:8122  soldAmount = soldAmount +  _rewardedAmount */\n      dup2\n      swap1\n      sstore\n      pop\n        /* \"IDO.sol\":8159:8189  getTokenInETH(_rewardedAmount) */\n      tag_167\n        /* \"IDO.sol\":8173:8188  _rewardedAmount */\n      dup3\n        /* \"IDO.sol\":8159:8172  getTokenInETH */\n      tag_91\n        /* \"IDO.sol\":8159:8189  getTokenInETH(_rewardedAmount) */\n      jump\t// in\n    tag_167:\n        /* \"IDO.sol\":8146:8156  totalRaise */\n      sload(0x07)\n        /* \"IDO.sol\":8146:8189  totalRaise + getTokenInETH(_rewardedAmount) */\n      tag_168\n      swap2\n      swap1\n      tag_166\n      jump\t// in\n    tag_168:\n        /* \"IDO.sol\":8133:8143  totalRaise */\n      0x07\n        /* \"IDO.sol\":8133:8189  totalRaise = totalRaise + getTokenInETH(_rewardedAmount) */\n      dup2\n      swap1\n      sstore\n      pop\n        /* \"IDO.sol\":7205:8198  function buyTokens() external payable{\r... */\n      pop\n      pop\n      pop\n      pop\n      jump\t// out\n        /* \"IDO.sol\":2131:2375  function transferOwnership(address newOwner) public virtual onlyOwner {\r... */\n    tag_83:\n        /* \"IDO.sol\":1417:1429  _msgSender() */\n      tag_170\n        /* \"IDO.sol\":1417:1427  _msgSender */\n      tag_108\n        /* \"IDO.sol\":1417:1429  _msgSender() */\n      jump\t// in\n    tag_170:\n        /* \"IDO.sol\":1406:1429  owner() == _msgSender() */\n      0xffffffffffffffffffffffffffffffffffffffff\n      and\n        /* \"IDO.sol\":1406:1413  owner() */\n      tag_171\n        /* \"IDO.sol\":1406:1411  owner */\n      tag_67\n        /* \"IDO.sol\":1406:1413  owner() */\n      jump\t// in\n    tag_171:\n        /* \"IDO.sol\":1406:1429  owner() == _msgSender() */\n      0xffffffffffffffffffffffffffffffffffffffff\n      and\n      eq\n        /* \"IDO.sol\":1398:1466  require(owner() == _msgSender(), \"Ownable: caller is not the owner\") */\n      tag_172\n      jumpi\n      mload(0x40)\n      0x08c379a000000000000000000000000000000000000000000000000000000000\n      dup2\n      mstore\n      0x04\n      add\n      tag_173\n      swap1\n      tag_112\n      jump\t// in\n    tag_173:\n      mload(0x40)\n      dup1\n      swap2\n      sub\n      swap1\n      revert\n    tag_172:\n        /* \"IDO.sol\":2240:2241  0 */\n      0x00\n        /* \"IDO.sol\":2220:2242  newOwner != address(0) */\n      0xffffffffffffffffffffffffffffffffffffffff\n      and\n        /* \"IDO.sol\":2220:2228  newOwner */\n      dup2\n        /* \"IDO.sol\":2220:2242  newOwner != address(0) */\n      0xffffffffffffffffffffffffffffffffffffffff\n      and\n      eq\n      iszero\n        /* \"IDO.sol\":2212:2285  require(newOwner != address(0), \"Ownable: new owner is the zero address\") */\n      tag_175\n      jumpi\n      mload(0x40)\n      0x08c379a000000000000000000000000000000000000000000000000000000000\n      dup2\n      mstore\n      0x04\n      add\n      tag_176\n      swap1\n      tag_177\n      jump\t// in\n    tag_176:\n      mload(0x40)\n      dup1\n      swap2\n      sub\n      swap1\n      revert\n    tag_175:\n        /* \"IDO.sol\":2330:2338  newOwner */\n      dup1\n        /* \"IDO.sol\":2301:2339  OwnershipTransferred(_owner, newOwner) */\n      0xffffffffffffffffffffffffffffffffffffffff\n      and\n        /* \"IDO.sol\":2322:2328  _owner */\n      0x00\n      dup1\n      sload\n      swap1\n      0x0100\n      exp\n      swap1\n      div\n      0xffffffffffffffffffffffffffffffffffffffff\n      and\n        /* \"IDO.sol\":2301:2339  OwnershipTransferred(_owner, newOwner) */\n      0xffffffffffffffffffffffffffffffffffffffff\n      and\n      0x8be0079c531659141344cd1fd0a4f28419497f9722a3daafe3b4186f6b6457e0\n      mload(0x40)\n      mload(0x40)\n      dup1\n      swap2\n      sub\n      swap1\n      log3\n        /* \"IDO.sol\":2359:2367  newOwner */\n      dup1\n        /* \"IDO.sol\":2350:2356  _owner */\n      0x00\n      dup1\n        /* \"IDO.sol\":2350:2367  _owner = newOwner */\n      0x0100\n      exp\n      dup2\n      sload\n      dup2\n      0xffffffffffffffffffffffffffffffffffffffff\n      mul\n      not\n      and\n      swap1\n      dup4\n      0xffffffffffffffffffffffffffffffffffffffff\n      and\n      mul\n      or\n      swap1\n      sstore\n      pop\n        /* \"IDO.sol\":2131:2375  function transferOwnership(address newOwner) public virtual onlyOwner {\r... */\n      pop\n      jump\t// out\n        /* \"IDO.sol\":5771:5796  uint256 public soldAmount */\n    tag_86:\n      sload(0x06)\n      dup2\n      jump\t// out\n        /* \"IDO.sol\":6670:6856  function getTokenInETH(uint256 _tokens) public view returns (uint256){\r... */\n    tag_91:\n        /* \"IDO.sol\":6731:6738  uint256 */\n      0x00\n        /* \"IDO.sol\":6750:6771  uint256 _tokenDecimal */\n      dup1\n        /* \"IDO.sol\":6780:6792  tokenDecimal */\n      sload(0x02)\n        /* \"IDO.sol\":6774:6776  10 */\n      0x0a\n        /* \"IDO.sol\":6774:6792  10 ** tokenDecimal */\n      tag_179\n      swap2\n      swap1\n      tag_101\n      jump\t// in\n    tag_179:\n        /* \"IDO.sol\":6750:6792  uint256 _tokenDecimal = 10 ** tokenDecimal */\n      swap1\n      pop\n        /* \"IDO.sol\":6834:6847  _tokenDecimal */\n      dup1\n        /* \"IDO.sol\":6821:6830  tokenRate */\n      sload(0x05)\n        /* \"IDO.sol\":6811:6818  _tokens */\n      dup5\n        /* \"IDO.sol\":6811:6830  _tokens * tokenRate */\n      tag_180\n      swap2\n      swap1\n      tag_103\n      jump\t// in\n    tag_180:\n        /* \"IDO.sol\":6810:6847  (_tokens * tokenRate) / _tokenDecimal */\n      tag_181\n      swap2\n      swap1\n      tag_105\n      jump\t// in\n    tag_181:\n        /* \"IDO.sol\":6803:6847  return (_tokens * tokenRate) / _tokenDecimal */\n      swap2\n      pop\n      pop\n        /* \"IDO.sol\":6670:6856  function getTokenInETH(uint256 _tokens) public view returns (uint256){\r... */\n      swap2\n      swap1\n      pop\n      jump\t// out\n        /* \"IDO.sol\":5459:5479  address public token */\n    tag_95:\n      0x01\n      0x00\n      swap1\n      sload\n      swap1\n      0x0100\n      exp\n      swap1\n      div\n      0xffffffffffffffffffffffffffffffffffffffff\n      and\n      dup2\n      jump\t// out\n        /* \"IDO.sol\":735:850  function _msgSender() internal view virtual returns (address payable) {\r... */\n    tag_108:\n        /* \"IDO.sol\":788:803  address payable */\n      0x00\n        /* \"IDO.sol\":831:841  msg.sender */\n      caller\n        /* \"IDO.sol\":816:842  return payable(msg.sender) */\n      swap1\n      pop\n        /* \"IDO.sol\":735:850  function _msgSender() internal view virtual returns (address payable) {\r... */\n      swap1\n      jump\t// out\n        /* \"#utility.yul\":7:146   */\n    tag_184:\n      0x00\n        /* \"#utility.yul\":91:97   */\n      dup2\n        /* \"#utility.yul\":78:98   */\n      calldataload\n        /* \"#utility.yul\":69:98   */\n      swap1\n      pop\n        /* \"#utility.yul\":107:140   */\n      tag_186\n        /* \"#utility.yul\":134:139   */\n      dup2\n        /* \"#utility.yul\":107:140   */\n      tag_187\n      jump\t// in\n    tag_186:\n        /* \"#utility.yul\":59:146   */\n      swap3\n      swap2\n      pop\n      pop\n      jump\t// out\n        /* \"#utility.yul\":152:289   */\n    tag_188:\n      0x00\n        /* \"#utility.yul\":237:243   */\n      dup2\n        /* \"#utility.yul\":231:244   */\n      mload\n        /* \"#utility.yul\":222:244   */\n      swap1\n      pop\n        /* \"#utility.yul\":253:283   */\n      tag_190\n        /* \"#utility.yul\":277:282   */\n      dup2\n        /* \"#utility.yul\":253:283   */\n      tag_191\n      jump\t// in\n    tag_190:\n        /* \"#utility.yul\":212:289   */\n      swap3\n      swap2\n      pop\n      pop\n      jump\t// out\n        /* \"#utility.yul\":295:434   */\n    tag_192:\n      0x00\n        /* \"#utility.yul\":379:385   */\n      dup2\n        /* \"#utility.yul\":366:386   */\n      calldataload\n        /* \"#utility.yul\":357:386   */\n      swap1\n      pop\n        /* \"#utility.yul\":395:428   */\n      tag_194\n        /* \"#utility.yul\":422:427   */\n      dup2\n        /* \"#utility.yul\":395:428   */\n      tag_195\n      jump\t// in\n    tag_194:\n        /* \"#utility.yul\":347:434   */\n      swap3\n      swap2\n      pop\n      pop\n      jump\t// out\n        /* \"#utility.yul\":440:702   */\n    tag_82:\n      0x00\n        /* \"#utility.yul\":548:550   */\n      0x20\n        /* \"#utility.yul\":536:545   */\n      dup3\n        /* \"#utility.yul\":527:534   */\n      dup5\n        /* \"#utility.yul\":523:546   */\n      sub\n        /* \"#utility.yul\":519:551   */\n      slt\n        /* \"#utility.yul\":516:518   */\n      iszero\n      tag_197\n      jumpi\n        /* \"#utility.yul\":564:565   */\n      0x00\n        /* \"#utility.yul\":561:562   */\n      dup1\n        /* \"#utility.yul\":554:566   */\n      revert\n        /* \"#utility.yul\":516:518   */\n    tag_197:\n        /* \"#utility.yul\":607:608   */\n      0x00\n        /* \"#utility.yul\":632:685   */\n      tag_198\n        /* \"#utility.yul\":677:684   */\n      dup5\n        /* \"#utility.yul\":668:674   */\n      dup3\n        /* \"#utility.yul\":657:666   */\n      dup6\n        /* \"#utility.yul\":653:675   */\n      add\n        /* \"#utility.yul\":632:685   */\n      tag_184\n      jump\t// in\n    tag_198:\n        /* \"#utility.yul\":622:685   */\n      swap2\n      pop\n        /* \"#utility.yul\":578:695   */\n      pop\n        /* \"#utility.yul\":506:702   */\n      swap3\n      swap2\n      pop\n      pop\n      jump\t// out\n        /* \"#utility.yul\":708:986   */\n    tag_164:\n      0x00\n        /* \"#utility.yul\":824:826   */\n      0x20\n        /* \"#utility.yul\":812:821   */\n      dup3\n        /* \"#utility.yul\":803:810   */\n      dup5\n        /* \"#utility.yul\":799:822   */\n      sub\n        /* \"#utility.yul\":795:827   */\n      slt\n        /* \"#utility.yul\":792:794   */\n      iszero\n      tag_200\n      jumpi\n        /* \"#utility.yul\":840:841   */\n      0x00\n        /* \"#utility.yul\":837:838   */\n      dup1\n        /* \"#utility.yul\":830:842   */\n      revert\n        /* \"#utility.yul\":792:794   */\n    tag_200:\n        /* \"#utility.yul\":883:884   */\n      0x00\n        /* \"#utility.yul\":908:969   */\n      tag_201\n        /* \"#utility.yul\":961:968   */\n      dup5\n        /* \"#utility.yul\":952:958   */\n      dup3\n        /* \"#utility.yul\":941:950   */\n      dup6\n        /* \"#utility.yul\":937:959   */\n      add\n        /* \"#utility.yul\":908:969   */\n      tag_188\n      jump\t// in\n    tag_201:\n        /* \"#utility.yul\":898:969   */\n      swap2\n      pop\n        /* \"#utility.yul\":854:979   */\n      pop\n        /* \"#utility.yul\":782:986   */\n      swap3\n      swap2\n      pop\n      pop\n      jump\t// out\n        /* \"#utility.yul\":992:1254   */\n    tag_48:\n      0x00\n        /* \"#utility.yul\":1100:1102   */\n      0x20\n        /* \"#utility.yul\":1088:1097   */\n      dup3\n        /* \"#utility.yul\":1079:1086   */\n      dup5\n        /* \"#utility.yul\":1075:1098   */\n      sub\n        /* \"#utility.yul\":1071:1103   */\n      slt\n        /* \"#utility.yul\":1068:1070   */\n      iszero\n      tag_203\n      jumpi\n        /* \"#utility.yul\":1116:1117   */\n      0x00\n        /* \"#utility.yul\":1113:1114   */\n      dup1\n        /* \"#utility.yul\":1106:1118   */\n      revert\n        /* \"#utility.yul\":1068:1070   */\n    tag_203:\n        /* \"#utility.yul\":1159:1160   */\n      0x00\n        /* \"#utility.yul\":1184:1237   */\n      tag_204\n        /* \"#utility.yul\":1229:1236   */\n      dup5\n        /* \"#utility.yul\":1220:1226   */\n      dup3\n        /* \"#utility.yul\":1209:1218   */\n      dup6\n        /* \"#utility.yul\":1205:1227   */\n      add\n        /* \"#utility.yul\":1184:1237   */\n      tag_192\n      jump\t// in\n    tag_204:\n        /* \"#utility.yul\":1174:1237   */\n      swap2\n      pop\n        /* \"#utility.yul\":1130:1247   */\n      pop\n        /* \"#utility.yul\":1058:1254   */\n      swap3\n      swap2\n      pop\n      pop\n      jump\t// out\n        /* \"#utility.yul\":1260:1407   */\n    tag_205:\n        /* \"#utility.yul\":1355:1400   */\n      tag_207\n        /* \"#utility.yul\":1394:1399   */\n      dup2\n        /* \"#utility.yul\":1355:1400   */\n      tag_208\n      jump\t// in\n    tag_207:\n        /* \"#utility.yul\":1350:1353   */\n      dup3\n        /* \"#utility.yul\":1343:1401   */\n      mstore\n        /* \"#utility.yul\":1333:1407   */\n      pop\n      pop\n      jump\t// out\n        /* \"#utility.yul\":1413:1531   */\n    tag_209:\n        /* \"#utility.yul\":1500:1524   */\n      tag_211\n        /* \"#utility.yul\":1518:1523   */\n      dup2\n        /* \"#utility.yul\":1500:1524   */\n      tag_212\n      jump\t// in\n    tag_211:\n        /* \"#utility.yul\":1495:1498   */\n      dup3\n        /* \"#utility.yul\":1488:1525   */\n      mstore\n        /* \"#utility.yul\":1478:1531   */\n      pop\n      pop\n      jump\t// out\n        /* \"#utility.yul\":1537:1646   */\n    tag_213:\n        /* \"#utility.yul\":1618:1639   */\n      tag_215\n        /* \"#utility.yul\":1633:1638   */\n      dup2\n        /* \"#utility.yul\":1618:1639   */\n      tag_216\n      jump\t// in\n    tag_215:\n        /* \"#utility.yul\":1613:1616   */\n      dup3\n        /* \"#utility.yul\":1606:1640   */\n      mstore\n        /* \"#utility.yul\":1596:1646   */\n      pop\n      pop\n      jump\t// out\n        /* \"#utility.yul\":1652:2022   */\n    tag_217:\n      0x00\n        /* \"#utility.yul\":1815:1882   */\n      tag_219\n        /* \"#utility.yul\":1879:1881   */\n      0x26\n        /* \"#utility.yul\":1874:1877   */\n      dup4\n        /* \"#utility.yul\":1815:1882   */\n      tag_220\n      jump\t// in\n    tag_219:\n        /* \"#utility.yul\":1808:1882   */\n      swap2\n      pop\n        /* \"#utility.yul\":1912:1946   */\n      0x4f776e61626c653a206e6577206f776e657220697320746865207a65726f2061\n        /* \"#utility.yul\":1908:1909   */\n      0x00\n        /* \"#utility.yul\":1903:1906   */\n      dup4\n        /* \"#utility.yul\":1899:1910   */\n      add\n        /* \"#utility.yul\":1892:1947   */\n      mstore\n        /* \"#utility.yul\":1978:1986   */\n      0x6464726573730000000000000000000000000000000000000000000000000000\n        /* \"#utility.yul\":1973:1975   */\n      0x20\n        /* \"#utility.yul\":1968:1971   */\n      dup4\n        /* \"#utility.yul\":1964:1976   */\n      add\n        /* \"#utility.yul\":1957:1987   */\n      mstore\n        /* \"#utility.yul\":2013:2015   */\n      0x40\n        /* \"#utility.yul\":2008:2011   */\n      dup3\n        /* \"#utility.yul\":2004:2016   */\n      add\n        /* \"#utility.yul\":1997:2016   */\n      swap1\n      pop\n        /* \"#utility.yul\":1798:2022   */\n      swap2\n      swap1\n      pop\n      jump\t// out\n        /* \"#utility.yul\":2028:2344   */\n    tag_221:\n      0x00\n        /* \"#utility.yul\":2191:2258   */\n      tag_223\n        /* \"#utility.yul\":2255:2257   */\n      0x12\n        /* \"#utility.yul\":2250:2253   */\n      dup4\n        /* \"#utility.yul\":2191:2258   */\n      tag_220\n      jump\t// in\n    tag_223:\n        /* \"#utility.yul\":2184:2258   */\n      swap2\n      pop\n        /* \"#utility.yul\":2288:2308   */\n      0x53616c65206973206e6f74206163746976650000000000000000000000000000\n        /* \"#utility.yul\":2284:2285   */\n      0x00\n        /* \"#utility.yul\":2279:2282   */\n      dup4\n        /* \"#utility.yul\":2275:2286   */\n      add\n        /* \"#utility.yul\":2268:2309   */\n      mstore\n        /* \"#utility.yul\":2335:2337   */\n      0x20\n        /* \"#utility.yul\":2330:2333   */\n      dup3\n        /* \"#utility.yul\":2326:2338   */\n      add\n        /* \"#utility.yul\":2319:2338   */\n      swap1\n      pop\n        /* \"#utility.yul\":2174:2344   */\n      swap2\n      swap1\n      pop\n      jump\t// out\n        /* \"#utility.yul\":2350:2671   */\n    tag_224:\n      0x00\n        /* \"#utility.yul\":2513:2580   */\n      tag_226\n        /* \"#utility.yul\":2577:2579   */\n      0x17\n        /* \"#utility.yul\":2572:2575   */\n      dup4\n        /* \"#utility.yul\":2513:2580   */\n      tag_220\n      jump\t// in\n    tag_226:\n        /* \"#utility.yul\":2506:2580   */\n      swap2\n      pop\n        /* \"#utility.yul\":2610:2635   */\n      0x546f6b656e2073616c65207374696c6c20616374697665000000000000000000\n        /* \"#utility.yul\":2606:2607   */\n      0x00\n        /* \"#utility.yul\":2601:2604   */\n      dup4\n        /* \"#utility.yul\":2597:2608   */\n      add\n        /* \"#utility.yul\":2590:2636   */\n      mstore\n        /* \"#utility.yul\":2662:2664   */\n      0x20\n        /* \"#utility.yul\":2657:2660   */\n      dup3\n        /* \"#utility.yul\":2653:2665   */\n      add\n        /* \"#utility.yul\":2646:2665   */\n      swap1\n      pop\n        /* \"#utility.yul\":2496:2671   */\n      swap2\n      swap1\n      pop\n      jump\t// out\n        /* \"#utility.yul\":2677:2998   */\n    tag_227:\n      0x00\n        /* \"#utility.yul\":2840:2907   */\n      tag_229\n        /* \"#utility.yul\":2904:2906   */\n      0x17\n        /* \"#utility.yul\":2899:2902   */\n      dup4\n        /* \"#utility.yul\":2840:2907   */\n      tag_220\n      jump\t// in\n    tag_229:\n        /* \"#utility.yul\":2833:2907   */\n      swap2\n      pop\n        /* \"#utility.yul\":2937:2962   */\n      0x416363657074656420616d6f756e74206973207a65726f000000000000000000\n        /* \"#utility.yul\":2933:2934   */\n      0x00\n        /* \"#utility.yul\":2928:2931   */\n      dup4\n        /* \"#utility.yul\":2924:2935   */\n      add\n        /* \"#utility.yul\":2917:2963   */\n      mstore\n        /* \"#utility.yul\":2989:2991   */\n      0x20\n        /* \"#utility.yul\":2984:2987   */\n      dup3\n        /* \"#utility.yul\":2980:2992   */\n      add\n        /* \"#utility.yul\":2973:2992   */\n      swap1\n      pop\n        /* \"#utility.yul\":2823:2998   */\n      swap2\n      swap1\n      pop\n      jump\t// out\n        /* \"#utility.yul\":3004:3334   */\n    tag_230:\n      0x00\n        /* \"#utility.yul\":3167:3234   */\n      tag_232\n        /* \"#utility.yul\":3231:3233   */\n      0x20\n        /* \"#utility.yul\":3226:3229   */\n      dup4\n        /* \"#utility.yul\":3167:3234   */\n      tag_220\n      jump\t// in\n    tag_232:\n        /* \"#utility.yul\":3160:3234   */\n      swap2\n      pop\n        /* \"#utility.yul\":3264:3298   */\n      0x4f776e61626c653a2063616c6c6572206973206e6f7420746865206f776e6572\n        /* \"#utility.yul\":3260:3261   */\n      0x00\n        /* \"#utility.yul\":3255:3258   */\n      dup4\n        /* \"#utility.yul\":3251:3262   */\n      add\n        /* \"#utility.yul\":3244:3299   */\n      mstore\n        /* \"#utility.yul\":3325:3327   */\n      0x20\n        /* \"#utility.yul\":3320:3323   */\n      dup3\n        /* \"#utility.yul\":3316:3328   */\n      add\n        /* \"#utility.yul\":3309:3328   */\n      swap1\n      pop\n        /* \"#utility.yul\":3150:3334   */\n      swap2\n      swap1\n      pop\n      jump\t// out\n        /* \"#utility.yul\":3340:3658   */\n    tag_233:\n      0x00\n        /* \"#utility.yul\":3503:3570   */\n      tag_235\n        /* \"#utility.yul\":3567:3569   */\n      0x14\n        /* \"#utility.yul\":3562:3565   */\n      dup4\n        /* \"#utility.yul\":3503:3570   */\n      tag_220\n      jump\t// in\n    tag_235:\n        /* \"#utility.yul\":3496:3570   */\n      swap2\n      pop\n        /* \"#utility.yul\":3600:3622   */\n      0x5a65726f20726577617264656420616d6f756e74000000000000000000000000\n        /* \"#utility.yul\":3596:3597   */\n      0x00\n        /* \"#utility.yul\":3591:3594   */\n      dup4\n        /* \"#utility.yul\":3587:3598   */\n      add\n        /* \"#utility.yul\":3580:3623   */\n      mstore\n        /* \"#utility.yul\":3649:3651   */\n      0x20\n        /* \"#utility.yul\":3644:3647   */\n      dup3\n        /* \"#utility.yul\":3640:3652   */\n      add\n        /* \"#utility.yul\":3633:3652   */\n      swap1\n      pop\n        /* \"#utility.yul\":3486:3658   */\n      swap2\n      swap1\n      pop\n      jump\t// out\n        /* \"#utility.yul\":3664:3782   */\n    tag_236:\n        /* \"#utility.yul\":3751:3775   */\n      tag_238\n        /* \"#utility.yul\":3769:3774   */\n      dup2\n        /* \"#utility.yul\":3751:3775   */\n      tag_239\n      jump\t// in\n    tag_238:\n        /* \"#utility.yul\":3746:3749   */\n      dup3\n        /* \"#utility.yul\":3739:3776   */\n      mstore\n        /* \"#utility.yul\":3729:3782   */\n      pop\n      pop\n      jump\t// out\n        /* \"#utility.yul\":3788:4010   */\n    tag_69:\n      0x00\n        /* \"#utility.yul\":3919:3921   */\n      0x20\n        /* \"#utility.yul\":3908:3917   */\n      dup3\n        /* \"#utility.yul\":3904:3922   */\n      add\n        /* \"#utility.yul\":3896:3922   */\n      swap1\n      pop\n        /* \"#utility.yul\":3932:4003   */\n      tag_241\n        /* \"#utility.yul\":4000:4001   */\n      0x00\n        /* \"#utility.yul\":3989:3998   */\n      dup4\n        /* \"#utility.yul\":3985:4002   */\n      add\n        /* \"#utility.yul\":3976:3982   */\n      dup5\n        /* \"#utility.yul\":3932:4003   */\n      tag_209\n      jump\t// in\n    tag_241:\n        /* \"#utility.yul\":3886:4010   */\n      swap3\n      swap2\n      pop\n      pop\n      jump\t// out\n        /* \"#utility.yul\":4016:4364   */\n    tag_159:\n      0x00\n        /* \"#utility.yul\":4183:4185   */\n      0x40\n        /* \"#utility.yul\":4172:4181   */\n      dup3\n        /* \"#utility.yul\":4168:4186   */\n      add\n        /* \"#utility.yul\":4160:4186   */\n      swap1\n      pop\n        /* \"#utility.yul\":4196:4275   */\n      tag_243\n        /* \"#utility.yul\":4272:4273   */\n      0x00\n        /* \"#utility.yul\":4261:4270   */\n      dup4\n        /* \"#utility.yul\":4257:4274   */\n      add\n        /* \"#utility.yul\":4248:4254   */\n      dup6\n        /* \"#utility.yul\":4196:4275   */\n      tag_205\n      jump\t// in\n    tag_243:\n        /* \"#utility.yul\":4285:4357   */\n      tag_244\n        /* \"#utility.yul\":4353:4355   */\n      0x20\n        /* \"#utility.yul\":4342:4351   */\n      dup4\n        /* \"#utility.yul\":4338:4356   */\n      add\n        /* \"#utility.yul\":4329:4335   */\n      dup5\n        /* \"#utility.yul\":4285:4357   */\n      tag_236\n      jump\t// in\n    tag_244:\n        /* \"#utility.yul\":4150:4364   */\n      swap4\n      swap3\n      pop\n      pop\n      pop\n      jump\t// out\n        /* \"#utility.yul\":4370:4580   */\n    tag_32:\n      0x00\n        /* \"#utility.yul\":4495:4497   */\n      0x20\n        /* \"#utility.yul\":4484:4493   */\n      dup3\n        /* \"#utility.yul\":4480:4498   */\n      add\n        /* \"#utility.yul\":4472:4498   */\n      swap1\n      pop\n        /* \"#utility.yul\":4508:4573   */\n      tag_246\n        /* \"#utility.yul\":4570:4571   */\n      0x00\n        /* \"#utility.yul\":4559:4568   */\n      dup4\n        /* \"#utility.yul\":4555:4572   */\n      add\n        /* \"#utility.yul\":4546:4552   */\n      dup5\n        /* \"#utility.yul\":4508:4573   */\n      tag_213\n      jump\t// in\n    tag_246:\n        /* \"#utility.yul\":4462:4580   */\n      swap3\n      swap2\n      pop\n      pop\n      jump\t// out\n        /* \"#utility.yul\":4586:5005   */\n    tag_177:\n      0x00\n        /* \"#utility.yul\":4790:4792   */\n      0x20\n        /* \"#utility.yul\":4779:4788   */\n      dup3\n        /* \"#utility.yul\":4775:4793   */\n      add\n        /* \"#utility.yul\":4767:4793   */\n      swap1\n      pop\n        /* \"#utility.yul\":4839:4848   */\n      dup2\n        /* \"#utility.yul\":4833:4837   */\n      dup2\n        /* \"#utility.yul\":4829:4849   */\n      sub\n        /* \"#utility.yul\":4825:4826   */\n      0x00\n        /* \"#utility.yul\":4814:4823   */\n      dup4\n        /* \"#utility.yul\":4810:4827   */\n      add\n        /* \"#utility.yul\":4803:4850   */\n      mstore\n        /* \"#utility.yul\":4867:4998   */\n      tag_248\n        /* \"#utility.yul\":4993:4997   */\n      dup2\n        /* \"#utility.yul\":4867:4998   */\n      tag_217\n      jump\t// in\n    tag_248:\n        /* \"#utility.yul\":4859:4998   */\n      swap1\n      pop\n        /* \"#utility.yul\":4757:5005   */\n      swap2\n      swap1\n      pop\n      jump\t// out\n        /* \"#utility.yul\":5011:5430   */\n    tag_144:\n      0x00\n        /* \"#utility.yul\":5215:5217   */\n      0x20\n        /* \"#utility.yul\":5204:5213   */\n      dup3\n        /* \"#utility.yul\":5200:5218   */\n      add\n        /* \"#utility.yul\":5192:5218   */\n      swap1\n      pop\n        /* \"#utility.yul\":5264:5273   */\n      dup2\n        /* \"#utility.yul\":5258:5262   */\n      dup2\n        /* \"#utility.yul\":5254:5274   */\n      sub\n        /* \"#utility.yul\":5250:5251   */\n      0x00\n        /* \"#utility.yul\":5239:5248   */\n      dup4\n        /* \"#utility.yul\":5235:5252   */\n      add\n        /* \"#utility.yul\":5228:5275   */\n      mstore\n        /* \"#utility.yul\":5292:5423   */\n      tag_250\n        /* \"#utility.yul\":5418:5422   */\n      dup2\n        /* \"#utility.yul\":5292:5423   */\n      tag_221\n      jump\t// in\n    tag_250:\n        /* \"#utility.yul\":5284:5423   */\n      swap1\n      pop\n        /* \"#utility.yul\":5182:5430   */\n      swap2\n      swap1\n      pop\n      jump\t// out\n        /* \"#utility.yul\":5436:5855   */\n    tag_123:\n      0x00\n        /* \"#utility.yul\":5640:5642   */\n      0x20\n        /* \"#utility.yul\":5629:5638   */\n      dup3\n        /* \"#utility.yul\":5625:5643   */\n      add\n        /* \"#utility.yul\":5617:5643   */\n      swap1\n      pop\n        /* \"#utility.yul\":5689:5698   */\n      dup2\n        /* \"#utility.yul\":5683:5687   */\n      dup2\n        /* \"#utility.yul\":5679:5699   */\n      sub\n        /* \"#utility.yul\":5675:5676   */\n      0x00\n        /* \"#utility.yul\":5664:5673   */\n      dup4\n        /* \"#utility.yul\":5660:5677   */\n      add\n        /* \"#utility.yul\":5653:5700   */\n      mstore\n        /* \"#utility.yul\":5717:5848   */\n      tag_252\n        /* \"#utility.yul\":5843:5847   */\n      dup2\n        /* \"#utility.yul\":5717:5848   */\n      tag_224\n      jump\t// in\n    tag_252:\n        /* \"#utility.yul\":5709:5848   */\n      swap1\n      pop\n        /* \"#utility.yul\":5607:5855   */\n      swap2\n      swap1\n      pop\n      jump\t// out\n        /* \"#utility.yul\":5861:6280   */\n    tag_147:\n      0x00\n        /* \"#utility.yul\":6065:6067   */\n      0x20\n        /* \"#utility.yul\":6054:6063   */\n      dup3\n        /* \"#utility.yul\":6050:6068   */\n      add\n        /* \"#utility.yul\":6042:6068   */\n      swap1\n      pop\n        /* \"#utility.yul\":6114:6123   */\n      dup2\n        /* \"#utility.yul\":6108:6112   */\n      dup2\n        /* \"#utility.yul\":6104:6124   */\n      sub\n        /* \"#utility.yul\":6100:6101   */\n      0x00\n        /* \"#utility.yul\":6089:6098   */\n      dup4\n        /* \"#utility.yul\":6085:6102   */\n      add\n        /* \"#utility.yul\":6078:6125   */\n      mstore\n        /* \"#utility.yul\":6142:6273   */\n      tag_254\n        /* \"#utility.yul\":6268:6272   */\n      dup2\n        /* \"#utility.yul\":6142:6273   */\n      tag_227\n      jump\t// in\n    tag_254:\n        /* \"#utility.yul\":6134:6273   */\n      swap1\n      pop\n        /* \"#utility.yul\":6032:6280   */\n      swap2\n      swap1\n      pop\n      jump\t// out\n        /* \"#utility.yul\":6286:6705   */\n    tag_112:\n      0x00\n        /* \"#utility.yul\":6490:6492   */\n      0x20\n        /* \"#utility.yul\":6479:6488   */\n      dup3\n        /* \"#utility.yul\":6475:6493   */\n      add\n        /* \"#utility.yul\":6467:6493   */\n      swap1\n      pop\n        /* \"#utility.yul\":6539:6548   */\n      dup2\n        /* \"#utility.yul\":6533:6537   */\n      dup2\n        /* \"#utility.yul\":6529:6549   */\n      sub\n        /* \"#utility.yul\":6525:6526   */\n      0x00\n        /* \"#utility.yul\":6514:6523   */\n      dup4\n        /* \"#utility.yul\":6510:6527   */\n      add\n        /* \"#utility.yul\":6503:6550   */\n      mstore\n        /* \"#utility.yul\":6567:6698   */\n      tag_256\n        /* \"#utility.yul\":6693:6697   */\n      dup2\n        /* \"#utility.yul\":6567:6698   */\n      tag_230\n      jump\t// in\n    tag_256:\n        /* \"#utility.yul\":6559:6698   */\n      swap1\n      pop\n        /* \"#utility.yul\":6457:6705   */\n      swap2\n      swap1\n      pop\n      jump\t// out\n        /* \"#utility.yul\":6711:7130   */\n    tag_157:\n      0x00\n        /* \"#utility.yul\":6915:6917   */\n      0x20\n        /* \"#utility.yul\":6904:6913   */\n      dup3\n        /* \"#utility.yul\":6900:6918   */\n      add\n        /* \"#utility.yul\":6892:6918   */\n      swap1\n      pop\n        /* \"#utility.yul\":6964:6973   */\n      dup2\n        /* \"#utility.yul\":6958:6962   */\n      dup2\n        /* \"#utility.yul\":6954:6974   */\n      sub\n        /* \"#utility.yul\":6950:6951   */\n      0x00\n        /* \"#utility.yul\":6939:6948   */\n      dup4\n        /* \"#utility.yul\":6935:6952   */\n      add\n        /* \"#utility.yul\":6928:6975   */\n      mstore\n        /* \"#utility.yul\":6992:7123   */\n      tag_258\n        /* \"#utility.yul\":7118:7122   */\n      dup2\n        /* \"#utility.yul\":6992:7123   */\n      tag_233\n      jump\t// in\n    tag_258:\n        /* \"#utility.yul\":6984:7123   */\n      swap1\n      pop\n        /* \"#utility.yul\":6882:7130   */\n      swap2\n      swap1\n      pop\n      jump\t// out\n        /* \"#utility.yul\":7136:7358   */\n    tag_27:\n      0x00\n        /* \"#utility.yul\":7267:7269   */\n      0x20\n        /* \"#utility.yul\":7256:7265   */\n      dup3\n        /* \"#utility.yul\":7252:7270   */\n      add\n        /* \"#utility.yul\":7244:7270   */\n      swap1\n      pop\n        /* \"#utility.yul\":7280:7351   */\n      tag_260\n        /* \"#utility.yul\":7348:7349   */\n      0x00\n        /* \"#utility.yul\":7337:7346   */\n      dup4\n        /* \"#utility.yul\":7333:7350   */\n      add\n        /* \"#utility.yul\":7324:7330   */\n      dup5\n        /* \"#utility.yul\":7280:7351   */\n      tag_236\n      jump\t// in\n    tag_260:\n        /* \"#utility.yul\":7234:7358   */\n      swap3\n      swap2\n      pop\n      pop\n      jump\t// out\n        /* \"#utility.yul\":7364:7533   */\n    tag_220:\n      0x00\n        /* \"#utility.yul\":7482:7488   */\n      dup3\n        /* \"#utility.yul\":7477:7480   */\n      dup3\n        /* \"#utility.yul\":7470:7489   */\n      mstore\n        /* \"#utility.yul\":7522:7526   */\n      0x20\n        /* \"#utility.yul\":7517:7520   */\n      dup3\n        /* \"#utility.yul\":7513:7527   */\n      add\n        /* \"#utility.yul\":7498:7527   */\n      swap1\n      pop\n        /* \"#utility.yul\":7460:7533   */\n      swap3\n      swap2\n      pop\n      pop\n      jump\t// out\n        /* \"#utility.yul\":7539:7844   */\n    tag_166:\n      0x00\n        /* \"#utility.yul\":7598:7618   */\n      tag_263\n        /* \"#utility.yul\":7616:7617   */\n      dup3\n        /* \"#utility.yul\":7598:7618   */\n      tag_239\n      jump\t// in\n    tag_263:\n        /* \"#utility.yul\":7593:7618   */\n      swap2\n      pop\n        /* \"#utility.yul\":7632:7652   */\n      tag_264\n        /* \"#utility.yul\":7650:7651   */\n      dup4\n        /* \"#utility.yul\":7632:7652   */\n      tag_239\n      jump\t// in\n    tag_264:\n        /* \"#utility.yul\":7627:7652   */\n      swap3\n      pop\n        /* \"#utility.yul\":7786:7787   */\n      dup3\n        /* \"#utility.yul\":7718:7784   */\n      0xffffffffffffffffffffffffffffffffffffffffffffffffffffffffffffffff\n        /* \"#utility.yul\":7714:7788   */\n      sub\n        /* \"#utility.yul\":7711:7712   */\n      dup3\n        /* \"#utility.yul\":7708:7789   */\n      gt\n        /* \"#utility.yul\":7705:7707   */\n      iszero\n      tag_265\n      jumpi\n        /* \"#utility.yul\":7792:7810   */\n      tag_266\n      tag_267\n      jump\t// in\n    tag_266:\n        /* \"#utility.yul\":7705:7707   */\n    tag_265:\n        /* \"#utility.yul\":7836:7837   */\n      dup3\n        /* \"#utility.yul\":7833:7834   */\n      dup3\n        /* \"#utility.yul\":7829:7838   */\n      add\n        /* \"#utility.yul\":7822:7838   */\n      swap1\n      pop\n        /* \"#utility.yul\":7583:7844   */\n      swap3\n      swap2\n      pop\n      pop\n      jump\t// out\n        /* \"#utility.yul\":7850:8035   */\n    tag_105:\n      0x00\n        /* \"#utility.yul\":7907:7927   */\n      tag_269\n        /* \"#utility.yul\":7925:7926   */\n      dup3\n        /* \"#utility.yul\":7907:7927   */\n      tag_239\n      jump\t// in\n    tag_269:\n        /* \"#utility.yul\":7902:7927   */\n      swap2\n      pop\n        /* \"#utility.yul\":7941:7961   */\n      tag_270\n        /* \"#utility.yul\":7959:7960   */\n      dup4\n        /* \"#utility.yul\":7941:7961   */\n      tag_239\n      jump\t// in\n    tag_270:\n        /* \"#utility.yul\":7936:7961   */\n      swap3\n      pop\n        /* \"#utility.yul\":7980:7981   */\n      dup3\n        /* \"#utility.yul\":7970:7972   */\n      tag_271\n      jumpi\n        /* \"#utility.yul\":7985:8003   */\n      tag_272\n      tag_273\n      jump\t// in\n    tag_272:\n        /* \"#utility.yul\":7970:7972   */\n    tag_271:\n        /* \"#utility.yul\":8027:8028   */\n      dup3\n        /* \"#utility.yul\":8024:8025   */\n      dup3\n        /* \"#utility.yul\":8020:8029   */\n      div\n        /* \"#utility.yul\":8015:8029   */\n      swap1\n      pop\n        /* \"#utility.yul\":7892:8035   */\n      swap3\n      swap2\n      pop\n      pop\n      jump\t// out\n        /* \"#utility.yul\":8041:8889   */\n    tag_274:\n      0x00\n      dup1\n        /* \"#utility.yul\":8133:8139   */\n      dup3\n        /* \"#utility.yul\":8124:8139   */\n      swap2\n      pop\n        /* \"#utility.yul\":8157:8162   */\n      dup4\n        /* \"#utility.yul\":8148:8162   */\n      swap1\n      pop\n        /* \"#utility.yul\":8171:8883   */\n    tag_276:\n        /* \"#utility.yul\":8192:8193   */\n      0x01\n        /* \"#utility.yul\":8182:8190   */\n      dup6\n        /* \"#utility.yul\":8179:8194   */\n      gt\n        /* \"#utility.yul\":8171:8883   */\n      iszero\n      tag_278\n      jumpi\n        /* \"#utility.yul\":8287:8291   */\n      dup1\n        /* \"#utility.yul\":8282:8285   */\n      dup7\n        /* \"#utility.yul\":8278:8292   */\n      div\n        /* \"#utility.yul\":8272:8276   */\n      dup2\n        /* \"#utility.yul\":8269:8293   */\n      gt\n        /* \"#utility.yul\":8266:8268   */\n      iszero\n      tag_279\n      jumpi\n        /* \"#utility.yul\":8296:8314   */\n      tag_280\n      tag_267\n      jump\t// in\n    tag_280:\n        /* \"#utility.yul\":8266:8268   */\n    tag_279:\n        /* \"#utility.yul\":8346:8347   */\n      0x01\n        /* \"#utility.yul\":8336:8344   */\n      dup6\n        /* \"#utility.yul\":8332:8348   */\n      and\n        /* \"#utility.yul\":8329:8331   */\n      iszero\n      tag_281\n      jumpi\n        /* \"#utility.yul\":8761:8765   */\n      dup1\n        /* \"#utility.yul\":8754:8759   */\n      dup3\n        /* \"#utility.yul\":8750:8766   */\n      mul\n        /* \"#utility.yul\":8741:8766   */\n      swap2\n      pop\n        /* \"#utility.yul\":8329:8331   */\n    tag_281:\n        /* \"#utility.yul\":8811:8815   */\n      dup1\n        /* \"#utility.yul\":8805:8809   */\n      dup2\n        /* \"#utility.yul\":8801:8816   */\n      mul\n        /* \"#utility.yul\":8793:8816   */\n      swap1\n      pop\n        /* \"#utility.yul\":8841:8873   */\n      tag_282\n        /* \"#utility.yul\":8864:8872   */\n      dup6\n        /* \"#utility.yul\":8841:8873   */\n      tag_283\n      jump\t// in\n    tag_282:\n        /* \"#utility.yul\":8829:8873   */\n      swap5\n      pop\n        /* \"#utility.yul\":8171:8883   */\n      jump(tag_276)\n    tag_278:\n        /* \"#utility.yul\":8114:8889   */\n      swap5\n      pop\n      swap5\n      swap3\n      pop\n      pop\n      pop\n      jump\t// out\n        /* \"#utility.yul\":8895:9180   */\n    tag_101:\n      0x00\n        /* \"#utility.yul\":8979:9002   */\n      tag_285\n        /* \"#utility.yul\":8997:9001   */\n      dup3\n        /* \"#utility.yul\":8979:9002   */\n      tag_239\n      jump\t// in\n    tag_285:\n        /* \"#utility.yul\":8971:9002   */\n      swap2\n      pop\n        /* \"#utility.yul\":9023:9050   */\n      tag_286\n        /* \"#utility.yul\":9041:9049   */\n      dup4\n        /* \"#utility.yul\":9023:9050   */\n      tag_239\n      jump\t// in\n    tag_286:\n        /* \"#utility.yul\":9011:9050   */\n      swap3\n      pop\n        /* \"#utility.yul\":9069:9173   */\n      tag_287\n        /* \"#utility.yul\":9106:9172   */\n      0xffffffffffffffffffffffffffffffffffffffffffffffffffffffffffffffff\n        /* \"#utility.yul\":9096:9104   */\n      dup5\n        /* \"#utility.yul\":9090:9094   */\n      dup5\n        /* \"#utility.yul\":9069:9173   */\n      tag_288\n      jump\t// in\n    tag_287:\n        /* \"#utility.yul\":9060:9173   */\n      swap1\n      pop\n        /* \"#utility.yul\":8961:9180   */\n      swap3\n      swap2\n      pop\n      pop\n      jump\t// out\n        /* \"#utility.yul\":9186:10259   */\n    tag_288:\n      0x00\n        /* \"#utility.yul\":9431:9439   */\n      dup3\n        /* \"#utility.yul\":9421:9423   */\n      tag_290\n      jumpi\n        /* \"#utility.yul\":9452:9453   */\n      0x01\n        /* \"#utility.yul\":9443:9453   */\n      swap1\n      pop\n        /* \"#utility.yul\":9454:9459   */\n      jump(tag_289)\n        /* \"#utility.yul\":9421:9423   */\n    tag_290:\n        /* \"#utility.yul\":9480:9484   */\n      dup2\n        /* \"#utility.yul\":9470:9472   */\n      tag_291\n      jumpi\n        /* \"#utility.yul\":9497:9498   */\n      0x00\n        /* \"#utility.yul\":9488:9498   */\n      swap1\n      pop\n        /* \"#utility.yul\":9499:9504   */\n      jump(tag_289)\n        /* \"#utility.yul\":9470:9472   */\n    tag_291:\n        /* \"#utility.yul\":9566:9570   */\n      dup2\n        /* \"#utility.yul\":9614:9615   */\n      0x01\n        /* \"#utility.yul\":9609:9636   */\n      dup2\n      eq\n      tag_293\n      jumpi\n        /* \"#utility.yul\":9650:9651   */\n      0x02\n        /* \"#utility.yul\":9645:9836   */\n      dup2\n      eq\n      tag_294\n      jumpi\n        /* \"#utility.yul\":9559:9836   */\n      jump(tag_292)\n        /* \"#utility.yul\":9609:9636   */\n    tag_293:\n        /* \"#utility.yul\":9627:9628   */\n      0x01\n        /* \"#utility.yul\":9618:9628   */\n      swap2\n      pop\n        /* \"#utility.yul\":9629:9634   */\n      pop\n      jump(tag_289)\n        /* \"#utility.yul\":9645:9836   */\n    tag_294:\n        /* \"#utility.yul\":9690:9693   */\n      0xff\n        /* \"#utility.yul\":9680:9688   */\n      dup5\n        /* \"#utility.yul\":9677:9694   */\n      gt\n        /* \"#utility.yul\":9674:9676   */\n      iszero\n      tag_295\n      jumpi\n        /* \"#utility.yul\":9697:9715   */\n      tag_296\n      tag_267\n      jump\t// in\n    tag_296:\n        /* \"#utility.yul\":9674:9676   */\n    tag_295:\n        /* \"#utility.yul\":9746:9754   */\n      dup4\n        /* \"#utility.yul\":9743:9744   */\n      0x02\n        /* \"#utility.yul\":9739:9755   */\n      exp\n        /* \"#utility.yul\":9730:9755   */\n      swap2\n      pop\n        /* \"#utility.yul\":9781:9784   */\n      dup5\n        /* \"#utility.yul\":9774:9779   */\n      dup3\n        /* \"#utility.yul\":9771:9785   */\n      gt\n        /* \"#utility.yul\":9768:9770   */\n      iszero\n      tag_297\n      jumpi\n        /* \"#utility.yul\":9788:9806   */\n      tag_298\n      tag_267\n      jump\t// in\n    tag_298:\n        /* \"#utility.yul\":9768:9770   */\n    tag_297:\n        /* \"#utility.yul\":9821:9826   */\n      pop\n      jump(tag_289)\n        /* \"#utility.yul\":9559:9836   */\n    tag_292:\n      pop\n        /* \"#utility.yul\":9945:9947   */\n      0x20\n        /* \"#utility.yul\":9935:9943   */\n      dup4\n        /* \"#utility.yul\":9932:9948   */\n      lt\n        /* \"#utility.yul\":9926:9929   */\n      0x0133\n        /* \"#utility.yul\":9920:9924   */\n      dup4\n        /* \"#utility.yul\":9917:9930   */\n      lt\n        /* \"#utility.yul\":9913:9949   */\n      and\n        /* \"#utility.yul\":9895:9897   */\n      0x4e\n        /* \"#utility.yul\":9885:9893   */\n      dup5\n        /* \"#utility.yul\":9882:9898   */\n      lt\n        /* \"#utility.yul\":9877:9879   */\n      0x0b\n        /* \"#utility.yul\":9871:9875   */\n      dup5\n        /* \"#utility.yul\":9868:9880   */\n      lt\n        /* \"#utility.yul\":9864:9899   */\n      and\n        /* \"#utility.yul\":9848:9959   */\n      or\n        /* \"#utility.yul\":9845:9847   */\n      iszero\n      tag_299\n      jumpi\n        /* \"#utility.yul\":10001:10009   */\n      dup3\n        /* \"#utility.yul\":9995:9999   */\n      dup3\n        /* \"#utility.yul\":9991:10010   */\n      exp\n        /* \"#utility.yul\":9982:10010   */\n      swap1\n      pop\n        /* \"#utility.yul\":10036:10039   */\n      dup4\n        /* \"#utility.yul\":10029:10034   */\n      dup2\n        /* \"#utility.yul\":10026:10040   */\n      gt\n        /* \"#utility.yul\":10023:10025   */\n      iszero\n      tag_300\n      jumpi\n        /* \"#utility.yul\":10043:10061   */\n      tag_301\n      tag_267\n      jump\t// in\n    tag_301:\n        /* \"#utility.yul\":10023:10025   */\n    tag_300:\n        /* \"#utility.yul\":10076:10081   */\n      jump(tag_289)\n        /* \"#utility.yul\":9845:9847   */\n    tag_299:\n        /* \"#utility.yul\":10116:10158   */\n      tag_302\n        /* \"#utility.yul\":10154:10157   */\n      dup5\n        /* \"#utility.yul\":10144:10152   */\n      dup5\n        /* \"#utility.yul\":10138:10142   */\n      dup5\n        /* \"#utility.yul\":10135:10136   */\n      0x01\n        /* \"#utility.yul\":10116:10158   */\n      tag_274\n      jump\t// in\n    tag_302:\n        /* \"#utility.yul\":10101:10158   */\n      swap3\n      pop\n      swap1\n      pop\n        /* \"#utility.yul\":10190:10194   */\n      dup2\n        /* \"#utility.yul\":10185:10188   */\n      dup5\n        /* \"#utility.yul\":10181:10195   */\n      div\n        /* \"#utility.yul\":10174:10179   */\n      dup2\n        /* \"#utility.yul\":10171:10196   */\n      gt\n        /* \"#utility.yul\":10168:10170   */\n      iszero\n      tag_303\n      jumpi\n        /* \"#utility.yul\":10199:10217   */\n      tag_304\n      tag_267\n      jump\t// in\n    tag_304:\n        /* \"#utility.yul\":10168:10170   */\n    tag_303:\n        /* \"#utility.yul\":10248:10252   */\n      dup2\n        /* \"#utility.yul\":10241:10246   */\n      dup2\n        /* \"#utility.yul\":10237:10253   */\n      mul\n        /* \"#utility.yul\":10228:10253   */\n      swap1\n      pop\n        /* \"#utility.yul\":9246:10259   */\n    tag_289:\n      swap4\n      swap3\n      pop\n      pop\n      pop\n      jump\t// out\n        /* \"#utility.yul\":10265:10613   */\n    tag_103:\n      0x00\n        /* \"#utility.yul\":10328:10348   */\n      tag_306\n        /* \"#utility.yul\":10346:10347   */\n      dup3\n        /* \"#utility.yul\":10328:10348   */\n      tag_239\n      jump\t// in\n    tag_306:\n        /* \"#utility.yul\":10323:10348   */\n      swap2\n      pop\n        /* \"#utility.yul\":10362:10382   */\n      tag_307\n        /* \"#utility.yul\":10380:10381   */\n      dup4\n        /* \"#utility.yul\":10362:10382   */\n      tag_239\n      jump\t// in\n    tag_307:\n        /* \"#utility.yul\":10357:10382   */\n      swap3\n      pop\n        /* \"#utility.yul\":10550:10551   */\n      dup2\n        /* \"#utility.yul\":10482:10548   */\n      0xffffffffffffffffffffffffffffffffffffffffffffffffffffffffffffffff\n        /* \"#utility.yul\":10478:10552   */\n      div\n        /* \"#utility.yul\":10475:10476   */\n      dup4\n        /* \"#utility.yul\":10472:10553   */\n      gt\n        /* \"#utility.yul\":10467:10468   */\n      dup3\n        /* \"#utility.yul\":10460:10469   */\n      iszero\n        /* \"#utility.yul\":10453:10470   */\n      iszero\n        /* \"#utility.yul\":10449:10554   */\n      and\n        /* \"#utility.yul\":10446:10448   */\n      iszero\n      tag_308\n      jumpi\n        /* \"#utility.yul\":10557:10575   */\n      tag_309\n      tag_267\n      jump\t// in\n    tag_309:\n        /* \"#utility.yul\":10446:10448   */\n    tag_308:\n        /* \"#utility.yul\":10605:10606   */\n      dup3\n        /* \"#utility.yul\":10602:10603   */\n      dup3\n        /* \"#utility.yul\":10598:10607   */\n      mul\n        /* \"#utility.yul\":10587:10607   */\n      swap1\n      pop\n        /* \"#utility.yul\":10313:10613   */\n      swap3\n      swap2\n      pop\n      pop\n      jump\t// out\n        /* \"#utility.yul\":10619:10810   */\n    tag_138:\n      0x00\n        /* \"#utility.yul\":10679:10699   */\n      tag_311\n        /* \"#utility.yul\":10697:10698   */\n      dup3\n        /* \"#utility.yul\":10679:10699   */\n      tag_239\n      jump\t// in\n    tag_311:\n        /* \"#utility.yul\":10674:10699   */\n      swap2\n      pop\n        /* \"#utility.yul\":10713:10733   */\n      tag_312\n        /* \"#utility.yul\":10731:10732   */\n      dup4\n        /* \"#utility.yul\":10713:10733   */\n      tag_239\n      jump\t// in\n    tag_312:\n        /* \"#utility.yul\":10708:10733   */\n      swap3\n      pop\n        /* \"#utility.yul\":10752:10753   */\n      dup3\n        /* \"#utility.yul\":10749:10750   */\n      dup3\n        /* \"#utility.yul\":10746:10754   */\n      lt\n        /* \"#utility.yul\":10743:10745   */\n      iszero\n      tag_313\n      jumpi\n        /* \"#utility.yul\":10757:10775   */\n      tag_314\n      tag_267\n      jump\t// in\n    tag_314:\n        /* \"#utility.yul\":10743:10745   */\n    tag_313:\n        /* \"#utility.yul\":10802:10803   */\n      dup3\n        /* \"#utility.yul\":10799:10800   */\n      dup3\n        /* \"#utility.yul\":10795:10804   */\n      sub\n        /* \"#utility.yul\":10787:10804   */\n      swap1\n      pop\n        /* \"#utility.yul\":10664:10810   */\n      swap3\n      swap2\n      pop\n      pop\n      jump\t// out\n        /* \"#utility.yul\":10816:10912   */\n    tag_212:\n      0x00\n        /* \"#utility.yul\":10882:10906   */\n      tag_316\n        /* \"#utility.yul\":10900:10905   */\n      dup3\n        /* \"#utility.yul\":10882:10906   */\n      tag_317\n      jump\t// in\n    tag_316:\n        /* \"#utility.yul\":10871:10906   */\n      swap1\n      pop\n        /* \"#utility.yul\":10861:10912   */\n      swap2\n      swap1\n      pop\n      jump\t// out\n        /* \"#utility.yul\":10918:11008   */\n    tag_216:\n      0x00\n        /* \"#utility.yul\":10995:11000   */\n      dup2\n        /* \"#utility.yul\":10988:11001   */\n      iszero\n        /* \"#utility.yul\":10981:11002   */\n      iszero\n        /* \"#utility.yul\":10970:11002   */\n      swap1\n      pop\n        /* \"#utility.yul\":10960:11008   */\n      swap2\n      swap1\n      pop\n      jump\t// out\n        /* \"#utility.yul\":11014:11140   */\n    tag_317:\n      0x00\n        /* \"#utility.yul\":11091:11133   */\n      0xffffffffffffffffffffffffffffffffffffffff\n        /* \"#utility.yul\":11084:11089   */\n      dup3\n        /* \"#utility.yul\":11080:11134   */\n      and\n        /* \"#utility.yul\":11069:11134   */\n      swap1\n      pop\n        /* \"#utility.yul\":11059:11140   */\n      swap2\n      swap1\n      pop\n      jump\t// out\n        /* \"#utility.yul\":11146:11223   */\n    tag_239:\n      0x00\n        /* \"#utility.yul\":11212:11217   */\n      dup2\n        /* \"#utility.yul\":11201:11217   */\n      swap1\n      pop\n        /* \"#utility.yul\":11191:11223   */\n      swap2\n      swap1\n      pop\n      jump\t// out\n        /* \"#utility.yul\":11229:11363   */\n    tag_208:\n      0x00\n        /* \"#utility.yul\":11320:11357   */\n      tag_322\n        /* \"#utility.yul\":11351:11356   */\n      dup3\n        /* \"#utility.yul\":11320:11357   */\n      tag_323\n      jump\t// in\n    tag_322:\n        /* \"#utility.yul\":11307:11357   */\n      swap1\n      pop\n        /* \"#utility.yul\":11297:11363   */\n      swap2\n      swap1\n      pop\n      jump\t// out\n        /* \"#utility.yul\":11369:11495   */\n    tag_323:\n      0x00\n        /* \"#utility.yul\":11452:11489   */\n      tag_325\n        /* \"#utility.yul\":11483:11488   */\n      dup3\n        /* \"#utility.yul\":11452:11489   */\n      tag_326\n      jump\t// in\n    tag_325:\n        /* \"#utility.yul\":11439:11489   */\n      swap1\n      pop\n        /* \"#utility.yul\":11429:11495   */\n      swap2\n      swap1\n      pop\n      jump\t// out\n        /* \"#utility.yul\":11501:11614   */\n    tag_326:\n      0x00\n        /* \"#utility.yul\":11584:11608   */\n      tag_328\n        /* \"#utility.yul\":11602:11607   */\n      dup3\n        /* \"#utility.yul\":11584:11608   */\n      tag_317\n      jump\t// in\n    tag_328:\n        /* \"#utility.yul\":11571:11608   */\n      swap1\n      pop\n        /* \"#utility.yul\":11561:11614   */\n      swap2\n      swap1\n      pop\n      jump\t// out\n        /* \"#utility.yul\":11620:11800   */\n    tag_267:\n        /* \"#utility.yul\":11668:11745   */\n      0x4e487b7100000000000000000000000000000000000000000000000000000000\n        /* \"#utility.yul\":11665:11666   */\n      0x00\n        /* \"#utility.yul\":11658:11746   */\n      mstore\n        /* \"#utility.yul\":11765:11769   */\n      0x11\n        /* \"#utility.yul\":11762:11763   */\n      0x04\n        /* \"#utility.yul\":11755:11770   */\n      mstore\n        /* \"#utility.yul\":11789:11793   */\n      0x24\n        /* \"#utility.yul\":11786:11787   */\n      0x00\n        /* \"#utility.yul\":11779:11794   */\n      revert\n        /* \"#utility.yul\":11806:11986   */\n    tag_273:\n        /* \"#utility.yul\":11854:11931   */\n      0x4e487b7100000000000000000000000000000000000000000000000000000000\n        /* \"#utility.yul\":11851:11852   */\n      0x00\n        /* \"#utility.yul\":11844:11932   */\n      mstore\n        /* \"#utility.yul\":11951:11955   */\n      0x12\n        /* \"#utility.yul\":11948:11949   */\n      0x04\n        /* \"#utility.yul\":11941:11956   */\n      mstore\n        /* \"#utility.yul\":11975:11979   */\n      0x24\n        /* \"#utility.yul\":11972:11973   */\n      0x00\n        /* \"#utility.yul\":11965:11980   */\n      revert\n        /* \"#utility.yul\":11992:12094   */\n    tag_283:\n      0x00\n        /* \"#utility.yul\":12081:12086   */\n      dup2\n        /* \"#utility.yul\":12078:12079   */\n      0x01\n        /* \"#utility.yul\":12074:12087   */\n      shr\n        /* \"#utility.yul\":12053:12087   */\n      swap1\n      pop\n        /* \"#utility.yul\":12043:12094   */\n      swap2\n      swap1\n      pop\n      jump\t// out\n        /* \"#utility.yul\":12100:12222   */\n    tag_187:\n        /* \"#utility.yul\":12173:12197   */\n      tag_333\n        /* \"#utility.yul\":12191:12196   */\n      dup2\n        /* \"#utility.yul\":12173:12197   */\n      tag_212\n      jump\t// in\n    tag_333:\n        /* \"#utility.yul\":12166:12171   */\n      dup2\n        /* \"#utility.yul\":12163:12198   */\n      eq\n        /* \"#utility.yul\":12153:12155   */\n      tag_334\n      jumpi\n        /* \"#utility.yul\":12212:12213   */\n      0x00\n        /* \"#utility.yul\":12209:12210   */\n      dup1\n        /* \"#utility.yul\":12202:12214   */\n      revert\n        /* \"#utility.yul\":12153:12155   */\n    tag_334:\n        /* \"#utility.yul\":12143:12222   */\n      pop\n      jump\t// out\n        /* \"#utility.yul\":12228:12344   */\n    tag_191:\n        /* \"#utility.yul\":12298:12319   */\n      tag_336\n        /* \"#utility.yul\":12313:12318   */\n      dup2\n        /* \"#utility.yul\":12298:12319   */\n      tag_216\n      jump\t// in\n    tag_336:\n        /* \"#utility.yul\":12291:12296   */\n      dup2\n        /* \"#utility.yul\":12288:12320   */\n      eq\n        /* \"#utility.yul\":12278:12280   */\n      tag_337\n      jumpi\n        /* \"#utility.yul\":12334:12335   */\n      0x00\n        /* \"#utility.yul\":12331:12332   */\n      dup1\n        /* \"#utility.yul\":12324:12336   */\n      revert\n        /* \"#utility.yul\":12278:12280   */\n    tag_337:\n        /* \"#utility.yul\":12268:12344   */\n      pop\n      jump\t// out\n        /* \"#utility.yul\":12350:12472   */\n    tag_195:\n        /* \"#utility.yul\":12423:12447   */\n      tag_339\n        /* \"#utility.yul\":12441:12446   */\n      dup2\n        /* \"#utility.yul\":12423:12447   */\n      tag_239\n      jump\t// in\n    tag_339:\n        /* \"#utility.yul\":12416:12421   */\n      dup2\n        /* \"#utility.yul\":12413:12448   */\n      eq\n        /* \"#utility.yul\":12403:12405   */\n      tag_340\n      jumpi\n        /* \"#utility.yul\":12462:12463   */\n      0x00\n        /* \"#utility.yul\":12459:12460   */\n      dup1\n        /* \"#utility.yul\":12452:12464   */\n      revert\n        /* \"#utility.yul\":12403:12405   */\n    tag_340:\n        /* \"#utility.yul\":12393:12472   */\n      pop\n      jump\t// out\n\n    auxdata: 0xa26469706673582212208d2d34450cab8c894af4adda108369963b42401c857849b50f0732a5e060eaaf64736f6c63430008000033\n}\n",
				"bytecode": {
					"linkReferences": {},
					"object": "60806040523480156200001157600080fd5b50604051620017e4380380620017e48339818101604052810190620000379190620002e2565b6000620000496200029560201b60201c565b9050806000806101000a81548173ffffffffffffffffffffffffffffffffffffffff021916908373ffffffffffffffffffffffffffffffffffffffff1602179055508073ffffffffffffffffffffffffffffffffffffffff16600073ffffffffffffffffffffffffffffffffffffffff167f8be0079c531659141344cd1fd0a4f28419497f9722a3daafe3b4186f6b6457e060405160405180910390a35060008573ffffffffffffffffffffffffffffffffffffffff1663313ce5676040518163ffffffff1660e01b815260040160206040518083038186803b1580156200013057600080fd5b505afa15801562000145573d6000803e3d6000fd5b505050506040513d601f19601f820116820180604052508101906200016b919062000364565b60ff16116200017957600080fd5b8284106200018657600080fd5b600082116200019457600080fd5b60008111620001a257600080fd5b84600160006101000a81548173ffffffffffffffffffffffffffffffffffffffff021916908373ffffffffffffffffffffffffffffffffffffffff1602179055508473ffffffffffffffffffffffffffffffffffffffff1663313ce5676040518163ffffffff1660e01b815260040160206040518083038186803b1580156200022a57600080fd5b505afa1580156200023f573d6000803e3d6000fd5b505050506040513d601f19601f8201168201806040525081019062000265919062000364565b60ff1660028190555083600381905550826004819055508160058190555080600881905550505050505062000429565b600033905090565b600081519050620002ae81620003db565b92915050565b600081519050620002c581620003f5565b92915050565b600081519050620002dc816200040f565b92915050565b600080600080600060a08688031215620002fb57600080fd5b60006200030b888289016200029d565b95505060206200031e88828901620002b4565b94505060406200033188828901620002b4565b93505060606200034488828901620002b4565b92505060806200035788828901620002b4565b9150509295509295909350565b6000602082840312156200037757600080fd5b60006200038784828501620002cb565b91505092915050565b60006200039d82620003a4565b9050919050565b600073ffffffffffffffffffffffffffffffffffffffff82169050919050565b6000819050919050565b600060ff82169050919050565b620003e68162000390565b8114620003f257600080fd5b50565b6200040081620003c4565b81146200040c57600080fd5b50565b6200041a81620003ce565b81146200042657600080fd5b50565b6113ab80620004396000396000f3fe6080604052600436106101095760003560e01c80638afbf66911610095578063d0febe4c11610064578063d0febe4c14610313578063f2fde38b1461031d578063fa1a5f5914610346578063fa300f7514610371578063fc0c546a146103ae57610109565b80638afbf6691461028f5780638da5cb5b146102a6578063b3b9bcdf146102d1578063c0b5fca0146102e857610109565b80633996dc8f116100dc5780633996dc8f146101ba57806348dc5893146101e55780635caed02914610222578063715018a61461024d57806378e979251461026457610109565b80631b0875a61461010e57806322f3e2d41461013957806331711884146101645780633197cbb61461018f575b600080fd5b34801561011a57600080fd5b506101236103d9565b6040516101309190610f95565b60405180910390f35b34801561014557600080fd5b5061014e6103df565b60405161015b9190610eba565b60405180910390f35b34801561017057600080fd5b506101796103fa565b6040516101869190610f95565b60405180910390f35b34801561019b57600080fd5b506101a4610400565b6040516101b19190610f95565b60405180910390f35b3480156101c657600080fd5b506101cf610406565b6040516101dc9190610f95565b60405180910390f35b3480156101f157600080fd5b5061020c60048036038101906102079190610c6b565b61040c565b6040516102199190610f95565b60405180910390f35b34801561022e57600080fd5b50610237610441565b6040516102449190610f95565b60405180910390f35b34801561025957600080fd5b50610262610447565b005b34801561027057600080fd5b50610279610581565b6040516102869190610f95565b60405180910390f35b34801561029b57600080fd5b506102a4610587565b005b3480156102b257600080fd5b506102bb610667565b6040516102c89190610e76565b60405180910390f35b3480156102dd57600080fd5b506102e6610690565b005b3480156102f457600080fd5b506102fd610768565b60405161030a9190610f95565b60405180910390f35b61031b61077f565b005b34801561032957600080fd5b50610344600480360381019061033f9190610c19565b6109c8565b005b34801561035257600080fd5b5061035b610b71565b6040516103689190610f95565b60405180910390f35b34801561037d57600080fd5b5061039860048036038101906103939190610c6b565b610b77565b6040516103a59190610f95565b60405180910390f35b3480156103ba57600080fd5b506103c3610bac565b6040516103d09190610e76565b60405180910390f35b60085481565b600042600354111580156103f557506004544211155b905090565b60055481565b60045481565b60075481565b600080600254600a61041e919061109b565b9050600554818461042f91906111b9565b6104399190611017565b915050919050565b60025481565b61044f610bd2565b73ffffffffffffffffffffffffffffffffffffffff1661046d610667565b73ffffffffffffffffffffffffffffffffffffffff16146104c3576040517f08c379a00000000000000000000000000000000000000000000000000000000081526004016104ba90610f55565b60405180910390fd5b600073ffffffffffffffffffffffffffffffffffffffff1660008054906101000a900473ffffffffffffffffffffffffffffffffffffffff1673ffffffffffffffffffffffffffffffffffffffff167f8be0079c531659141344cd1fd0a4f28419497f9722a3daafe3b4186f6b6457e060405160405180910390a360008060006101000a81548173ffffffffffffffffffffffffffffffffffffffff021916908373ffffffffffffffffffffffffffffffffffffffff160217905550565b60035481565b61058f610bd2565b73ffffffffffffffffffffffffffffffffffffffff166105ad610667565b73ffffffffffffffffffffffffffffffffffffffff1614610603576040517f08c379a00000000000000000000000000000000000000000000000000000000081526004016105fa90610f55565b60405180910390fd5b61060b6103df565b1561064b576040517f08c379a000000000000000000000000000000000000000000000000000000000815260040161064290610f15565b60405180910390fd5b6000610655610bd2565b90506000610661610768565b90505050565b60008060009054906101000a900473ffffffffffffffffffffffffffffffffffffffff16905090565b610698610bd2565b73ffffffffffffffffffffffffffffffffffffffff166106b6610667565b73ffffffffffffffffffffffffffffffffffffffff161461070c576040517f08c379a000000000000000000000000000000000000000000000000000000000815260040161070390610f55565b60405180910390fd5b6000610716610bd2565b905060004790508173ffffffffffffffffffffffffffffffffffffffff166108fc829081150290604051600060405180830381858888f19350505050158015610763573d6000803e3d6000fd5b505050565b600060065460085461077a9190611213565b905090565b6000610789610bd2565b905060003490506107986103df565b6107d7576040517f08c379a00000000000000000000000000000000000000000000000000000000081526004016107ce90610ef5565b60405180910390fd5b6000811161081a576040517f08c379a000000000000000000000000000000000000000000000000000000000815260040161081190610f35565b60405180910390fd5b60006108258261040c565b90506000610831610768565b90508082111561089f57809150600061084982610b77565b846108549190611213565b90508473ffffffffffffffffffffffffffffffffffffffff166108fc829081150290604051600060405180830381858888f1935050505015801561089c573d6000803e3d6000fd5b50505b600082116108e2576040517f08c379a00000000000000000000000000000000000000000000000000000000081526004016108d990610f75565b60405180910390fd5b600160009054906101000a900473ffffffffffffffffffffffffffffffffffffffff1673ffffffffffffffffffffffffffffffffffffffff1663a9059cbb85846040518363ffffffff1660e01b815260040161093f929190610e91565b602060405180830381600087803b15801561095957600080fd5b505af115801561096d573d6000803e3d6000fd5b505050506040513d601f19601f820116820180604052508101906109919190610c42565b50816006546109a09190610fc1565b6006819055506109af82610b77565b6007546109bc9190610fc1565b60078190555050505050565b6109d0610bd2565b73ffffffffffffffffffffffffffffffffffffffff166109ee610667565b73ffffffffffffffffffffffffffffffffffffffff1614610a44576040517f08c379a0000000000000000000000000000000000000000000000000000000008152600401610a3b90610f55565b60405180910390fd5b600073ffffffffffffffffffffffffffffffffffffffff168173ffffffffffffffffffffffffffffffffffffffff161415610ab4576040517f08c379a0000000000000000000000000000000000000000000000000000000008152600401610aab90610ed5565b60405180910390fd5b8073ffffffffffffffffffffffffffffffffffffffff1660008054906101000a900473ffffffffffffffffffffffffffffffffffffffff1673ffffffffffffffffffffffffffffffffffffffff167f8be0079c531659141344cd1fd0a4f28419497f9722a3daafe3b4186f6b6457e060405160405180910390a3806000806101000a81548173ffffffffffffffffffffffffffffffffffffffff021916908373ffffffffffffffffffffffffffffffffffffffff16021790555050565b60065481565b600080600254600a610b89919061109b565b90508060055484610b9a91906111b9565b610ba49190611017565b915050919050565b600160009054906101000a900473ffffffffffffffffffffffffffffffffffffffff1681565b600033905090565b600081359050610be981611330565b92915050565b600081519050610bfe81611347565b92915050565b600081359050610c138161135e565b92915050565b600060208284031215610c2b57600080fd5b6000610c3984828501610bda565b91505092915050565b600060208284031215610c5457600080fd5b6000610c6284828501610bef565b91505092915050565b600060208284031215610c7d57600080fd5b6000610c8b84828501610c04565b91505092915050565b610c9d8161128f565b82525050565b610cac81611247565b82525050565b610cbb81611259565b82525050565b6000610cce602683610fb0565b91507f4f776e61626c653a206e6577206f776e657220697320746865207a65726f206160008301527f64647265737300000000000000000000000000000000000000000000000000006020830152604082019050919050565b6000610d34601283610fb0565b91507f53616c65206973206e6f742061637469766500000000000000000000000000006000830152602082019050919050565b6000610d74601783610fb0565b91507f546f6b656e2073616c65207374696c6c206163746976650000000000000000006000830152602082019050919050565b6000610db4601783610fb0565b91507f416363657074656420616d6f756e74206973207a65726f0000000000000000006000830152602082019050919050565b6000610df4602083610fb0565b91507f4f776e61626c653a2063616c6c6572206973206e6f7420746865206f776e65726000830152602082019050919050565b6000610e34601483610fb0565b91507f5a65726f20726577617264656420616d6f756e740000000000000000000000006000830152602082019050919050565b610e7081611285565b82525050565b6000602082019050610e8b6000830184610ca3565b92915050565b6000604082019050610ea66000830185610c94565b610eb36020830184610e67565b9392505050565b6000602082019050610ecf6000830184610cb2565b92915050565b60006020820190508181036000830152610eee81610cc1565b9050919050565b60006020820190508181036000830152610f0e81610d27565b9050919050565b60006020820190508181036000830152610f2e81610d67565b9050919050565b60006020820190508181036000830152610f4e81610da7565b9050919050565b60006020820190508181036000830152610f6e81610de7565b9050919050565b60006020820190508181036000830152610f8e81610e27565b9050919050565b6000602082019050610faa6000830184610e67565b92915050565b600082825260208201905092915050565b6000610fcc82611285565b9150610fd783611285565b9250827fffffffffffffffffffffffffffffffffffffffffffffffffffffffffffffffff0382111561100c5761100b6112c5565b5b828201905092915050565b600061102282611285565b915061102d83611285565b92508261103d5761103c6112f4565b5b828204905092915050565b6000808291508390505b60018511156110925780860481111561106e5761106d6112c5565b5b600185161561107d5780820291505b808102905061108b85611323565b9450611052565b94509492505050565b60006110a682611285565b91506110b183611285565b92506110de7fffffffffffffffffffffffffffffffffffffffffffffffffffffffffffffffff84846110e6565b905092915050565b6000826110f657600190506111b2565b8161110457600090506111b2565b816001811461111a576002811461112457611153565b60019150506111b2565b60ff841115611136576111356112c5565b5b8360020a91508482111561114d5761114c6112c5565b5b506111b2565b5060208310610133831016604e8410600b84101617156111885782820a905083811115611183576111826112c5565b5b6111b2565b6111958484846001611048565b925090508184048111156111ac576111ab6112c5565b5b81810290505b9392505050565b60006111c482611285565b91506111cf83611285565b9250817fffffffffffffffffffffffffffffffffffffffffffffffffffffffffffffffff0483118215151615611208576112076112c5565b5b828202905092915050565b600061121e82611285565b915061122983611285565b92508282101561123c5761123b6112c5565b5b828203905092915050565b600061125282611265565b9050919050565b60008115159050919050565b600073ffffffffffffffffffffffffffffffffffffffff82169050919050565b6000819050919050565b600061129a826112a1565b9050919050565b60006112ac826112b3565b9050919050565b60006112be82611265565b9050919050565b7f4e487b7100000000000000000000000000000000000000000000000000000000600052601160045260246000fd5b7f4e487b7100000000000000000000000000000000000000000000000000000000600052601260045260246000fd5b60008160011c9050919050565b61133981611247565b811461134457600080fd5b50565b61135081611259565b811461135b57600080fd5b50565b61136781611285565b811461137257600080fd5b5056fea26469706673582212208d2d34450cab8c894af4adda108369963b42401c857849b50f0732a5e060eaaf64736f6c63430008000033",
					"opcodes": "PUSH1 0x80 PUSH1 0x40 MSTORE CALLVALUE DUP1 ISZERO PUSH3 0x11 JUMPI PUSH1 0x0 DUP1 REVERT JUMPDEST POP PUSH1 0x40 MLOAD PUSH3 0x17E4 CODESIZE SUB DUP1 PUSH3 0x17E4 DUP4 CODECOPY DUP2 DUP2 ADD PUSH1 0x40 MSTORE DUP2 ADD SWAP1 PUSH3 0x37 SWAP2 SWAP1 PUSH3 0x2E2 JUMP JUMPDEST PUSH1 0x0 PUSH3 0x49 PUSH3 0x295 PUSH1 0x20 SHL PUSH1 0x20 SHR JUMP JUMPDEST SWAP1 POP DUP1 PUSH1 0x0 DUP1 PUSH2 0x100 EXP DUP2 SLOAD DUP2 PUSH20 0xFFFFFFFFFFFFFFFFFFFFFFFFFFFFFFFFFFFFFFFF MUL NOT AND SWAP1 DUP4 PUSH20 0xFFFFFFFFFFFFFFFFFFFFFFFFFFFFFFFFFFFFFFFF AND MUL OR SWAP1 SSTORE POP DUP1 PUSH20 0xFFFFFFFFFFFFFFFFFFFFFFFFFFFFFFFFFFFFFFFF AND PUSH1 0x0 PUSH20 0xFFFFFFFFFFFFFFFFFFFFFFFFFFFFFFFFFFFFFFFF AND PUSH32 0x8BE0079C531659141344CD1FD0A4F28419497F9722A3DAAFE3B4186F6B6457E0 PUSH1 0x40 MLOAD PUSH1 0x40 MLOAD DUP1 SWAP2 SUB SWAP1 LOG3 POP PUSH1 0x0 DUP6 PUSH20 0xFFFFFFFFFFFFFFFFFFFFFFFFFFFFFFFFFFFFFFFF AND PUSH4 0x313CE567 PUSH1 0x40 MLOAD DUP2 PUSH4 0xFFFFFFFF AND PUSH1 0xE0 SHL DUP2 MSTORE PUSH1 0x4 ADD PUSH1 0x20 PUSH1 0x40 MLOAD DUP1 DUP4 SUB DUP2 DUP7 DUP1 EXTCODESIZE ISZERO DUP1 ISZERO PUSH3 0x130 JUMPI PUSH1 0x0 DUP1 REVERT JUMPDEST POP GAS STATICCALL ISZERO DUP1 ISZERO PUSH3 0x145 JUMPI RETURNDATASIZE PUSH1 0x0 DUP1 RETURNDATACOPY RETURNDATASIZE PUSH1 0x0 REVERT JUMPDEST POP POP POP POP PUSH1 0x40 MLOAD RETURNDATASIZE PUSH1 0x1F NOT PUSH1 0x1F DUP3 ADD AND DUP3 ADD DUP1 PUSH1 0x40 MSTORE POP DUP2 ADD SWAP1 PUSH3 0x16B SWAP2 SWAP1 PUSH3 0x364 JUMP JUMPDEST PUSH1 0xFF AND GT PUSH3 0x179 JUMPI PUSH1 0x0 DUP1 REVERT JUMPDEST DUP3 DUP5 LT PUSH3 0x186 JUMPI PUSH1 0x0 DUP1 REVERT JUMPDEST PUSH1 0x0 DUP3 GT PUSH3 0x194 JUMPI PUSH1 0x0 DUP1 REVERT JUMPDEST PUSH1 0x0 DUP2 GT PUSH3 0x1A2 JUMPI PUSH1 0x0 DUP1 REVERT JUMPDEST DUP5 PUSH1 0x1 PUSH1 0x0 PUSH2 0x100 EXP DUP2 SLOAD DUP2 PUSH20 0xFFFFFFFFFFFFFFFFFFFFFFFFFFFFFFFFFFFFFFFF MUL NOT AND SWAP1 DUP4 PUSH20 0xFFFFFFFFFFFFFFFFFFFFFFFFFFFFFFFFFFFFFFFF AND MUL OR SWAP1 SSTORE POP DUP5 PUSH20 0xFFFFFFFFFFFFFFFFFFFFFFFFFFFFFFFFFFFFFFFF AND PUSH4 0x313CE567 PUSH1 0x40 MLOAD DUP2 PUSH4 0xFFFFFFFF AND PUSH1 0xE0 SHL DUP2 MSTORE PUSH1 0x4 ADD PUSH1 0x20 PUSH1 0x40 MLOAD DUP1 DUP4 SUB DUP2 DUP7 DUP1 EXTCODESIZE ISZERO DUP1 ISZERO PUSH3 0x22A JUMPI PUSH1 0x0 DUP1 REVERT JUMPDEST POP GAS STATICCALL ISZERO DUP1 ISZERO PUSH3 0x23F JUMPI RETURNDATASIZE PUSH1 0x0 DUP1 RETURNDATACOPY RETURNDATASIZE PUSH1 0x0 REVERT JUMPDEST POP POP POP POP PUSH1 0x40 MLOAD RETURNDATASIZE PUSH1 0x1F NOT PUSH1 0x1F DUP3 ADD AND DUP3 ADD DUP1 PUSH1 0x40 MSTORE POP DUP2 ADD SWAP1 PUSH3 0x265 SWAP2 SWAP1 PUSH3 0x364 JUMP JUMPDEST PUSH1 0xFF AND PUSH1 0x2 DUP2 SWAP1 SSTORE POP DUP4 PUSH1 0x3 DUP2 SWAP1 SSTORE POP DUP3 PUSH1 0x4 DUP2 SWAP1 SSTORE POP DUP2 PUSH1 0x5 DUP2 SWAP1 SSTORE POP DUP1 PUSH1 0x8 DUP2 SWAP1 SSTORE POP POP POP POP POP POP PUSH3 0x429 JUMP JUMPDEST PUSH1 0x0 CALLER SWAP1 POP SWAP1 JUMP JUMPDEST PUSH1 0x0 DUP2 MLOAD SWAP1 POP PUSH3 0x2AE DUP2 PUSH3 0x3DB JUMP JUMPDEST SWAP3 SWAP2 POP POP JUMP JUMPDEST PUSH1 0x0 DUP2 MLOAD SWAP1 POP PUSH3 0x2C5 DUP2 PUSH3 0x3F5 JUMP JUMPDEST SWAP3 SWAP2 POP POP JUMP JUMPDEST PUSH1 0x0 DUP2 MLOAD SWAP1 POP PUSH3 0x2DC DUP2 PUSH3 0x40F JUMP JUMPDEST SWAP3 SWAP2 POP POP JUMP JUMPDEST PUSH1 0x0 DUP1 PUSH1 0x0 DUP1 PUSH1 0x0 PUSH1 0xA0 DUP7 DUP9 SUB SLT ISZERO PUSH3 0x2FB JUMPI PUSH1 0x0 DUP1 REVERT JUMPDEST PUSH1 0x0 PUSH3 0x30B DUP9 DUP3 DUP10 ADD PUSH3 0x29D JUMP JUMPDEST SWAP6 POP POP PUSH1 0x20 PUSH3 0x31E DUP9 DUP3 DUP10 ADD PUSH3 0x2B4 JUMP JUMPDEST SWAP5 POP POP PUSH1 0x40 PUSH3 0x331 DUP9 DUP3 DUP10 ADD PUSH3 0x2B4 JUMP JUMPDEST SWAP4 POP POP PUSH1 0x60 PUSH3 0x344 DUP9 DUP3 DUP10 ADD PUSH3 0x2B4 JUMP JUMPDEST SWAP3 POP POP PUSH1 0x80 PUSH3 0x357 DUP9 DUP3 DUP10 ADD PUSH3 0x2B4 JUMP JUMPDEST SWAP2 POP POP SWAP3 SWAP6 POP SWAP3 SWAP6 SWAP1 SWAP4 POP JUMP JUMPDEST PUSH1 0x0 PUSH1 0x20 DUP3 DUP5 SUB SLT ISZERO PUSH3 0x377 JUMPI PUSH1 0x0 DUP1 REVERT JUMPDEST PUSH1 0x0 PUSH3 0x387 DUP5 DUP3 DUP6 ADD PUSH3 0x2CB JUMP JUMPDEST SWAP2 POP POP SWAP3 SWAP2 POP POP JUMP JUMPDEST PUSH1 0x0 PUSH3 0x39D DUP3 PUSH3 0x3A4 JUMP JUMPDEST SWAP1 POP SWAP2 SWAP1 POP JUMP JUMPDEST PUSH1 0x0 PUSH20 0xFFFFFFFFFFFFFFFFFFFFFFFFFFFFFFFFFFFFFFFF DUP3 AND SWAP1 POP SWAP2 SWAP1 POP JUMP JUMPDEST PUSH1 0x0 DUP2 SWAP1 POP SWAP2 SWAP1 POP JUMP JUMPDEST PUSH1 0x0 PUSH1 0xFF DUP3 AND SWAP1 POP SWAP2 SWAP1 POP JUMP JUMPDEST PUSH3 0x3E6 DUP2 PUSH3 0x390 JUMP JUMPDEST DUP2 EQ PUSH3 0x3F2 JUMPI PUSH1 0x0 DUP1 REVERT JUMPDEST POP JUMP JUMPDEST PUSH3 0x400 DUP2 PUSH3 0x3C4 JUMP JUMPDEST DUP2 EQ PUSH3 0x40C JUMPI PUSH1 0x0 DUP1 REVERT JUMPDEST POP JUMP JUMPDEST PUSH3 0x41A DUP2 PUSH3 0x3CE JUMP JUMPDEST DUP2 EQ PUSH3 0x426 JUMPI PUSH1 0x0 DUP1 REVERT JUMPDEST POP JUMP JUMPDEST PUSH2 0x13AB DUP1 PUSH3 0x439 PUSH1 0x0 CODECOPY PUSH1 0x0 RETURN INVALID PUSH1 0x80 PUSH1 0x40 MSTORE PUSH1 0x4 CALLDATASIZE LT PUSH2 0x109 JUMPI PUSH1 0x0 CALLDATALOAD PUSH1 0xE0 SHR DUP1 PUSH4 0x8AFBF669 GT PUSH2 0x95 JUMPI DUP1 PUSH4 0xD0FEBE4C GT PUSH2 0x64 JUMPI DUP1 PUSH4 0xD0FEBE4C EQ PUSH2 0x313 JUMPI DUP1 PUSH4 0xF2FDE38B EQ PUSH2 0x31D JUMPI DUP1 PUSH4 0xFA1A5F59 EQ PUSH2 0x346 JUMPI DUP1 PUSH4 0xFA300F75 EQ PUSH2 0x371 JUMPI DUP1 PUSH4 0xFC0C546A EQ PUSH2 0x3AE JUMPI PUSH2 0x109 JUMP JUMPDEST DUP1 PUSH4 0x8AFBF669 EQ PUSH2 0x28F JUMPI DUP1 PUSH4 0x8DA5CB5B EQ PUSH2 0x2A6 JUMPI DUP1 PUSH4 0xB3B9BCDF EQ PUSH2 0x2D1 JUMPI DUP1 PUSH4 0xC0B5FCA0 EQ PUSH2 0x2E8 JUMPI PUSH2 0x109 JUMP JUMPDEST DUP1 PUSH4 0x3996DC8F GT PUSH2 0xDC JUMPI DUP1 PUSH4 0x3996DC8F EQ PUSH2 0x1BA JUMPI DUP1 PUSH4 0x48DC5893 EQ PUSH2 0x1E5 JUMPI DUP1 PUSH4 0x5CAED029 EQ PUSH2 0x222 JUMPI DUP1 PUSH4 0x715018A6 EQ PUSH2 0x24D JUMPI DUP1 PUSH4 0x78E97925 EQ PUSH2 0x264 JUMPI PUSH2 0x109 JUMP JUMPDEST DUP1 PUSH4 0x1B0875A6 EQ PUSH2 0x10E JUMPI DUP1 PUSH4 0x22F3E2D4 EQ PUSH2 0x139 JUMPI DUP1 PUSH4 0x31711884 EQ PUSH2 0x164 JUMPI DUP1 PUSH4 0x3197CBB6 EQ PUSH2 0x18F JUMPI JUMPDEST PUSH1 0x0 DUP1 REVERT JUMPDEST CALLVALUE DUP1 ISZERO PUSH2 0x11A JUMPI PUSH1 0x0 DUP1 REVERT JUMPDEST POP PUSH2 0x123 PUSH2 0x3D9 JUMP JUMPDEST PUSH1 0x40 MLOAD PUSH2 0x130 SWAP2 SWAP1 PUSH2 0xF95 JUMP JUMPDEST PUSH1 0x40 MLOAD DUP1 SWAP2 SUB SWAP1 RETURN JUMPDEST CALLVALUE DUP1 ISZERO PUSH2 0x145 JUMPI PUSH1 0x0 DUP1 REVERT JUMPDEST POP PUSH2 0x14E PUSH2 0x3DF JUMP JUMPDEST PUSH1 0x40 MLOAD PUSH2 0x15B SWAP2 SWAP1 PUSH2 0xEBA JUMP JUMPDEST PUSH1 0x40 MLOAD DUP1 SWAP2 SUB SWAP1 RETURN JUMPDEST CALLVALUE DUP1 ISZERO PUSH2 0x170 JUMPI PUSH1 0x0 DUP1 REVERT JUMPDEST POP PUSH2 0x179 PUSH2 0x3FA JUMP JUMPDEST PUSH1 0x40 MLOAD PUSH2 0x186 SWAP2 SWAP1 PUSH2 0xF95 JUMP JUMPDEST PUSH1 0x40 MLOAD DUP1 SWAP2 SUB SWAP1 RETURN JUMPDEST CALLVALUE DUP1 ISZERO PUSH2 0x19B JUMPI PUSH1 0x0 DUP1 REVERT JUMPDEST POP PUSH2 0x1A4 PUSH2 0x400 JUMP JUMPDEST PUSH1 0x40 MLOAD PUSH2 0x1B1 SWAP2 SWAP1 PUSH2 0xF95 JUMP JUMPDEST PUSH1 0x40 MLOAD DUP1 SWAP2 SUB SWAP1 RETURN JUMPDEST CALLVALUE DUP1 ISZERO PUSH2 0x1C6 JUMPI PUSH1 0x0 DUP1 REVERT JUMPDEST POP PUSH2 0x1CF PUSH2 0x406 JUMP JUMPDEST PUSH1 0x40 MLOAD PUSH2 0x1DC SWAP2 SWAP1 PUSH2 0xF95 JUMP JUMPDEST PUSH1 0x40 MLOAD DUP1 SWAP2 SUB SWAP1 RETURN JUMPDEST CALLVALUE DUP1 ISZERO PUSH2 0x1F1 JUMPI PUSH1 0x0 DUP1 REVERT JUMPDEST POP PUSH2 0x20C PUSH1 0x4 DUP1 CALLDATASIZE SUB DUP2 ADD SWAP1 PUSH2 0x207 SWAP2 SWAP1 PUSH2 0xC6B JUMP JUMPDEST PUSH2 0x40C JUMP JUMPDEST PUSH1 0x40 MLOAD PUSH2 0x219 SWAP2 SWAP1 PUSH2 0xF95 JUMP JUMPDEST PUSH1 0x40 MLOAD DUP1 SWAP2 SUB SWAP1 RETURN JUMPDEST CALLVALUE DUP1 ISZERO PUSH2 0x22E JUMPI PUSH1 0x0 DUP1 REVERT JUMPDEST POP PUSH2 0x237 PUSH2 0x441 JUMP JUMPDEST PUSH1 0x40 MLOAD PUSH2 0x244 SWAP2 SWAP1 PUSH2 0xF95 JUMP JUMPDEST PUSH1 0x40 MLOAD DUP1 SWAP2 SUB SWAP1 RETURN JUMPDEST CALLVALUE DUP1 ISZERO PUSH2 0x259 JUMPI PUSH1 0x0 DUP1 REVERT JUMPDEST POP PUSH2 0x262 PUSH2 0x447 JUMP JUMPDEST STOP JUMPDEST CALLVALUE DUP1 ISZERO PUSH2 0x270 JUMPI PUSH1 0x0 DUP1 REVERT JUMPDEST POP PUSH2 0x279 PUSH2 0x581 JUMP JUMPDEST PUSH1 0x40 MLOAD PUSH2 0x286 SWAP2 SWAP1 PUSH2 0xF95 JUMP JUMPDEST PUSH1 0x40 MLOAD DUP1 SWAP2 SUB SWAP1 RETURN JUMPDEST CALLVALUE DUP1 ISZERO PUSH2 0x29B JUMPI PUSH1 0x0 DUP1 REVERT JUMPDEST POP PUSH2 0x2A4 PUSH2 0x587 JUMP JUMPDEST STOP JUMPDEST CALLVALUE DUP1 ISZERO PUSH2 0x2B2 JUMPI PUSH1 0x0 DUP1 REVERT JUMPDEST POP PUSH2 0x2BB PUSH2 0x667 JUMP JUMPDEST PUSH1 0x40 MLOAD PUSH2 0x2C8 SWAP2 SWAP1 PUSH2 0xE76 JUMP JUMPDEST PUSH1 0x40 MLOAD DUP1 SWAP2 SUB SWAP1 RETURN JUMPDEST CALLVALUE DUP1 ISZERO PUSH2 0x2DD JUMPI PUSH1 0x0 DUP1 REVERT JUMPDEST POP PUSH2 0x2E6 PUSH2 0x690 JUMP JUMPDEST STOP JUMPDEST CALLVALUE DUP1 ISZERO PUSH2 0x2F4 JUMPI PUSH1 0x0 DUP1 REVERT JUMPDEST POP PUSH2 0x2FD PUSH2 0x768 JUMP JUMPDEST PUSH1 0x40 MLOAD PUSH2 0x30A SWAP2 SWAP1 PUSH2 0xF95 JUMP JUMPDEST PUSH1 0x40 MLOAD DUP1 SWAP2 SUB SWAP1 RETURN JUMPDEST PUSH2 0x31B PUSH2 0x77F JUMP JUMPDEST STOP JUMPDEST CALLVALUE DUP1 ISZERO PUSH2 0x329 JUMPI PUSH1 0x0 DUP1 REVERT JUMPDEST POP PUSH2 0x344 PUSH1 0x4 DUP1 CALLDATASIZE SUB DUP2 ADD SWAP1 PUSH2 0x33F SWAP2 SWAP1 PUSH2 0xC19 JUMP JUMPDEST PUSH2 0x9C8 JUMP JUMPDEST STOP JUMPDEST CALLVALUE DUP1 ISZERO PUSH2 0x352 JUMPI PUSH1 0x0 DUP1 REVERT JUMPDEST POP PUSH2 0x35B PUSH2 0xB71 JUMP JUMPDEST PUSH1 0x40 MLOAD PUSH2 0x368 SWAP2 SWAP1 PUSH2 0xF95 JUMP JUMPDEST PUSH1 0x40 MLOAD DUP1 SWAP2 SUB SWAP1 RETURN JUMPDEST CALLVALUE DUP1 ISZERO PUSH2 0x37D JUMPI PUSH1 0x0 DUP1 REVERT JUMPDEST POP PUSH2 0x398 PUSH1 0x4 DUP1 CALLDATASIZE SUB DUP2 ADD SWAP1 PUSH2 0x393 SWAP2 SWAP1 PUSH2 0xC6B JUMP JUMPDEST PUSH2 0xB77 JUMP JUMPDEST PUSH1 0x40 MLOAD PUSH2 0x3A5 SWAP2 SWAP1 PUSH2 0xF95 JUMP JUMPDEST PUSH1 0x40 MLOAD DUP1 SWAP2 SUB SWAP1 RETURN JUMPDEST CALLVALUE DUP1 ISZERO PUSH2 0x3BA JUMPI PUSH1 0x0 DUP1 REVERT JUMPDEST POP PUSH2 0x3C3 PUSH2 0xBAC JUMP JUMPDEST PUSH1 0x40 MLOAD PUSH2 0x3D0 SWAP2 SWAP1 PUSH2 0xE76 JUMP JUMPDEST PUSH1 0x40 MLOAD DUP1 SWAP2 SUB SWAP1 RETURN JUMPDEST PUSH1 0x8 SLOAD DUP2 JUMP JUMPDEST PUSH1 0x0 TIMESTAMP PUSH1 0x3 SLOAD GT ISZERO DUP1 ISZERO PUSH2 0x3F5 JUMPI POP PUSH1 0x4 SLOAD TIMESTAMP GT ISZERO JUMPDEST SWAP1 POP SWAP1 JUMP JUMPDEST PUSH1 0x5 SLOAD DUP2 JUMP JUMPDEST PUSH1 0x4 SLOAD DUP2 JUMP JUMPDEST PUSH1 0x7 SLOAD DUP2 JUMP JUMPDEST PUSH1 0x0 DUP1 PUSH1 0x2 SLOAD PUSH1 0xA PUSH2 0x41E SWAP2 SWAP1 PUSH2 0x109B JUMP JUMPDEST SWAP1 POP PUSH1 0x5 SLOAD DUP2 DUP5 PUSH2 0x42F SWAP2 SWAP1 PUSH2 0x11B9 JUMP JUMPDEST PUSH2 0x439 SWAP2 SWAP1 PUSH2 0x1017 JUMP JUMPDEST SWAP2 POP POP SWAP2 SWAP1 POP JUMP JUMPDEST PUSH1 0x2 SLOAD DUP2 JUMP JUMPDEST PUSH2 0x44F PUSH2 0xBD2 JUMP JUMPDEST PUSH20 0xFFFFFFFFFFFFFFFFFFFFFFFFFFFFFFFFFFFFFFFF AND PUSH2 0x46D PUSH2 0x667 JUMP JUMPDEST PUSH20 0xFFFFFFFFFFFFFFFFFFFFFFFFFFFFFFFFFFFFFFFF AND EQ PUSH2 0x4C3 JUMPI PUSH1 0x40 MLOAD PUSH32 0x8C379A000000000000000000000000000000000000000000000000000000000 DUP2 MSTORE PUSH1 0x4 ADD PUSH2 0x4BA SWAP1 PUSH2 0xF55 JUMP JUMPDEST PUSH1 0x40 MLOAD DUP1 SWAP2 SUB SWAP1 REVERT JUMPDEST PUSH1 0x0 PUSH20 0xFFFFFFFFFFFFFFFFFFFFFFFFFFFFFFFFFFFFFFFF AND PUSH1 0x0 DUP1 SLOAD SWAP1 PUSH2 0x100 EXP SWAP1 DIV PUSH20 0xFFFFFFFFFFFFFFFFFFFFFFFFFFFFFFFFFFFFFFFF AND PUSH20 0xFFFFFFFFFFFFFFFFFFFFFFFFFFFFFFFFFFFFFFFF AND PUSH32 0x8BE0079C531659141344CD1FD0A4F28419497F9722A3DAAFE3B4186F6B6457E0 PUSH1 0x40 MLOAD PUSH1 0x40 MLOAD DUP1 SWAP2 SUB SWAP1 LOG3 PUSH1 0x0 DUP1 PUSH1 0x0 PUSH2 0x100 EXP DUP2 SLOAD DUP2 PUSH20 0xFFFFFFFFFFFFFFFFFFFFFFFFFFFFFFFFFFFFFFFF MUL NOT AND SWAP1 DUP4 PUSH20 0xFFFFFFFFFFFFFFFFFFFFFFFFFFFFFFFFFFFFFFFF AND MUL OR SWAP1 SSTORE POP JUMP JUMPDEST PUSH1 0x3 SLOAD DUP2 JUMP JUMPDEST PUSH2 0x58F PUSH2 0xBD2 JUMP JUMPDEST PUSH20 0xFFFFFFFFFFFFFFFFFFFFFFFFFFFFFFFFFFFFFFFF AND PUSH2 0x5AD PUSH2 0x667 JUMP JUMPDEST PUSH20 0xFFFFFFFFFFFFFFFFFFFFFFFFFFFFFFFFFFFFFFFF AND EQ PUSH2 0x603 JUMPI PUSH1 0x40 MLOAD PUSH32 0x8C379A000000000000000000000000000000000000000000000000000000000 DUP2 MSTORE PUSH1 0x4 ADD PUSH2 0x5FA SWAP1 PUSH2 0xF55 JUMP JUMPDEST PUSH1 0x40 MLOAD DUP1 SWAP2 SUB SWAP1 REVERT JUMPDEST PUSH2 0x60B PUSH2 0x3DF JUMP JUMPDEST ISZERO PUSH2 0x64B JUMPI PUSH1 0x40 MLOAD PUSH32 0x8C379A000000000000000000000000000000000000000000000000000000000 DUP2 MSTORE PUSH1 0x4 ADD PUSH2 0x642 SWAP1 PUSH2 0xF15 JUMP JUMPDEST PUSH1 0x40 MLOAD DUP1 SWAP2 SUB SWAP1 REVERT JUMPDEST PUSH1 0x0 PUSH2 0x655 PUSH2 0xBD2 JUMP JUMPDEST SWAP1 POP PUSH1 0x0 PUSH2 0x661 PUSH2 0x768 JUMP JUMPDEST SWAP1 POP POP POP JUMP JUMPDEST PUSH1 0x0 DUP1 PUSH1 0x0 SWAP1 SLOAD SWAP1 PUSH2 0x100 EXP SWAP1 DIV PUSH20 0xFFFFFFFFFFFFFFFFFFFFFFFFFFFFFFFFFFFFFFFF AND SWAP1 POP SWAP1 JUMP JUMPDEST PUSH2 0x698 PUSH2 0xBD2 JUMP JUMPDEST PUSH20 0xFFFFFFFFFFFFFFFFFFFFFFFFFFFFFFFFFFFFFFFF AND PUSH2 0x6B6 PUSH2 0x667 JUMP JUMPDEST PUSH20 0xFFFFFFFFFFFFFFFFFFFFFFFFFFFFFFFFFFFFFFFF AND EQ PUSH2 0x70C JUMPI PUSH1 0x40 MLOAD PUSH32 0x8C379A000000000000000000000000000000000000000000000000000000000 DUP2 MSTORE PUSH1 0x4 ADD PUSH2 0x703 SWAP1 PUSH2 0xF55 JUMP JUMPDEST PUSH1 0x40 MLOAD DUP1 SWAP2 SUB SWAP1 REVERT JUMPDEST PUSH1 0x0 PUSH2 0x716 PUSH2 0xBD2 JUMP JUMPDEST SWAP1 POP PUSH1 0x0 SELFBALANCE SWAP1 POP DUP2 PUSH20 0xFFFFFFFFFFFFFFFFFFFFFFFFFFFFFFFFFFFFFFFF AND PUSH2 0x8FC DUP3 SWAP1 DUP2 ISZERO MUL SWAP1 PUSH1 0x40 MLOAD PUSH1 0x0 PUSH1 0x40 MLOAD DUP1 DUP4 SUB DUP2 DUP6 DUP9 DUP9 CALL SWAP4 POP POP POP POP ISZERO DUP1 ISZERO PUSH2 0x763 JUMPI RETURNDATASIZE PUSH1 0x0 DUP1 RETURNDATACOPY RETURNDATASIZE PUSH1 0x0 REVERT JUMPDEST POP POP POP JUMP JUMPDEST PUSH1 0x0 PUSH1 0x6 SLOAD PUSH1 0x8 SLOAD PUSH2 0x77A SWAP2 SWAP1 PUSH2 0x1213 JUMP JUMPDEST SWAP1 POP SWAP1 JUMP JUMPDEST PUSH1 0x0 PUSH2 0x789 PUSH2 0xBD2 JUMP JUMPDEST SWAP1 POP PUSH1 0x0 CALLVALUE SWAP1 POP PUSH2 0x798 PUSH2 0x3DF JUMP JUMPDEST PUSH2 0x7D7 JUMPI PUSH1 0x40 MLOAD PUSH32 0x8C379A000000000000000000000000000000000000000000000000000000000 DUP2 MSTORE PUSH1 0x4 ADD PUSH2 0x7CE SWAP1 PUSH2 0xEF5 JUMP JUMPDEST PUSH1 0x40 MLOAD DUP1 SWAP2 SUB SWAP1 REVERT JUMPDEST PUSH1 0x0 DUP2 GT PUSH2 0x81A JUMPI PUSH1 0x40 MLOAD PUSH32 0x8C379A000000000000000000000000000000000000000000000000000000000 DUP2 MSTORE PUSH1 0x4 ADD PUSH2 0x811 SWAP1 PUSH2 0xF35 JUMP JUMPDEST PUSH1 0x40 MLOAD DUP1 SWAP2 SUB SWAP1 REVERT JUMPDEST PUSH1 0x0 PUSH2 0x825 DUP3 PUSH2 0x40C JUMP JUMPDEST SWAP1 POP PUSH1 0x0 PUSH2 0x831 PUSH2 0x768 JUMP JUMPDEST SWAP1 POP DUP1 DUP3 GT ISZERO PUSH2 0x89F JUMPI DUP1 SWAP2 POP PUSH1 0x0 PUSH2 0x849 DUP3 PUSH2 0xB77 JUMP JUMPDEST DUP5 PUSH2 0x854 SWAP2 SWAP1 PUSH2 0x1213 JUMP JUMPDEST SWAP1 POP DUP5 PUSH20 0xFFFFFFFFFFFFFFFFFFFFFFFFFFFFFFFFFFFFFFFF AND PUSH2 0x8FC DUP3 SWAP1 DUP2 ISZERO MUL SWAP1 PUSH1 0x40 MLOAD PUSH1 0x0 PUSH1 0x40 MLOAD DUP1 DUP4 SUB DUP2 DUP6 DUP9 DUP9 CALL SWAP4 POP POP POP POP ISZERO DUP1 ISZERO PUSH2 0x89C JUMPI RETURNDATASIZE PUSH1 0x0 DUP1 RETURNDATACOPY RETURNDATASIZE PUSH1 0x0 REVERT JUMPDEST POP POP JUMPDEST PUSH1 0x0 DUP3 GT PUSH2 0x8E2 JUMPI PUSH1 0x40 MLOAD PUSH32 0x8C379A000000000000000000000000000000000000000000000000000000000 DUP2 MSTORE PUSH1 0x4 ADD PUSH2 0x8D9 SWAP1 PUSH2 0xF75 JUMP JUMPDEST PUSH1 0x40 MLOAD DUP1 SWAP2 SUB SWAP1 REVERT JUMPDEST PUSH1 0x1 PUSH1 0x0 SWAP1 SLOAD SWAP1 PUSH2 0x100 EXP SWAP1 DIV PUSH20 0xFFFFFFFFFFFFFFFFFFFFFFFFFFFFFFFFFFFFFFFF AND PUSH20 0xFFFFFFFFFFFFFFFFFFFFFFFFFFFFFFFFFFFFFFFF AND PUSH4 0xA9059CBB DUP6 DUP5 PUSH1 0x40 MLOAD DUP4 PUSH4 0xFFFFFFFF AND PUSH1 0xE0 SHL DUP2 MSTORE PUSH1 0x4 ADD PUSH2 0x93F SWAP3 SWAP2 SWAP1 PUSH2 0xE91 JUMP JUMPDEST PUSH1 0x20 PUSH1 0x40 MLOAD DUP1 DUP4 SUB DUP2 PUSH1 0x0 DUP8 DUP1 EXTCODESIZE ISZERO DUP1 ISZERO PUSH2 0x959 JUMPI PUSH1 0x0 DUP1 REVERT JUMPDEST POP GAS CALL ISZERO DUP1 ISZERO PUSH2 0x96D JUMPI RETURNDATASIZE PUSH1 0x0 DUP1 RETURNDATACOPY RETURNDATASIZE PUSH1 0x0 REVERT JUMPDEST POP POP POP POP PUSH1 0x40 MLOAD RETURNDATASIZE PUSH1 0x1F NOT PUSH1 0x1F DUP3 ADD AND DUP3 ADD DUP1 PUSH1 0x40 MSTORE POP DUP2 ADD SWAP1 PUSH2 0x991 SWAP2 SWAP1 PUSH2 0xC42 JUMP JUMPDEST POP DUP2 PUSH1 0x6 SLOAD PUSH2 0x9A0 SWAP2 SWAP1 PUSH2 0xFC1 JUMP JUMPDEST PUSH1 0x6 DUP2 SWAP1 SSTORE POP PUSH2 0x9AF DUP3 PUSH2 0xB77 JUMP JUMPDEST PUSH1 0x7 SLOAD PUSH2 0x9BC SWAP2 SWAP1 PUSH2 0xFC1 JUMP JUMPDEST PUSH1 0x7 DUP2 SWAP1 SSTORE POP POP POP POP POP JUMP JUMPDEST PUSH2 0x9D0 PUSH2 0xBD2 JUMP JUMPDEST PUSH20 0xFFFFFFFFFFFFFFFFFFFFFFFFFFFFFFFFFFFFFFFF AND PUSH2 0x9EE PUSH2 0x667 JUMP JUMPDEST PUSH20 0xFFFFFFFFFFFFFFFFFFFFFFFFFFFFFFFFFFFFFFFF AND EQ PUSH2 0xA44 JUMPI PUSH1 0x40 MLOAD PUSH32 0x8C379A000000000000000000000000000000000000000000000000000000000 DUP2 MSTORE PUSH1 0x4 ADD PUSH2 0xA3B SWAP1 PUSH2 0xF55 JUMP JUMPDEST PUSH1 0x40 MLOAD DUP1 SWAP2 SUB SWAP1 REVERT JUMPDEST PUSH1 0x0 PUSH20 0xFFFFFFFFFFFFFFFFFFFFFFFFFFFFFFFFFFFFFFFF AND DUP2 PUSH20 0xFFFFFFFFFFFFFFFFFFFFFFFFFFFFFFFFFFFFFFFF AND EQ ISZERO PUSH2 0xAB4 JUMPI PUSH1 0x40 MLOAD PUSH32 0x8C379A000000000000000000000000000000000000000000000000000000000 DUP2 MSTORE PUSH1 0x4 ADD PUSH2 0xAAB SWAP1 PUSH2 0xED5 JUMP JUMPDEST PUSH1 0x40 MLOAD DUP1 SWAP2 SUB SWAP1 REVERT JUMPDEST DUP1 PUSH20 0xFFFFFFFFFFFFFFFFFFFFFFFFFFFFFFFFFFFFFFFF AND PUSH1 0x0 DUP1 SLOAD SWAP1 PUSH2 0x100 EXP SWAP1 DIV PUSH20 0xFFFFFFFFFFFFFFFFFFFFFFFFFFFFFFFFFFFFFFFF AND PUSH20 0xFFFFFFFFFFFFFFFFFFFFFFFFFFFFFFFFFFFFFFFF AND PUSH32 0x8BE0079C531659141344CD1FD0A4F28419497F9722A3DAAFE3B4186F6B6457E0 PUSH1 0x40 MLOAD PUSH1 0x40 MLOAD DUP1 SWAP2 SUB SWAP1 LOG3 DUP1 PUSH1 0x0 DUP1 PUSH2 0x100 EXP DUP2 SLOAD DUP2 PUSH20 0xFFFFFFFFFFFFFFFFFFFFFFFFFFFFFFFFFFFFFFFF MUL NOT AND SWAP1 DUP4 PUSH20 0xFFFFFFFFFFFFFFFFFFFFFFFFFFFFFFFFFFFFFFFF AND MUL OR SWAP1 SSTORE POP POP JUMP JUMPDEST PUSH1 0x6 SLOAD DUP2 JUMP JUMPDEST PUSH1 0x0 DUP1 PUSH1 0x2 SLOAD PUSH1 0xA PUSH2 0xB89 SWAP2 SWAP1 PUSH2 0x109B JUMP JUMPDEST SWAP1 POP DUP1 PUSH1 0x5 SLOAD DUP5 PUSH2 0xB9A SWAP2 SWAP1 PUSH2 0x11B9 JUMP JUMPDEST PUSH2 0xBA4 SWAP2 SWAP1 PUSH2 0x1017 JUMP JUMPDEST SWAP2 POP POP SWAP2 SWAP1 POP JUMP JUMPDEST PUSH1 0x1 PUSH1 0x0 SWAP1 SLOAD SWAP1 PUSH2 0x100 EXP SWAP1 DIV PUSH20 0xFFFFFFFFFFFFFFFFFFFFFFFFFFFFFFFFFFFFFFFF AND DUP2 JUMP JUMPDEST PUSH1 0x0 CALLER SWAP1 POP SWAP1 JUMP JUMPDEST PUSH1 0x0 DUP2 CALLDATALOAD SWAP1 POP PUSH2 0xBE9 DUP2 PUSH2 0x1330 JUMP JUMPDEST SWAP3 SWAP2 POP POP JUMP JUMPDEST PUSH1 0x0 DUP2 MLOAD SWAP1 POP PUSH2 0xBFE DUP2 PUSH2 0x1347 JUMP JUMPDEST SWAP3 SWAP2 POP POP JUMP JUMPDEST PUSH1 0x0 DUP2 CALLDATALOAD SWAP1 POP PUSH2 0xC13 DUP2 PUSH2 0x135E JUMP JUMPDEST SWAP3 SWAP2 POP POP JUMP JUMPDEST PUSH1 0x0 PUSH1 0x20 DUP3 DUP5 SUB SLT ISZERO PUSH2 0xC2B JUMPI PUSH1 0x0 DUP1 REVERT JUMPDEST PUSH1 0x0 PUSH2 0xC39 DUP5 DUP3 DUP6 ADD PUSH2 0xBDA JUMP JUMPDEST SWAP2 POP POP SWAP3 SWAP2 POP POP JUMP JUMPDEST PUSH1 0x0 PUSH1 0x20 DUP3 DUP5 SUB SLT ISZERO PUSH2 0xC54 JUMPI PUSH1 0x0 DUP1 REVERT JUMPDEST PUSH1 0x0 PUSH2 0xC62 DUP5 DUP3 DUP6 ADD PUSH2 0xBEF JUMP JUMPDEST SWAP2 POP POP SWAP3 SWAP2 POP POP JUMP JUMPDEST PUSH1 0x0 PUSH1 0x20 DUP3 DUP5 SUB SLT ISZERO PUSH2 0xC7D JUMPI PUSH1 0x0 DUP1 REVERT JUMPDEST PUSH1 0x0 PUSH2 0xC8B DUP5 DUP3 DUP6 ADD PUSH2 0xC04 JUMP JUMPDEST SWAP2 POP POP SWAP3 SWAP2 POP POP JUMP JUMPDEST PUSH2 0xC9D DUP2 PUSH2 0x128F JUMP JUMPDEST DUP3 MSTORE POP POP JUMP JUMPDEST PUSH2 0xCAC DUP2 PUSH2 0x1247 JUMP JUMPDEST DUP3 MSTORE POP POP JUMP JUMPDEST PUSH2 0xCBB DUP2 PUSH2 0x1259 JUMP JUMPDEST DUP3 MSTORE POP POP JUMP JUMPDEST PUSH1 0x0 PUSH2 0xCCE PUSH1 0x26 DUP4 PUSH2 0xFB0 JUMP JUMPDEST SWAP2 POP PUSH32 0x4F776E61626C653A206E6577206F776E657220697320746865207A65726F2061 PUSH1 0x0 DUP4 ADD MSTORE PUSH32 0x6464726573730000000000000000000000000000000000000000000000000000 PUSH1 0x20 DUP4 ADD MSTORE PUSH1 0x40 DUP3 ADD SWAP1 POP SWAP2 SWAP1 POP JUMP JUMPDEST PUSH1 0x0 PUSH2 0xD34 PUSH1 0x12 DUP4 PUSH2 0xFB0 JUMP JUMPDEST SWAP2 POP PUSH32 0x53616C65206973206E6F74206163746976650000000000000000000000000000 PUSH1 0x0 DUP4 ADD MSTORE PUSH1 0x20 DUP3 ADD SWAP1 POP SWAP2 SWAP1 POP JUMP JUMPDEST PUSH1 0x0 PUSH2 0xD74 PUSH1 0x17 DUP4 PUSH2 0xFB0 JUMP JUMPDEST SWAP2 POP PUSH32 0x546F6B656E2073616C65207374696C6C20616374697665000000000000000000 PUSH1 0x0 DUP4 ADD MSTORE PUSH1 0x20 DUP3 ADD SWAP1 POP SWAP2 SWAP1 POP JUMP JUMPDEST PUSH1 0x0 PUSH2 0xDB4 PUSH1 0x17 DUP4 PUSH2 0xFB0 JUMP JUMPDEST SWAP2 POP PUSH32 0x416363657074656420616D6F756E74206973207A65726F000000000000000000 PUSH1 0x0 DUP4 ADD MSTORE PUSH1 0x20 DUP3 ADD SWAP1 POP SWAP2 SWAP1 POP JUMP JUMPDEST PUSH1 0x0 PUSH2 0xDF4 PUSH1 0x20 DUP4 PUSH2 0xFB0 JUMP JUMPDEST SWAP2 POP PUSH32 0x4F776E61626C653A2063616C6C6572206973206E6F7420746865206F776E6572 PUSH1 0x0 DUP4 ADD MSTORE PUSH1 0x20 DUP3 ADD SWAP1 POP SWAP2 SWAP1 POP JUMP JUMPDEST PUSH1 0x0 PUSH2 0xE34 PUSH1 0x14 DUP4 PUSH2 0xFB0 JUMP JUMPDEST SWAP2 POP PUSH32 0x5A65726F20726577617264656420616D6F756E74000000000000000000000000 PUSH1 0x0 DUP4 ADD MSTORE PUSH1 0x20 DUP3 ADD SWAP1 POP SWAP2 SWAP1 POP JUMP JUMPDEST PUSH2 0xE70 DUP2 PUSH2 0x1285 JUMP JUMPDEST DUP3 MSTORE POP POP JUMP JUMPDEST PUSH1 0x0 PUSH1 0x20 DUP3 ADD SWAP1 POP PUSH2 0xE8B PUSH1 0x0 DUP4 ADD DUP5 PUSH2 0xCA3 JUMP JUMPDEST SWAP3 SWAP2 POP POP JUMP JUMPDEST PUSH1 0x0 PUSH1 0x40 DUP3 ADD SWAP1 POP PUSH2 0xEA6 PUSH1 0x0 DUP4 ADD DUP6 PUSH2 0xC94 JUMP JUMPDEST PUSH2 0xEB3 PUSH1 0x20 DUP4 ADD DUP5 PUSH2 0xE67 JUMP JUMPDEST SWAP4 SWAP3 POP POP POP JUMP JUMPDEST PUSH1 0x0 PUSH1 0x20 DUP3 ADD SWAP1 POP PUSH2 0xECF PUSH1 0x0 DUP4 ADD DUP5 PUSH2 0xCB2 JUMP JUMPDEST SWAP3 SWAP2 POP POP JUMP JUMPDEST PUSH1 0x0 PUSH1 0x20 DUP3 ADD SWAP1 POP DUP2 DUP2 SUB PUSH1 0x0 DUP4 ADD MSTORE PUSH2 0xEEE DUP2 PUSH2 0xCC1 JUMP JUMPDEST SWAP1 POP SWAP2 SWAP1 POP JUMP JUMPDEST PUSH1 0x0 PUSH1 0x20 DUP3 ADD SWAP1 POP DUP2 DUP2 SUB PUSH1 0x0 DUP4 ADD MSTORE PUSH2 0xF0E DUP2 PUSH2 0xD27 JUMP JUMPDEST SWAP1 POP SWAP2 SWAP1 POP JUMP JUMPDEST PUSH1 0x0 PUSH1 0x20 DUP3 ADD SWAP1 POP DUP2 DUP2 SUB PUSH1 0x0 DUP4 ADD MSTORE PUSH2 0xF2E DUP2 PUSH2 0xD67 JUMP JUMPDEST SWAP1 POP SWAP2 SWAP1 POP JUMP JUMPDEST PUSH1 0x0 PUSH1 0x20 DUP3 ADD SWAP1 POP DUP2 DUP2 SUB PUSH1 0x0 DUP4 ADD MSTORE PUSH2 0xF4E DUP2 PUSH2 0xDA7 JUMP JUMPDEST SWAP1 POP SWAP2 SWAP1 POP JUMP JUMPDEST PUSH1 0x0 PUSH1 0x20 DUP3 ADD SWAP1 POP DUP2 DUP2 SUB PUSH1 0x0 DUP4 ADD MSTORE PUSH2 0xF6E DUP2 PUSH2 0xDE7 JUMP JUMPDEST SWAP1 POP SWAP2 SWAP1 POP JUMP JUMPDEST PUSH1 0x0 PUSH1 0x20 DUP3 ADD SWAP1 POP DUP2 DUP2 SUB PUSH1 0x0 DUP4 ADD MSTORE PUSH2 0xF8E DUP2 PUSH2 0xE27 JUMP JUMPDEST SWAP1 POP SWAP2 SWAP1 POP JUMP JUMPDEST PUSH1 0x0 PUSH1 0x20 DUP3 ADD SWAP1 POP PUSH2 0xFAA PUSH1 0x0 DUP4 ADD DUP5 PUSH2 0xE67 JUMP JUMPDEST SWAP3 SWAP2 POP POP JUMP JUMPDEST PUSH1 0x0 DUP3 DUP3 MSTORE PUSH1 0x20 DUP3 ADD SWAP1 POP SWAP3 SWAP2 POP POP JUMP JUMPDEST PUSH1 0x0 PUSH2 0xFCC DUP3 PUSH2 0x1285 JUMP JUMPDEST SWAP2 POP PUSH2 0xFD7 DUP4 PUSH2 0x1285 JUMP JUMPDEST SWAP3 POP DUP3 PUSH32 0xFFFFFFFFFFFFFFFFFFFFFFFFFFFFFFFFFFFFFFFFFFFFFFFFFFFFFFFFFFFFFFFF SUB DUP3 GT ISZERO PUSH2 0x100C JUMPI PUSH2 0x100B PUSH2 0x12C5 JUMP JUMPDEST JUMPDEST DUP3 DUP3 ADD SWAP1 POP SWAP3 SWAP2 POP POP JUMP JUMPDEST PUSH1 0x0 PUSH2 0x1022 DUP3 PUSH2 0x1285 JUMP JUMPDEST SWAP2 POP PUSH2 0x102D DUP4 PUSH2 0x1285 JUMP JUMPDEST SWAP3 POP DUP3 PUSH2 0x103D JUMPI PUSH2 0x103C PUSH2 0x12F4 JUMP JUMPDEST JUMPDEST DUP3 DUP3 DIV SWAP1 POP SWAP3 SWAP2 POP POP JUMP JUMPDEST PUSH1 0x0 DUP1 DUP3 SWAP2 POP DUP4 SWAP1 POP JUMPDEST PUSH1 0x1 DUP6 GT ISZERO PUSH2 0x1092 JUMPI DUP1 DUP7 DIV DUP2 GT ISZERO PUSH2 0x106E JUMPI PUSH2 0x106D PUSH2 0x12C5 JUMP JUMPDEST JUMPDEST PUSH1 0x1 DUP6 AND ISZERO PUSH2 0x107D JUMPI DUP1 DUP3 MUL SWAP2 POP JUMPDEST DUP1 DUP2 MUL SWAP1 POP PUSH2 0x108B DUP6 PUSH2 0x1323 JUMP JUMPDEST SWAP5 POP PUSH2 0x1052 JUMP JUMPDEST SWAP5 POP SWAP5 SWAP3 POP POP POP JUMP JUMPDEST PUSH1 0x0 PUSH2 0x10A6 DUP3 PUSH2 0x1285 JUMP JUMPDEST SWAP2 POP PUSH2 0x10B1 DUP4 PUSH2 0x1285 JUMP JUMPDEST SWAP3 POP PUSH2 0x10DE PUSH32 0xFFFFFFFFFFFFFFFFFFFFFFFFFFFFFFFFFFFFFFFFFFFFFFFFFFFFFFFFFFFFFFFF DUP5 DUP5 PUSH2 0x10E6 JUMP JUMPDEST SWAP1 POP SWAP3 SWAP2 POP POP JUMP JUMPDEST PUSH1 0x0 DUP3 PUSH2 0x10F6 JUMPI PUSH1 0x1 SWAP1 POP PUSH2 0x11B2 JUMP JUMPDEST DUP2 PUSH2 0x1104 JUMPI PUSH1 0x0 SWAP1 POP PUSH2 0x11B2 JUMP JUMPDEST DUP2 PUSH1 0x1 DUP2 EQ PUSH2 0x111A JUMPI PUSH1 0x2 DUP2 EQ PUSH2 0x1124 JUMPI PUSH2 0x1153 JUMP JUMPDEST PUSH1 0x1 SWAP2 POP POP PUSH2 0x11B2 JUMP JUMPDEST PUSH1 0xFF DUP5 GT ISZERO PUSH2 0x1136 JUMPI PUSH2 0x1135 PUSH2 0x12C5 JUMP JUMPDEST JUMPDEST DUP4 PUSH1 0x2 EXP SWAP2 POP DUP5 DUP3 GT ISZERO PUSH2 0x114D JUMPI PUSH2 0x114C PUSH2 0x12C5 JUMP JUMPDEST JUMPDEST POP PUSH2 0x11B2 JUMP JUMPDEST POP PUSH1 0x20 DUP4 LT PUSH2 0x133 DUP4 LT AND PUSH1 0x4E DUP5 LT PUSH1 0xB DUP5 LT AND OR ISZERO PUSH2 0x1188 JUMPI DUP3 DUP3 EXP SWAP1 POP DUP4 DUP2 GT ISZERO PUSH2 0x1183 JUMPI PUSH2 0x1182 PUSH2 0x12C5 JUMP JUMPDEST JUMPDEST PUSH2 0x11B2 JUMP JUMPDEST PUSH2 0x1195 DUP5 DUP5 DUP5 PUSH1 0x1 PUSH2 0x1048 JUMP JUMPDEST SWAP3 POP SWAP1 POP DUP2 DUP5 DIV DUP2 GT ISZERO PUSH2 0x11AC JUMPI PUSH2 0x11AB PUSH2 0x12C5 JUMP JUMPDEST JUMPDEST DUP2 DUP2 MUL SWAP1 POP JUMPDEST SWAP4 SWAP3 POP POP POP JUMP JUMPDEST PUSH1 0x0 PUSH2 0x11C4 DUP3 PUSH2 0x1285 JUMP JUMPDEST SWAP2 POP PUSH2 0x11CF DUP4 PUSH2 0x1285 JUMP JUMPDEST SWAP3 POP DUP2 PUSH32 0xFFFFFFFFFFFFFFFFFFFFFFFFFFFFFFFFFFFFFFFFFFFFFFFFFFFFFFFFFFFFFFFF DIV DUP4 GT DUP3 ISZERO ISZERO AND ISZERO PUSH2 0x1208 JUMPI PUSH2 0x1207 PUSH2 0x12C5 JUMP JUMPDEST JUMPDEST DUP3 DUP3 MUL SWAP1 POP SWAP3 SWAP2 POP POP JUMP JUMPDEST PUSH1 0x0 PUSH2 0x121E DUP3 PUSH2 0x1285 JUMP JUMPDEST SWAP2 POP PUSH2 0x1229 DUP4 PUSH2 0x1285 JUMP JUMPDEST SWAP3 POP DUP3 DUP3 LT ISZERO PUSH2 0x123C JUMPI PUSH2 0x123B PUSH2 0x12C5 JUMP JUMPDEST JUMPDEST DUP3 DUP3 SUB SWAP1 POP SWAP3 SWAP2 POP POP JUMP JUMPDEST PUSH1 0x0 PUSH2 0x1252 DUP3 PUSH2 0x1265 JUMP JUMPDEST SWAP1 POP SWAP2 SWAP1 POP JUMP JUMPDEST PUSH1 0x0 DUP2 ISZERO ISZERO SWAP1 POP SWAP2 SWAP1 POP JUMP JUMPDEST PUSH1 0x0 PUSH20 0xFFFFFFFFFFFFFFFFFFFFFFFFFFFFFFFFFFFFFFFF DUP3 AND SWAP1 POP SWAP2 SWAP1 POP JUMP JUMPDEST PUSH1 0x0 DUP2 SWAP1 POP SWAP2 SWAP1 POP JUMP JUMPDEST PUSH1 0x0 PUSH2 0x129A DUP3 PUSH2 0x12A1 JUMP JUMPDEST SWAP1 POP SWAP2 SWAP1 POP JUMP JUMPDEST PUSH1 0x0 PUSH2 0x12AC DUP3 PUSH2 0x12B3 JUMP JUMPDEST SWAP1 POP SWAP2 SWAP1 POP JUMP JUMPDEST PUSH1 0x0 PUSH2 0x12BE DUP3 PUSH2 0x1265 JUMP JUMPDEST SWAP1 POP SWAP2 SWAP1 POP JUMP JUMPDEST PUSH32 0x4E487B7100000000000000000000000000000000000000000000000000000000 PUSH1 0x0 MSTORE PUSH1 0x11 PUSH1 0x4 MSTORE PUSH1 0x24 PUSH1 0x0 REVERT JUMPDEST PUSH32 0x4E487B7100000000000000000000000000000000000000000000000000000000 PUSH1 0x0 MSTORE PUSH1 0x12 PUSH1 0x4 MSTORE PUSH1 0x24 PUSH1 0x0 REVERT JUMPDEST PUSH1 0x0 DUP2 PUSH1 0x1 SHR SWAP1 POP SWAP2 SWAP1 POP JUMP JUMPDEST PUSH2 0x1339 DUP2 PUSH2 0x1247 JUMP JUMPDEST DUP2 EQ PUSH2 0x1344 JUMPI PUSH1 0x0 DUP1 REVERT JUMPDEST POP JUMP JUMPDEST PUSH2 0x1350 DUP2 PUSH2 0x1259 JUMP JUMPDEST DUP2 EQ PUSH2 0x135B JUMPI PUSH1 0x0 DUP1 REVERT JUMPDEST POP JUMP JUMPDEST PUSH2 0x1367 DUP2 PUSH2 0x1285 JUMP JUMPDEST DUP2 EQ PUSH2 0x1372 JUMPI PUSH1 0x0 DUP1 REVERT JUMPDEST POP JUMP INVALID LOG2 PUSH5 0x6970667358 0x22 SLT KECCAK256 DUP14 0x2D CALLVALUE GASLIMIT 0xC 0xAB DUP13 DUP10 0x4A DELEGATECALL 0xAD 0xDA LT DUP4 PUSH10 0x963B42401C857849B50F SMOD ORIGIN 0xA5 0xE0 PUSH1 0xEA 0xAF PUSH5 0x736F6C6343 STOP ADDMOD STOP STOP CALLER "
				},
				"gasEstimates": {
					"creation": {
						"codeDepositCost": "1007000",
						"executionCost": "infinite",
						"totalCost": "infinite"
					},
					"external": {
						"buyTokens()": "infinite",
						"calculateAmount(uint256)": "infinite",
						"endTime()": "1219",
						"getRemainingReward()": "infinite",
						"getTokenInETH(uint256)": "infinite",
						"isActive()": "2030",
						"owner()": "1267",
						"renounceOwnership()": "24418",
						"soldAmount()": "1195",
						"startTime()": "1240",
						"token()": "1324",
						"tokenDecimal()": "1196",
						"tokenRate()": "1197",
						"totalRaise()": "1152",
						"totalRewardTokens()": "1153",
						"transferOwnership(address)": "24722",
						"withdrawETHBalance()": "infinite",
						"withdrawRemainingTokens()": "infinite"
					}
				},
				"methodIdentifiers": {
					"buyTokens()": "d0febe4c",
					"calculateAmount(uint256)": "48dc5893",
					"endTime()": "3197cbb6",
					"getRemainingReward()": "c0b5fca0",
					"getTokenInETH(uint256)": "fa300f75",
					"isActive()": "22f3e2d4",
					"owner()": "8da5cb5b",
					"renounceOwnership()": "715018a6",
					"soldAmount()": "fa1a5f59",
					"startTime()": "78e97925",
					"token()": "fc0c546a",
					"tokenDecimal()": "5caed029",
					"tokenRate()": "31711884",
					"totalRaise()": "3996dc8f",
					"totalRewardTokens()": "1b0875a6",
					"transferOwnership(address)": "f2fde38b",
					"withdrawETHBalance()": "b3b9bcdf",
					"withdrawRemainingTokens()": "8afbf669"
				}
			},
			"storageLayout": {
				"storage": [
					{
						"astId": 4,
						"contract": "IDO.sol:IDO",
						"label": "_owner",
						"offset": 0,
						"slot": "0",
						"type": "t_address"
					},
					{
						"astId": 216,
						"contract": "IDO.sol:IDO",
						"label": "token",
						"offset": 0,
						"slot": "1",
						"type": "t_address"
					},
					{
						"astId": 218,
						"contract": "IDO.sol:IDO",
						"label": "tokenDecimal",
						"offset": 0,
						"slot": "2",
						"type": "t_uint256"
					},
					{
						"astId": 220,
						"contract": "IDO.sol:IDO",
						"label": "startTime",
						"offset": 0,
						"slot": "3",
						"type": "t_uint256"
					},
					{
						"astId": 222,
						"contract": "IDO.sol:IDO",
						"label": "endTime",
						"offset": 0,
						"slot": "4",
						"type": "t_uint256"
					},
					{
						"astId": 224,
						"contract": "IDO.sol:IDO",
						"label": "tokenRate",
						"offset": 0,
						"slot": "5",
						"type": "t_uint256"
					},
					{
						"astId": 226,
						"contract": "IDO.sol:IDO",
						"label": "soldAmount",
						"offset": 0,
						"slot": "6",
						"type": "t_uint256"
					},
					{
						"astId": 228,
						"contract": "IDO.sol:IDO",
						"label": "totalRaise",
						"offset": 0,
						"slot": "7",
						"type": "t_uint256"
					},
					{
						"astId": 230,
						"contract": "IDO.sol:IDO",
						"label": "totalRewardTokens",
						"offset": 0,
						"slot": "8",
						"type": "t_uint256"
					}
				],
				"types": {
					"t_address": {
						"encoding": "inplace",
						"label": "address",
						"numberOfBytes": "20"
					},
					"t_uint256": {
						"encoding": "inplace",
						"label": "uint256",
						"numberOfBytes": "32"
					}
				}
			},
			"userdoc": {
				"kind": "user",
				"methods": {},
				"version": 1
			}
		}
	}
}