{
	"IDO.sol": {
		"IDO": {
			"abi": [
				{
					"inputs": [
						{
							"internalType": "address",
							"name": "_token",
							"type": "address"
						},
						{
							"internalType": "uint256",
							"name": "_startTime",
							"type": "uint256"
						},
						{
							"internalType": "uint256",
							"name": "_endTime",
							"type": "uint256"
						},
						{
							"internalType": "uint256",
							"name": "_tokenRate",
							"type": "uint256"
						},
						{
							"internalType": "uint256",
							"name": "_totalRewardTokens",
							"type": "uint256"
						}
					],
					"stateMutability": "nonpayable",
					"type": "constructor"
				},
				{
					"anonymous": false,
					"inputs": [
						{
							"indexed": true,
							"internalType": "address",
							"name": "previousOwner",
							"type": "address"
						},
						{
							"indexed": true,
							"internalType": "address",
							"name": "newOwner",
							"type": "address"
						}
					],
					"name": "OwnershipTransferred",
					"type": "event"
				},
				{
					"inputs": [],
					"name": "buyTokens",
					"outputs": [],
					"stateMutability": "payable",
					"type": "function"
				},
				{
					"inputs": [
						{
							"internalType": "uint256",
							"name": "_acceptedAmount",
							"type": "uint256"
						}
					],
					"name": "calculateAmount",
					"outputs": [
						{
							"internalType": "uint256",
							"name": "",
							"type": "uint256"
						}
					],
					"stateMutability": "view",
					"type": "function"
				},
				{
					"inputs": [],
					"name": "endTime",
					"outputs": [
						{
							"internalType": "uint256",
							"name": "",
							"type": "uint256"
						}
					],
					"stateMutability": "view",
					"type": "function"
				},
				{
					"inputs": [],
					"name": "getRemainingReward",
					"outputs": [
						{
							"internalType": "uint256",
							"name": "",
							"type": "uint256"
						}
					],
					"stateMutability": "view",
					"type": "function"
				},
				{
					"inputs": [
						{
							"internalType": "uint256",
							"name": "_tokens",
							"type": "uint256"
						}
					],
					"name": "getTokenInETH",
					"outputs": [
						{
							"internalType": "uint256",
							"name": "",
							"type": "uint256"
						}
					],
					"stateMutability": "view",
					"type": "function"
				},
				{
					"inputs": [],
					"name": "isActive",
					"outputs": [
						{
							"internalType": "bool",
							"name": "",
							"type": "bool"
						}
					],
					"stateMutability": "view",
					"type": "function"
				},
				{
					"inputs": [],
					"name": "owner",
					"outputs": [
						{
							"internalType": "address",
							"name": "",
							"type": "address"
						}
					],
					"stateMutability": "view",
					"type": "function"
				},
				{
					"inputs": [],
					"name": "renounceOwnership",
					"outputs": [],
					"stateMutability": "nonpayable",
					"type": "function"
				},
				{
					"inputs": [],
					"name": "soldAmount",
					"outputs": [
						{
							"internalType": "uint256",
							"name": "",
							"type": "uint256"
						}
					],
					"stateMutability": "view",
					"type": "function"
				},
				{
					"inputs": [],
					"name": "startTime",
					"outputs": [
						{
							"internalType": "uint256",
							"name": "",
							"type": "uint256"
						}
					],
					"stateMutability": "view",
					"type": "function"
				},
				{
					"inputs": [],
					"name": "token",
					"outputs": [
						{
							"internalType": "address",
							"name": "",
							"type": "address"
						}
					],
					"stateMutability": "view",
					"type": "function"
				},
				{
					"inputs": [],
					"name": "tokenDecimal",
					"outputs": [
						{
							"internalType": "uint256",
							"name": "",
							"type": "uint256"
						}
					],
					"stateMutability": "view",
					"type": "function"
				},
				{
					"inputs": [],
					"name": "tokenRate",
					"outputs": [
						{
							"internalType": "uint256",
							"name": "",
							"type": "uint256"
						}
					],
					"stateMutability": "view",
					"type": "function"
				},
				{
					"inputs": [],
					"name": "totalRaise",
					"outputs": [
						{
							"internalType": "uint256",
							"name": "",
							"type": "uint256"
						}
					],
					"stateMutability": "view",
					"type": "function"
				},
				{
					"inputs": [],
					"name": "totalRewardTokens",
					"outputs": [
						{
							"internalType": "uint256",
							"name": "",
							"type": "uint256"
						}
					],
					"stateMutability": "view",
					"type": "function"
				},
				{
					"inputs": [
						{
							"internalType": "address",
							"name": "newOwner",
							"type": "address"
						}
					],
					"name": "transferOwnership",
					"outputs": [],
					"stateMutability": "nonpayable",
					"type": "function"
				},
				{
					"inputs": [],
					"name": "withdrawETHBalance",
					"outputs": [],
					"stateMutability": "nonpayable",
					"type": "function"
				}
			],
			"devdoc": {
				"kind": "dev",
				"methods": {
					"owner()": {
						"details": "Returns the address of the current owner."
					},
					"renounceOwnership()": {
						"details": "Leaves the contract without owner. It will not be possible to call `onlyOwner` functions anymore. Can only be called by the current owner. NOTE: Renouncing ownership will leave the contract without an owner, thereby removing any functionality that is only available to the owner."
					},
					"transferOwnership(address)": {
						"details": "Transfers ownership of the contract to a new account (`newOwner`). Can only be called by the current owner."
					}
				},
				"version": 1
			},
			"evm": {
				"assembly": "    /* \"IDO.sol\":5428:8412  contract IDO is Ownable {\r... */\n  mstore(0x40, 0x80)\n    /* \"IDO.sol\":6012:6524  constructor (address _token, uint256 _startTime, uint256 _endTime, uint256 _tokenRate, uint256 _totalRewardTokens){\r... */\n  callvalue\n  dup1\n  iszero\n  tag_1\n  jumpi\n  0x00\n  dup1\n  revert\ntag_1:\n  pop\n  mload(0x40)\n  sub(codesize, bytecodeSize)\n  dup1\n  bytecodeSize\n  dup4\n  codecopy\n  dup2\n  dup2\n  add\n  0x40\n  mstore\n  dup2\n  add\n  swap1\n  tag_2\n  swap2\n  swap1\n  tag_3\n  jump\t// in\ntag_2:\n    /* \"IDO.sol\":981:998  address msgSender */\n  0x00\n    /* \"IDO.sol\":1001:1013  _msgSender() */\n  tag_7\n    /* \"IDO.sol\":1001:1011  _msgSender */\n  shl(0x20, tag_8)\n    /* \"IDO.sol\":1001:1013  _msgSender() */\n  0x20\n  shr\n  jump\t// in\ntag_7:\n    /* \"IDO.sol\":981:1013  address msgSender = _msgSender() */\n  swap1\n  pop\n    /* \"IDO.sol\":1033:1042  msgSender */\n  dup1\n    /* \"IDO.sol\":1024:1030  _owner */\n  0x00\n  dup1\n    /* \"IDO.sol\":1024:1042  _owner = msgSender */\n  0x0100\n  exp\n  dup2\n  sload\n  dup2\n  0xffffffffffffffffffffffffffffffffffffffff\n  mul\n  not\n  and\n  swap1\n  dup4\n  0xffffffffffffffffffffffffffffffffffffffff\n  and\n  mul\n  or\n  swap1\n  sstore\n  pop\n    /* \"IDO.sol\":1091:1100  msgSender */\n  dup1\n    /* \"IDO.sol\":1058:1101  OwnershipTransferred(address(0), msgSender) */\n  0xffffffffffffffffffffffffffffffffffffffff\n  and\n    /* \"IDO.sol\":1087:1088  0 */\n  0x00\n    /* \"IDO.sol\":1058:1101  OwnershipTransferred(address(0), msgSender) */\n  0xffffffffffffffffffffffffffffffffffffffff\n  and\n  0x8be0079c531659141344cd1fd0a4f28419497f9722a3daafe3b4186f6b6457e0\n  mload(0x40)\n  mload(0x40)\n  dup1\n  swap2\n  sub\n  swap1\n  log3\n    /* \"IDO.sol\":955:1109  constructor () {\r... */\n  pop\n    /* \"IDO.sol\":6173:6174  0 */\n  0x00\n    /* \"IDO.sol\":6152:6158  _token */\n  dup6\n    /* \"IDO.sol\":6145:6168  IERC20(_token).decimals */\n  0xffffffffffffffffffffffffffffffffffffffff\n  and\n  0x313ce567\n    /* \"IDO.sol\":6145:6170  IERC20(_token).decimals() */\n  mload(0x40)\n  dup2\n  0xffffffff\n  and\n  0xe0\n  shl\n  dup2\n  mstore\n  0x04\n  add\n  0x20\n  mload(0x40)\n  dup1\n  dup4\n  sub\n  dup2\n  dup7\n  dup1\n  extcodesize\n  iszero\n  dup1\n  iszero\n  tag_10\n  jumpi\n  0x00\n  dup1\n  revert\ntag_10:\n  pop\n  gas\n  staticcall\n  iszero\n  dup1\n  iszero\n  tag_12\n  jumpi\n  returndatasize\n  0x00\n  dup1\n  returndatacopy\n  revert(0x00, returndatasize)\ntag_12:\n  pop\n  pop\n  pop\n  pop\n  mload(0x40)\n  returndatasize\n  not(0x1f)\n  0x1f\n  dup3\n  add\n  and\n  dup3\n  add\n  dup1\n  0x40\n  mstore\n  pop\n  dup2\n  add\n  swap1\n  tag_13\n  swap2\n  swap1\n  tag_14\n  jump\t// in\ntag_13:\n    /* \"IDO.sol\":6145:6174  IERC20(_token).decimals() > 0 */\n  0xff\n  and\n  gt\n    /* \"IDO.sol\":6137:6175  require(IERC20(_token).decimals() > 0) */\n  tag_15\n  jumpi\n  0x00\n  dup1\n  revert\ntag_15:\n    /* \"IDO.sol\":6207:6215  _endTime */\n  dup3\n    /* \"IDO.sol\":6194:6204  _startTime */\n  dup5\n    /* \"IDO.sol\":6194:6215  _startTime < _endTime */\n  lt\n    /* \"IDO.sol\":6186:6216  require(_startTime < _endTime) */\n  tag_16\n  jumpi\n  0x00\n  dup1\n  revert\ntag_16:\n    /* \"IDO.sol\":6248:6249  0 */\n  0x00\n    /* \"IDO.sol\":6235:6245  _tokenRate */\n  dup3\n    /* \"IDO.sol\":6235:6249  _tokenRate > 0 */\n  gt\n    /* \"IDO.sol\":6227:6250  require(_tokenRate > 0) */\n  tag_17\n  jumpi\n  0x00\n  dup1\n  revert\ntag_17:\n    /* \"IDO.sol\":6290:6291  0 */\n  0x00\n    /* \"IDO.sol\":6269:6287  _totalRewardTokens */\n  dup2\n    /* \"IDO.sol\":6269:6291  _totalRewardTokens > 0 */\n  gt\n    /* \"IDO.sol\":6261:6292  require(_totalRewardTokens > 0) */\n  tag_18\n  jumpi\n  0x00\n  dup1\n  revert\ntag_18:\n    /* \"IDO.sol\":6313:6319  _token */\n  dup5\n    /* \"IDO.sol\":6305:6310  token */\n  0x01\n  0x00\n    /* \"IDO.sol\":6305:6319  token = _token */\n  0x0100\n  exp\n  dup2\n  sload\n  dup2\n  0xffffffffffffffffffffffffffffffffffffffff\n  mul\n  not\n  and\n  swap1\n  dup4\n  0xffffffffffffffffffffffffffffffffffffffff\n  and\n  mul\n  or\n  swap1\n  sstore\n  pop\n    /* \"IDO.sol\":6352:6358  _token */\n  dup5\n    /* \"IDO.sol\":6345:6368  IERC20(_token).decimals */\n  0xffffffffffffffffffffffffffffffffffffffff\n  and\n  0x313ce567\n    /* \"IDO.sol\":6345:6370  IERC20(_token).decimals() */\n  mload(0x40)\n  dup2\n  0xffffffff\n  and\n  0xe0\n  shl\n  dup2\n  mstore\n  0x04\n  add\n  0x20\n  mload(0x40)\n  dup1\n  dup4\n  sub\n  dup2\n  dup7\n  dup1\n  extcodesize\n  iszero\n  dup1\n  iszero\n  tag_19\n  jumpi\n  0x00\n  dup1\n  revert\ntag_19:\n  pop\n  gas\n  staticcall\n  iszero\n  dup1\n  iszero\n  tag_21\n  jumpi\n  returndatasize\n  0x00\n  dup1\n  returndatacopy\n  revert(0x00, returndatasize)\ntag_21:\n  pop\n  pop\n  pop\n  pop\n  mload(0x40)\n  returndatasize\n  not(0x1f)\n  0x1f\n  dup3\n  add\n  and\n  dup3\n  add\n  dup1\n  0x40\n  mstore\n  pop\n  dup2\n  add\n  swap1\n  tag_22\n  swap2\n  swap1\n  tag_14\n  jump\t// in\ntag_22:\n    /* \"IDO.sol\":6330:6370  tokenDecimal = IERC20(_token).decimals() */\n  0xff\n  and\n    /* \"IDO.sol\":6330:6342  tokenDecimal */\n  0x02\n    /* \"IDO.sol\":6330:6370  tokenDecimal = IERC20(_token).decimals() */\n  dup2\n  swap1\n  sstore\n  pop\n    /* \"IDO.sol\":6395:6405  _startTime */\n  dup4\n    /* \"IDO.sol\":6383:6392  startTime */\n  0x03\n    /* \"IDO.sol\":6383:6405  startTime = _startTime */\n  dup2\n  swap1\n  sstore\n  pop\n    /* \"IDO.sol\":6426:6434  _endTime */\n  dup3\n    /* \"IDO.sol\":6416:6423  endTime */\n  0x04\n    /* \"IDO.sol\":6416:6434  endTime = _endTime */\n  dup2\n  swap1\n  sstore\n  pop\n    /* \"IDO.sol\":6457:6467  _tokenRate */\n  dup2\n    /* \"IDO.sol\":6445:6454  tokenRate */\n  0x05\n    /* \"IDO.sol\":6445:6467  tokenRate = _tokenRate */\n  dup2\n  swap1\n  sstore\n  pop\n    /* \"IDO.sol\":6498:6516  _totalRewardTokens */\n  dup1\n    /* \"IDO.sol\":6478:6495  totalRewardTokens */\n  0x08\n    /* \"IDO.sol\":6478:6516  totalRewardTokens = _totalRewardTokens */\n  dup2\n  swap1\n  sstore\n  pop\n    /* \"IDO.sol\":6012:6524  constructor (address _token, uint256 _startTime, uint256 _endTime, uint256 _tokenRate, uint256 _totalRewardTokens){\r... */\n  pop\n  pop\n  pop\n  pop\n  pop\n    /* \"IDO.sol\":5428:8412  contract IDO is Ownable {\r... */\n  jump(tag_23)\n    /* \"IDO.sol\":735:850  function _msgSender() internal view virtual returns (address payable) {\r... */\ntag_8:\n    /* \"IDO.sol\":788:803  address payable */\n  0x00\n    /* \"IDO.sol\":831:841  msg.sender */\n  caller\n    /* \"IDO.sol\":816:842  return payable(msg.sender) */\n  swap1\n  pop\n    /* \"IDO.sol\":735:850  function _msgSender() internal view virtual returns (address payable) {\r... */\n  swap1\n  jump\t// out\n    /* \"#utility.yul\":7:150   */\ntag_26:\n  0x00\n    /* \"#utility.yul\":95:101   */\n  dup2\n    /* \"#utility.yul\":89:102   */\n  mload\n    /* \"#utility.yul\":80:102   */\n  swap1\n  pop\n    /* \"#utility.yul\":111:144   */\n  tag_28\n    /* \"#utility.yul\":138:143   */\n  dup2\n    /* \"#utility.yul\":111:144   */\n  tag_29\n  jump\t// in\ntag_28:\n    /* \"#utility.yul\":70:150   */\n  swap3\n  swap2\n  pop\n  pop\n  jump\t// out\n    /* \"#utility.yul\":156:299   */\ntag_30:\n  0x00\n    /* \"#utility.yul\":244:250   */\n  dup2\n    /* \"#utility.yul\":238:251   */\n  mload\n    /* \"#utility.yul\":229:251   */\n  swap1\n  pop\n    /* \"#utility.yul\":260:293   */\n  tag_32\n    /* \"#utility.yul\":287:292   */\n  dup2\n    /* \"#utility.yul\":260:293   */\n  tag_33\n  jump\t// in\ntag_32:\n    /* \"#utility.yul\":219:299   */\n  swap3\n  swap2\n  pop\n  pop\n  jump\t// out\n    /* \"#utility.yul\":305:444   */\ntag_34:\n  0x00\n    /* \"#utility.yul\":391:397   */\n  dup2\n    /* \"#utility.yul\":385:398   */\n  mload\n    /* \"#utility.yul\":376:398   */\n  swap1\n  pop\n    /* \"#utility.yul\":407:438   */\n  tag_36\n    /* \"#utility.yul\":432:437   */\n  dup2\n    /* \"#utility.yul\":407:438   */\n  tag_37\n  jump\t// in\ntag_36:\n    /* \"#utility.yul\":366:444   */\n  swap3\n  swap2\n  pop\n  pop\n  jump\t// out\n    /* \"#utility.yul\":450:1360   */\ntag_3:\n  0x00\n  dup1\n  0x00\n  dup1\n  0x00\n    /* \"#utility.yul\":637:640   */\n  0xa0\n    /* \"#utility.yul\":625:634   */\n  dup7\n    /* \"#utility.yul\":616:623   */\n  dup9\n    /* \"#utility.yul\":612:635   */\n  sub\n    /* \"#utility.yul\":608:641   */\n  slt\n    /* \"#utility.yul\":605:607   */\n  iszero\n  tag_39\n  jumpi\n    /* \"#utility.yul\":654:655   */\n  0x00\n    /* \"#utility.yul\":651:652   */\n  dup1\n    /* \"#utility.yul\":644:656   */\n  revert\n    /* \"#utility.yul\":605:607   */\ntag_39:\n    /* \"#utility.yul\":697:698   */\n  0x00\n    /* \"#utility.yul\":722:786   */\n  tag_40\n    /* \"#utility.yul\":778:785   */\n  dup9\n    /* \"#utility.yul\":769:775   */\n  dup3\n    /* \"#utility.yul\":758:767   */\n  dup10\n    /* \"#utility.yul\":754:776   */\n  add\n    /* \"#utility.yul\":722:786   */\n  tag_26\n  jump\t// in\ntag_40:\n    /* \"#utility.yul\":712:786   */\n  swap6\n  pop\n    /* \"#utility.yul\":668:796   */\n  pop\n    /* \"#utility.yul\":835:837   */\n  0x20\n    /* \"#utility.yul\":861:925   */\n  tag_41\n    /* \"#utility.yul\":917:924   */\n  dup9\n    /* \"#utility.yul\":908:914   */\n  dup3\n    /* \"#utility.yul\":897:906   */\n  dup10\n    /* \"#utility.yul\":893:915   */\n  add\n    /* \"#utility.yul\":861:925   */\n  tag_30\n  jump\t// in\ntag_41:\n    /* \"#utility.yul\":851:925   */\n  swap5\n  pop\n    /* \"#utility.yul\":806:935   */\n  pop\n    /* \"#utility.yul\":974:976   */\n  0x40\n    /* \"#utility.yul\":1000:1064   */\n  tag_42\n    /* \"#utility.yul\":1056:1063   */\n  dup9\n    /* \"#utility.yul\":1047:1053   */\n  dup3\n    /* \"#utility.yul\":1036:1045   */\n  dup10\n    /* \"#utility.yul\":1032:1054   */\n  add\n    /* \"#utility.yul\":1000:1064   */\n  tag_30\n  jump\t// in\ntag_42:\n    /* \"#utility.yul\":990:1064   */\n  swap4\n  pop\n    /* \"#utility.yul\":945:1074   */\n  pop\n    /* \"#utility.yul\":1113:1115   */\n  0x60\n    /* \"#utility.yul\":1139:1203   */\n  tag_43\n    /* \"#utility.yul\":1195:1202   */\n  dup9\n    /* \"#utility.yul\":1186:1192   */\n  dup3\n    /* \"#utility.yul\":1175:1184   */\n  dup10\n    /* \"#utility.yul\":1171:1193   */\n  add\n    /* \"#utility.yul\":1139:1203   */\n  tag_30\n  jump\t// in\ntag_43:\n    /* \"#utility.yul\":1129:1203   */\n  swap3\n  pop\n    /* \"#utility.yul\":1084:1213   */\n  pop\n    /* \"#utility.yul\":1252:1255   */\n  0x80\n    /* \"#utility.yul\":1279:1343   */\n  tag_44\n    /* \"#utility.yul\":1335:1342   */\n  dup9\n    /* \"#utility.yul\":1326:1332   */\n  dup3\n    /* \"#utility.yul\":1315:1324   */\n  dup10\n    /* \"#utility.yul\":1311:1333   */\n  add\n    /* \"#utility.yul\":1279:1343   */\n  tag_30\n  jump\t// in\ntag_44:\n    /* \"#utility.yul\":1269:1343   */\n  swap2\n  pop\n    /* \"#utility.yul\":1223:1353   */\n  pop\n    /* \"#utility.yul\":595:1360   */\n  swap3\n  swap6\n  pop\n  swap3\n  swap6\n  swap1\n  swap4\n  pop\n  jump\t// out\n    /* \"#utility.yul\":1366:1646   */\ntag_14:\n  0x00\n    /* \"#utility.yul\":1483:1485   */\n  0x20\n    /* \"#utility.yul\":1471:1480   */\n  dup3\n    /* \"#utility.yul\":1462:1469   */\n  dup5\n    /* \"#utility.yul\":1458:1481   */\n  sub\n    /* \"#utility.yul\":1454:1486   */\n  slt\n    /* \"#utility.yul\":1451:1453   */\n  iszero\n  tag_46\n  jumpi\n    /* \"#utility.yul\":1499:1500   */\n  0x00\n    /* \"#utility.yul\":1496:1497   */\n  dup1\n    /* \"#utility.yul\":1489:1501   */\n  revert\n    /* \"#utility.yul\":1451:1453   */\ntag_46:\n    /* \"#utility.yul\":1542:1543   */\n  0x00\n    /* \"#utility.yul\":1567:1629   */\n  tag_47\n    /* \"#utility.yul\":1621:1628   */\n  dup5\n    /* \"#utility.yul\":1612:1618   */\n  dup3\n    /* \"#utility.yul\":1601:1610   */\n  dup6\n    /* \"#utility.yul\":1597:1619   */\n  add\n    /* \"#utility.yul\":1567:1629   */\n  tag_34\n  jump\t// in\ntag_47:\n    /* \"#utility.yul\":1557:1629   */\n  swap2\n  pop\n    /* \"#utility.yul\":1513:1639   */\n  pop\n    /* \"#utility.yul\":1441:1646   */\n  swap3\n  swap2\n  pop\n  pop\n  jump\t// out\n    /* \"#utility.yul\":1652:1748   */\ntag_48:\n  0x00\n    /* \"#utility.yul\":1718:1742   */\n  tag_50\n    /* \"#utility.yul\":1736:1741   */\n  dup3\n    /* \"#utility.yul\":1718:1742   */\n  tag_51\n  jump\t// in\ntag_50:\n    /* \"#utility.yul\":1707:1742   */\n  swap1\n  pop\n    /* \"#utility.yul\":1697:1748   */\n  swap2\n  swap1\n  pop\n  jump\t// out\n    /* \"#utility.yul\":1754:1880   */\ntag_51:\n  0x00\n    /* \"#utility.yul\":1831:1873   */\n  0xffffffffffffffffffffffffffffffffffffffff\n    /* \"#utility.yul\":1824:1829   */\n  dup3\n    /* \"#utility.yul\":1820:1874   */\n  and\n    /* \"#utility.yul\":1809:1874   */\n  swap1\n  pop\n    /* \"#utility.yul\":1799:1880   */\n  swap2\n  swap1\n  pop\n  jump\t// out\n    /* \"#utility.yul\":1886:1963   */\ntag_53:\n  0x00\n    /* \"#utility.yul\":1952:1957   */\n  dup2\n    /* \"#utility.yul\":1941:1957   */\n  swap1\n  pop\n    /* \"#utility.yul\":1931:1963   */\n  swap2\n  swap1\n  pop\n  jump\t// out\n    /* \"#utility.yul\":1969:2055   */\ntag_55:\n  0x00\n    /* \"#utility.yul\":2044:2048   */\n  0xff\n    /* \"#utility.yul\":2037:2042   */\n  dup3\n    /* \"#utility.yul\":2033:2049   */\n  and\n    /* \"#utility.yul\":2022:2049   */\n  swap1\n  pop\n    /* \"#utility.yul\":2012:2055   */\n  swap2\n  swap1\n  pop\n  jump\t// out\n    /* \"#utility.yul\":2061:2183   */\ntag_29:\n    /* \"#utility.yul\":2134:2158   */\n  tag_58\n    /* \"#utility.yul\":2152:2157   */\n  dup2\n    /* \"#utility.yul\":2134:2158   */\n  tag_48\n  jump\t// in\ntag_58:\n    /* \"#utility.yul\":2127:2132   */\n  dup2\n    /* \"#utility.yul\":2124:2159   */\n  eq\n    /* \"#utility.yul\":2114:2116   */\n  tag_59\n  jumpi\n    /* \"#utility.yul\":2173:2174   */\n  0x00\n    /* \"#utility.yul\":2170:2171   */\n  dup1\n    /* \"#utility.yul\":2163:2175   */\n  revert\n    /* \"#utility.yul\":2114:2116   */\ntag_59:\n    /* \"#utility.yul\":2104:2183   */\n  pop\n  jump\t// out\n    /* \"#utility.yul\":2189:2311   */\ntag_33:\n    /* \"#utility.yul\":2262:2286   */\n  tag_61\n    /* \"#utility.yul\":2280:2285   */\n  dup2\n    /* \"#utility.yul\":2262:2286   */\n  tag_53\n  jump\t// in\ntag_61:\n    /* \"#utility.yul\":2255:2260   */\n  dup2\n    /* \"#utility.yul\":2252:2287   */\n  eq\n    /* \"#utility.yul\":2242:2244   */\n  tag_62\n  jumpi\n    /* \"#utility.yul\":2301:2302   */\n  0x00\n    /* \"#utility.yul\":2298:2299   */\n  dup1\n    /* \"#utility.yul\":2291:2303   */\n  revert\n    /* \"#utility.yul\":2242:2244   */\ntag_62:\n    /* \"#utility.yul\":2232:2311   */\n  pop\n  jump\t// out\n    /* \"#utility.yul\":2317:2435   */\ntag_37:\n    /* \"#utility.yul\":2388:2410   */\n  tag_64\n    /* \"#utility.yul\":2404:2409   */\n  dup2\n    /* \"#utility.yul\":2388:2410   */\n  tag_55\n  jump\t// in\ntag_64:\n    /* \"#utility.yul\":2381:2386   */\n  dup2\n    /* \"#utility.yul\":2378:2411   */\n  eq\n    /* \"#utility.yul\":2368:2370   */\n  tag_65\n  jumpi\n    /* \"#utility.yul\":2425:2426   */\n  0x00\n    /* \"#utility.yul\":2422:2423   */\n  dup1\n    /* \"#utility.yul\":2415:2427   */\n  revert\n    /* \"#utility.yul\":2368:2370   */\ntag_65:\n    /* \"#utility.yul\":2358:2435   */\n  pop\n  jump\t// out\n    /* \"IDO.sol\":5428:8412  contract IDO is Ownable {\r... */\ntag_23:\n  dataSize(sub_0)\n  dup1\n  dataOffset(sub_0)\n  0x00\n  codecopy\n  0x00\n  return\nstop\n\nsub_0: assembly {\n        /* \"IDO.sol\":5428:8412  contract IDO is Ownable {\r... */\n      mstore(0x40, 0x80)\n      jumpi(tag_1, lt(calldatasize, 0x04))\n      shr(0xe0, calldataload(0x00))\n      dup1\n      0x78e97925\n      gt\n      tag_19\n      jumpi\n      dup1\n      0xd0febe4c\n      gt\n      tag_20\n      jumpi\n      dup1\n      0xd0febe4c\n      eq\n      tag_14\n      jumpi\n      dup1\n      0xf2fde38b\n      eq\n      tag_15\n      jumpi\n      dup1\n      0xfa1a5f59\n      eq\n      tag_16\n      jumpi\n      dup1\n      0xfa300f75\n      eq\n      tag_17\n      jumpi\n      dup1\n      0xfc0c546a\n      eq\n      tag_18\n      jumpi\n      jump(tag_1)\n    tag_20:\n      dup1\n      0x78e97925\n      eq\n      tag_10\n      jumpi\n      dup1\n      0x8da5cb5b\n      eq\n      tag_11\n      jumpi\n      dup1\n      0xb3b9bcdf\n      eq\n      tag_12\n      jumpi\n      dup1\n      0xc0b5fca0\n      eq\n      tag_13\n      jumpi\n      jump(tag_1)\n    tag_19:\n      dup1\n      0x3996dc8f\n      gt\n      tag_21\n      jumpi\n      dup1\n      0x3996dc8f\n      eq\n      tag_6\n      jumpi\n      dup1\n      0x48dc5893\n      eq\n      tag_7\n      jumpi\n      dup1\n      0x5caed029\n      eq\n      tag_8\n      jumpi\n      dup1\n      0x715018a6\n      eq\n      tag_9\n      jumpi\n      jump(tag_1)\n    tag_21:\n      dup1\n      0x1b0875a6\n      eq\n      tag_2\n      jumpi\n      dup1\n      0x22f3e2d4\n      eq\n      tag_3\n      jumpi\n      dup1\n      0x31711884\n      eq\n      tag_4\n      jumpi\n      dup1\n      0x3197cbb6\n      eq\n      tag_5\n      jumpi\n    tag_1:\n      0x00\n      dup1\n      revert\n        /* \"IDO.sol\":5928:5960  uint256 public totalRewardTokens */\n    tag_2:\n      callvalue\n      dup1\n      iszero\n      tag_22\n      jumpi\n      0x00\n      dup1\n      revert\n    tag_22:\n      pop\n      tag_23\n      tag_24\n      jump\t// in\n    tag_23:\n      mload(0x40)\n      tag_25\n      swap2\n      swap1\n      tag_26\n      jump\t// in\n    tag_25:\n      mload(0x40)\n      dup1\n      swap2\n      sub\n      swap1\n      return\n        /* \"IDO.sol\":6532:6662  function isActive() public view returns (bool){\r... */\n    tag_3:\n      callvalue\n      dup1\n      iszero\n      tag_27\n      jumpi\n      0x00\n      dup1\n      revert\n    tag_27:\n      pop\n      tag_28\n      tag_29\n      jump\t// in\n    tag_28:\n      mload(0x40)\n      tag_30\n      swap2\n      swap1\n      tag_31\n      jump\t// in\n    tag_30:\n      mload(0x40)\n      dup1\n      swap2\n      sub\n      swap1\n      return\n        /* \"IDO.sol\":5697:5721  uint256 public tokenRate */\n    tag_4:\n      callvalue\n      dup1\n      iszero\n      tag_32\n      jumpi\n      0x00\n      dup1\n      revert\n    tag_32:\n      pop\n      tag_33\n      tag_34\n      jump\t// in\n    tag_33:\n      mload(0x40)\n      tag_35\n      swap2\n      swap1\n      tag_26\n      jump\t// in\n    tag_35:\n      mload(0x40)\n      dup1\n      swap2\n      sub\n      swap1\n      return\n        /* \"IDO.sol\":5666:5688  uint256 public endTime */\n    tag_5:\n      callvalue\n      dup1\n      iszero\n      tag_36\n      jumpi\n      0x00\n      dup1\n      revert\n    tag_36:\n      pop\n      tag_37\n      tag_38\n      jump\t// in\n    tag_37:\n      mload(0x40)\n      tag_39\n      swap2\n      swap1\n      tag_26\n      jump\t// in\n    tag_39:\n      mload(0x40)\n      dup1\n      swap2\n      sub\n      swap1\n      return\n        /* \"IDO.sol\":5846:5871  uint256 public totalRaise */\n    tag_6:\n      callvalue\n      dup1\n      iszero\n      tag_40\n      jumpi\n      0x00\n      dup1\n      revert\n    tag_40:\n      pop\n      tag_41\n      tag_42\n      jump\t// in\n    tag_41:\n      mload(0x40)\n      tag_43\n      swap2\n      swap1\n      tag_26\n      jump\t// in\n    tag_43:\n      mload(0x40)\n      dup1\n      swap2\n      sub\n      swap1\n      return\n        /* \"IDO.sol\":6865:7071  function calculateAmount(uint256 _acceptedAmount) public view returns (uint256){\r... */\n    tag_7:\n      callvalue\n      dup1\n      iszero\n      tag_44\n      jumpi\n      0x00\n      dup1\n      revert\n    tag_44:\n      pop\n      tag_45\n      0x04\n      dup1\n      calldatasize\n      sub\n      dup2\n      add\n      swap1\n      tag_46\n      swap2\n      swap1\n      tag_47\n      jump\t// in\n    tag_46:\n      tag_48\n      jump\t// in\n    tag_45:\n      mload(0x40)\n      tag_49\n      swap2\n      swap1\n      tag_26\n      jump\t// in\n    tag_49:\n      mload(0x40)\n      dup1\n      swap2\n      sub\n      swap1\n      return\n        /* \"IDO.sol\":5516:5543  uint256 public tokenDecimal */\n    tag_8:\n      callvalue\n      dup1\n      iszero\n      tag_50\n      jumpi\n      0x00\n      dup1\n      revert\n    tag_50:\n      pop\n      tag_51\n      tag_52\n      jump\t// in\n    tag_51:\n      mload(0x40)\n      tag_53\n      swap2\n      swap1\n      tag_26\n      jump\t// in\n    tag_53:\n      mload(0x40)\n      dup1\n      swap2\n      sub\n      swap1\n      return\n        /* \"IDO.sol\":1831:1979  function renounceOwnership() public virtual onlyOwner {\r... */\n    tag_9:\n      callvalue\n      dup1\n      iszero\n      tag_54\n      jumpi\n      0x00\n      dup1\n      revert\n    tag_54:\n      pop\n      tag_55\n      tag_56\n      jump\t// in\n    tag_55:\n      stop\n        /* \"IDO.sol\":5581:5605  uint256 public startTime */\n    tag_10:\n      callvalue\n      dup1\n      iszero\n      tag_57\n      jumpi\n      0x00\n      dup1\n      revert\n    tag_57:\n      pop\n      tag_58\n      tag_59\n      jump\t// in\n    tag_58:\n      mload(0x40)\n      tag_60\n      swap2\n      swap1\n      tag_26\n      jump\t// in\n    tag_60:\n      mload(0x40)\n      dup1\n      swap2\n      sub\n      swap1\n      return\n        /* \"IDO.sol\":1188:1275  function owner() public view virtual returns (address) {\r... */\n    tag_11:\n      callvalue\n      dup1\n      iszero\n      tag_61\n      jumpi\n      0x00\n      dup1\n      revert\n    tag_61:\n      pop\n      tag_62\n      tag_63\n      jump\t// in\n    tag_62:\n      mload(0x40)\n      tag_64\n      swap2\n      swap1\n      tag_65\n      jump\t// in\n    tag_64:\n      mload(0x40)\n      dup1\n      swap2\n      sub\n      swap1\n      return\n        /* \"IDO.sol\":8210:8409  function withdrawETHBalance() external onlyOwner{\r... */\n    tag_12:\n      callvalue\n      dup1\n      iszero\n      tag_66\n      jumpi\n      0x00\n      dup1\n      revert\n    tag_66:\n      pop\n      tag_67\n      tag_68\n      jump\t// in\n    tag_67:\n      stop\n        /* \"IDO.sol\":7080:7196  function getRemainingReward() public view returns(uint256){\r... */\n    tag_13:\n      callvalue\n      dup1\n      iszero\n      tag_69\n      jumpi\n      0x00\n      dup1\n      revert\n    tag_69:\n      pop\n      tag_70\n      tag_71\n      jump\t// in\n    tag_70:\n      mload(0x40)\n      tag_72\n      swap2\n      swap1\n      tag_26\n      jump\t// in\n    tag_72:\n      mload(0x40)\n      dup1\n      swap2\n      sub\n      swap1\n      return\n        /* \"IDO.sol\":7205:8201  function buyTokens() external payable{\r... */\n    tag_14:\n      tag_73\n      tag_74\n      jump\t// in\n    tag_73:\n      stop\n        /* \"IDO.sol\":2131:2375  function transferOwnership(address newOwner) public virtual onlyOwner {\r... */\n    tag_15:\n      callvalue\n      dup1\n      iszero\n      tag_75\n      jumpi\n      0x00\n      dup1\n      revert\n    tag_75:\n      pop\n      tag_76\n      0x04\n      dup1\n      calldatasize\n      sub\n      dup2\n      add\n      swap1\n      tag_77\n      swap2\n      swap1\n      tag_78\n      jump\t// in\n    tag_77:\n      tag_79\n      jump\t// in\n    tag_76:\n      stop\n        /* \"IDO.sol\":5771:5796  uint256 public soldAmount */\n    tag_16:\n      callvalue\n      dup1\n      iszero\n      tag_80\n      jumpi\n      0x00\n      dup1\n      revert\n    tag_80:\n      pop\n      tag_81\n      tag_82\n      jump\t// in\n    tag_81:\n      mload(0x40)\n      tag_83\n      swap2\n      swap1\n      tag_26\n      jump\t// in\n    tag_83:\n      mload(0x40)\n      dup1\n      swap2\n      sub\n      swap1\n      return\n        /* \"IDO.sol\":6670:6856  function getTokenInETH(uint256 _tokens) public view returns (uint256){\r... */\n    tag_17:\n      callvalue\n      dup1\n      iszero\n      tag_84\n      jumpi\n      0x00\n      dup1\n      revert\n    tag_84:\n      pop\n      tag_85\n      0x04\n      dup1\n      calldatasize\n      sub\n      dup2\n      add\n      swap1\n      tag_86\n      swap2\n      swap1\n      tag_47\n      jump\t// in\n    tag_86:\n      tag_87\n      jump\t// in\n    tag_85:\n      mload(0x40)\n      tag_88\n      swap2\n      swap1\n      tag_26\n      jump\t// in\n    tag_88:\n      mload(0x40)\n      dup1\n      swap2\n      sub\n      swap1\n      return\n        /* \"IDO.sol\":5459:5479  address public token */\n    tag_18:\n      callvalue\n      dup1\n      iszero\n      tag_89\n      jumpi\n      0x00\n      dup1\n      revert\n    tag_89:\n      pop\n      tag_90\n      tag_91\n      jump\t// in\n    tag_90:\n      mload(0x40)\n      tag_92\n      swap2\n      swap1\n      tag_65\n      jump\t// in\n    tag_92:\n      mload(0x40)\n      dup1\n      swap2\n      sub\n      swap1\n      return\n        /* \"IDO.sol\":5928:5960  uint256 public totalRewardTokens */\n    tag_24:\n      sload(0x08)\n      dup2\n      jump\t// out\n        /* \"IDO.sol\":6532:6662  function isActive() public view returns (bool){\r... */\n    tag_29:\n        /* \"IDO.sol\":6573:6577  bool */\n      0x00\n        /* \"IDO.sol\":6609:6624  block.timestamp */\n      timestamp\n        /* \"IDO.sol\":6596:6605  startTime */\n      sload(0x03)\n        /* \"IDO.sol\":6596:6624  startTime <= block.timestamp */\n      gt\n      iszero\n        /* \"IDO.sol\":6596:6654  startTime <= block.timestamp && block.timestamp <= endTime */\n      dup1\n      iszero\n      tag_94\n      jumpi\n      pop\n        /* \"IDO.sol\":6647:6654  endTime */\n      sload(0x04)\n        /* \"IDO.sol\":6628:6643  block.timestamp */\n      timestamp\n        /* \"IDO.sol\":6628:6654  block.timestamp <= endTime */\n      gt\n      iszero\n        /* \"IDO.sol\":6596:6654  startTime <= block.timestamp && block.timestamp <= endTime */\n    tag_94:\n        /* \"IDO.sol\":6589:6654  return startTime <= block.timestamp && block.timestamp <= endTime */\n      swap1\n      pop\n        /* \"IDO.sol\":6532:6662  function isActive() public view returns (bool){\r... */\n      swap1\n      jump\t// out\n        /* \"IDO.sol\":5697:5721  uint256 public tokenRate */\n    tag_34:\n      sload(0x05)\n      dup2\n      jump\t// out\n        /* \"IDO.sol\":5666:5688  uint256 public endTime */\n    tag_38:\n      sload(0x04)\n      dup2\n      jump\t// out\n        /* \"IDO.sol\":5846:5871  uint256 public totalRaise */\n    tag_42:\n      sload(0x07)\n      dup2\n      jump\t// out\n        /* \"IDO.sol\":6865:7071  function calculateAmount(uint256 _acceptedAmount) public view returns (uint256){\r... */\n    tag_48:\n        /* \"IDO.sol\":6936:6943  uint256 */\n      0x00\n        /* \"IDO.sol\":6956:6977  uint256 _tokenDecimal */\n      dup1\n        /* \"IDO.sol\":6986:6998  tokenDecimal */\n      sload(0x02)\n        /* \"IDO.sol\":6980:6982  10 */\n      0x0a\n        /* \"IDO.sol\":6980:6998  10 ** tokenDecimal */\n      tag_96\n      swap2\n      swap1\n      tag_97\n      jump\t// in\n    tag_96:\n        /* \"IDO.sol\":6956:6998  uint256 _tokenDecimal = 10 ** tokenDecimal */\n      swap1\n      pop\n        /* \"IDO.sol\":7053:7062  tokenRate */\n      sload(0x05)\n        /* \"IDO.sol\":7036:7049  _tokenDecimal */\n      dup2\n        /* \"IDO.sol\":7018:7033  _acceptedAmount */\n      dup5\n        /* \"IDO.sol\":7018:7049  _acceptedAmount * _tokenDecimal */\n      tag_98\n      swap2\n      swap1\n      tag_99\n      jump\t// in\n    tag_98:\n        /* \"IDO.sol\":7017:7062  (_acceptedAmount * _tokenDecimal) / tokenRate */\n      tag_100\n      swap2\n      swap1\n      tag_101\n      jump\t// in\n    tag_100:\n        /* \"IDO.sol\":7010:7062  return (_acceptedAmount * _tokenDecimal) / tokenRate */\n      swap2\n      pop\n      pop\n        /* \"IDO.sol\":6865:7071  function calculateAmount(uint256 _acceptedAmount) public view returns (uint256){\r... */\n      swap2\n      swap1\n      pop\n      jump\t// out\n        /* \"IDO.sol\":5516:5543  uint256 public tokenDecimal */\n    tag_52:\n      sload(0x02)\n      dup2\n      jump\t// out\n        /* \"IDO.sol\":1831:1979  function renounceOwnership() public virtual onlyOwner {\r... */\n    tag_56:\n        /* \"IDO.sol\":1417:1429  _msgSender() */\n      tag_103\n        /* \"IDO.sol\":1417:1427  _msgSender */\n      tag_104\n        /* \"IDO.sol\":1417:1429  _msgSender() */\n      jump\t// in\n    tag_103:\n        /* \"IDO.sol\":1406:1429  owner() == _msgSender() */\n      0xffffffffffffffffffffffffffffffffffffffff\n      and\n        /* \"IDO.sol\":1406:1413  owner() */\n      tag_105\n        /* \"IDO.sol\":1406:1411  owner */\n      tag_63\n        /* \"IDO.sol\":1406:1413  owner() */\n      jump\t// in\n    tag_105:\n        /* \"IDO.sol\":1406:1429  owner() == _msgSender() */\n      0xffffffffffffffffffffffffffffffffffffffff\n      and\n      eq\n        /* \"IDO.sol\":1398:1466  require(owner() == _msgSender(), \"Ownable: caller is not the owner\") */\n      tag_106\n      jumpi\n      mload(0x40)\n      0x08c379a000000000000000000000000000000000000000000000000000000000\n      dup2\n      mstore\n      0x04\n      add\n      tag_107\n      swap1\n      tag_108\n      jump\t// in\n    tag_107:\n      mload(0x40)\n      dup1\n      swap2\n      sub\n      swap1\n      revert\n    tag_106:\n        /* \"IDO.sol\":1938:1939  0 */\n      0x00\n        /* \"IDO.sol\":1901:1941  OwnershipTransferred(_owner, address(0)) */\n      0xffffffffffffffffffffffffffffffffffffffff\n      and\n        /* \"IDO.sol\":1922:1928  _owner */\n      0x00\n      dup1\n      sload\n      swap1\n      0x0100\n      exp\n      swap1\n      div\n      0xffffffffffffffffffffffffffffffffffffffff\n      and\n        /* \"IDO.sol\":1901:1941  OwnershipTransferred(_owner, address(0)) */\n      0xffffffffffffffffffffffffffffffffffffffff\n      and\n      0x8be0079c531659141344cd1fd0a4f28419497f9722a3daafe3b4186f6b6457e0\n      mload(0x40)\n      mload(0x40)\n      dup1\n      swap2\n      sub\n      swap1\n      log3\n        /* \"IDO.sol\":1969:1970  0 */\n      0x00\n        /* \"IDO.sol\":1952:1958  _owner */\n      dup1\n      0x00\n        /* \"IDO.sol\":1952:1971  _owner = address(0) */\n      0x0100\n      exp\n      dup2\n      sload\n      dup2\n      0xffffffffffffffffffffffffffffffffffffffff\n      mul\n      not\n      and\n      swap1\n      dup4\n      0xffffffffffffffffffffffffffffffffffffffff\n      and\n      mul\n      or\n      swap1\n      sstore\n      pop\n        /* \"IDO.sol\":1831:1979  function renounceOwnership() public virtual onlyOwner {\r... */\n      jump\t// out\n        /* \"IDO.sol\":5581:5605  uint256 public startTime */\n    tag_59:\n      sload(0x03)\n      dup2\n      jump\t// out\n        /* \"IDO.sol\":1188:1275  function owner() public view virtual returns (address) {\r... */\n    tag_63:\n        /* \"IDO.sol\":1234:1241  address */\n      0x00\n        /* \"IDO.sol\":1261:1267  _owner */\n      dup1\n      0x00\n      swap1\n      sload\n      swap1\n      0x0100\n      exp\n      swap1\n      div\n      0xffffffffffffffffffffffffffffffffffffffff\n      and\n        /* \"IDO.sol\":1254:1267  return _owner */\n      swap1\n      pop\n        /* \"IDO.sol\":1188:1275  function owner() public view virtual returns (address) {\r... */\n      swap1\n      jump\t// out\n        /* \"IDO.sol\":8210:8409  function withdrawETHBalance() external onlyOwner{\r... */\n    tag_68:\n        /* \"IDO.sol\":1417:1429  _msgSender() */\n      tag_112\n        /* \"IDO.sol\":1417:1427  _msgSender */\n      tag_104\n        /* \"IDO.sol\":1417:1429  _msgSender() */\n      jump\t// in\n    tag_112:\n        /* \"IDO.sol\":1406:1429  owner() == _msgSender() */\n      0xffffffffffffffffffffffffffffffffffffffff\n      and\n        /* \"IDO.sol\":1406:1413  owner() */\n      tag_113\n        /* \"IDO.sol\":1406:1411  owner */\n      tag_63\n        /* \"IDO.sol\":1406:1413  owner() */\n      jump\t// in\n    tag_113:\n        /* \"IDO.sol\":1406:1429  owner() == _msgSender() */\n      0xffffffffffffffffffffffffffffffffffffffff\n      and\n      eq\n        /* \"IDO.sol\":1398:1466  require(owner() == _msgSender(), \"Ownable: caller is not the owner\") */\n      tag_114\n      jumpi\n      mload(0x40)\n      0x08c379a000000000000000000000000000000000000000000000000000000000\n      dup2\n      mstore\n      0x04\n      add\n      tag_115\n      swap1\n      tag_108\n      jump\t// in\n    tag_115:\n      mload(0x40)\n      dup1\n      swap2\n      sub\n      swap1\n      revert\n    tag_114:\n        /* \"IDO.sol\":8270:8293  address payable _sender */\n      0x00\n        /* \"IDO.sol\":8296:8308  _msgSender() */\n      tag_117\n        /* \"IDO.sol\":8296:8306  _msgSender */\n      tag_104\n        /* \"IDO.sol\":8296:8308  _msgSender() */\n      jump\t// in\n    tag_117:\n        /* \"IDO.sol\":8270:8308  address payable _sender = _msgSender() */\n      swap1\n      pop\n        /* \"IDO.sol\":8320:8336  uint256 _balance */\n      0x00\n        /* \"IDO.sol\":8339:8360  address(this).balance */\n      selfbalance\n        /* \"IDO.sol\":8320:8360  uint256 _balance = address(this).balance */\n      swap1\n      pop\n        /* \"IDO.sol\":8372:8379  _sender */\n      dup2\n        /* \"IDO.sol\":8372:8388  _sender.transfer */\n      0xffffffffffffffffffffffffffffffffffffffff\n      and\n        /* \"IDO.sol\":8372:8398  _sender.transfer(_balance) */\n      0x08fc\n        /* \"IDO.sol\":8389:8397  _balance */\n      dup3\n        /* \"IDO.sol\":8372:8398  _sender.transfer(_balance) */\n      swap1\n      dup2\n      iszero\n      mul\n      swap1\n      mload(0x40)\n      0x00\n      mload(0x40)\n      dup1\n      dup4\n      sub\n      dup2\n      dup6\n      dup9\n      dup9\n      call\n      swap4\n      pop\n      pop\n      pop\n      pop\n      iszero\n      dup1\n      iszero\n      tag_119\n      jumpi\n      returndatasize\n      0x00\n      dup1\n      returndatacopy\n      revert(0x00, returndatasize)\n    tag_119:\n      pop\n        /* \"IDO.sol\":1477:1478  _ */\n      pop\n      pop\n        /* \"IDO.sol\":8210:8409  function withdrawETHBalance() external onlyOwner{\r... */\n      jump\t// out\n        /* \"IDO.sol\":7080:7196  function getRemainingReward() public view returns(uint256){\r... */\n    tag_71:\n        /* \"IDO.sol\":7130:7137  uint256 */\n      0x00\n        /* \"IDO.sol\":7177:7187  soldAmount */\n      sload(0x06)\n        /* \"IDO.sol\":7157:7174  totalRewardTokens */\n      sload(0x08)\n        /* \"IDO.sol\":7157:7187  totalRewardTokens - soldAmount */\n      tag_121\n      swap2\n      swap1\n      tag_122\n      jump\t// in\n    tag_121:\n        /* \"IDO.sol\":7150:7187  return totalRewardTokens - soldAmount */\n      swap1\n      pop\n        /* \"IDO.sol\":7080:7196  function getRemainingReward() public view returns(uint256){\r... */\n      swap1\n      jump\t// out\n        /* \"IDO.sol\":7205:8201  function buyTokens() external payable{\r... */\n    tag_74:\n        /* \"IDO.sol\":7254:7284  address payable _senderAddress */\n      0x00\n        /* \"IDO.sol\":7287:7299  _msgSender() */\n      tag_124\n        /* \"IDO.sol\":7287:7297  _msgSender */\n      tag_104\n        /* \"IDO.sol\":7287:7299  _msgSender() */\n      jump\t// in\n    tag_124:\n        /* \"IDO.sol\":7254:7299  address payable _senderAddress = _msgSender() */\n      swap1\n      pop\n        /* \"IDO.sol\":7311:7334  uint256 _acceptedAmount */\n      0x00\n        /* \"IDO.sol\":7337:7346  msg.value */\n      callvalue\n        /* \"IDO.sol\":7311:7346  uint256 _acceptedAmount = msg.value */\n      swap1\n      pop\n        /* \"IDO.sol\":7368:7378  isActive() */\n      tag_125\n        /* \"IDO.sol\":7368:7376  isActive */\n      tag_29\n        /* \"IDO.sol\":7368:7378  isActive() */\n      jump\t// in\n    tag_125:\n        /* \"IDO.sol\":7360:7401  require(isActive(), \"Sale is not active\") */\n      tag_126\n      jumpi\n      mload(0x40)\n      0x08c379a000000000000000000000000000000000000000000000000000000000\n      dup2\n      mstore\n      0x04\n      add\n      tag_127\n      swap1\n      tag_128\n      jump\t// in\n    tag_127:\n      mload(0x40)\n      dup1\n      swap2\n      sub\n      swap1\n      revert\n    tag_126:\n        /* \"IDO.sol\":7439:7440  0 */\n      0x00\n        /* \"IDO.sol\":7421:7436  _acceptedAmount */\n      dup2\n        /* \"IDO.sol\":7421:7440  _acceptedAmount > 0 */\n      gt\n        /* \"IDO.sol\":7413:7468  require(_acceptedAmount > 0, \"Accepted amount is zero\") */\n      tag_129\n      jumpi\n      mload(0x40)\n      0x08c379a000000000000000000000000000000000000000000000000000000000\n      dup2\n      mstore\n      0x04\n      add\n      tag_130\n      swap1\n      tag_131\n      jump\t// in\n    tag_130:\n      mload(0x40)\n      dup1\n      swap2\n      sub\n      swap1\n      revert\n    tag_129:\n        /* \"IDO.sol\":7482:7505  uint256 _rewardedAmount */\n      0x00\n        /* \"IDO.sol\":7508:7540  calculateAmount(_acceptedAmount) */\n      tag_132\n        /* \"IDO.sol\":7524:7539  _acceptedAmount */\n      dup3\n        /* \"IDO.sol\":7508:7523  calculateAmount */\n      tag_48\n        /* \"IDO.sol\":7508:7540  calculateAmount(_acceptedAmount) */\n      jump\t// in\n    tag_132:\n        /* \"IDO.sol\":7482:7540  uint256 _rewardedAmount = calculateAmount(_acceptedAmount) */\n      swap1\n      pop\n        /* \"IDO.sol\":7552:7573  uint256 _unsoldTokens */\n      0x00\n        /* \"IDO.sol\":7576:7596  getRemainingReward() */\n      tag_133\n        /* \"IDO.sol\":7576:7594  getRemainingReward */\n      tag_71\n        /* \"IDO.sol\":7576:7596  getRemainingReward() */\n      jump\t// in\n    tag_133:\n        /* \"IDO.sol\":7552:7596  uint256 _unsoldTokens = getRemainingReward() */\n      swap1\n      pop\n        /* \"IDO.sol\":7631:7644  _unsoldTokens */\n      dup1\n        /* \"IDO.sol\":7613:7628  _rewardedAmount */\n      dup3\n        /* \"IDO.sol\":7613:7644  _rewardedAmount > _unsoldTokens */\n      gt\n        /* \"IDO.sol\":7610:7938  if(_rewardedAmount > _unsoldTokens){\r... */\n      iszero\n      tag_134\n      jumpi\n        /* \"IDO.sol\":7679:7692  _unsoldTokens */\n      dup1\n        /* \"IDO.sol\":7661:7692  _rewardedAmount = _unsoldTokens */\n      swap2\n      pop\n        /* \"IDO.sol\":7710:7731  uint256 _excessAmount */\n      0x00\n        /* \"IDO.sol\":7753:7781  getTokenInETH(_unsoldTokens) */\n      tag_135\n        /* \"IDO.sol\":7767:7780  _unsoldTokens */\n      dup3\n        /* \"IDO.sol\":7753:7766  getTokenInETH */\n      tag_87\n        /* \"IDO.sol\":7753:7781  getTokenInETH(_unsoldTokens) */\n      jump\t// in\n    tag_135:\n        /* \"IDO.sol\":7735:7750  _acceptedAmount */\n      dup5\n        /* \"IDO.sol\":7735:7781  _acceptedAmount - getTokenInETH(_unsoldTokens) */\n      tag_136\n      swap2\n      swap1\n      tag_122\n      jump\t// in\n    tag_136:\n        /* \"IDO.sol\":7710:7781  uint256 _excessAmount =  _acceptedAmount - getTokenInETH(_unsoldTokens) */\n      swap1\n      pop\n        /* \"IDO.sol\":7797:7811  _senderAddress */\n      dup5\n        /* \"IDO.sol\":7797:7820  _senderAddress.transfer */\n      0xffffffffffffffffffffffffffffffffffffffff\n      and\n        /* \"IDO.sol\":7797:7835  _senderAddress.transfer(_excessAmount) */\n      0x08fc\n        /* \"IDO.sol\":7821:7834  _excessAmount */\n      dup3\n        /* \"IDO.sol\":7797:7835  _senderAddress.transfer(_excessAmount) */\n      swap1\n      dup2\n      iszero\n      mul\n      swap1\n      mload(0x40)\n      0x00\n      mload(0x40)\n      dup1\n      dup4\n      sub\n      dup2\n      dup6\n      dup9\n      dup9\n      call\n      swap4\n      pop\n      pop\n      pop\n      pop\n      iszero\n      dup1\n      iszero\n      tag_138\n      jumpi\n      returndatasize\n      0x00\n      dup1\n      returndatacopy\n      revert(0x00, returndatasize)\n    tag_138:\n      pop\n        /* \"IDO.sol\":7610:7938  if(_rewardedAmount > _unsoldTokens){\r... */\n      pop\n    tag_134:\n        /* \"IDO.sol\":7976:7977  0 */\n      0x00\n        /* \"IDO.sol\":7958:7973  _rewardedAmount */\n      dup3\n        /* \"IDO.sol\":7958:7977  _rewardedAmount > 0 */\n      gt\n        /* \"IDO.sol\":7950:8002  require(_rewardedAmount > 0, \"Zero rewarded amount\") */\n      tag_139\n      jumpi\n      mload(0x40)\n      0x08c379a000000000000000000000000000000000000000000000000000000000\n      dup2\n      mstore\n      0x04\n      add\n      tag_140\n      swap1\n      tag_141\n      jump\t// in\n    tag_140:\n      mload(0x40)\n      dup1\n      swap2\n      sub\n      swap1\n      revert\n    tag_139:\n        /* \"IDO.sol\":8022:8027  token */\n      0x01\n      0x00\n      swap1\n      sload\n      swap1\n      0x0100\n      exp\n      swap1\n      div\n      0xffffffffffffffffffffffffffffffffffffffff\n      and\n        /* \"IDO.sol\":8015:8037  IERC20(token).transfer */\n      0xffffffffffffffffffffffffffffffffffffffff\n      and\n      0xa9059cbb\n        /* \"IDO.sol\":8038:8052  _senderAddress */\n      dup6\n        /* \"IDO.sol\":8054:8069  _rewardedAmount */\n      dup5\n        /* \"IDO.sol\":8015:8070  IERC20(token).transfer(_senderAddress, _rewardedAmount) */\n      mload(0x40)\n      dup4\n      0xffffffff\n      and\n      0xe0\n      shl\n      dup2\n      mstore\n      0x04\n      add\n      tag_142\n      swap3\n      swap2\n      swap1\n      tag_143\n      jump\t// in\n    tag_142:\n      0x20\n      mload(0x40)\n      dup1\n      dup4\n      sub\n      dup2\n      0x00\n      dup8\n      dup1\n      extcodesize\n      iszero\n      dup1\n      iszero\n      tag_144\n      jumpi\n      0x00\n      dup1\n      revert\n    tag_144:\n      pop\n      gas\n      call\n      iszero\n      dup1\n      iszero\n      tag_146\n      jumpi\n      returndatasize\n      0x00\n      dup1\n      returndatacopy\n      revert(0x00, returndatasize)\n    tag_146:\n      pop\n      pop\n      pop\n      pop\n      mload(0x40)\n      returndatasize\n      not(0x1f)\n      0x1f\n      dup3\n      add\n      and\n      dup3\n      add\n      dup1\n      0x40\n      mstore\n      pop\n      dup2\n      add\n      swap1\n      tag_147\n      swap2\n      swap1\n      tag_148\n      jump\t// in\n    tag_147:\n      pop\n        /* \"IDO.sol\":8110:8125  _rewardedAmount */\n      dup2\n        /* \"IDO.sol\":8096:8106  soldAmount */\n      sload(0x06)\n        /* \"IDO.sol\":8096:8125  soldAmount +  _rewardedAmount */\n      tag_149\n      swap2\n      swap1\n      tag_150\n      jump\t// in\n    tag_149:\n        /* \"IDO.sol\":8083:8093  soldAmount */\n      0x06\n        /* \"IDO.sol\":8083:8125  soldAmount = soldAmount +  _rewardedAmount */\n      dup2\n      swap1\n      sstore\n      pop\n        /* \"IDO.sol\":8162:8192  getTokenInETH(_rewardedAmount) */\n      tag_151\n        /* \"IDO.sol\":8176:8191  _rewardedAmount */\n      dup3\n        /* \"IDO.sol\":8162:8175  getTokenInETH */\n      tag_87\n        /* \"IDO.sol\":8162:8192  getTokenInETH(_rewardedAmount) */\n      jump\t// in\n    tag_151:\n        /* \"IDO.sol\":8149:8159  totalRaise */\n      sload(0x07)\n        /* \"IDO.sol\":8149:8192  totalRaise + getTokenInETH(_rewardedAmount) */\n      tag_152\n      swap2\n      swap1\n      tag_150\n      jump\t// in\n    tag_152:\n        /* \"IDO.sol\":8136:8146  totalRaise */\n      0x07\n        /* \"IDO.sol\":8136:8192  totalRaise = totalRaise + getTokenInETH(_rewardedAmount) */\n      dup2\n      swap1\n      sstore\n      pop\n        /* \"IDO.sol\":7205:8201  function buyTokens() external payable{\r... */\n      pop\n      pop\n      pop\n      pop\n      jump\t// out\n        /* \"IDO.sol\":2131:2375  function transferOwnership(address newOwner) public virtual onlyOwner {\r... */\n    tag_79:\n        /* \"IDO.sol\":1417:1429  _msgSender() */\n      tag_154\n        /* \"IDO.sol\":1417:1427  _msgSender */\n      tag_104\n        /* \"IDO.sol\":1417:1429  _msgSender() */\n      jump\t// in\n    tag_154:\n        /* \"IDO.sol\":1406:1429  owner() == _msgSender() */\n      0xffffffffffffffffffffffffffffffffffffffff\n      and\n        /* \"IDO.sol\":1406:1413  owner() */\n      tag_155\n        /* \"IDO.sol\":1406:1411  owner */\n      tag_63\n        /* \"IDO.sol\":1406:1413  owner() */\n      jump\t// in\n    tag_155:\n        /* \"IDO.sol\":1406:1429  owner() == _msgSender() */\n      0xffffffffffffffffffffffffffffffffffffffff\n      and\n      eq\n        /* \"IDO.sol\":1398:1466  require(owner() == _msgSender(), \"Ownable: caller is not the owner\") */\n      tag_156\n      jumpi\n      mload(0x40)\n      0x08c379a000000000000000000000000000000000000000000000000000000000\n      dup2\n      mstore\n      0x04\n      add\n      tag_157\n      swap1\n      tag_108\n      jump\t// in\n    tag_157:\n      mload(0x40)\n      dup1\n      swap2\n      sub\n      swap1\n      revert\n    tag_156:\n        /* \"IDO.sol\":2240:2241  0 */\n      0x00\n        /* \"IDO.sol\":2220:2242  newOwner != address(0) */\n      0xffffffffffffffffffffffffffffffffffffffff\n      and\n        /* \"IDO.sol\":2220:2228  newOwner */\n      dup2\n        /* \"IDO.sol\":2220:2242  newOwner != address(0) */\n      0xffffffffffffffffffffffffffffffffffffffff\n      and\n      eq\n      iszero\n        /* \"IDO.sol\":2212:2285  require(newOwner != address(0), \"Ownable: new owner is the zero address\") */\n      tag_159\n      jumpi\n      mload(0x40)\n      0x08c379a000000000000000000000000000000000000000000000000000000000\n      dup2\n      mstore\n      0x04\n      add\n      tag_160\n      swap1\n      tag_161\n      jump\t// in\n    tag_160:\n      mload(0x40)\n      dup1\n      swap2\n      sub\n      swap1\n      revert\n    tag_159:\n        /* \"IDO.sol\":2330:2338  newOwner */\n      dup1\n        /* \"IDO.sol\":2301:2339  OwnershipTransferred(_owner, newOwner) */\n      0xffffffffffffffffffffffffffffffffffffffff\n      and\n        /* \"IDO.sol\":2322:2328  _owner */\n      0x00\n      dup1\n      sload\n      swap1\n      0x0100\n      exp\n      swap1\n      div\n      0xffffffffffffffffffffffffffffffffffffffff\n      and\n        /* \"IDO.sol\":2301:2339  OwnershipTransferred(_owner, newOwner) */\n      0xffffffffffffffffffffffffffffffffffffffff\n      and\n      0x8be0079c531659141344cd1fd0a4f28419497f9722a3daafe3b4186f6b6457e0\n      mload(0x40)\n      mload(0x40)\n      dup1\n      swap2\n      sub\n      swap1\n      log3\n        /* \"IDO.sol\":2359:2367  newOwner */\n      dup1\n        /* \"IDO.sol\":2350:2356  _owner */\n      0x00\n      dup1\n        /* \"IDO.sol\":2350:2367  _owner = newOwner */\n      0x0100\n      exp\n      dup2\n      sload\n      dup2\n      0xffffffffffffffffffffffffffffffffffffffff\n      mul\n      not\n      and\n      swap1\n      dup4\n      0xffffffffffffffffffffffffffffffffffffffff\n      and\n      mul\n      or\n      swap1\n      sstore\n      pop\n        /* \"IDO.sol\":2131:2375  function transferOwnership(address newOwner) public virtual onlyOwner {\r... */\n      pop\n      jump\t// out\n        /* \"IDO.sol\":5771:5796  uint256 public soldAmount */\n    tag_82:\n      sload(0x06)\n      dup2\n      jump\t// out\n        /* \"IDO.sol\":6670:6856  function getTokenInETH(uint256 _tokens) public view returns (uint256){\r... */\n    tag_87:\n        /* \"IDO.sol\":6731:6738  uint256 */\n      0x00\n        /* \"IDO.sol\":6750:6771  uint256 _tokenDecimal */\n      dup1\n        /* \"IDO.sol\":6780:6792  tokenDecimal */\n      sload(0x02)\n        /* \"IDO.sol\":6774:6776  10 */\n      0x0a\n        /* \"IDO.sol\":6774:6792  10 ** tokenDecimal */\n      tag_163\n      swap2\n      swap1\n      tag_97\n      jump\t// in\n    tag_163:\n        /* \"IDO.sol\":6750:6792  uint256 _tokenDecimal = 10 ** tokenDecimal */\n      swap1\n      pop\n        /* \"IDO.sol\":6834:6847  _tokenDecimal */\n      dup1\n        /* \"IDO.sol\":6821:6830  tokenRate */\n      sload(0x05)\n        /* \"IDO.sol\":6811:6818  _tokens */\n      dup5\n        /* \"IDO.sol\":6811:6830  _tokens * tokenRate */\n      tag_164\n      swap2\n      swap1\n      tag_99\n      jump\t// in\n    tag_164:\n        /* \"IDO.sol\":6810:6847  (_tokens * tokenRate) / _tokenDecimal */\n      tag_165\n      swap2\n      swap1\n      tag_101\n      jump\t// in\n    tag_165:\n        /* \"IDO.sol\":6803:6847  return (_tokens * tokenRate) / _tokenDecimal */\n      swap2\n      pop\n      pop\n        /* \"IDO.sol\":6670:6856  function getTokenInETH(uint256 _tokens) public view returns (uint256){\r... */\n      swap2\n      swap1\n      pop\n      jump\t// out\n        /* \"IDO.sol\":5459:5479  address public token */\n    tag_91:\n      0x01\n      0x00\n      swap1\n      sload\n      swap1\n      0x0100\n      exp\n      swap1\n      div\n      0xffffffffffffffffffffffffffffffffffffffff\n      and\n      dup2\n      jump\t// out\n        /* \"IDO.sol\":735:850  function _msgSender() internal view virtual returns (address payable) {\r... */\n    tag_104:\n        /* \"IDO.sol\":788:803  address payable */\n      0x00\n        /* \"IDO.sol\":831:841  msg.sender */\n      caller\n        /* \"IDO.sol\":816:842  return payable(msg.sender) */\n      swap1\n      pop\n        /* \"IDO.sol\":735:850  function _msgSender() internal view virtual returns (address payable) {\r... */\n      swap1\n      jump\t// out\n        /* \"#utility.yul\":7:146   */\n    tag_168:\n      0x00\n        /* \"#utility.yul\":91:97   */\n      dup2\n        /* \"#utility.yul\":78:98   */\n      calldataload\n        /* \"#utility.yul\":69:98   */\n      swap1\n      pop\n        /* \"#utility.yul\":107:140   */\n      tag_170\n        /* \"#utility.yul\":134:139   */\n      dup2\n        /* \"#utility.yul\":107:140   */\n      tag_171\n      jump\t// in\n    tag_170:\n        /* \"#utility.yul\":59:146   */\n      swap3\n      swap2\n      pop\n      pop\n      jump\t// out\n        /* \"#utility.yul\":152:289   */\n    tag_172:\n      0x00\n        /* \"#utility.yul\":237:243   */\n      dup2\n        /* \"#utility.yul\":231:244   */\n      mload\n        /* \"#utility.yul\":222:244   */\n      swap1\n      pop\n        /* \"#utility.yul\":253:283   */\n      tag_174\n        /* \"#utility.yul\":277:282   */\n      dup2\n        /* \"#utility.yul\":253:283   */\n      tag_175\n      jump\t// in\n    tag_174:\n        /* \"#utility.yul\":212:289   */\n      swap3\n      swap2\n      pop\n      pop\n      jump\t// out\n        /* \"#utility.yul\":295:434   */\n    tag_176:\n      0x00\n        /* \"#utility.yul\":379:385   */\n      dup2\n        /* \"#utility.yul\":366:386   */\n      calldataload\n        /* \"#utility.yul\":357:386   */\n      swap1\n      pop\n        /* \"#utility.yul\":395:428   */\n      tag_178\n        /* \"#utility.yul\":422:427   */\n      dup2\n        /* \"#utility.yul\":395:428   */\n      tag_179\n      jump\t// in\n    tag_178:\n        /* \"#utility.yul\":347:434   */\n      swap3\n      swap2\n      pop\n      pop\n      jump\t// out\n        /* \"#utility.yul\":440:702   */\n    tag_78:\n      0x00\n        /* \"#utility.yul\":548:550   */\n      0x20\n        /* \"#utility.yul\":536:545   */\n      dup3\n        /* \"#utility.yul\":527:534   */\n      dup5\n        /* \"#utility.yul\":523:546   */\n      sub\n        /* \"#utility.yul\":519:551   */\n      slt\n        /* \"#utility.yul\":516:518   */\n      iszero\n      tag_181\n      jumpi\n        /* \"#utility.yul\":564:565   */\n      0x00\n        /* \"#utility.yul\":561:562   */\n      dup1\n        /* \"#utility.yul\":554:566   */\n      revert\n        /* \"#utility.yul\":516:518   */\n    tag_181:\n        /* \"#utility.yul\":607:608   */\n      0x00\n        /* \"#utility.yul\":632:685   */\n      tag_182\n        /* \"#utility.yul\":677:684   */\n      dup5\n        /* \"#utility.yul\":668:674   */\n      dup3\n        /* \"#utility.yul\":657:666   */\n      dup6\n        /* \"#utility.yul\":653:675   */\n      add\n        /* \"#utility.yul\":632:685   */\n      tag_168\n      jump\t// in\n    tag_182:\n        /* \"#utility.yul\":622:685   */\n      swap2\n      pop\n        /* \"#utility.yul\":578:695   */\n      pop\n        /* \"#utility.yul\":506:702   */\n      swap3\n      swap2\n      pop\n      pop\n      jump\t// out\n        /* \"#utility.yul\":708:986   */\n    tag_148:\n      0x00\n        /* \"#utility.yul\":824:826   */\n      0x20\n        /* \"#utility.yul\":812:821   */\n      dup3\n        /* \"#utility.yul\":803:810   */\n      dup5\n        /* \"#utility.yul\":799:822   */\n      sub\n        /* \"#utility.yul\":795:827   */\n      slt\n        /* \"#utility.yul\":792:794   */\n      iszero\n      tag_184\n      jumpi\n        /* \"#utility.yul\":840:841   */\n      0x00\n        /* \"#utility.yul\":837:838   */\n      dup1\n        /* \"#utility.yul\":830:842   */\n      revert\n        /* \"#utility.yul\":792:794   */\n    tag_184:\n        /* \"#utility.yul\":883:884   */\n      0x00\n        /* \"#utility.yul\":908:969   */\n      tag_185\n        /* \"#utility.yul\":961:968   */\n      dup5\n        /* \"#utility.yul\":952:958   */\n      dup3\n        /* \"#utility.yul\":941:950   */\n      dup6\n        /* \"#utility.yul\":937:959   */\n      add\n        /* \"#utility.yul\":908:969   */\n      tag_172\n      jump\t// in\n    tag_185:\n        /* \"#utility.yul\":898:969   */\n      swap2\n      pop\n        /* \"#utility.yul\":854:979   */\n      pop\n        /* \"#utility.yul\":782:986   */\n      swap3\n      swap2\n      pop\n      pop\n      jump\t// out\n        /* \"#utility.yul\":992:1254   */\n    tag_47:\n      0x00\n        /* \"#utility.yul\":1100:1102   */\n      0x20\n        /* \"#utility.yul\":1088:1097   */\n      dup3\n        /* \"#utility.yul\":1079:1086   */\n      dup5\n        /* \"#utility.yul\":1075:1098   */\n      sub\n        /* \"#utility.yul\":1071:1103   */\n      slt\n        /* \"#utility.yul\":1068:1070   */\n      iszero\n      tag_187\n      jumpi\n        /* \"#utility.yul\":1116:1117   */\n      0x00\n        /* \"#utility.yul\":1113:1114   */\n      dup1\n        /* \"#utility.yul\":1106:1118   */\n      revert\n        /* \"#utility.yul\":1068:1070   */\n    tag_187:\n        /* \"#utility.yul\":1159:1160   */\n      0x00\n        /* \"#utility.yul\":1184:1237   */\n      tag_188\n        /* \"#utility.yul\":1229:1236   */\n      dup5\n        /* \"#utility.yul\":1220:1226   */\n      dup3\n        /* \"#utility.yul\":1209:1218   */\n      dup6\n        /* \"#utility.yul\":1205:1227   */\n      add\n        /* \"#utility.yul\":1184:1237   */\n      tag_176\n      jump\t// in\n    tag_188:\n        /* \"#utility.yul\":1174:1237   */\n      swap2\n      pop\n        /* \"#utility.yul\":1130:1247   */\n      pop\n        /* \"#utility.yul\":1058:1254   */\n      swap3\n      swap2\n      pop\n      pop\n      jump\t// out\n        /* \"#utility.yul\":1260:1407   */\n    tag_189:\n        /* \"#utility.yul\":1355:1400   */\n      tag_191\n        /* \"#utility.yul\":1394:1399   */\n      dup2\n        /* \"#utility.yul\":1355:1400   */\n      tag_192\n      jump\t// in\n    tag_191:\n        /* \"#utility.yul\":1350:1353   */\n      dup3\n        /* \"#utility.yul\":1343:1401   */\n      mstore\n        /* \"#utility.yul\":1333:1407   */\n      pop\n      pop\n      jump\t// out\n        /* \"#utility.yul\":1413:1531   */\n    tag_193:\n        /* \"#utility.yul\":1500:1524   */\n      tag_195\n        /* \"#utility.yul\":1518:1523   */\n      dup2\n        /* \"#utility.yul\":1500:1524   */\n      tag_196\n      jump\t// in\n    tag_195:\n        /* \"#utility.yul\":1495:1498   */\n      dup3\n        /* \"#utility.yul\":1488:1525   */\n      mstore\n        /* \"#utility.yul\":1478:1531   */\n      pop\n      pop\n      jump\t// out\n        /* \"#utility.yul\":1537:1646   */\n    tag_197:\n        /* \"#utility.yul\":1618:1639   */\n      tag_199\n        /* \"#utility.yul\":1633:1638   */\n      dup2\n        /* \"#utility.yul\":1618:1639   */\n      tag_200\n      jump\t// in\n    tag_199:\n        /* \"#utility.yul\":1613:1616   */\n      dup3\n        /* \"#utility.yul\":1606:1640   */\n      mstore\n        /* \"#utility.yul\":1596:1646   */\n      pop\n      pop\n      jump\t// out\n        /* \"#utility.yul\":1652:2022   */\n    tag_201:\n      0x00\n        /* \"#utility.yul\":1815:1882   */\n      tag_203\n        /* \"#utility.yul\":1879:1881   */\n      0x26\n        /* \"#utility.yul\":1874:1877   */\n      dup4\n        /* \"#utility.yul\":1815:1882   */\n      tag_204\n      jump\t// in\n    tag_203:\n        /* \"#utility.yul\":1808:1882   */\n      swap2\n      pop\n        /* \"#utility.yul\":1912:1946   */\n      0x4f776e61626c653a206e6577206f776e657220697320746865207a65726f2061\n        /* \"#utility.yul\":1908:1909   */\n      0x00\n        /* \"#utility.yul\":1903:1906   */\n      dup4\n        /* \"#utility.yul\":1899:1910   */\n      add\n        /* \"#utility.yul\":1892:1947   */\n      mstore\n        /* \"#utility.yul\":1978:1986   */\n      0x6464726573730000000000000000000000000000000000000000000000000000\n        /* \"#utility.yul\":1973:1975   */\n      0x20\n        /* \"#utility.yul\":1968:1971   */\n      dup4\n        /* \"#utility.yul\":1964:1976   */\n      add\n        /* \"#utility.yul\":1957:1987   */\n      mstore\n        /* \"#utility.yul\":2013:2015   */\n      0x40\n        /* \"#utility.yul\":2008:2011   */\n      dup3\n        /* \"#utility.yul\":2004:2016   */\n      add\n        /* \"#utility.yul\":1997:2016   */\n      swap1\n      pop\n        /* \"#utility.yul\":1798:2022   */\n      swap2\n      swap1\n      pop\n      jump\t// out\n        /* \"#utility.yul\":2028:2344   */\n    tag_205:\n      0x00\n        /* \"#utility.yul\":2191:2258   */\n      tag_207\n        /* \"#utility.yul\":2255:2257   */\n      0x12\n        /* \"#utility.yul\":2250:2253   */\n      dup4\n        /* \"#utility.yul\":2191:2258   */\n      tag_204\n      jump\t// in\n    tag_207:\n        /* \"#utility.yul\":2184:2258   */\n      swap2\n      pop\n        /* \"#utility.yul\":2288:2308   */\n      0x53616c65206973206e6f74206163746976650000000000000000000000000000\n        /* \"#utility.yul\":2284:2285   */\n      0x00\n        /* \"#utility.yul\":2279:2282   */\n      dup4\n        /* \"#utility.yul\":2275:2286   */\n      add\n        /* \"#utility.yul\":2268:2309   */\n      mstore\n        /* \"#utility.yul\":2335:2337   */\n      0x20\n        /* \"#utility.yul\":2330:2333   */\n      dup3\n        /* \"#utility.yul\":2326:2338   */\n      add\n        /* \"#utility.yul\":2319:2338   */\n      swap1\n      pop\n        /* \"#utility.yul\":2174:2344   */\n      swap2\n      swap1\n      pop\n      jump\t// out\n        /* \"#utility.yul\":2350:2671   */\n    tag_208:\n      0x00\n        /* \"#utility.yul\":2513:2580   */\n      tag_210\n        /* \"#utility.yul\":2577:2579   */\n      0x17\n        /* \"#utility.yul\":2572:2575   */\n      dup4\n        /* \"#utility.yul\":2513:2580   */\n      tag_204\n      jump\t// in\n    tag_210:\n        /* \"#utility.yul\":2506:2580   */\n      swap2\n      pop\n        /* \"#utility.yul\":2610:2635   */\n      0x416363657074656420616d6f756e74206973207a65726f000000000000000000\n        /* \"#utility.yul\":2606:2607   */\n      0x00\n        /* \"#utility.yul\":2601:2604   */\n      dup4\n        /* \"#utility.yul\":2597:2608   */\n      add\n        /* \"#utility.yul\":2590:2636   */\n      mstore\n        /* \"#utility.yul\":2662:2664   */\n      0x20\n        /* \"#utility.yul\":2657:2660   */\n      dup3\n        /* \"#utility.yul\":2653:2665   */\n      add\n        /* \"#utility.yul\":2646:2665   */\n      swap1\n      pop\n        /* \"#utility.yul\":2496:2671   */\n      swap2\n      swap1\n      pop\n      jump\t// out\n        /* \"#utility.yul\":2677:3007   */\n    tag_211:\n      0x00\n        /* \"#utility.yul\":2840:2907   */\n      tag_213\n        /* \"#utility.yul\":2904:2906   */\n      0x20\n        /* \"#utility.yul\":2899:2902   */\n      dup4\n        /* \"#utility.yul\":2840:2907   */\n      tag_204\n      jump\t// in\n    tag_213:\n        /* \"#utility.yul\":2833:2907   */\n      swap2\n      pop\n        /* \"#utility.yul\":2937:2971   */\n      0x4f776e61626c653a2063616c6c6572206973206e6f7420746865206f776e6572\n        /* \"#utility.yul\":2933:2934   */\n      0x00\n        /* \"#utility.yul\":2928:2931   */\n      dup4\n        /* \"#utility.yul\":2924:2935   */\n      add\n        /* \"#utility.yul\":2917:2972   */\n      mstore\n        /* \"#utility.yul\":2998:3000   */\n      0x20\n        /* \"#utility.yul\":2993:2996   */\n      dup3\n        /* \"#utility.yul\":2989:3001   */\n      add\n        /* \"#utility.yul\":2982:3001   */\n      swap1\n      pop\n        /* \"#utility.yul\":2823:3007   */\n      swap2\n      swap1\n      pop\n      jump\t// out\n        /* \"#utility.yul\":3013:3331   */\n    tag_214:\n      0x00\n        /* \"#utility.yul\":3176:3243   */\n      tag_216\n        /* \"#utility.yul\":3240:3242   */\n      0x14\n        /* \"#utility.yul\":3235:3238   */\n      dup4\n        /* \"#utility.yul\":3176:3243   */\n      tag_204\n      jump\t// in\n    tag_216:\n        /* \"#utility.yul\":3169:3243   */\n      swap2\n      pop\n        /* \"#utility.yul\":3273:3295   */\n      0x5a65726f20726577617264656420616d6f756e74000000000000000000000000\n        /* \"#utility.yul\":3269:3270   */\n      0x00\n        /* \"#utility.yul\":3264:3267   */\n      dup4\n        /* \"#utility.yul\":3260:3271   */\n      add\n        /* \"#utility.yul\":3253:3296   */\n      mstore\n        /* \"#utility.yul\":3322:3324   */\n      0x20\n        /* \"#utility.yul\":3317:3320   */\n      dup3\n        /* \"#utility.yul\":3313:3325   */\n      add\n        /* \"#utility.yul\":3306:3325   */\n      swap1\n      pop\n        /* \"#utility.yul\":3159:3331   */\n      swap2\n      swap1\n      pop\n      jump\t// out\n        /* \"#utility.yul\":3337:3455   */\n    tag_217:\n        /* \"#utility.yul\":3424:3448   */\n      tag_219\n        /* \"#utility.yul\":3442:3447   */\n      dup2\n        /* \"#utility.yul\":3424:3448   */\n      tag_220\n      jump\t// in\n    tag_219:\n        /* \"#utility.yul\":3419:3422   */\n      dup3\n        /* \"#utility.yul\":3412:3449   */\n      mstore\n        /* \"#utility.yul\":3402:3455   */\n      pop\n      pop\n      jump\t// out\n        /* \"#utility.yul\":3461:3683   */\n    tag_65:\n      0x00\n        /* \"#utility.yul\":3592:3594   */\n      0x20\n        /* \"#utility.yul\":3581:3590   */\n      dup3\n        /* \"#utility.yul\":3577:3595   */\n      add\n        /* \"#utility.yul\":3569:3595   */\n      swap1\n      pop\n        /* \"#utility.yul\":3605:3676   */\n      tag_222\n        /* \"#utility.yul\":3673:3674   */\n      0x00\n        /* \"#utility.yul\":3662:3671   */\n      dup4\n        /* \"#utility.yul\":3658:3675   */\n      add\n        /* \"#utility.yul\":3649:3655   */\n      dup5\n        /* \"#utility.yul\":3605:3676   */\n      tag_193\n      jump\t// in\n    tag_222:\n        /* \"#utility.yul\":3559:3683   */\n      swap3\n      swap2\n      pop\n      pop\n      jump\t// out\n        /* \"#utility.yul\":3689:4037   */\n    tag_143:\n      0x00\n        /* \"#utility.yul\":3856:3858   */\n      0x40\n        /* \"#utility.yul\":3845:3854   */\n      dup3\n        /* \"#utility.yul\":3841:3859   */\n      add\n        /* \"#utility.yul\":3833:3859   */\n      swap1\n      pop\n        /* \"#utility.yul\":3869:3948   */\n      tag_224\n        /* \"#utility.yul\":3945:3946   */\n      0x00\n        /* \"#utility.yul\":3934:3943   */\n      dup4\n        /* \"#utility.yul\":3930:3947   */\n      add\n        /* \"#utility.yul\":3921:3927   */\n      dup6\n        /* \"#utility.yul\":3869:3948   */\n      tag_189\n      jump\t// in\n    tag_224:\n        /* \"#utility.yul\":3958:4030   */\n      tag_225\n        /* \"#utility.yul\":4026:4028   */\n      0x20\n        /* \"#utility.yul\":4015:4024   */\n      dup4\n        /* \"#utility.yul\":4011:4029   */\n      add\n        /* \"#utility.yul\":4002:4008   */\n      dup5\n        /* \"#utility.yul\":3958:4030   */\n      tag_217\n      jump\t// in\n    tag_225:\n        /* \"#utility.yul\":3823:4037   */\n      swap4\n      swap3\n      pop\n      pop\n      pop\n      jump\t// out\n        /* \"#utility.yul\":4043:4253   */\n    tag_31:\n      0x00\n        /* \"#utility.yul\":4168:4170   */\n      0x20\n        /* \"#utility.yul\":4157:4166   */\n      dup3\n        /* \"#utility.yul\":4153:4171   */\n      add\n        /* \"#utility.yul\":4145:4171   */\n      swap1\n      pop\n        /* \"#utility.yul\":4181:4246   */\n      tag_227\n        /* \"#utility.yul\":4243:4244   */\n      0x00\n        /* \"#utility.yul\":4232:4241   */\n      dup4\n        /* \"#utility.yul\":4228:4245   */\n      add\n        /* \"#utility.yul\":4219:4225   */\n      dup5\n        /* \"#utility.yul\":4181:4246   */\n      tag_197\n      jump\t// in\n    tag_227:\n        /* \"#utility.yul\":4135:4253   */\n      swap3\n      swap2\n      pop\n      pop\n      jump\t// out\n        /* \"#utility.yul\":4259:4678   */\n    tag_161:\n      0x00\n        /* \"#utility.yul\":4463:4465   */\n      0x20\n        /* \"#utility.yul\":4452:4461   */\n      dup3\n        /* \"#utility.yul\":4448:4466   */\n      add\n        /* \"#utility.yul\":4440:4466   */\n      swap1\n      pop\n        /* \"#utility.yul\":4512:4521   */\n      dup2\n        /* \"#utility.yul\":4506:4510   */\n      dup2\n        /* \"#utility.yul\":4502:4522   */\n      sub\n        /* \"#utility.yul\":4498:4499   */\n      0x00\n        /* \"#utility.yul\":4487:4496   */\n      dup4\n        /* \"#utility.yul\":4483:4500   */\n      add\n        /* \"#utility.yul\":4476:4523   */\n      mstore\n        /* \"#utility.yul\":4540:4671   */\n      tag_229\n        /* \"#utility.yul\":4666:4670   */\n      dup2\n        /* \"#utility.yul\":4540:4671   */\n      tag_201\n      jump\t// in\n    tag_229:\n        /* \"#utility.yul\":4532:4671   */\n      swap1\n      pop\n        /* \"#utility.yul\":4430:4678   */\n      swap2\n      swap1\n      pop\n      jump\t// out\n        /* \"#utility.yul\":4684:5103   */\n    tag_128:\n      0x00\n        /* \"#utility.yul\":4888:4890   */\n      0x20\n        /* \"#utility.yul\":4877:4886   */\n      dup3\n        /* \"#utility.yul\":4873:4891   */\n      add\n        /* \"#utility.yul\":4865:4891   */\n      swap1\n      pop\n        /* \"#utility.yul\":4937:4946   */\n      dup2\n        /* \"#utility.yul\":4931:4935   */\n      dup2\n        /* \"#utility.yul\":4927:4947   */\n      sub\n        /* \"#utility.yul\":4923:4924   */\n      0x00\n        /* \"#utility.yul\":4912:4921   */\n      dup4\n        /* \"#utility.yul\":4908:4925   */\n      add\n        /* \"#utility.yul\":4901:4948   */\n      mstore\n        /* \"#utility.yul\":4965:5096   */\n      tag_231\n        /* \"#utility.yul\":5091:5095   */\n      dup2\n        /* \"#utility.yul\":4965:5096   */\n      tag_205\n      jump\t// in\n    tag_231:\n        /* \"#utility.yul\":4957:5096   */\n      swap1\n      pop\n        /* \"#utility.yul\":4855:5103   */\n      swap2\n      swap1\n      pop\n      jump\t// out\n        /* \"#utility.yul\":5109:5528   */\n    tag_131:\n      0x00\n        /* \"#utility.yul\":5313:5315   */\n      0x20\n        /* \"#utility.yul\":5302:5311   */\n      dup3\n        /* \"#utility.yul\":5298:5316   */\n      add\n        /* \"#utility.yul\":5290:5316   */\n      swap1\n      pop\n        /* \"#utility.yul\":5362:5371   */\n      dup2\n        /* \"#utility.yul\":5356:5360   */\n      dup2\n        /* \"#utility.yul\":5352:5372   */\n      sub\n        /* \"#utility.yul\":5348:5349   */\n      0x00\n        /* \"#utility.yul\":5337:5346   */\n      dup4\n        /* \"#utility.yul\":5333:5350   */\n      add\n        /* \"#utility.yul\":5326:5373   */\n      mstore\n        /* \"#utility.yul\":5390:5521   */\n      tag_233\n        /* \"#utility.yul\":5516:5520   */\n      dup2\n        /* \"#utility.yul\":5390:5521   */\n      tag_208\n      jump\t// in\n    tag_233:\n        /* \"#utility.yul\":5382:5521   */\n      swap1\n      pop\n        /* \"#utility.yul\":5280:5528   */\n      swap2\n      swap1\n      pop\n      jump\t// out\n        /* \"#utility.yul\":5534:5953   */\n    tag_108:\n      0x00\n        /* \"#utility.yul\":5738:5740   */\n      0x20\n        /* \"#utility.yul\":5727:5736   */\n      dup3\n        /* \"#utility.yul\":5723:5741   */\n      add\n        /* \"#utility.yul\":5715:5741   */\n      swap1\n      pop\n        /* \"#utility.yul\":5787:5796   */\n      dup2\n        /* \"#utility.yul\":5781:5785   */\n      dup2\n        /* \"#utility.yul\":5777:5797   */\n      sub\n        /* \"#utility.yul\":5773:5774   */\n      0x00\n        /* \"#utility.yul\":5762:5771   */\n      dup4\n        /* \"#utility.yul\":5758:5775   */\n      add\n        /* \"#utility.yul\":5751:5798   */\n      mstore\n        /* \"#utility.yul\":5815:5946   */\n      tag_235\n        /* \"#utility.yul\":5941:5945   */\n      dup2\n        /* \"#utility.yul\":5815:5946   */\n      tag_211\n      jump\t// in\n    tag_235:\n        /* \"#utility.yul\":5807:5946   */\n      swap1\n      pop\n        /* \"#utility.yul\":5705:5953   */\n      swap2\n      swap1\n      pop\n      jump\t// out\n        /* \"#utility.yul\":5959:6378   */\n    tag_141:\n      0x00\n        /* \"#utility.yul\":6163:6165   */\n      0x20\n        /* \"#utility.yul\":6152:6161   */\n      dup3\n        /* \"#utility.yul\":6148:6166   */\n      add\n        /* \"#utility.yul\":6140:6166   */\n      swap1\n      pop\n        /* \"#utility.yul\":6212:6221   */\n      dup2\n        /* \"#utility.yul\":6206:6210   */\n      dup2\n        /* \"#utility.yul\":6202:6222   */\n      sub\n        /* \"#utility.yul\":6198:6199   */\n      0x00\n        /* \"#utility.yul\":6187:6196   */\n      dup4\n        /* \"#utility.yul\":6183:6200   */\n      add\n        /* \"#utility.yul\":6176:6223   */\n      mstore\n        /* \"#utility.yul\":6240:6371   */\n      tag_237\n        /* \"#utility.yul\":6366:6370   */\n      dup2\n        /* \"#utility.yul\":6240:6371   */\n      tag_214\n      jump\t// in\n    tag_237:\n        /* \"#utility.yul\":6232:6371   */\n      swap1\n      pop\n        /* \"#utility.yul\":6130:6378   */\n      swap2\n      swap1\n      pop\n      jump\t// out\n        /* \"#utility.yul\":6384:6606   */\n    tag_26:\n      0x00\n        /* \"#utility.yul\":6515:6517   */\n      0x20\n        /* \"#utility.yul\":6504:6513   */\n      dup3\n        /* \"#utility.yul\":6500:6518   */\n      add\n        /* \"#utility.yul\":6492:6518   */\n      swap1\n      pop\n        /* \"#utility.yul\":6528:6599   */\n      tag_239\n        /* \"#utility.yul\":6596:6597   */\n      0x00\n        /* \"#utility.yul\":6585:6594   */\n      dup4\n        /* \"#utility.yul\":6581:6598   */\n      add\n        /* \"#utility.yul\":6572:6578   */\n      dup5\n        /* \"#utility.yul\":6528:6599   */\n      tag_217\n      jump\t// in\n    tag_239:\n        /* \"#utility.yul\":6482:6606   */\n      swap3\n      swap2\n      pop\n      pop\n      jump\t// out\n        /* \"#utility.yul\":6612:6781   */\n    tag_204:\n      0x00\n        /* \"#utility.yul\":6730:6736   */\n      dup3\n        /* \"#utility.yul\":6725:6728   */\n      dup3\n        /* \"#utility.yul\":6718:6737   */\n      mstore\n        /* \"#utility.yul\":6770:6774   */\n      0x20\n        /* \"#utility.yul\":6765:6768   */\n      dup3\n        /* \"#utility.yul\":6761:6775   */\n      add\n        /* \"#utility.yul\":6746:6775   */\n      swap1\n      pop\n        /* \"#utility.yul\":6708:6781   */\n      swap3\n      swap2\n      pop\n      pop\n      jump\t// out\n        /* \"#utility.yul\":6787:7092   */\n    tag_150:\n      0x00\n        /* \"#utility.yul\":6846:6866   */\n      tag_242\n        /* \"#utility.yul\":6864:6865   */\n      dup3\n        /* \"#utility.yul\":6846:6866   */\n      tag_220\n      jump\t// in\n    tag_242:\n        /* \"#utility.yul\":6841:6866   */\n      swap2\n      pop\n        /* \"#utility.yul\":6880:6900   */\n      tag_243\n        /* \"#utility.yul\":6898:6899   */\n      dup4\n        /* \"#utility.yul\":6880:6900   */\n      tag_220\n      jump\t// in\n    tag_243:\n        /* \"#utility.yul\":6875:6900   */\n      swap3\n      pop\n        /* \"#utility.yul\":7034:7035   */\n      dup3\n        /* \"#utility.yul\":6966:7032   */\n      0xffffffffffffffffffffffffffffffffffffffffffffffffffffffffffffffff\n        /* \"#utility.yul\":6962:7036   */\n      sub\n        /* \"#utility.yul\":6959:6960   */\n      dup3\n        /* \"#utility.yul\":6956:7037   */\n      gt\n        /* \"#utility.yul\":6953:6955   */\n      iszero\n      tag_244\n      jumpi\n        /* \"#utility.yul\":7040:7058   */\n      tag_245\n      tag_246\n      jump\t// in\n    tag_245:\n        /* \"#utility.yul\":6953:6955   */\n    tag_244:\n        /* \"#utility.yul\":7084:7085   */\n      dup3\n        /* \"#utility.yul\":7081:7082   */\n      dup3\n        /* \"#utility.yul\":7077:7086   */\n      add\n        /* \"#utility.yul\":7070:7086   */\n      swap1\n      pop\n        /* \"#utility.yul\":6831:7092   */\n      swap3\n      swap2\n      pop\n      pop\n      jump\t// out\n        /* \"#utility.yul\":7098:7283   */\n    tag_101:\n      0x00\n        /* \"#utility.yul\":7155:7175   */\n      tag_248\n        /* \"#utility.yul\":7173:7174   */\n      dup3\n        /* \"#utility.yul\":7155:7175   */\n      tag_220\n      jump\t// in\n    tag_248:\n        /* \"#utility.yul\":7150:7175   */\n      swap2\n      pop\n        /* \"#utility.yul\":7189:7209   */\n      tag_249\n        /* \"#utility.yul\":7207:7208   */\n      dup4\n        /* \"#utility.yul\":7189:7209   */\n      tag_220\n      jump\t// in\n    tag_249:\n        /* \"#utility.yul\":7184:7209   */\n      swap3\n      pop\n        /* \"#utility.yul\":7228:7229   */\n      dup3\n        /* \"#utility.yul\":7218:7220   */\n      tag_250\n      jumpi\n        /* \"#utility.yul\":7233:7251   */\n      tag_251\n      tag_252\n      jump\t// in\n    tag_251:\n        /* \"#utility.yul\":7218:7220   */\n    tag_250:\n        /* \"#utility.yul\":7275:7276   */\n      dup3\n        /* \"#utility.yul\":7272:7273   */\n      dup3\n        /* \"#utility.yul\":7268:7277   */\n      div\n        /* \"#utility.yul\":7263:7277   */\n      swap1\n      pop\n        /* \"#utility.yul\":7140:7283   */\n      swap3\n      swap2\n      pop\n      pop\n      jump\t// out\n        /* \"#utility.yul\":7289:8137   */\n    tag_253:\n      0x00\n      dup1\n        /* \"#utility.yul\":7381:7387   */\n      dup3\n        /* \"#utility.yul\":7372:7387   */\n      swap2\n      pop\n        /* \"#utility.yul\":7405:7410   */\n      dup4\n        /* \"#utility.yul\":7396:7410   */\n      swap1\n      pop\n        /* \"#utility.yul\":7419:8131   */\n    tag_255:\n        /* \"#utility.yul\":7440:7441   */\n      0x01\n        /* \"#utility.yul\":7430:7438   */\n      dup6\n        /* \"#utility.yul\":7427:7442   */\n      gt\n        /* \"#utility.yul\":7419:8131   */\n      iszero\n      tag_257\n      jumpi\n        /* \"#utility.yul\":7535:7539   */\n      dup1\n        /* \"#utility.yul\":7530:7533   */\n      dup7\n        /* \"#utility.yul\":7526:7540   */\n      div\n        /* \"#utility.yul\":7520:7524   */\n      dup2\n        /* \"#utility.yul\":7517:7541   */\n      gt\n        /* \"#utility.yul\":7514:7516   */\n      iszero\n      tag_258\n      jumpi\n        /* \"#utility.yul\":7544:7562   */\n      tag_259\n      tag_246\n      jump\t// in\n    tag_259:\n        /* \"#utility.yul\":7514:7516   */\n    tag_258:\n        /* \"#utility.yul\":7594:7595   */\n      0x01\n        /* \"#utility.yul\":7584:7592   */\n      dup6\n        /* \"#utility.yul\":7580:7596   */\n      and\n        /* \"#utility.yul\":7577:7579   */\n      iszero\n      tag_260\n      jumpi\n        /* \"#utility.yul\":8009:8013   */\n      dup1\n        /* \"#utility.yul\":8002:8007   */\n      dup3\n        /* \"#utility.yul\":7998:8014   */\n      mul\n        /* \"#utility.yul\":7989:8014   */\n      swap2\n      pop\n        /* \"#utility.yul\":7577:7579   */\n    tag_260:\n        /* \"#utility.yul\":8059:8063   */\n      dup1\n        /* \"#utility.yul\":8053:8057   */\n      dup2\n        /* \"#utility.yul\":8049:8064   */\n      mul\n        /* \"#utility.yul\":8041:8064   */\n      swap1\n      pop\n        /* \"#utility.yul\":8089:8121   */\n      tag_261\n        /* \"#utility.yul\":8112:8120   */\n      dup6\n        /* \"#utility.yul\":8089:8121   */\n      tag_262\n      jump\t// in\n    tag_261:\n        /* \"#utility.yul\":8077:8121   */\n      swap5\n      pop\n        /* \"#utility.yul\":7419:8131   */\n      jump(tag_255)\n    tag_257:\n        /* \"#utility.yul\":7362:8137   */\n      swap5\n      pop\n      swap5\n      swap3\n      pop\n      pop\n      pop\n      jump\t// out\n        /* \"#utility.yul\":8143:8428   */\n    tag_97:\n      0x00\n        /* \"#utility.yul\":8227:8250   */\n      tag_264\n        /* \"#utility.yul\":8245:8249   */\n      dup3\n        /* \"#utility.yul\":8227:8250   */\n      tag_220\n      jump\t// in\n    tag_264:\n        /* \"#utility.yul\":8219:8250   */\n      swap2\n      pop\n        /* \"#utility.yul\":8271:8298   */\n      tag_265\n        /* \"#utility.yul\":8289:8297   */\n      dup4\n        /* \"#utility.yul\":8271:8298   */\n      tag_220\n      jump\t// in\n    tag_265:\n        /* \"#utility.yul\":8259:8298   */\n      swap3\n      pop\n        /* \"#utility.yul\":8317:8421   */\n      tag_266\n        /* \"#utility.yul\":8354:8420   */\n      0xffffffffffffffffffffffffffffffffffffffffffffffffffffffffffffffff\n        /* \"#utility.yul\":8344:8352   */\n      dup5\n        /* \"#utility.yul\":8338:8342   */\n      dup5\n        /* \"#utility.yul\":8317:8421   */\n      tag_267\n      jump\t// in\n    tag_266:\n        /* \"#utility.yul\":8308:8421   */\n      swap1\n      pop\n        /* \"#utility.yul\":8209:8428   */\n      swap3\n      swap2\n      pop\n      pop\n      jump\t// out\n        /* \"#utility.yul\":8434:9507   */\n    tag_267:\n      0x00\n        /* \"#utility.yul\":8679:8687   */\n      dup3\n        /* \"#utility.yul\":8669:8671   */\n      tag_269\n      jumpi\n        /* \"#utility.yul\":8700:8701   */\n      0x01\n        /* \"#utility.yul\":8691:8701   */\n      swap1\n      pop\n        /* \"#utility.yul\":8702:8707   */\n      jump(tag_268)\n        /* \"#utility.yul\":8669:8671   */\n    tag_269:\n        /* \"#utility.yul\":8728:8732   */\n      dup2\n        /* \"#utility.yul\":8718:8720   */\n      tag_270\n      jumpi\n        /* \"#utility.yul\":8745:8746   */\n      0x00\n        /* \"#utility.yul\":8736:8746   */\n      swap1\n      pop\n        /* \"#utility.yul\":8747:8752   */\n      jump(tag_268)\n        /* \"#utility.yul\":8718:8720   */\n    tag_270:\n        /* \"#utility.yul\":8814:8818   */\n      dup2\n        /* \"#utility.yul\":8862:8863   */\n      0x01\n        /* \"#utility.yul\":8857:8884   */\n      dup2\n      eq\n      tag_272\n      jumpi\n        /* \"#utility.yul\":8898:8899   */\n      0x02\n        /* \"#utility.yul\":8893:9084   */\n      dup2\n      eq\n      tag_273\n      jumpi\n        /* \"#utility.yul\":8807:9084   */\n      jump(tag_271)\n        /* \"#utility.yul\":8857:8884   */\n    tag_272:\n        /* \"#utility.yul\":8875:8876   */\n      0x01\n        /* \"#utility.yul\":8866:8876   */\n      swap2\n      pop\n        /* \"#utility.yul\":8877:8882   */\n      pop\n      jump(tag_268)\n        /* \"#utility.yul\":8893:9084   */\n    tag_273:\n        /* \"#utility.yul\":8938:8941   */\n      0xff\n        /* \"#utility.yul\":8928:8936   */\n      dup5\n        /* \"#utility.yul\":8925:8942   */\n      gt\n        /* \"#utility.yul\":8922:8924   */\n      iszero\n      tag_274\n      jumpi\n        /* \"#utility.yul\":8945:8963   */\n      tag_275\n      tag_246\n      jump\t// in\n    tag_275:\n        /* \"#utility.yul\":8922:8924   */\n    tag_274:\n        /* \"#utility.yul\":8994:9002   */\n      dup4\n        /* \"#utility.yul\":8991:8992   */\n      0x02\n        /* \"#utility.yul\":8987:9003   */\n      exp\n        /* \"#utility.yul\":8978:9003   */\n      swap2\n      pop\n        /* \"#utility.yul\":9029:9032   */\n      dup5\n        /* \"#utility.yul\":9022:9027   */\n      dup3\n        /* \"#utility.yul\":9019:9033   */\n      gt\n        /* \"#utility.yul\":9016:9018   */\n      iszero\n      tag_276\n      jumpi\n        /* \"#utility.yul\":9036:9054   */\n      tag_277\n      tag_246\n      jump\t// in\n    tag_277:\n        /* \"#utility.yul\":9016:9018   */\n    tag_276:\n        /* \"#utility.yul\":9069:9074   */\n      pop\n      jump(tag_268)\n        /* \"#utility.yul\":8807:9084   */\n    tag_271:\n      pop\n        /* \"#utility.yul\":9193:9195   */\n      0x20\n        /* \"#utility.yul\":9183:9191   */\n      dup4\n        /* \"#utility.yul\":9180:9196   */\n      lt\n        /* \"#utility.yul\":9174:9177   */\n      0x0133\n        /* \"#utility.yul\":9168:9172   */\n      dup4\n        /* \"#utility.yul\":9165:9178   */\n      lt\n        /* \"#utility.yul\":9161:9197   */\n      and\n        /* \"#utility.yul\":9143:9145   */\n      0x4e\n        /* \"#utility.yul\":9133:9141   */\n      dup5\n        /* \"#utility.yul\":9130:9146   */\n      lt\n        /* \"#utility.yul\":9125:9127   */\n      0x0b\n        /* \"#utility.yul\":9119:9123   */\n      dup5\n        /* \"#utility.yul\":9116:9128   */\n      lt\n        /* \"#utility.yul\":9112:9147   */\n      and\n        /* \"#utility.yul\":9096:9207   */\n      or\n        /* \"#utility.yul\":9093:9095   */\n      iszero\n      tag_278\n      jumpi\n        /* \"#utility.yul\":9249:9257   */\n      dup3\n        /* \"#utility.yul\":9243:9247   */\n      dup3\n        /* \"#utility.yul\":9239:9258   */\n      exp\n        /* \"#utility.yul\":9230:9258   */\n      swap1\n      pop\n        /* \"#utility.yul\":9284:9287   */\n      dup4\n        /* \"#utility.yul\":9277:9282   */\n      dup2\n        /* \"#utility.yul\":9274:9288   */\n      gt\n        /* \"#utility.yul\":9271:9273   */\n      iszero\n      tag_279\n      jumpi\n        /* \"#utility.yul\":9291:9309   */\n      tag_280\n      tag_246\n      jump\t// in\n    tag_280:\n        /* \"#utility.yul\":9271:9273   */\n    tag_279:\n        /* \"#utility.yul\":9324:9329   */\n      jump(tag_268)\n        /* \"#utility.yul\":9093:9095   */\n    tag_278:\n        /* \"#utility.yul\":9364:9406   */\n      tag_281\n        /* \"#utility.yul\":9402:9405   */\n      dup5\n        /* \"#utility.yul\":9392:9400   */\n      dup5\n        /* \"#utility.yul\":9386:9390   */\n      dup5\n        /* \"#utility.yul\":9383:9384   */\n      0x01\n        /* \"#utility.yul\":9364:9406   */\n      tag_253\n      jump\t// in\n    tag_281:\n        /* \"#utility.yul\":9349:9406   */\n      swap3\n      pop\n      swap1\n      pop\n        /* \"#utility.yul\":9438:9442   */\n      dup2\n        /* \"#utility.yul\":9433:9436   */\n      dup5\n        /* \"#utility.yul\":9429:9443   */\n      div\n        /* \"#utility.yul\":9422:9427   */\n      dup2\n        /* \"#utility.yul\":9419:9444   */\n      gt\n        /* \"#utility.yul\":9416:9418   */\n      iszero\n      tag_282\n      jumpi\n        /* \"#utility.yul\":9447:9465   */\n      tag_283\n      tag_246\n      jump\t// in\n    tag_283:\n        /* \"#utility.yul\":9416:9418   */\n    tag_282:\n        /* \"#utility.yul\":9496:9500   */\n      dup2\n        /* \"#utility.yul\":9489:9494   */\n      dup2\n        /* \"#utility.yul\":9485:9501   */\n      mul\n        /* \"#utility.yul\":9476:9501   */\n      swap1\n      pop\n        /* \"#utility.yul\":8494:9507   */\n    tag_268:\n      swap4\n      swap3\n      pop\n      pop\n      pop\n      jump\t// out\n        /* \"#utility.yul\":9513:9861   */\n    tag_99:\n      0x00\n        /* \"#utility.yul\":9576:9596   */\n      tag_285\n        /* \"#utility.yul\":9594:9595   */\n      dup3\n        /* \"#utility.yul\":9576:9596   */\n      tag_220\n      jump\t// in\n    tag_285:\n        /* \"#utility.yul\":9571:9596   */\n      swap2\n      pop\n        /* \"#utility.yul\":9610:9630   */\n      tag_286\n        /* \"#utility.yul\":9628:9629   */\n      dup4\n        /* \"#utility.yul\":9610:9630   */\n      tag_220\n      jump\t// in\n    tag_286:\n        /* \"#utility.yul\":9605:9630   */\n      swap3\n      pop\n        /* \"#utility.yul\":9798:9799   */\n      dup2\n        /* \"#utility.yul\":9730:9796   */\n      0xffffffffffffffffffffffffffffffffffffffffffffffffffffffffffffffff\n        /* \"#utility.yul\":9726:9800   */\n      div\n        /* \"#utility.yul\":9723:9724   */\n      dup4\n        /* \"#utility.yul\":9720:9801   */\n      gt\n        /* \"#utility.yul\":9715:9716   */\n      dup3\n        /* \"#utility.yul\":9708:9717   */\n      iszero\n        /* \"#utility.yul\":9701:9718   */\n      iszero\n        /* \"#utility.yul\":9697:9802   */\n      and\n        /* \"#utility.yul\":9694:9696   */\n      iszero\n      tag_287\n      jumpi\n        /* \"#utility.yul\":9805:9823   */\n      tag_288\n      tag_246\n      jump\t// in\n    tag_288:\n        /* \"#utility.yul\":9694:9696   */\n    tag_287:\n        /* \"#utility.yul\":9853:9854   */\n      dup3\n        /* \"#utility.yul\":9850:9851   */\n      dup3\n        /* \"#utility.yul\":9846:9855   */\n      mul\n        /* \"#utility.yul\":9835:9855   */\n      swap1\n      pop\n        /* \"#utility.yul\":9561:9861   */\n      swap3\n      swap2\n      pop\n      pop\n      jump\t// out\n        /* \"#utility.yul\":9867:10058   */\n    tag_122:\n      0x00\n        /* \"#utility.yul\":9927:9947   */\n      tag_290\n        /* \"#utility.yul\":9945:9946   */\n      dup3\n        /* \"#utility.yul\":9927:9947   */\n      tag_220\n      jump\t// in\n    tag_290:\n        /* \"#utility.yul\":9922:9947   */\n      swap2\n      pop\n        /* \"#utility.yul\":9961:9981   */\n      tag_291\n        /* \"#utility.yul\":9979:9980   */\n      dup4\n        /* \"#utility.yul\":9961:9981   */\n      tag_220\n      jump\t// in\n    tag_291:\n        /* \"#utility.yul\":9956:9981   */\n      swap3\n      pop\n        /* \"#utility.yul\":10000:10001   */\n      dup3\n        /* \"#utility.yul\":9997:9998   */\n      dup3\n        /* \"#utility.yul\":9994:10002   */\n      lt\n        /* \"#utility.yul\":9991:9993   */\n      iszero\n      tag_292\n      jumpi\n        /* \"#utility.yul\":10005:10023   */\n      tag_293\n      tag_246\n      jump\t// in\n    tag_293:\n        /* \"#utility.yul\":9991:9993   */\n    tag_292:\n        /* \"#utility.yul\":10050:10051   */\n      dup3\n        /* \"#utility.yul\":10047:10048   */\n      dup3\n        /* \"#utility.yul\":10043:10052   */\n      sub\n        /* \"#utility.yul\":10035:10052   */\n      swap1\n      pop\n        /* \"#utility.yul\":9912:10058   */\n      swap3\n      swap2\n      pop\n      pop\n      jump\t// out\n        /* \"#utility.yul\":10064:10160   */\n    tag_196:\n      0x00\n        /* \"#utility.yul\":10130:10154   */\n      tag_295\n        /* \"#utility.yul\":10148:10153   */\n      dup3\n        /* \"#utility.yul\":10130:10154   */\n      tag_296\n      jump\t// in\n    tag_295:\n        /* \"#utility.yul\":10119:10154   */\n      swap1\n      pop\n        /* \"#utility.yul\":10109:10160   */\n      swap2\n      swap1\n      pop\n      jump\t// out\n        /* \"#utility.yul\":10166:10256   */\n    tag_200:\n      0x00\n        /* \"#utility.yul\":10243:10248   */\n      dup2\n        /* \"#utility.yul\":10236:10249   */\n      iszero\n        /* \"#utility.yul\":10229:10250   */\n      iszero\n        /* \"#utility.yul\":10218:10250   */\n      swap1\n      pop\n        /* \"#utility.yul\":10208:10256   */\n      swap2\n      swap1\n      pop\n      jump\t// out\n        /* \"#utility.yul\":10262:10388   */\n    tag_296:\n      0x00\n        /* \"#utility.yul\":10339:10381   */\n      0xffffffffffffffffffffffffffffffffffffffff\n        /* \"#utility.yul\":10332:10337   */\n      dup3\n        /* \"#utility.yul\":10328:10382   */\n      and\n        /* \"#utility.yul\":10317:10382   */\n      swap1\n      pop\n        /* \"#utility.yul\":10307:10388   */\n      swap2\n      swap1\n      pop\n      jump\t// out\n        /* \"#utility.yul\":10394:10471   */\n    tag_220:\n      0x00\n        /* \"#utility.yul\":10460:10465   */\n      dup2\n        /* \"#utility.yul\":10449:10465   */\n      swap1\n      pop\n        /* \"#utility.yul\":10439:10471   */\n      swap2\n      swap1\n      pop\n      jump\t// out\n        /* \"#utility.yul\":10477:10611   */\n    tag_192:\n      0x00\n        /* \"#utility.yul\":10568:10605   */\n      tag_301\n        /* \"#utility.yul\":10599:10604   */\n      dup3\n        /* \"#utility.yul\":10568:10605   */\n      tag_302\n      jump\t// in\n    tag_301:\n        /* \"#utility.yul\":10555:10605   */\n      swap1\n      pop\n        /* \"#utility.yul\":10545:10611   */\n      swap2\n      swap1\n      pop\n      jump\t// out\n        /* \"#utility.yul\":10617:10743   */\n    tag_302:\n      0x00\n        /* \"#utility.yul\":10700:10737   */\n      tag_304\n        /* \"#utility.yul\":10731:10736   */\n      dup3\n        /* \"#utility.yul\":10700:10737   */\n      tag_305\n      jump\t// in\n    tag_304:\n        /* \"#utility.yul\":10687:10737   */\n      swap1\n      pop\n        /* \"#utility.yul\":10677:10743   */\n      swap2\n      swap1\n      pop\n      jump\t// out\n        /* \"#utility.yul\":10749:10862   */\n    tag_305:\n      0x00\n        /* \"#utility.yul\":10832:10856   */\n      tag_307\n        /* \"#utility.yul\":10850:10855   */\n      dup3\n        /* \"#utility.yul\":10832:10856   */\n      tag_296\n      jump\t// in\n    tag_307:\n        /* \"#utility.yul\":10819:10856   */\n      swap1\n      pop\n        /* \"#utility.yul\":10809:10862   */\n      swap2\n      swap1\n      pop\n      jump\t// out\n        /* \"#utility.yul\":10868:11048   */\n    tag_246:\n        /* \"#utility.yul\":10916:10993   */\n      0x4e487b7100000000000000000000000000000000000000000000000000000000\n        /* \"#utility.yul\":10913:10914   */\n      0x00\n        /* \"#utility.yul\":10906:10994   */\n      mstore\n        /* \"#utility.yul\":11013:11017   */\n      0x11\n        /* \"#utility.yul\":11010:11011   */\n      0x04\n        /* \"#utility.yul\":11003:11018   */\n      mstore\n        /* \"#utility.yul\":11037:11041   */\n      0x24\n        /* \"#utility.yul\":11034:11035   */\n      0x00\n        /* \"#utility.yul\":11027:11042   */\n      revert\n        /* \"#utility.yul\":11054:11234   */\n    tag_252:\n        /* \"#utility.yul\":11102:11179   */\n      0x4e487b7100000000000000000000000000000000000000000000000000000000\n        /* \"#utility.yul\":11099:11100   */\n      0x00\n        /* \"#utility.yul\":11092:11180   */\n      mstore\n        /* \"#utility.yul\":11199:11203   */\n      0x12\n        /* \"#utility.yul\":11196:11197   */\n      0x04\n        /* \"#utility.yul\":11189:11204   */\n      mstore\n        /* \"#utility.yul\":11223:11227   */\n      0x24\n        /* \"#utility.yul\":11220:11221   */\n      0x00\n        /* \"#utility.yul\":11213:11228   */\n      revert\n        /* \"#utility.yul\":11240:11342   */\n    tag_262:\n      0x00\n        /* \"#utility.yul\":11329:11334   */\n      dup2\n        /* \"#utility.yul\":11326:11327   */\n      0x01\n        /* \"#utility.yul\":11322:11335   */\n      shr\n        /* \"#utility.yul\":11301:11335   */\n      swap1\n      pop\n        /* \"#utility.yul\":11291:11342   */\n      swap2\n      swap1\n      pop\n      jump\t// out\n        /* \"#utility.yul\":11348:11470   */\n    tag_171:\n        /* \"#utility.yul\":11421:11445   */\n      tag_312\n        /* \"#utility.yul\":11439:11444   */\n      dup2\n        /* \"#utility.yul\":11421:11445   */\n      tag_196\n      jump\t// in\n    tag_312:\n        /* \"#utility.yul\":11414:11419   */\n      dup2\n        /* \"#utility.yul\":11411:11446   */\n      eq\n        /* \"#utility.yul\":11401:11403   */\n      tag_313\n      jumpi\n        /* \"#utility.yul\":11460:11461   */\n      0x00\n        /* \"#utility.yul\":11457:11458   */\n      dup1\n        /* \"#utility.yul\":11450:11462   */\n      revert\n        /* \"#utility.yul\":11401:11403   */\n    tag_313:\n        /* \"#utility.yul\":11391:11470   */\n      pop\n      jump\t// out\n        /* \"#utility.yul\":11476:11592   */\n    tag_175:\n        /* \"#utility.yul\":11546:11567   */\n      tag_315\n        /* \"#utility.yul\":11561:11566   */\n      dup2\n        /* \"#utility.yul\":11546:11567   */\n      tag_200\n      jump\t// in\n    tag_315:\n        /* \"#utility.yul\":11539:11544   */\n      dup2\n        /* \"#utility.yul\":11536:11568   */\n      eq\n        /* \"#utility.yul\":11526:11528   */\n      tag_316\n      jumpi\n        /* \"#utility.yul\":11582:11583   */\n      0x00\n        /* \"#utility.yul\":11579:11580   */\n      dup1\n        /* \"#utility.yul\":11572:11584   */\n      revert\n        /* \"#utility.yul\":11526:11528   */\n    tag_316:\n        /* \"#utility.yul\":11516:11592   */\n      pop\n      jump\t// out\n        /* \"#utility.yul\":11598:11720   */\n    tag_179:\n        /* \"#utility.yul\":11671:11695   */\n      tag_318\n        /* \"#utility.yul\":11689:11694   */\n      dup2\n        /* \"#utility.yul\":11671:11695   */\n      tag_220\n      jump\t// in\n    tag_318:\n        /* \"#utility.yul\":11664:11669   */\n      dup2\n        /* \"#utility.yul\":11661:11696   */\n      eq\n        /* \"#utility.yul\":11651:11653   */\n      tag_319\n      jumpi\n        /* \"#utility.yul\":11710:11711   */\n      0x00\n        /* \"#utility.yul\":11707:11708   */\n      dup1\n        /* \"#utility.yul\":11700:11712   */\n      revert\n        /* \"#utility.yul\":11651:11653   */\n    tag_319:\n        /* \"#utility.yul\":11641:11720   */\n      pop\n      jump\t// out\n\n    auxdata: 0xa26469706673582212202dcba57feed67971fdf6cc658ff0692f1b4a7ec82588ca6163ba5e2c6df863dd64736f6c63430008000033\n}\n",
				"bytecode": {
					"linkReferences": {},
					"object": "60806040523480156200001157600080fd5b5060405162001682380380620016828339818101604052810190620000379190620002e2565b6000620000496200029560201b60201c565b9050806000806101000a81548173ffffffffffffffffffffffffffffffffffffffff021916908373ffffffffffffffffffffffffffffffffffffffff1602179055508073ffffffffffffffffffffffffffffffffffffffff16600073ffffffffffffffffffffffffffffffffffffffff167f8be0079c531659141344cd1fd0a4f28419497f9722a3daafe3b4186f6b6457e060405160405180910390a35060008573ffffffffffffffffffffffffffffffffffffffff1663313ce5676040518163ffffffff1660e01b815260040160206040518083038186803b1580156200013057600080fd5b505afa15801562000145573d6000803e3d6000fd5b505050506040513d601f19601f820116820180604052508101906200016b919062000364565b60ff16116200017957600080fd5b8284106200018657600080fd5b600082116200019457600080fd5b60008111620001a257600080fd5b84600160006101000a81548173ffffffffffffffffffffffffffffffffffffffff021916908373ffffffffffffffffffffffffffffffffffffffff1602179055508473ffffffffffffffffffffffffffffffffffffffff1663313ce5676040518163ffffffff1660e01b815260040160206040518083038186803b1580156200022a57600080fd5b505afa1580156200023f573d6000803e3d6000fd5b505050506040513d601f19601f8201168201806040525081019062000265919062000364565b60ff1660028190555083600381905550826004819055508160058190555080600881905550505050505062000429565b600033905090565b600081519050620002ae81620003db565b92915050565b600081519050620002c581620003f5565b92915050565b600081519050620002dc816200040f565b92915050565b600080600080600060a08688031215620002fb57600080fd5b60006200030b888289016200029d565b95505060206200031e88828901620002b4565b94505060406200033188828901620002b4565b93505060606200034488828901620002b4565b92505060806200035788828901620002b4565b9150509295509295909350565b6000602082840312156200037757600080fd5b60006200038784828501620002cb565b91505092915050565b60006200039d82620003a4565b9050919050565b600073ffffffffffffffffffffffffffffffffffffffff82169050919050565b6000819050919050565b600060ff82169050919050565b620003e68162000390565b8114620003f257600080fd5b50565b6200040081620003c4565b81146200040c57600080fd5b50565b6200041a81620003ce565b81146200042657600080fd5b50565b61124980620004396000396000f3fe6080604052600436106100fe5760003560e01c806378e9792511610095578063d0febe4c11610064578063d0febe4c146102f1578063f2fde38b146102fb578063fa1a5f5914610324578063fa300f751461034f578063fc0c546a1461038c576100fe565b806378e97925146102595780638da5cb5b14610284578063b3b9bcdf146102af578063c0b5fca0146102c6576100fe565b80633996dc8f116100d15780633996dc8f146101af57806348dc5893146101da5780635caed02914610217578063715018a614610242576100fe565b80631b0875a61461010357806322f3e2d41461012e57806331711884146101595780633197cbb614610184575b600080fd5b34801561010f57600080fd5b506101186103b7565b6040516101259190610e33565b60405180910390f35b34801561013a57600080fd5b506101436103bd565b6040516101509190610d78565b60405180910390f35b34801561016557600080fd5b5061016e6103d8565b60405161017b9190610e33565b60405180910390f35b34801561019057600080fd5b506101996103de565b6040516101a69190610e33565b60405180910390f35b3480156101bb57600080fd5b506101c46103e4565b6040516101d19190610e33565b60405180910390f35b3480156101e657600080fd5b5061020160048036038101906101fc9190610b69565b6103ea565b60405161020e9190610e33565b60405180910390f35b34801561022357600080fd5b5061022c61041f565b6040516102399190610e33565b60405180910390f35b34801561024e57600080fd5b50610257610425565b005b34801561026557600080fd5b5061026e61055f565b60405161027b9190610e33565b60405180910390f35b34801561029057600080fd5b50610299610565565b6040516102a69190610d34565b60405180910390f35b3480156102bb57600080fd5b506102c461058e565b005b3480156102d257600080fd5b506102db610666565b6040516102e89190610e33565b60405180910390f35b6102f961067d565b005b34801561030757600080fd5b50610322600480360381019061031d9190610b17565b6108c6565b005b34801561033057600080fd5b50610339610a6f565b6040516103469190610e33565b60405180910390f35b34801561035b57600080fd5b5061037660048036038101906103719190610b69565b610a75565b6040516103839190610e33565b60405180910390f35b34801561039857600080fd5b506103a1610aaa565b6040516103ae9190610d34565b60405180910390f35b60085481565b600042600354111580156103d357506004544211155b905090565b60055481565b60045481565b60075481565b600080600254600a6103fc9190610f39565b9050600554818461040d9190611057565b6104179190610eb5565b915050919050565b60025481565b61042d610ad0565b73ffffffffffffffffffffffffffffffffffffffff1661044b610565565b73ffffffffffffffffffffffffffffffffffffffff16146104a1576040517f08c379a000000000000000000000000000000000000000000000000000000000815260040161049890610df3565b60405180910390fd5b600073ffffffffffffffffffffffffffffffffffffffff1660008054906101000a900473ffffffffffffffffffffffffffffffffffffffff1673ffffffffffffffffffffffffffffffffffffffff167f8be0079c531659141344cd1fd0a4f28419497f9722a3daafe3b4186f6b6457e060405160405180910390a360008060006101000a81548173ffffffffffffffffffffffffffffffffffffffff021916908373ffffffffffffffffffffffffffffffffffffffff160217905550565b60035481565b60008060009054906101000a900473ffffffffffffffffffffffffffffffffffffffff16905090565b610596610ad0565b73ffffffffffffffffffffffffffffffffffffffff166105b4610565565b73ffffffffffffffffffffffffffffffffffffffff161461060a576040517f08c379a000000000000000000000000000000000000000000000000000000000815260040161060190610df3565b60405180910390fd5b6000610614610ad0565b905060004790508173ffffffffffffffffffffffffffffffffffffffff166108fc829081150290604051600060405180830381858888f19350505050158015610661573d6000803e3d6000fd5b505050565b600060065460085461067891906110b1565b905090565b6000610687610ad0565b905060003490506106966103bd565b6106d5576040517f08c379a00000000000000000000000000000000000000000000000000000000081526004016106cc90610db3565b60405180910390fd5b60008111610718576040517f08c379a000000000000000000000000000000000000000000000000000000000815260040161070f90610dd3565b60405180910390fd5b6000610723826103ea565b9050600061072f610666565b90508082111561079d57809150600061074782610a75565b8461075291906110b1565b90508473ffffffffffffffffffffffffffffffffffffffff166108fc829081150290604051600060405180830381858888f1935050505015801561079a573d6000803e3d6000fd5b50505b600082116107e0576040517f08c379a00000000000000000000000000000000000000000000000000000000081526004016107d790610e13565b60405180910390fd5b600160009054906101000a900473ffffffffffffffffffffffffffffffffffffffff1673ffffffffffffffffffffffffffffffffffffffff1663a9059cbb85846040518363ffffffff1660e01b815260040161083d929190610d4f565b602060405180830381600087803b15801561085757600080fd5b505af115801561086b573d6000803e3d6000fd5b505050506040513d601f19601f8201168201806040525081019061088f9190610b40565b508160065461089e9190610e5f565b6006819055506108ad82610a75565b6007546108ba9190610e5f565b60078190555050505050565b6108ce610ad0565b73ffffffffffffffffffffffffffffffffffffffff166108ec610565565b73ffffffffffffffffffffffffffffffffffffffff1614610942576040517f08c379a000000000000000000000000000000000000000000000000000000000815260040161093990610df3565b60405180910390fd5b600073ffffffffffffffffffffffffffffffffffffffff168173ffffffffffffffffffffffffffffffffffffffff1614156109b2576040517f08c379a00000000000000000000000000000000000000000000000000000000081526004016109a990610d93565b60405180910390fd5b8073ffffffffffffffffffffffffffffffffffffffff1660008054906101000a900473ffffffffffffffffffffffffffffffffffffffff1673ffffffffffffffffffffffffffffffffffffffff167f8be0079c531659141344cd1fd0a4f28419497f9722a3daafe3b4186f6b6457e060405160405180910390a3806000806101000a81548173ffffffffffffffffffffffffffffffffffffffff021916908373ffffffffffffffffffffffffffffffffffffffff16021790555050565b60065481565b600080600254600a610a879190610f39565b90508060055484610a989190611057565b610aa29190610eb5565b915050919050565b600160009054906101000a900473ffffffffffffffffffffffffffffffffffffffff1681565b600033905090565b600081359050610ae7816111ce565b92915050565b600081519050610afc816111e5565b92915050565b600081359050610b11816111fc565b92915050565b600060208284031215610b2957600080fd5b6000610b3784828501610ad8565b91505092915050565b600060208284031215610b5257600080fd5b6000610b6084828501610aed565b91505092915050565b600060208284031215610b7b57600080fd5b6000610b8984828501610b02565b91505092915050565b610b9b8161112d565b82525050565b610baa816110e5565b82525050565b610bb9816110f7565b82525050565b6000610bcc602683610e4e565b91507f4f776e61626c653a206e6577206f776e657220697320746865207a65726f206160008301527f64647265737300000000000000000000000000000000000000000000000000006020830152604082019050919050565b6000610c32601283610e4e565b91507f53616c65206973206e6f742061637469766500000000000000000000000000006000830152602082019050919050565b6000610c72601783610e4e565b91507f416363657074656420616d6f756e74206973207a65726f0000000000000000006000830152602082019050919050565b6000610cb2602083610e4e565b91507f4f776e61626c653a2063616c6c6572206973206e6f7420746865206f776e65726000830152602082019050919050565b6000610cf2601483610e4e565b91507f5a65726f20726577617264656420616d6f756e740000000000000000000000006000830152602082019050919050565b610d2e81611123565b82525050565b6000602082019050610d496000830184610ba1565b92915050565b6000604082019050610d646000830185610b92565b610d716020830184610d25565b9392505050565b6000602082019050610d8d6000830184610bb0565b92915050565b60006020820190508181036000830152610dac81610bbf565b9050919050565b60006020820190508181036000830152610dcc81610c25565b9050919050565b60006020820190508181036000830152610dec81610c65565b9050919050565b60006020820190508181036000830152610e0c81610ca5565b9050919050565b60006020820190508181036000830152610e2c81610ce5565b9050919050565b6000602082019050610e486000830184610d25565b92915050565b600082825260208201905092915050565b6000610e6a82611123565b9150610e7583611123565b9250827fffffffffffffffffffffffffffffffffffffffffffffffffffffffffffffffff03821115610eaa57610ea9611163565b5b828201905092915050565b6000610ec082611123565b9150610ecb83611123565b925082610edb57610eda611192565b5b828204905092915050565b6000808291508390505b6001851115610f3057808604811115610f0c57610f0b611163565b5b6001851615610f1b5780820291505b8081029050610f29856111c1565b9450610ef0565b94509492505050565b6000610f4482611123565b9150610f4f83611123565b9250610f7c7fffffffffffffffffffffffffffffffffffffffffffffffffffffffffffffffff8484610f84565b905092915050565b600082610f945760019050611050565b81610fa25760009050611050565b8160018114610fb85760028114610fc257610ff1565b6001915050611050565b60ff841115610fd457610fd3611163565b5b8360020a915084821115610feb57610fea611163565b5b50611050565b5060208310610133831016604e8410600b84101617156110265782820a90508381111561102157611020611163565b5b611050565b6110338484846001610ee6565b9250905081840481111561104a57611049611163565b5b81810290505b9392505050565b600061106282611123565b915061106d83611123565b9250817fffffffffffffffffffffffffffffffffffffffffffffffffffffffffffffffff04831182151516156110a6576110a5611163565b5b828202905092915050565b60006110bc82611123565b91506110c783611123565b9250828210156110da576110d9611163565b5b828203905092915050565b60006110f082611103565b9050919050565b60008115159050919050565b600073ffffffffffffffffffffffffffffffffffffffff82169050919050565b6000819050919050565b60006111388261113f565b9050919050565b600061114a82611151565b9050919050565b600061115c82611103565b9050919050565b7f4e487b7100000000000000000000000000000000000000000000000000000000600052601160045260246000fd5b7f4e487b7100000000000000000000000000000000000000000000000000000000600052601260045260246000fd5b60008160011c9050919050565b6111d7816110e5565b81146111e257600080fd5b50565b6111ee816110f7565b81146111f957600080fd5b50565b61120581611123565b811461121057600080fd5b5056fea26469706673582212202dcba57feed67971fdf6cc658ff0692f1b4a7ec82588ca6163ba5e2c6df863dd64736f6c63430008000033",
					"opcodes": "PUSH1 0x80 PUSH1 0x40 MSTORE CALLVALUE DUP1 ISZERO PUSH3 0x11 JUMPI PUSH1 0x0 DUP1 REVERT JUMPDEST POP PUSH1 0x40 MLOAD PUSH3 0x1682 CODESIZE SUB DUP1 PUSH3 0x1682 DUP4 CODECOPY DUP2 DUP2 ADD PUSH1 0x40 MSTORE DUP2 ADD SWAP1 PUSH3 0x37 SWAP2 SWAP1 PUSH3 0x2E2 JUMP JUMPDEST PUSH1 0x0 PUSH3 0x49 PUSH3 0x295 PUSH1 0x20 SHL PUSH1 0x20 SHR JUMP JUMPDEST SWAP1 POP DUP1 PUSH1 0x0 DUP1 PUSH2 0x100 EXP DUP2 SLOAD DUP2 PUSH20 0xFFFFFFFFFFFFFFFFFFFFFFFFFFFFFFFFFFFFFFFF MUL NOT AND SWAP1 DUP4 PUSH20 0xFFFFFFFFFFFFFFFFFFFFFFFFFFFFFFFFFFFFFFFF AND MUL OR SWAP1 SSTORE POP DUP1 PUSH20 0xFFFFFFFFFFFFFFFFFFFFFFFFFFFFFFFFFFFFFFFF AND PUSH1 0x0 PUSH20 0xFFFFFFFFFFFFFFFFFFFFFFFFFFFFFFFFFFFFFFFF AND PUSH32 0x8BE0079C531659141344CD1FD0A4F28419497F9722A3DAAFE3B4186F6B6457E0 PUSH1 0x40 MLOAD PUSH1 0x40 MLOAD DUP1 SWAP2 SUB SWAP1 LOG3 POP PUSH1 0x0 DUP6 PUSH20 0xFFFFFFFFFFFFFFFFFFFFFFFFFFFFFFFFFFFFFFFF AND PUSH4 0x313CE567 PUSH1 0x40 MLOAD DUP2 PUSH4 0xFFFFFFFF AND PUSH1 0xE0 SHL DUP2 MSTORE PUSH1 0x4 ADD PUSH1 0x20 PUSH1 0x40 MLOAD DUP1 DUP4 SUB DUP2 DUP7 DUP1 EXTCODESIZE ISZERO DUP1 ISZERO PUSH3 0x130 JUMPI PUSH1 0x0 DUP1 REVERT JUMPDEST POP GAS STATICCALL ISZERO DUP1 ISZERO PUSH3 0x145 JUMPI RETURNDATASIZE PUSH1 0x0 DUP1 RETURNDATACOPY RETURNDATASIZE PUSH1 0x0 REVERT JUMPDEST POP POP POP POP PUSH1 0x40 MLOAD RETURNDATASIZE PUSH1 0x1F NOT PUSH1 0x1F DUP3 ADD AND DUP3 ADD DUP1 PUSH1 0x40 MSTORE POP DUP2 ADD SWAP1 PUSH3 0x16B SWAP2 SWAP1 PUSH3 0x364 JUMP JUMPDEST PUSH1 0xFF AND GT PUSH3 0x179 JUMPI PUSH1 0x0 DUP1 REVERT JUMPDEST DUP3 DUP5 LT PUSH3 0x186 JUMPI PUSH1 0x0 DUP1 REVERT JUMPDEST PUSH1 0x0 DUP3 GT PUSH3 0x194 JUMPI PUSH1 0x0 DUP1 REVERT JUMPDEST PUSH1 0x0 DUP2 GT PUSH3 0x1A2 JUMPI PUSH1 0x0 DUP1 REVERT JUMPDEST DUP5 PUSH1 0x1 PUSH1 0x0 PUSH2 0x100 EXP DUP2 SLOAD DUP2 PUSH20 0xFFFFFFFFFFFFFFFFFFFFFFFFFFFFFFFFFFFFFFFF MUL NOT AND SWAP1 DUP4 PUSH20 0xFFFFFFFFFFFFFFFFFFFFFFFFFFFFFFFFFFFFFFFF AND MUL OR SWAP1 SSTORE POP DUP5 PUSH20 0xFFFFFFFFFFFFFFFFFFFFFFFFFFFFFFFFFFFFFFFF AND PUSH4 0x313CE567 PUSH1 0x40 MLOAD DUP2 PUSH4 0xFFFFFFFF AND PUSH1 0xE0 SHL DUP2 MSTORE PUSH1 0x4 ADD PUSH1 0x20 PUSH1 0x40 MLOAD DUP1 DUP4 SUB DUP2 DUP7 DUP1 EXTCODESIZE ISZERO DUP1 ISZERO PUSH3 0x22A JUMPI PUSH1 0x0 DUP1 REVERT JUMPDEST POP GAS STATICCALL ISZERO DUP1 ISZERO PUSH3 0x23F JUMPI RETURNDATASIZE PUSH1 0x0 DUP1 RETURNDATACOPY RETURNDATASIZE PUSH1 0x0 REVERT JUMPDEST POP POP POP POP PUSH1 0x40 MLOAD RETURNDATASIZE PUSH1 0x1F NOT PUSH1 0x1F DUP3 ADD AND DUP3 ADD DUP1 PUSH1 0x40 MSTORE POP DUP2 ADD SWAP1 PUSH3 0x265 SWAP2 SWAP1 PUSH3 0x364 JUMP JUMPDEST PUSH1 0xFF AND PUSH1 0x2 DUP2 SWAP1 SSTORE POP DUP4 PUSH1 0x3 DUP2 SWAP1 SSTORE POP DUP3 PUSH1 0x4 DUP2 SWAP1 SSTORE POP DUP2 PUSH1 0x5 DUP2 SWAP1 SSTORE POP DUP1 PUSH1 0x8 DUP2 SWAP1 SSTORE POP POP POP POP POP POP PUSH3 0x429 JUMP JUMPDEST PUSH1 0x0 CALLER SWAP1 POP SWAP1 JUMP JUMPDEST PUSH1 0x0 DUP2 MLOAD SWAP1 POP PUSH3 0x2AE DUP2 PUSH3 0x3DB JUMP JUMPDEST SWAP3 SWAP2 POP POP JUMP JUMPDEST PUSH1 0x0 DUP2 MLOAD SWAP1 POP PUSH3 0x2C5 DUP2 PUSH3 0x3F5 JUMP JUMPDEST SWAP3 SWAP2 POP POP JUMP JUMPDEST PUSH1 0x0 DUP2 MLOAD SWAP1 POP PUSH3 0x2DC DUP2 PUSH3 0x40F JUMP JUMPDEST SWAP3 SWAP2 POP POP JUMP JUMPDEST PUSH1 0x0 DUP1 PUSH1 0x0 DUP1 PUSH1 0x0 PUSH1 0xA0 DUP7 DUP9 SUB SLT ISZERO PUSH3 0x2FB JUMPI PUSH1 0x0 DUP1 REVERT JUMPDEST PUSH1 0x0 PUSH3 0x30B DUP9 DUP3 DUP10 ADD PUSH3 0x29D JUMP JUMPDEST SWAP6 POP POP PUSH1 0x20 PUSH3 0x31E DUP9 DUP3 DUP10 ADD PUSH3 0x2B4 JUMP JUMPDEST SWAP5 POP POP PUSH1 0x40 PUSH3 0x331 DUP9 DUP3 DUP10 ADD PUSH3 0x2B4 JUMP JUMPDEST SWAP4 POP POP PUSH1 0x60 PUSH3 0x344 DUP9 DUP3 DUP10 ADD PUSH3 0x2B4 JUMP JUMPDEST SWAP3 POP POP PUSH1 0x80 PUSH3 0x357 DUP9 DUP3 DUP10 ADD PUSH3 0x2B4 JUMP JUMPDEST SWAP2 POP POP SWAP3 SWAP6 POP SWAP3 SWAP6 SWAP1 SWAP4 POP JUMP JUMPDEST PUSH1 0x0 PUSH1 0x20 DUP3 DUP5 SUB SLT ISZERO PUSH3 0x377 JUMPI PUSH1 0x0 DUP1 REVERT JUMPDEST PUSH1 0x0 PUSH3 0x387 DUP5 DUP3 DUP6 ADD PUSH3 0x2CB JUMP JUMPDEST SWAP2 POP POP SWAP3 SWAP2 POP POP JUMP JUMPDEST PUSH1 0x0 PUSH3 0x39D DUP3 PUSH3 0x3A4 JUMP JUMPDEST SWAP1 POP SWAP2 SWAP1 POP JUMP JUMPDEST PUSH1 0x0 PUSH20 0xFFFFFFFFFFFFFFFFFFFFFFFFFFFFFFFFFFFFFFFF DUP3 AND SWAP1 POP SWAP2 SWAP1 POP JUMP JUMPDEST PUSH1 0x0 DUP2 SWAP1 POP SWAP2 SWAP1 POP JUMP JUMPDEST PUSH1 0x0 PUSH1 0xFF DUP3 AND SWAP1 POP SWAP2 SWAP1 POP JUMP JUMPDEST PUSH3 0x3E6 DUP2 PUSH3 0x390 JUMP JUMPDEST DUP2 EQ PUSH3 0x3F2 JUMPI PUSH1 0x0 DUP1 REVERT JUMPDEST POP JUMP JUMPDEST PUSH3 0x400 DUP2 PUSH3 0x3C4 JUMP JUMPDEST DUP2 EQ PUSH3 0x40C JUMPI PUSH1 0x0 DUP1 REVERT JUMPDEST POP JUMP JUMPDEST PUSH3 0x41A DUP2 PUSH3 0x3CE JUMP JUMPDEST DUP2 EQ PUSH3 0x426 JUMPI PUSH1 0x0 DUP1 REVERT JUMPDEST POP JUMP JUMPDEST PUSH2 0x1249 DUP1 PUSH3 0x439 PUSH1 0x0 CODECOPY PUSH1 0x0 RETURN INVALID PUSH1 0x80 PUSH1 0x40 MSTORE PUSH1 0x4 CALLDATASIZE LT PUSH2 0xFE JUMPI PUSH1 0x0 CALLDATALOAD PUSH1 0xE0 SHR DUP1 PUSH4 0x78E97925 GT PUSH2 0x95 JUMPI DUP1 PUSH4 0xD0FEBE4C GT PUSH2 0x64 JUMPI DUP1 PUSH4 0xD0FEBE4C EQ PUSH2 0x2F1 JUMPI DUP1 PUSH4 0xF2FDE38B EQ PUSH2 0x2FB JUMPI DUP1 PUSH4 0xFA1A5F59 EQ PUSH2 0x324 JUMPI DUP1 PUSH4 0xFA300F75 EQ PUSH2 0x34F JUMPI DUP1 PUSH4 0xFC0C546A EQ PUSH2 0x38C JUMPI PUSH2 0xFE JUMP JUMPDEST DUP1 PUSH4 0x78E97925 EQ PUSH2 0x259 JUMPI DUP1 PUSH4 0x8DA5CB5B EQ PUSH2 0x284 JUMPI DUP1 PUSH4 0xB3B9BCDF EQ PUSH2 0x2AF JUMPI DUP1 PUSH4 0xC0B5FCA0 EQ PUSH2 0x2C6 JUMPI PUSH2 0xFE JUMP JUMPDEST DUP1 PUSH4 0x3996DC8F GT PUSH2 0xD1 JUMPI DUP1 PUSH4 0x3996DC8F EQ PUSH2 0x1AF JUMPI DUP1 PUSH4 0x48DC5893 EQ PUSH2 0x1DA JUMPI DUP1 PUSH4 0x5CAED029 EQ PUSH2 0x217 JUMPI DUP1 PUSH4 0x715018A6 EQ PUSH2 0x242 JUMPI PUSH2 0xFE JUMP JUMPDEST DUP1 PUSH4 0x1B0875A6 EQ PUSH2 0x103 JUMPI DUP1 PUSH4 0x22F3E2D4 EQ PUSH2 0x12E JUMPI DUP1 PUSH4 0x31711884 EQ PUSH2 0x159 JUMPI DUP1 PUSH4 0x3197CBB6 EQ PUSH2 0x184 JUMPI JUMPDEST PUSH1 0x0 DUP1 REVERT JUMPDEST CALLVALUE DUP1 ISZERO PUSH2 0x10F JUMPI PUSH1 0x0 DUP1 REVERT JUMPDEST POP PUSH2 0x118 PUSH2 0x3B7 JUMP JUMPDEST PUSH1 0x40 MLOAD PUSH2 0x125 SWAP2 SWAP1 PUSH2 0xE33 JUMP JUMPDEST PUSH1 0x40 MLOAD DUP1 SWAP2 SUB SWAP1 RETURN JUMPDEST CALLVALUE DUP1 ISZERO PUSH2 0x13A JUMPI PUSH1 0x0 DUP1 REVERT JUMPDEST POP PUSH2 0x143 PUSH2 0x3BD JUMP JUMPDEST PUSH1 0x40 MLOAD PUSH2 0x150 SWAP2 SWAP1 PUSH2 0xD78 JUMP JUMPDEST PUSH1 0x40 MLOAD DUP1 SWAP2 SUB SWAP1 RETURN JUMPDEST CALLVALUE DUP1 ISZERO PUSH2 0x165 JUMPI PUSH1 0x0 DUP1 REVERT JUMPDEST POP PUSH2 0x16E PUSH2 0x3D8 JUMP JUMPDEST PUSH1 0x40 MLOAD PUSH2 0x17B SWAP2 SWAP1 PUSH2 0xE33 JUMP JUMPDEST PUSH1 0x40 MLOAD DUP1 SWAP2 SUB SWAP1 RETURN JUMPDEST CALLVALUE DUP1 ISZERO PUSH2 0x190 JUMPI PUSH1 0x0 DUP1 REVERT JUMPDEST POP PUSH2 0x199 PUSH2 0x3DE JUMP JUMPDEST PUSH1 0x40 MLOAD PUSH2 0x1A6 SWAP2 SWAP1 PUSH2 0xE33 JUMP JUMPDEST PUSH1 0x40 MLOAD DUP1 SWAP2 SUB SWAP1 RETURN JUMPDEST CALLVALUE DUP1 ISZERO PUSH2 0x1BB JUMPI PUSH1 0x0 DUP1 REVERT JUMPDEST POP PUSH2 0x1C4 PUSH2 0x3E4 JUMP JUMPDEST PUSH1 0x40 MLOAD PUSH2 0x1D1 SWAP2 SWAP1 PUSH2 0xE33 JUMP JUMPDEST PUSH1 0x40 MLOAD DUP1 SWAP2 SUB SWAP1 RETURN JUMPDEST CALLVALUE DUP1 ISZERO PUSH2 0x1E6 JUMPI PUSH1 0x0 DUP1 REVERT JUMPDEST POP PUSH2 0x201 PUSH1 0x4 DUP1 CALLDATASIZE SUB DUP2 ADD SWAP1 PUSH2 0x1FC SWAP2 SWAP1 PUSH2 0xB69 JUMP JUMPDEST PUSH2 0x3EA JUMP JUMPDEST PUSH1 0x40 MLOAD PUSH2 0x20E SWAP2 SWAP1 PUSH2 0xE33 JUMP JUMPDEST PUSH1 0x40 MLOAD DUP1 SWAP2 SUB SWAP1 RETURN JUMPDEST CALLVALUE DUP1 ISZERO PUSH2 0x223 JUMPI PUSH1 0x0 DUP1 REVERT JUMPDEST POP PUSH2 0x22C PUSH2 0x41F JUMP JUMPDEST PUSH1 0x40 MLOAD PUSH2 0x239 SWAP2 SWAP1 PUSH2 0xE33 JUMP JUMPDEST PUSH1 0x40 MLOAD DUP1 SWAP2 SUB SWAP1 RETURN JUMPDEST CALLVALUE DUP1 ISZERO PUSH2 0x24E JUMPI PUSH1 0x0 DUP1 REVERT JUMPDEST POP PUSH2 0x257 PUSH2 0x425 JUMP JUMPDEST STOP JUMPDEST CALLVALUE DUP1 ISZERO PUSH2 0x265 JUMPI PUSH1 0x0 DUP1 REVERT JUMPDEST POP PUSH2 0x26E PUSH2 0x55F JUMP JUMPDEST PUSH1 0x40 MLOAD PUSH2 0x27B SWAP2 SWAP1 PUSH2 0xE33 JUMP JUMPDEST PUSH1 0x40 MLOAD DUP1 SWAP2 SUB SWAP1 RETURN JUMPDEST CALLVALUE DUP1 ISZERO PUSH2 0x290 JUMPI PUSH1 0x0 DUP1 REVERT JUMPDEST POP PUSH2 0x299 PUSH2 0x565 JUMP JUMPDEST PUSH1 0x40 MLOAD PUSH2 0x2A6 SWAP2 SWAP1 PUSH2 0xD34 JUMP JUMPDEST PUSH1 0x40 MLOAD DUP1 SWAP2 SUB SWAP1 RETURN JUMPDEST CALLVALUE DUP1 ISZERO PUSH2 0x2BB JUMPI PUSH1 0x0 DUP1 REVERT JUMPDEST POP PUSH2 0x2C4 PUSH2 0x58E JUMP JUMPDEST STOP JUMPDEST CALLVALUE DUP1 ISZERO PUSH2 0x2D2 JUMPI PUSH1 0x0 DUP1 REVERT JUMPDEST POP PUSH2 0x2DB PUSH2 0x666 JUMP JUMPDEST PUSH1 0x40 MLOAD PUSH2 0x2E8 SWAP2 SWAP1 PUSH2 0xE33 JUMP JUMPDEST PUSH1 0x40 MLOAD DUP1 SWAP2 SUB SWAP1 RETURN JUMPDEST PUSH2 0x2F9 PUSH2 0x67D JUMP JUMPDEST STOP JUMPDEST CALLVALUE DUP1 ISZERO PUSH2 0x307 JUMPI PUSH1 0x0 DUP1 REVERT JUMPDEST POP PUSH2 0x322 PUSH1 0x4 DUP1 CALLDATASIZE SUB DUP2 ADD SWAP1 PUSH2 0x31D SWAP2 SWAP1 PUSH2 0xB17 JUMP JUMPDEST PUSH2 0x8C6 JUMP JUMPDEST STOP JUMPDEST CALLVALUE DUP1 ISZERO PUSH2 0x330 JUMPI PUSH1 0x0 DUP1 REVERT JUMPDEST POP PUSH2 0x339 PUSH2 0xA6F JUMP JUMPDEST PUSH1 0x40 MLOAD PUSH2 0x346 SWAP2 SWAP1 PUSH2 0xE33 JUMP JUMPDEST PUSH1 0x40 MLOAD DUP1 SWAP2 SUB SWAP1 RETURN JUMPDEST CALLVALUE DUP1 ISZERO PUSH2 0x35B JUMPI PUSH1 0x0 DUP1 REVERT JUMPDEST POP PUSH2 0x376 PUSH1 0x4 DUP1 CALLDATASIZE SUB DUP2 ADD SWAP1 PUSH2 0x371 SWAP2 SWAP1 PUSH2 0xB69 JUMP JUMPDEST PUSH2 0xA75 JUMP JUMPDEST PUSH1 0x40 MLOAD PUSH2 0x383 SWAP2 SWAP1 PUSH2 0xE33 JUMP JUMPDEST PUSH1 0x40 MLOAD DUP1 SWAP2 SUB SWAP1 RETURN JUMPDEST CALLVALUE DUP1 ISZERO PUSH2 0x398 JUMPI PUSH1 0x0 DUP1 REVERT JUMPDEST POP PUSH2 0x3A1 PUSH2 0xAAA JUMP JUMPDEST PUSH1 0x40 MLOAD PUSH2 0x3AE SWAP2 SWAP1 PUSH2 0xD34 JUMP JUMPDEST PUSH1 0x40 MLOAD DUP1 SWAP2 SUB SWAP1 RETURN JUMPDEST PUSH1 0x8 SLOAD DUP2 JUMP JUMPDEST PUSH1 0x0 TIMESTAMP PUSH1 0x3 SLOAD GT ISZERO DUP1 ISZERO PUSH2 0x3D3 JUMPI POP PUSH1 0x4 SLOAD TIMESTAMP GT ISZERO JUMPDEST SWAP1 POP SWAP1 JUMP JUMPDEST PUSH1 0x5 SLOAD DUP2 JUMP JUMPDEST PUSH1 0x4 SLOAD DUP2 JUMP JUMPDEST PUSH1 0x7 SLOAD DUP2 JUMP JUMPDEST PUSH1 0x0 DUP1 PUSH1 0x2 SLOAD PUSH1 0xA PUSH2 0x3FC SWAP2 SWAP1 PUSH2 0xF39 JUMP JUMPDEST SWAP1 POP PUSH1 0x5 SLOAD DUP2 DUP5 PUSH2 0x40D SWAP2 SWAP1 PUSH2 0x1057 JUMP JUMPDEST PUSH2 0x417 SWAP2 SWAP1 PUSH2 0xEB5 JUMP JUMPDEST SWAP2 POP POP SWAP2 SWAP1 POP JUMP JUMPDEST PUSH1 0x2 SLOAD DUP2 JUMP JUMPDEST PUSH2 0x42D PUSH2 0xAD0 JUMP JUMPDEST PUSH20 0xFFFFFFFFFFFFFFFFFFFFFFFFFFFFFFFFFFFFFFFF AND PUSH2 0x44B PUSH2 0x565 JUMP JUMPDEST PUSH20 0xFFFFFFFFFFFFFFFFFFFFFFFFFFFFFFFFFFFFFFFF AND EQ PUSH2 0x4A1 JUMPI PUSH1 0x40 MLOAD PUSH32 0x8C379A000000000000000000000000000000000000000000000000000000000 DUP2 MSTORE PUSH1 0x4 ADD PUSH2 0x498 SWAP1 PUSH2 0xDF3 JUMP JUMPDEST PUSH1 0x40 MLOAD DUP1 SWAP2 SUB SWAP1 REVERT JUMPDEST PUSH1 0x0 PUSH20 0xFFFFFFFFFFFFFFFFFFFFFFFFFFFFFFFFFFFFFFFF AND PUSH1 0x0 DUP1 SLOAD SWAP1 PUSH2 0x100 EXP SWAP1 DIV PUSH20 0xFFFFFFFFFFFFFFFFFFFFFFFFFFFFFFFFFFFFFFFF AND PUSH20 0xFFFFFFFFFFFFFFFFFFFFFFFFFFFFFFFFFFFFFFFF AND PUSH32 0x8BE0079C531659141344CD1FD0A4F28419497F9722A3DAAFE3B4186F6B6457E0 PUSH1 0x40 MLOAD PUSH1 0x40 MLOAD DUP1 SWAP2 SUB SWAP1 LOG3 PUSH1 0x0 DUP1 PUSH1 0x0 PUSH2 0x100 EXP DUP2 SLOAD DUP2 PUSH20 0xFFFFFFFFFFFFFFFFFFFFFFFFFFFFFFFFFFFFFFFF MUL NOT AND SWAP1 DUP4 PUSH20 0xFFFFFFFFFFFFFFFFFFFFFFFFFFFFFFFFFFFFFFFF AND MUL OR SWAP1 SSTORE POP JUMP JUMPDEST PUSH1 0x3 SLOAD DUP2 JUMP JUMPDEST PUSH1 0x0 DUP1 PUSH1 0x0 SWAP1 SLOAD SWAP1 PUSH2 0x100 EXP SWAP1 DIV PUSH20 0xFFFFFFFFFFFFFFFFFFFFFFFFFFFFFFFFFFFFFFFF AND SWAP1 POP SWAP1 JUMP JUMPDEST PUSH2 0x596 PUSH2 0xAD0 JUMP JUMPDEST PUSH20 0xFFFFFFFFFFFFFFFFFFFFFFFFFFFFFFFFFFFFFFFF AND PUSH2 0x5B4 PUSH2 0x565 JUMP JUMPDEST PUSH20 0xFFFFFFFFFFFFFFFFFFFFFFFFFFFFFFFFFFFFFFFF AND EQ PUSH2 0x60A JUMPI PUSH1 0x40 MLOAD PUSH32 0x8C379A000000000000000000000000000000000000000000000000000000000 DUP2 MSTORE PUSH1 0x4 ADD PUSH2 0x601 SWAP1 PUSH2 0xDF3 JUMP JUMPDEST PUSH1 0x40 MLOAD DUP1 SWAP2 SUB SWAP1 REVERT JUMPDEST PUSH1 0x0 PUSH2 0x614 PUSH2 0xAD0 JUMP JUMPDEST SWAP1 POP PUSH1 0x0 SELFBALANCE SWAP1 POP DUP2 PUSH20 0xFFFFFFFFFFFFFFFFFFFFFFFFFFFFFFFFFFFFFFFF AND PUSH2 0x8FC DUP3 SWAP1 DUP2 ISZERO MUL SWAP1 PUSH1 0x40 MLOAD PUSH1 0x0 PUSH1 0x40 MLOAD DUP1 DUP4 SUB DUP2 DUP6 DUP9 DUP9 CALL SWAP4 POP POP POP POP ISZERO DUP1 ISZERO PUSH2 0x661 JUMPI RETURNDATASIZE PUSH1 0x0 DUP1 RETURNDATACOPY RETURNDATASIZE PUSH1 0x0 REVERT JUMPDEST POP POP POP JUMP JUMPDEST PUSH1 0x0 PUSH1 0x6 SLOAD PUSH1 0x8 SLOAD PUSH2 0x678 SWAP2 SWAP1 PUSH2 0x10B1 JUMP JUMPDEST SWAP1 POP SWAP1 JUMP JUMPDEST PUSH1 0x0 PUSH2 0x687 PUSH2 0xAD0 JUMP JUMPDEST SWAP1 POP PUSH1 0x0 CALLVALUE SWAP1 POP PUSH2 0x696 PUSH2 0x3BD JUMP JUMPDEST PUSH2 0x6D5 JUMPI PUSH1 0x40 MLOAD PUSH32 0x8C379A000000000000000000000000000000000000000000000000000000000 DUP2 MSTORE PUSH1 0x4 ADD PUSH2 0x6CC SWAP1 PUSH2 0xDB3 JUMP JUMPDEST PUSH1 0x40 MLOAD DUP1 SWAP2 SUB SWAP1 REVERT JUMPDEST PUSH1 0x0 DUP2 GT PUSH2 0x718 JUMPI PUSH1 0x40 MLOAD PUSH32 0x8C379A000000000000000000000000000000000000000000000000000000000 DUP2 MSTORE PUSH1 0x4 ADD PUSH2 0x70F SWAP1 PUSH2 0xDD3 JUMP JUMPDEST PUSH1 0x40 MLOAD DUP1 SWAP2 SUB SWAP1 REVERT JUMPDEST PUSH1 0x0 PUSH2 0x723 DUP3 PUSH2 0x3EA JUMP JUMPDEST SWAP1 POP PUSH1 0x0 PUSH2 0x72F PUSH2 0x666 JUMP JUMPDEST SWAP1 POP DUP1 DUP3 GT ISZERO PUSH2 0x79D JUMPI DUP1 SWAP2 POP PUSH1 0x0 PUSH2 0x747 DUP3 PUSH2 0xA75 JUMP JUMPDEST DUP5 PUSH2 0x752 SWAP2 SWAP1 PUSH2 0x10B1 JUMP JUMPDEST SWAP1 POP DUP5 PUSH20 0xFFFFFFFFFFFFFFFFFFFFFFFFFFFFFFFFFFFFFFFF AND PUSH2 0x8FC DUP3 SWAP1 DUP2 ISZERO MUL SWAP1 PUSH1 0x40 MLOAD PUSH1 0x0 PUSH1 0x40 MLOAD DUP1 DUP4 SUB DUP2 DUP6 DUP9 DUP9 CALL SWAP4 POP POP POP POP ISZERO DUP1 ISZERO PUSH2 0x79A JUMPI RETURNDATASIZE PUSH1 0x0 DUP1 RETURNDATACOPY RETURNDATASIZE PUSH1 0x0 REVERT JUMPDEST POP POP JUMPDEST PUSH1 0x0 DUP3 GT PUSH2 0x7E0 JUMPI PUSH1 0x40 MLOAD PUSH32 0x8C379A000000000000000000000000000000000000000000000000000000000 DUP2 MSTORE PUSH1 0x4 ADD PUSH2 0x7D7 SWAP1 PUSH2 0xE13 JUMP JUMPDEST PUSH1 0x40 MLOAD DUP1 SWAP2 SUB SWAP1 REVERT JUMPDEST PUSH1 0x1 PUSH1 0x0 SWAP1 SLOAD SWAP1 PUSH2 0x100 EXP SWAP1 DIV PUSH20 0xFFFFFFFFFFFFFFFFFFFFFFFFFFFFFFFFFFFFFFFF AND PUSH20 0xFFFFFFFFFFFFFFFFFFFFFFFFFFFFFFFFFFFFFFFF AND PUSH4 0xA9059CBB DUP6 DUP5 PUSH1 0x40 MLOAD DUP4 PUSH4 0xFFFFFFFF AND PUSH1 0xE0 SHL DUP2 MSTORE PUSH1 0x4 ADD PUSH2 0x83D SWAP3 SWAP2 SWAP1 PUSH2 0xD4F JUMP JUMPDEST PUSH1 0x20 PUSH1 0x40 MLOAD DUP1 DUP4 SUB DUP2 PUSH1 0x0 DUP8 DUP1 EXTCODESIZE ISZERO DUP1 ISZERO PUSH2 0x857 JUMPI PUSH1 0x0 DUP1 REVERT JUMPDEST POP GAS CALL ISZERO DUP1 ISZERO PUSH2 0x86B JUMPI RETURNDATASIZE PUSH1 0x0 DUP1 RETURNDATACOPY RETURNDATASIZE PUSH1 0x0 REVERT JUMPDEST POP POP POP POP PUSH1 0x40 MLOAD RETURNDATASIZE PUSH1 0x1F NOT PUSH1 0x1F DUP3 ADD AND DUP3 ADD DUP1 PUSH1 0x40 MSTORE POP DUP2 ADD SWAP1 PUSH2 0x88F SWAP2 SWAP1 PUSH2 0xB40 JUMP JUMPDEST POP DUP2 PUSH1 0x6 SLOAD PUSH2 0x89E SWAP2 SWAP1 PUSH2 0xE5F JUMP JUMPDEST PUSH1 0x6 DUP2 SWAP1 SSTORE POP PUSH2 0x8AD DUP3 PUSH2 0xA75 JUMP JUMPDEST PUSH1 0x7 SLOAD PUSH2 0x8BA SWAP2 SWAP1 PUSH2 0xE5F JUMP JUMPDEST PUSH1 0x7 DUP2 SWAP1 SSTORE POP POP POP POP POP JUMP JUMPDEST PUSH2 0x8CE PUSH2 0xAD0 JUMP JUMPDEST PUSH20 0xFFFFFFFFFFFFFFFFFFFFFFFFFFFFFFFFFFFFFFFF AND PUSH2 0x8EC PUSH2 0x565 JUMP JUMPDEST PUSH20 0xFFFFFFFFFFFFFFFFFFFFFFFFFFFFFFFFFFFFFFFF AND EQ PUSH2 0x942 JUMPI PUSH1 0x40 MLOAD PUSH32 0x8C379A000000000000000000000000000000000000000000000000000000000 DUP2 MSTORE PUSH1 0x4 ADD PUSH2 0x939 SWAP1 PUSH2 0xDF3 JUMP JUMPDEST PUSH1 0x40 MLOAD DUP1 SWAP2 SUB SWAP1 REVERT JUMPDEST PUSH1 0x0 PUSH20 0xFFFFFFFFFFFFFFFFFFFFFFFFFFFFFFFFFFFFFFFF AND DUP2 PUSH20 0xFFFFFFFFFFFFFFFFFFFFFFFFFFFFFFFFFFFFFFFF AND EQ ISZERO PUSH2 0x9B2 JUMPI PUSH1 0x40 MLOAD PUSH32 0x8C379A000000000000000000000000000000000000000000000000000000000 DUP2 MSTORE PUSH1 0x4 ADD PUSH2 0x9A9 SWAP1 PUSH2 0xD93 JUMP JUMPDEST PUSH1 0x40 MLOAD DUP1 SWAP2 SUB SWAP1 REVERT JUMPDEST DUP1 PUSH20 0xFFFFFFFFFFFFFFFFFFFFFFFFFFFFFFFFFFFFFFFF AND PUSH1 0x0 DUP1 SLOAD SWAP1 PUSH2 0x100 EXP SWAP1 DIV PUSH20 0xFFFFFFFFFFFFFFFFFFFFFFFFFFFFFFFFFFFFFFFF AND PUSH20 0xFFFFFFFFFFFFFFFFFFFFFFFFFFFFFFFFFFFFFFFF AND PUSH32 0x8BE0079C531659141344CD1FD0A4F28419497F9722A3DAAFE3B4186F6B6457E0 PUSH1 0x40 MLOAD PUSH1 0x40 MLOAD DUP1 SWAP2 SUB SWAP1 LOG3 DUP1 PUSH1 0x0 DUP1 PUSH2 0x100 EXP DUP2 SLOAD DUP2 PUSH20 0xFFFFFFFFFFFFFFFFFFFFFFFFFFFFFFFFFFFFFFFF MUL NOT AND SWAP1 DUP4 PUSH20 0xFFFFFFFFFFFFFFFFFFFFFFFFFFFFFFFFFFFFFFFF AND MUL OR SWAP1 SSTORE POP POP JUMP JUMPDEST PUSH1 0x6 SLOAD DUP2 JUMP JUMPDEST PUSH1 0x0 DUP1 PUSH1 0x2 SLOAD PUSH1 0xA PUSH2 0xA87 SWAP2 SWAP1 PUSH2 0xF39 JUMP JUMPDEST SWAP1 POP DUP1 PUSH1 0x5 SLOAD DUP5 PUSH2 0xA98 SWAP2 SWAP1 PUSH2 0x1057 JUMP JUMPDEST PUSH2 0xAA2 SWAP2 SWAP1 PUSH2 0xEB5 JUMP JUMPDEST SWAP2 POP POP SWAP2 SWAP1 POP JUMP JUMPDEST PUSH1 0x1 PUSH1 0x0 SWAP1 SLOAD SWAP1 PUSH2 0x100 EXP SWAP1 DIV PUSH20 0xFFFFFFFFFFFFFFFFFFFFFFFFFFFFFFFFFFFFFFFF AND DUP2 JUMP JUMPDEST PUSH1 0x0 CALLER SWAP1 POP SWAP1 JUMP JUMPDEST PUSH1 0x0 DUP2 CALLDATALOAD SWAP1 POP PUSH2 0xAE7 DUP2 PUSH2 0x11CE JUMP JUMPDEST SWAP3 SWAP2 POP POP JUMP JUMPDEST PUSH1 0x0 DUP2 MLOAD SWAP1 POP PUSH2 0xAFC DUP2 PUSH2 0x11E5 JUMP JUMPDEST SWAP3 SWAP2 POP POP JUMP JUMPDEST PUSH1 0x0 DUP2 CALLDATALOAD SWAP1 POP PUSH2 0xB11 DUP2 PUSH2 0x11FC JUMP JUMPDEST SWAP3 SWAP2 POP POP JUMP JUMPDEST PUSH1 0x0 PUSH1 0x20 DUP3 DUP5 SUB SLT ISZERO PUSH2 0xB29 JUMPI PUSH1 0x0 DUP1 REVERT JUMPDEST PUSH1 0x0 PUSH2 0xB37 DUP5 DUP3 DUP6 ADD PUSH2 0xAD8 JUMP JUMPDEST SWAP2 POP POP SWAP3 SWAP2 POP POP JUMP JUMPDEST PUSH1 0x0 PUSH1 0x20 DUP3 DUP5 SUB SLT ISZERO PUSH2 0xB52 JUMPI PUSH1 0x0 DUP1 REVERT JUMPDEST PUSH1 0x0 PUSH2 0xB60 DUP5 DUP3 DUP6 ADD PUSH2 0xAED JUMP JUMPDEST SWAP2 POP POP SWAP3 SWAP2 POP POP JUMP JUMPDEST PUSH1 0x0 PUSH1 0x20 DUP3 DUP5 SUB SLT ISZERO PUSH2 0xB7B JUMPI PUSH1 0x0 DUP1 REVERT JUMPDEST PUSH1 0x0 PUSH2 0xB89 DUP5 DUP3 DUP6 ADD PUSH2 0xB02 JUMP JUMPDEST SWAP2 POP POP SWAP3 SWAP2 POP POP JUMP JUMPDEST PUSH2 0xB9B DUP2 PUSH2 0x112D JUMP JUMPDEST DUP3 MSTORE POP POP JUMP JUMPDEST PUSH2 0xBAA DUP2 PUSH2 0x10E5 JUMP JUMPDEST DUP3 MSTORE POP POP JUMP JUMPDEST PUSH2 0xBB9 DUP2 PUSH2 0x10F7 JUMP JUMPDEST DUP3 MSTORE POP POP JUMP JUMPDEST PUSH1 0x0 PUSH2 0xBCC PUSH1 0x26 DUP4 PUSH2 0xE4E JUMP JUMPDEST SWAP2 POP PUSH32 0x4F776E61626C653A206E6577206F776E657220697320746865207A65726F2061 PUSH1 0x0 DUP4 ADD MSTORE PUSH32 0x6464726573730000000000000000000000000000000000000000000000000000 PUSH1 0x20 DUP4 ADD MSTORE PUSH1 0x40 DUP3 ADD SWAP1 POP SWAP2 SWAP1 POP JUMP JUMPDEST PUSH1 0x0 PUSH2 0xC32 PUSH1 0x12 DUP4 PUSH2 0xE4E JUMP JUMPDEST SWAP2 POP PUSH32 0x53616C65206973206E6F74206163746976650000000000000000000000000000 PUSH1 0x0 DUP4 ADD MSTORE PUSH1 0x20 DUP3 ADD SWAP1 POP SWAP2 SWAP1 POP JUMP JUMPDEST PUSH1 0x0 PUSH2 0xC72 PUSH1 0x17 DUP4 PUSH2 0xE4E JUMP JUMPDEST SWAP2 POP PUSH32 0x416363657074656420616D6F756E74206973207A65726F000000000000000000 PUSH1 0x0 DUP4 ADD MSTORE PUSH1 0x20 DUP3 ADD SWAP1 POP SWAP2 SWAP1 POP JUMP JUMPDEST PUSH1 0x0 PUSH2 0xCB2 PUSH1 0x20 DUP4 PUSH2 0xE4E JUMP JUMPDEST SWAP2 POP PUSH32 0x4F776E61626C653A2063616C6C6572206973206E6F7420746865206F776E6572 PUSH1 0x0 DUP4 ADD MSTORE PUSH1 0x20 DUP3 ADD SWAP1 POP SWAP2 SWAP1 POP JUMP JUMPDEST PUSH1 0x0 PUSH2 0xCF2 PUSH1 0x14 DUP4 PUSH2 0xE4E JUMP JUMPDEST SWAP2 POP PUSH32 0x5A65726F20726577617264656420616D6F756E74000000000000000000000000 PUSH1 0x0 DUP4 ADD MSTORE PUSH1 0x20 DUP3 ADD SWAP1 POP SWAP2 SWAP1 POP JUMP JUMPDEST PUSH2 0xD2E DUP2 PUSH2 0x1123 JUMP JUMPDEST DUP3 MSTORE POP POP JUMP JUMPDEST PUSH1 0x0 PUSH1 0x20 DUP3 ADD SWAP1 POP PUSH2 0xD49 PUSH1 0x0 DUP4 ADD DUP5 PUSH2 0xBA1 JUMP JUMPDEST SWAP3 SWAP2 POP POP JUMP JUMPDEST PUSH1 0x0 PUSH1 0x40 DUP3 ADD SWAP1 POP PUSH2 0xD64 PUSH1 0x0 DUP4 ADD DUP6 PUSH2 0xB92 JUMP JUMPDEST PUSH2 0xD71 PUSH1 0x20 DUP4 ADD DUP5 PUSH2 0xD25 JUMP JUMPDEST SWAP4 SWAP3 POP POP POP JUMP JUMPDEST PUSH1 0x0 PUSH1 0x20 DUP3 ADD SWAP1 POP PUSH2 0xD8D PUSH1 0x0 DUP4 ADD DUP5 PUSH2 0xBB0 JUMP JUMPDEST SWAP3 SWAP2 POP POP JUMP JUMPDEST PUSH1 0x0 PUSH1 0x20 DUP3 ADD SWAP1 POP DUP2 DUP2 SUB PUSH1 0x0 DUP4 ADD MSTORE PUSH2 0xDAC DUP2 PUSH2 0xBBF JUMP JUMPDEST SWAP1 POP SWAP2 SWAP1 POP JUMP JUMPDEST PUSH1 0x0 PUSH1 0x20 DUP3 ADD SWAP1 POP DUP2 DUP2 SUB PUSH1 0x0 DUP4 ADD MSTORE PUSH2 0xDCC DUP2 PUSH2 0xC25 JUMP JUMPDEST SWAP1 POP SWAP2 SWAP1 POP JUMP JUMPDEST PUSH1 0x0 PUSH1 0x20 DUP3 ADD SWAP1 POP DUP2 DUP2 SUB PUSH1 0x0 DUP4 ADD MSTORE PUSH2 0xDEC DUP2 PUSH2 0xC65 JUMP JUMPDEST SWAP1 POP SWAP2 SWAP1 POP JUMP JUMPDEST PUSH1 0x0 PUSH1 0x20 DUP3 ADD SWAP1 POP DUP2 DUP2 SUB PUSH1 0x0 DUP4 ADD MSTORE PUSH2 0xE0C DUP2 PUSH2 0xCA5 JUMP JUMPDEST SWAP1 POP SWAP2 SWAP1 POP JUMP JUMPDEST PUSH1 0x0 PUSH1 0x20 DUP3 ADD SWAP1 POP DUP2 DUP2 SUB PUSH1 0x0 DUP4 ADD MSTORE PUSH2 0xE2C DUP2 PUSH2 0xCE5 JUMP JUMPDEST SWAP1 POP SWAP2 SWAP1 POP JUMP JUMPDEST PUSH1 0x0 PUSH1 0x20 DUP3 ADD SWAP1 POP PUSH2 0xE48 PUSH1 0x0 DUP4 ADD DUP5 PUSH2 0xD25 JUMP JUMPDEST SWAP3 SWAP2 POP POP JUMP JUMPDEST PUSH1 0x0 DUP3 DUP3 MSTORE PUSH1 0x20 DUP3 ADD SWAP1 POP SWAP3 SWAP2 POP POP JUMP JUMPDEST PUSH1 0x0 PUSH2 0xE6A DUP3 PUSH2 0x1123 JUMP JUMPDEST SWAP2 POP PUSH2 0xE75 DUP4 PUSH2 0x1123 JUMP JUMPDEST SWAP3 POP DUP3 PUSH32 0xFFFFFFFFFFFFFFFFFFFFFFFFFFFFFFFFFFFFFFFFFFFFFFFFFFFFFFFFFFFFFFFF SUB DUP3 GT ISZERO PUSH2 0xEAA JUMPI PUSH2 0xEA9 PUSH2 0x1163 JUMP JUMPDEST JUMPDEST DUP3 DUP3 ADD SWAP1 POP SWAP3 SWAP2 POP POP JUMP JUMPDEST PUSH1 0x0 PUSH2 0xEC0 DUP3 PUSH2 0x1123 JUMP JUMPDEST SWAP2 POP PUSH2 0xECB DUP4 PUSH2 0x1123 JUMP JUMPDEST SWAP3 POP DUP3 PUSH2 0xEDB JUMPI PUSH2 0xEDA PUSH2 0x1192 JUMP JUMPDEST JUMPDEST DUP3 DUP3 DIV SWAP1 POP SWAP3 SWAP2 POP POP JUMP JUMPDEST PUSH1 0x0 DUP1 DUP3 SWAP2 POP DUP4 SWAP1 POP JUMPDEST PUSH1 0x1 DUP6 GT ISZERO PUSH2 0xF30 JUMPI DUP1 DUP7 DIV DUP2 GT ISZERO PUSH2 0xF0C JUMPI PUSH2 0xF0B PUSH2 0x1163 JUMP JUMPDEST JUMPDEST PUSH1 0x1 DUP6 AND ISZERO PUSH2 0xF1B JUMPI DUP1 DUP3 MUL SWAP2 POP JUMPDEST DUP1 DUP2 MUL SWAP1 POP PUSH2 0xF29 DUP6 PUSH2 0x11C1 JUMP JUMPDEST SWAP5 POP PUSH2 0xEF0 JUMP JUMPDEST SWAP5 POP SWAP5 SWAP3 POP POP POP JUMP JUMPDEST PUSH1 0x0 PUSH2 0xF44 DUP3 PUSH2 0x1123 JUMP JUMPDEST SWAP2 POP PUSH2 0xF4F DUP4 PUSH2 0x1123 JUMP JUMPDEST SWAP3 POP PUSH2 0xF7C PUSH32 0xFFFFFFFFFFFFFFFFFFFFFFFFFFFFFFFFFFFFFFFFFFFFFFFFFFFFFFFFFFFFFFFF DUP5 DUP5 PUSH2 0xF84 JUMP JUMPDEST SWAP1 POP SWAP3 SWAP2 POP POP JUMP JUMPDEST PUSH1 0x0 DUP3 PUSH2 0xF94 JUMPI PUSH1 0x1 SWAP1 POP PUSH2 0x1050 JUMP JUMPDEST DUP2 PUSH2 0xFA2 JUMPI PUSH1 0x0 SWAP1 POP PUSH2 0x1050 JUMP JUMPDEST DUP2 PUSH1 0x1 DUP2 EQ PUSH2 0xFB8 JUMPI PUSH1 0x2 DUP2 EQ PUSH2 0xFC2 JUMPI PUSH2 0xFF1 JUMP JUMPDEST PUSH1 0x1 SWAP2 POP POP PUSH2 0x1050 JUMP JUMPDEST PUSH1 0xFF DUP5 GT ISZERO PUSH2 0xFD4 JUMPI PUSH2 0xFD3 PUSH2 0x1163 JUMP JUMPDEST JUMPDEST DUP4 PUSH1 0x2 EXP SWAP2 POP DUP5 DUP3 GT ISZERO PUSH2 0xFEB JUMPI PUSH2 0xFEA PUSH2 0x1163 JUMP JUMPDEST JUMPDEST POP PUSH2 0x1050 JUMP JUMPDEST POP PUSH1 0x20 DUP4 LT PUSH2 0x133 DUP4 LT AND PUSH1 0x4E DUP5 LT PUSH1 0xB DUP5 LT AND OR ISZERO PUSH2 0x1026 JUMPI DUP3 DUP3 EXP SWAP1 POP DUP4 DUP2 GT ISZERO PUSH2 0x1021 JUMPI PUSH2 0x1020 PUSH2 0x1163 JUMP JUMPDEST JUMPDEST PUSH2 0x1050 JUMP JUMPDEST PUSH2 0x1033 DUP5 DUP5 DUP5 PUSH1 0x1 PUSH2 0xEE6 JUMP JUMPDEST SWAP3 POP SWAP1 POP DUP2 DUP5 DIV DUP2 GT ISZERO PUSH2 0x104A JUMPI PUSH2 0x1049 PUSH2 0x1163 JUMP JUMPDEST JUMPDEST DUP2 DUP2 MUL SWAP1 POP JUMPDEST SWAP4 SWAP3 POP POP POP JUMP JUMPDEST PUSH1 0x0 PUSH2 0x1062 DUP3 PUSH2 0x1123 JUMP JUMPDEST SWAP2 POP PUSH2 0x106D DUP4 PUSH2 0x1123 JUMP JUMPDEST SWAP3 POP DUP2 PUSH32 0xFFFFFFFFFFFFFFFFFFFFFFFFFFFFFFFFFFFFFFFFFFFFFFFFFFFFFFFFFFFFFFFF DIV DUP4 GT DUP3 ISZERO ISZERO AND ISZERO PUSH2 0x10A6 JUMPI PUSH2 0x10A5 PUSH2 0x1163 JUMP JUMPDEST JUMPDEST DUP3 DUP3 MUL SWAP1 POP SWAP3 SWAP2 POP POP JUMP JUMPDEST PUSH1 0x0 PUSH2 0x10BC DUP3 PUSH2 0x1123 JUMP JUMPDEST SWAP2 POP PUSH2 0x10C7 DUP4 PUSH2 0x1123 JUMP JUMPDEST SWAP3 POP DUP3 DUP3 LT ISZERO PUSH2 0x10DA JUMPI PUSH2 0x10D9 PUSH2 0x1163 JUMP JUMPDEST JUMPDEST DUP3 DUP3 SUB SWAP1 POP SWAP3 SWAP2 POP POP JUMP JUMPDEST PUSH1 0x0 PUSH2 0x10F0 DUP3 PUSH2 0x1103 JUMP JUMPDEST SWAP1 POP SWAP2 SWAP1 POP JUMP JUMPDEST PUSH1 0x0 DUP2 ISZERO ISZERO SWAP1 POP SWAP2 SWAP1 POP JUMP JUMPDEST PUSH1 0x0 PUSH20 0xFFFFFFFFFFFFFFFFFFFFFFFFFFFFFFFFFFFFFFFF DUP3 AND SWAP1 POP SWAP2 SWAP1 POP JUMP JUMPDEST PUSH1 0x0 DUP2 SWAP1 POP SWAP2 SWAP1 POP JUMP JUMPDEST PUSH1 0x0 PUSH2 0x1138 DUP3 PUSH2 0x113F JUMP JUMPDEST SWAP1 POP SWAP2 SWAP1 POP JUMP JUMPDEST PUSH1 0x0 PUSH2 0x114A DUP3 PUSH2 0x1151 JUMP JUMPDEST SWAP1 POP SWAP2 SWAP1 POP JUMP JUMPDEST PUSH1 0x0 PUSH2 0x115C DUP3 PUSH2 0x1103 JUMP JUMPDEST SWAP1 POP SWAP2 SWAP1 POP JUMP JUMPDEST PUSH32 0x4E487B7100000000000000000000000000000000000000000000000000000000 PUSH1 0x0 MSTORE PUSH1 0x11 PUSH1 0x4 MSTORE PUSH1 0x24 PUSH1 0x0 REVERT JUMPDEST PUSH32 0x4E487B7100000000000000000000000000000000000000000000000000000000 PUSH1 0x0 MSTORE PUSH1 0x12 PUSH1 0x4 MSTORE PUSH1 0x24 PUSH1 0x0 REVERT JUMPDEST PUSH1 0x0 DUP2 PUSH1 0x1 SHR SWAP1 POP SWAP2 SWAP1 POP JUMP JUMPDEST PUSH2 0x11D7 DUP2 PUSH2 0x10E5 JUMP JUMPDEST DUP2 EQ PUSH2 0x11E2 JUMPI PUSH1 0x0 DUP1 REVERT JUMPDEST POP JUMP JUMPDEST PUSH2 0x11EE DUP2 PUSH2 0x10F7 JUMP JUMPDEST DUP2 EQ PUSH2 0x11F9 JUMPI PUSH1 0x0 DUP1 REVERT JUMPDEST POP JUMP JUMPDEST PUSH2 0x1205 DUP2 PUSH2 0x1123 JUMP JUMPDEST DUP2 EQ PUSH2 0x1210 JUMPI PUSH1 0x0 DUP1 REVERT JUMPDEST POP JUMP INVALID LOG2 PUSH5 0x6970667358 0x22 SLT KECCAK256 0x2D 0xCB 0xA5 PUSH32 0xEED67971FDF6CC658FF0692F1B4A7EC82588CA6163BA5E2C6DF863DD64736F6C PUSH4 0x43000800 STOP CALLER "
				},
				"gasEstimates": {
					"creation": {
						"codeDepositCost": "936200",
						"executionCost": "infinite",
						"totalCost": "infinite"
					},
					"external": {
						"buyTokens()": "infinite",
						"calculateAmount(uint256)": "infinite",
						"endTime()": "1219",
						"getRemainingReward()": "infinite",
						"getTokenInETH(uint256)": "infinite",
						"isActive()": "2030",
						"owner()": "1267",
						"renounceOwnership()": "24418",
						"soldAmount()": "1195",
						"startTime()": "1152",
						"token()": "1324",
						"tokenDecimal()": "1196",
						"tokenRate()": "1197",
						"totalRaise()": "1152",
						"totalRewardTokens()": "1153",
						"transferOwnership(address)": "24722",
						"withdrawETHBalance()": "infinite"
					}
				},
				"methodIdentifiers": {
					"buyTokens()": "d0febe4c",
					"calculateAmount(uint256)": "48dc5893",
					"endTime()": "3197cbb6",
					"getRemainingReward()": "c0b5fca0",
					"getTokenInETH(uint256)": "fa300f75",
					"isActive()": "22f3e2d4",
					"owner()": "8da5cb5b",
					"renounceOwnership()": "715018a6",
					"soldAmount()": "fa1a5f59",
					"startTime()": "78e97925",
					"token()": "fc0c546a",
					"tokenDecimal()": "5caed029",
					"tokenRate()": "31711884",
					"totalRaise()": "3996dc8f",
					"totalRewardTokens()": "1b0875a6",
					"transferOwnership(address)": "f2fde38b",
					"withdrawETHBalance()": "b3b9bcdf"
				}
			},
			"storageLayout": {
				"storage": [
					{
						"astId": 4,
						"contract": "IDO.sol:IDO",
						"label": "_owner",
						"offset": 0,
						"slot": "0",
						"type": "t_address"
					},
					{
						"astId": 216,
						"contract": "IDO.sol:IDO",
						"label": "token",
						"offset": 0,
						"slot": "1",
						"type": "t_address"
					},
					{
						"astId": 218,
						"contract": "IDO.sol:IDO",
						"label": "tokenDecimal",
						"offset": 0,
						"slot": "2",
						"type": "t_uint256"
					},
					{
						"astId": 220,
						"contract": "IDO.sol:IDO",
						"label": "startTime",
						"offset": 0,
						"slot": "3",
						"type": "t_uint256"
					},
					{
						"astId": 222,
						"contract": "IDO.sol:IDO",
						"label": "endTime",
						"offset": 0,
						"slot": "4",
						"type": "t_uint256"
					},
					{
						"astId": 224,
						"contract": "IDO.sol:IDO",
						"label": "tokenRate",
						"offset": 0,
						"slot": "5",
						"type": "t_uint256"
					},
					{
						"astId": 226,
						"contract": "IDO.sol:IDO",
						"label": "soldAmount",
						"offset": 0,
						"slot": "6",
						"type": "t_uint256"
					},
					{
						"astId": 228,
						"contract": "IDO.sol:IDO",
						"label": "totalRaise",
						"offset": 0,
						"slot": "7",
						"type": "t_uint256"
					},
					{
						"astId": 230,
						"contract": "IDO.sol:IDO",
						"label": "totalRewardTokens",
						"offset": 0,
						"slot": "8",
						"type": "t_uint256"
					}
				],
				"types": {
					"t_address": {
						"encoding": "inplace",
						"label": "address",
						"numberOfBytes": "20"
					},
					"t_uint256": {
						"encoding": "inplace",
						"label": "uint256",
						"numberOfBytes": "32"
					}
				}
			},
			"userdoc": {
				"kind": "user",
				"methods": {},
				"version": 1
			}
		}
	}
}